:100000000C94F9020C942A030C942A030C942A03EE
:100010000C942A030C942A030C942A030C942A03AC
:100020000C942A030C946D1F0C946D1F0C946D1F7F
:100030000C942A030C94422E0C942A030C942A0349
:100040000C942A030C94342D0C942A030C942A0348
:100050000C942A030C942A030C942A030C94F82D74
:100060000C942A030C94DC0F0C94B20F0C942A030A
:100070000C942A030C942A030C942A030C942A034C
:100080000C94062D0C942A030C942A030C942A0336
:100090000C942A030C942A030C942A030C94502BDE
:1000A0000C942A030C942A030C94D82C0C942A0345
:1000B0000C942A030C942A030C942A030C94AA2C63
:1000C0000C942A030C942A030C942A030C942A03FC
:1000D0000C942A030C942A030C942A030C942A03EC
:1000E0000C942A035C0E5F0E620E650E680E6B0E9A
:1000F0006E0E4F1A521A411A451A491A891A561A7F
:100100005A1A601A641A681A6E1A721A761A891ABA
:100110007C1A801A841A021B071B0C1B161B201B3F
:10012000991B2A1B321B3A1B441B4E1B581B671B77
:10013000711B991B7B1B851B8F1B9326AC26A4264A
:10014000A826AC26AC26AC26AC26EA251426142517
:10015000AC263A267826AC266624084AD73B3BCE06
:10016000016E84BCBFFDC12F3D6C74319ABD5683B6
:100170003DDA3D00C77F11BED9E4BB4C3E916BAA6E
:10018000AABE000000803F072C7AA5BA6CC590DAA1
:100190003B9365FC8BBC53F810FD3C5692834DBDE0
:1001A000879D3AB63DCBC9BF5BBE73DA0FC93F0529
:1001B000A84CCDB2D44EB93836A9020C50B99186AC
:1001C00088083CA6AAAA2ABE000000803F080000BA
:1001D00000BE922449123EABAAAA2ABECDCCCC4C7A
:1001E0003E00000080BEABAAAAAA3E00000000BFED
:1001F000000000803F0000000000084178D3BB43AE
:1002000087D1133D190E3CC3BD4282AD2B3E68EC35
:100210008276BED98FE1A93E4C80EFFFBE01C4FFBC
:100220007F3F000000000007634236B79BD8A71A43
:1002300039685618AEBAAB558C1D3CB7CC5763BD68
:100240006DEDFD753EF6177231BF000000803F0076
:100250000C9402380C94841A0C9418390C94D51C04
:100260000C94641A0C948E0E0C947B1B0C949326A5
:100270000C94650E0C946E1A0C94601A0C94EA257A
:100280000C94201B0C944E1B0C94A8260C94451A1D
:100290000C943A1B0C94F91C0C940C1B0C94581BDA
:1002A0000C94161B0C946E0E0C944C140C94021BA4
:1002B0000C94891A0C94671B0C94521A0C941C1CF5
:1002C0000C94391F0C946B0E0C945C0E0C94681AF1
:1002D0000C94761A0C9478260C947A0E0C94D30E07
:1002E0000C945A1A0C944F1A0C94DD1C0C94A91CF3
:1002F0000C9414260C94411A0C94801A0C94321B02
:100300000C94CC1B0C94A4260C942A1B0C949C0ECD
:100310000C941B1C0C94AC260C94711B0C94872D14
:100320000C94620E0C94851B0C94AA1C0C94B91CA2
:100330000C94291D0C94721A0C941A0F0C94CD1C59
:100340000C94701C0C94881C0C943A260C94142564
:100350000C94441B0C94561A0C94031C0C94431FCD
:100360000C94491A0C945F0E0C94071B0C94662491
:100370000C94991B0C94750F0C94ED1B0C94680E47
:100380000C947C1A0C948F1B4E414E494E49545983
:10039000494E46CDCCCC3D0AD7233C17B7D1387750
:1003A000CC2B329595E6241FB14F0A000020410066
:1003B00000C84200401C4620BCBE4CCA1B0E5AAEB0
:1003C000C59D7400407A10F35A00A0724E180900BF
:1003D00010A5D4E80000E87648170000E40B5402AA
:1003E0000000CA9A3B000000E1F5050000809698E5
:1003F00000000040420F000000A086010000001035
:100400002700000000E80300000000640000000076
:10041000000A00000000000100000000002C76D857
:1004200088DC674F0823DFC1DFAE59E1B1B796E53D
:10043000E3E453C63AE651997696E8E6C28426EBA1
:10044000898C9B62ED407C6FFCEFBC9C9F40F2BAB4
:10045000A56FA5F490055A2AF75C936B6CF9676D4C
:10046000C11BFCE0E40D47FEF520E6B500D0ED90A1
:100470002E0300943577050080841E080000204E6E
:100480000A000000C80C333333330F986E12831107
:1004900041EF8D2114893BE65516CFFEE6DB18D1DE
:1004A000844B381BF77C1D901DA4BBE424203284B0
:1004B000725E228100C9F124ECA1E53D277C3C3E1F
:1004C0005E2B3D3F2F5B5D3B2C2A225C0000002110
:1004D00000240027002A002D003000330001010015
:1004E00000040107010A0100000A0B02090C0D0EAD
:1004F00008070304010000000000000000000000E5
:1005000000000000000000000000000000000000EB
:1005100000000012111000000000000000000000A8
:1005200000000000000000000000000000000022A9
:1005300000250028002B002E0031003400020100AD
:1005400000050108010B01000020002300260029FE
:10055000002C002F003200000100000301060109F9
:100560000105050505070508080808020202020A38
:100570000A08080404040401010101010101010346
:1005800003030303030303040707070C0C0C0C0C01
:100590000C0C0C0202020206060606060606060BF4
:1005A0000B0B0B0B0B0B0B0102102020080810206B
:1005B00040102040800201020108040201010204EF
:1005C00008102040808040201008040201800402AE
:1005D0000180402010080402010804020101020405
:1005E00008102040800102040810204080020238D8
:1005F000183911241FBECFEFD1E2DEBFCDBF00E01E
:100600000CBF17E0A0E0B2E0E8E8FFE800E00BBFB5
:1006100002C007900D92A63BB107D9F72EE0A6EBDA
:10062000B7E001C01D92A237B207E1F712E0C8EFB0
:10063000D2E000E006C021970109802FFE010E9450
:100640001F43C73FD10780E00807A9F70E94323057
:100650000C94B2470C940000CF92DF92EF92FF927D
:100660000F931F93CF93DF93CDB7DEB76B970FB682
:10067000F894DEBF0FBECDBF7C0189E595E00E94F6
:100680001C170E94EC2DF701648B758B868B978B62
:100690000EE110E060E775E0CE0101960E94581768
:1006A000EA8DFB8D309709F457C08581882309F4C2
:1006B00053C04389548965897689CE0101960E9489
:1006C000EC1D69E077E0CE0101960E941E306CE7D8
:1006D00075E0CE0101960E94E82EF7014489558904
:1006E000668977892AE0CE0101960E94FD2E62E894
:1006F00075E0CE0101960E94E82EF701C08CD18CE6
:100700000D2C000CEE08FF08F7FE0EC06DE2CE01C6
:1007100001960E94E12E44275527BA014C195D0924
:100720006E097F092AE003C02AE0B701A601CE01C5
:1007300001960E94FD2E6BE875E0CE0101960E94A5
:10074000E82ECE0101960E94DA1D8EE895E00E9407
:100750001C1781E090E00AC00150110909F09ACFFE
:1007600088EA95E00E941C1780E090E06B960FB637
:10077000F894DEBF0FBECDBFDF91CF911F910F91D7
:10078000FF90EF90DF90CF900895CF93C62F91E028
:100790009093100B4093320B1092110B1092330B6D
:1007A000682F8DE19CE00E94291D6C2F8DE19CE05B
:1007B0000E94291D81E00E94941821E030E08823E6
:1007C00011F020E030E0C901CF910895CF93DF937D
:1007D000CDB7DEB728970FB6F894DEBF0FBECDBFFA
:1007E0004B836D838F83622F84E00E94201A6B817C
:1007F00085E00E94201A6D8187E00E94201A6F8197
:1008000086E028960FB6F894DEBF0FBECDBFDF910D
:10081000CF910C94201A4F925F926F927F928F9299
:100820009F92AF92BF92CF92DF92EF92FF920F937F
:100830001F93CF9320911D02213221F02F3F09F009
:100840007DC204C0EDEEF5E0C491E7C021E2209343
:100850001D02EDEEF5E0C491CF3F09F46FC2C23046
:1008600009F472C04CF5CC2309F451C0C13009F031
:10087000D4C01092800010928100209181002860E5
:100880002093810020918100216020938100E2E883
:10089000F5E0E491F0E0EE0FFF1FE35DFA4F2591E4
:1008A00034913093CA082093C908E8ECF5E0E4914C
:1008B000E093C808C1E0B3C0C43009F48BC00CF4A5
:1008C00066C0C53009F0A9C0109220011092210124
:1008D0002091210128602093210120912101216094
:1008E00020932101E2E8F5E0E491F0E0EE0FFF1F34
:1008F000E35DFA4F259134913093C1082093C008ED
:10090000E8ECF5E0E491E093BF08C5E088C014BCD2
:1009100015BC24B5226024BD25B5216025BDE2E8C3
:10092000F5E0E491F0E0EE0FFF1FE35DFA4F259153
:1009300034913093CD082093CC08E8ECF5E0E491B5
:10094000E093CB08C0E06BC01092B0001092B100F1
:100950002091B00022602093B0002091B10021606E
:100960002093B100E2E8F5E0E491F0E0EE0FFF1F24
:10097000E35DFA4F2591349130935B0E20935A0E2C
:10098000E8ECF5E0E491E0935C0EC2E048C0109220
:100990009000109291002091910028602093910086
:1009A00020919100216020939100E2E8F5E0E4912C
:1009B000F0E0EE0FFF1FE35DFA4F25913491309385
:1009C000C7082093C608E8ECF5E0E491E093C50879
:1009D000C3E025C01092A0001092A1002091A100B8
:1009E00028602093A1002091A10021602093A10004
:1009F000E2E8F5E0E491F0E0EE0FFF1FE35DFA4F6F
:100A0000259134913093C4082093C308E8ECF5E0B5
:100A1000E491E093C208C4E002C0C7FD8FC18C011D
:100A200061E081E20E949D1A4801A12CB12C8C2F1B
:100A30008D7F09F0B6C060E072E18AE790E0A50121
:100A400094010E94A43E29013A0169017A0121E042
:100A5000C21AD108E108F1088FEFC816D104E104E9
:100A6000F10409F008F44BC060E472E48FE090E018
:100A7000A50194010E94A43E69017A0181E0C81A8F
:100A8000D108E108F108C23001F52FEFC216D104F8
:100A9000E104F10409F008F4C0C160E970ED83E0FD
:100AA00090E0A50194010E94A43E69017A0181E0D1
:100AB000C81AD108E108F1082FEFC216D104E104E9
:100AC000F10409F0C0F593E065C08FEFC816D104BA
:100AD000E104F104B1F0A8F068E478EE81E090E080
:100AE000A50194010E94A43E69017A0181E0C81A1F
:100AF000D108E108F108CC2309F437C185C191E0A0
:100B000001C092E0CC2391F045C0D301C2012AE09C
:100B1000B595A795979587952A95D1F76C017D0195
:100B200021E0C21AD108E108F10895E085B5887F77
:100B3000982B95BD80C068E478EE81E090E0A50137
:100B400094010E94A43E69017A0181E0C81AD1088B
:100B5000E108F1082FEFC216D104E104F10409F015
:100B600008F401C164E274EF80E090E0A501940113
:100B70000E94A43E69017A0181E0C81AD108E10807
:100B8000F1082FEFC216D104E104F10411F008F0CE
:100B90000EC195E08091B100887F982B9093B100B1
:100BA0004AC060E072E18AE790E0A50194010E94EA
:100BB000A43E69017A0181E0C81AD108E108F10870
:100BC000C114D10421E0E206F10488F068E478EE73
:100BD00081E090E0A50194010E94A43E69017A01A0
:100BE00081E0C81AD108E108F10883E001C081E082
:100BF000C13039F490918100987F892B80938100D6
:100C00001AC0C33039F490919100987F892B80935A
:100C1000910011C0C43039F49091A100987F892BC4
:100C20008093A10008C0C53031F490912101987FD4
:100C3000892B809321019801220F331FACE2B1E090
:100C40000E94F03E28EE33E040E050E00E94CE3EAD
:100C5000C23009F440C0BCF4CC2371F1C13009F0BA
:100C60006DC0D0928900C09288002093DA0830933A
:100C7000DB084093DC085093DD0880916F008260B0
:100C800080936F005BC0C43009F447C0A4F1C53045
:100C900009F054C0D0922901C09228012093CE08B7
:100CA0003093CF084093D0085093D10880917300BF
:100CB00082608093730042C0C7BC2093DE083093EB
:100CC000DF084093E0085093E10880916E00826055
:100CD00080936E0033C0C092B30020935D0E3093BA
:100CE0005E0E40935F0E5093600E809170008260A4
:100CF0008093700023C0D0929900C09298002093F6
:100D0000D6083093D7084093D8085093D9088091DB
:100D1000710082608093710011C0D092A900C092CE
:100D2000A8002093D2083093D3084093D40850935E
:100D3000D508809172008260809372006CE271E04D
:100D400080E090E0CF911F910F91FF90EF90DF90A6
:100D5000CF90BF90AF909F908F907F906F905F905B
:100D60004F900C94B22D94E015CF8FEFC816D1049C
:100D7000E104F104D1F0C8F062E17AE780E090E0AC
:100D8000A50194010E94A43E69017A0181E0C81A7C
:100D9000D108E108F1082FEFC216D104E104F104F3
:100DA00011F008F0B2CE94E0C1CE93E0BFCE62E184
:100DB0007AE780E090E0A50194010E94A43E6901D9
:100DC0007A0181E0C81AD108E108F1082FEFC216B4
:100DD000D104E104F104B1F0A8F0D301C2015AE05A
:100DE000B595A795979587955A95D1F76C017D0193
:100DF00021E0C21AD108E108F108CC2309F495CE0C
:100E000097E0C8CE96E07ECE8FEFC816D104E104FD
:100E1000F10409F060F694E075CE92E0BBCECF927B
:100E2000DF92EF92FF920E94103F6B017C0120E065
:100E300030E044E353E40E94224187FD09C0A7014A
:100E4000960160E070E084EB93E40E94103F32C0B2
:100E500020E030E0A901C701B6010E94224187FDD0
:100E60000AC020E030E044E353E4C701B6010E9429
:100E7000673D87FD13C020E030E044E353ECC70139
:100E8000B6010E94224187FD0CC020E030E0A9019C
:100E9000C701B6010E94673D87FF03C0C701B601C5
:100EA00008C020E030E044EB53E4C701B6010E94E3
:100EB000113F9058FF90EF90DF90CF9008952F92C0
:100EC0003F924F925F926F927F928F929F92AF92DA
:100ED000BF92CF92DF92EF92FF920F931F93CF9327
:100EE000DF93CDB7DEB7C254D1090FB6F894DEBF99
:100EF0000FBECDBF2DB73EB723963FAF2EAF239782
:100F00004EE161E082E00E94C5034EE160E082E0D4
:100F10000E94C50380EC95E00E941C17FE013196EB
:100F200088E2DF011D928A95E9F780E090E0A0E871
:100F3000BFEB89839A83AB83BC83FAABE9ABB896EA
:100F4000F8ABEFA729A83AA811E00EE184E690E0FB
:100F50009CAB8BAB68EC70E080E090E00E94B22D1F
:100F60001093100B0093320B1092110B1092330B55
:100F700063E08DE19CE00E94291D81E00E949418AD
:100F80001093100B0093320B1092110B1092330B35
:100F900080910F0B8111FCCF10930F0B10930E0B50
:100FA000FFEFF0930D0B10920C0B25E020930B0B31
:100FB0001093EA0A8091EA0A8C638093EA0A80918E
:100FC000E90A813071F41092E90A8091EA0A80936B
:100FD000BB008091BC0083FDF8CF35EC3093BC00A2
:100FE00003C085EE8093BC0080910F0B8130E1F34C
:100FF00080910C0B863018F480910C0B01C086E0B8
:10100000ABEEBAE0ECE2FDE09E2F2CE23DE0921B5D
:10101000981718F49D919193F7CF1092B70780938A
:10102000B607CE0189967C019091B6078091B707EB
:10103000981741F08DE19CE00E94B91CD7018D9377
:101040007D01F2CF81E00E949418882309F4C0C189
:1010500080E090E0A8ECB2E421968CAF9DAFAEAFFB
:10106000BFAF21978DAB9EABAFABB8AF89AF9AAF97
:10107000ABAFBCAF20E030E048EB52E469AD7AADF5
:101080008BAD9CAD0E94113F9B01AC010E94113FB2
:1010900020E030E04CE254E40E94F43F6B017C011C
:1010A00020E030E04CEC52E46DA97EA98FA998AD08
:1010B0000E94113F9B01AC010E94113F20E030E8EB
:1010C00041E354E40E94F43F4B015C01A701960107
:1010D000C701B6010E94CD3D2B013C01A501940141
:1010E000C501B4010E94CD3D9B01AC01C301B20119
:1010F0000E94113F0E94E5412B013C019B01AC0184
:10110000C501B4010E94F43F4B015C01A3019201AF
:10111000C701B6010E94F43F6B017C0120E030E082
:10112000A901C501B4010E94CD3D9B01AC01C701DD
:10113000B6010E94113F0E94FF3E20E030E044E3F0
:1011400053E40E94CD3D2BED3FE049E450E40E9482
:10115000F43F6B017C0120E030E0A901C501B4013E
:101160000E94673D87FF0DC0A701960160E070E017
:1011700084EB93E40E94103F26E636E646EE50E408
:1011800006C026E636E646EE50E4C701B6010E94E8
:10119000103F0E946640CB0168E671E00E940B435D
:1011A000BC01990F880B990B0E946E3D6B017C016D
:1011B00020E030E044EB52E40E94673D20E030E064
:1011C00044EB52E487FF0BC0C701B6010E94103FF9
:1011D00020E030E044EB53E40E94113F04C0C7011B
:1011E000B6010E94103FD1016D937D938D939C9326
:1011F0001397EBA9FCA93197FCABEBABEF2B09F4F0
:10120000E2C020E030E048EC52E469AD7AAD8BAD4D
:101210009CAD0E94673D882309F49CCE20E030E01D
:1012200048EC52E46DA97EA98FA998AD0E94673D54
:10123000882309F48FCE20E030E048EC52E4219678
:101240006CAD7DAD8EAD9FAD21970E94673D88232B
:1012500009F480CEF4E02F0E311C2FA538A92216F8
:10126000330609F073CE2DB63EB6ADB7BEB7A05566
:10127000B1090FB6F894BEBF0FBEADBF0DB71EB714
:101280000F5F1F4F7801CDB6DEB6B1E5CB0ED11C96
:10129000F801108211821282138214821582168242
:1012A00017823896EC15FD05A1F7E9A9FAA9619115
:1012B000719181919191FAABE9AB2BED3FE049E45B
:1012C00050E40E94CD3D20E030E044E353E40E942E
:1012D000F43F2B013C010E94EF3FD8016D937D93B9
:1012E0008D939C931397C301B2010E94D741F801DB
:1012F0006483758386839783085F1F4F0C151D05D4
:10130000A1F6412C512C320153014201D7012D91FC
:101310003D914D915C91C501B4010E94113F4B017B
:101320005C01F7012481358146815781C301B201F7
:101330000E94113F2B013C01F8E0EF0EF11CEC1470
:10134000FD0421F720E030E040E251E4C501B401A2
:101350000E94F43F6B017C0120E030E040E251E468
:10136000C301B2010E94F43FA70196010E94903F81
:1013700020E030E044E353E40E94CD3D2BED3FE01C
:1013800049E450E40E94F43F0E946640CB01885932
:101390009E4F68E671E00E940B43BC01990F880BD9
:1013A000990B0E946E3D7B018C010FB6F8943EBEF6
:1013B0000FBE2DBE8AED95E00E941C17B701C80133
:1013C0000E94292038C0E12CF12C00E81FEB33C02B
:1013D00069A570E0762F66278AA5682B072E000C7A
:1013E000880B990B0E946E3D69AF7AAF8BAF9CAFB3
:1013F0006BA570E0762F66278CA5682B072E000C56
:10140000880B990B0E946E3D21966CAF7DAF8EAF1D
:101410009FAF21976DA570E0762F66278EA5682B6C
:10142000072E000C880B990B0E946E3D6DAB7EABB6
:101430008FAB98AF1FCEB701C80123962EAD3FAD3D
:1014400023970FB6F8943EBF0FBE2DBFCE5BDF4F84
:101450000FB6F894DEBF0FBECDBFDF91CF911F91C5
:101460000F91FF90EF90DF90CF90BF90AF909F9043
:101470008F907F906F905F904F903F902F90089546
:101480002F923F924F925F926F927F928F929F9294
:10149000AF92BF92CF92DF92EF92FF920F931F9382
:1014A000CF93DF93CDB7DEB7C256D1400FB6F894D5
:1014B000DEBF0FBECDBF1C0182EF95E00E941C175E
:1014C00080E197E2C75ADE4F99838883C955D1409E
:1014D0008DEB9CE00E94881C8F3F09F461C38D3026
:1014E00029F5E091BD07F091BE07E154F84F108255
:1014F0004FEF50E06FEB77E0CE0101960E949344EE
:10150000C050DF4F1882C050D1401092BE071092D9
:10151000BD0746E050E0BE016F5F7F4F80E096E080
:101520000E948544892B09F071C314C08A3081F26E
:101530002091BD073091BE072F3F31054CF6F901D0
:10154000E154F84F80832F5F3F4F3093BE072093C5
:10155000BD07BECF67E076E0CE0101960E94463916
:1015600067E076E080E090E00E9446394C0167E059
:1015700076E080E090E00E9446393C0167E076E04A
:1015800080E090E00E9446392C0167E076E080E040
:1015900090E00E94463967E076E080E090E00E94AB
:1015A00046397C0167E076E080E090E00E944639B1
:1015B00067E076E080E090E00E9446395C0167E0F9
:1015C00076E080E090E00E9446396C01E114F1047D
:1015D00009F41CC3D301EC910E2E000CFF0B80818B
:1015E000863521F489E096E00E941C17C4010E9410
:1015F0004239F1016083718382839383C5010E9424
:101600004239D1011C966D937D938D939C931F97C6
:10161000C6010E944239F101608B718B828B938BE2
:10162000C2010E9442394B015C0120E030E048ECED
:1016300052E40E94F43F0E946640072E000C880B83
:10164000990B0E946E3D2B013C0120E030E048ECFC
:1016500052E40E94CD3D9B01AC01C501B4010E9442
:10166000103F20E030E040E752E40E94F43F9B014D
:10167000AC01C301B2010E94113FD10114966D93D8
:101680007D938D939C931797C7010E9442396B01FC
:101690007C0120E030E048EC52E40E94F43F0E94DC
:1016A0006640072E000C880B990B0E946E3D4B0183
:1016B0005C0120E030E048EC52E40E94CD3D9B010B
:1016C000AC01C701B6010E94103F20E030E040E7C6
:1016D00052E40E94F43F9B01AC01C501B4010E9499
:1016E000113F6B017C01F1016087718782879387CD
:1016F00084809580A680B78020E030E04CE052E402
:10170000C501B4010E94224118160CF04CC220E021
:1017100030E044E352E4C501B4010E94673D87FF15
:1017200042C220E030E045E053E4C701B6010E9428
:10173000224118160CF037C220E030E04FE053E4AD
:10174000C701B6010E94673D87FF2DC2D1016D918F
:101750007D918D919C918E010F5B1E4F26E04AE09A
:101760000E942239F101648175818681978100513F
:10177000110926E04AE00E942239D10118966D91A4
:101780007D918D919C911B970051110926E04AE0B3
:101790000E942239F101448055806680778020853F
:1017A0003185428553858FE296E0C15ADE4F28830A
:1017B000CF55D140C05ADE4F3883C056D140CF59A3
:1017C000DE4F4883C156D140CE59DE4F5883C256B2
:1017D000D1400E941C17C15ADE4F2881CF55D140FD
:1017E000C05ADE4F3881C056D140CF59DE4F4881B4
:1017F000C156D140CE59DE4F5881C256D14068E91A
:1018000072EC8BE093E40E94103F2BED3FE049E443
:1018100050E40E94CD3D20E030E044E353E40E94D8
:10182000F43FCF5ADE4F688379838A839B83C15507
:10183000D14025E13BED4EE052E4C301B2010E94EC
:10184000113F20E030E040E05FE30E94CD3D2BED12
:101850003FE049E450E40E94CD3D20E030E044E325
:1018600053E40E94F43F6B017C010E94D7419B012D
:10187000AC010E94CD3D28E83CE54BED5BE30E94C6
:10188000CD3D9B01AC0160E070E080E89FE30E94E9
:10189000103F0E94E541CB5ADE4F688379838A83EB
:1018A0009B83C555D14020E030E040E450E40E94E5
:1018B0008741C55ADE4F688379838A839B83CB55E2
:1018C000D140A301920165E17BED8EE092E40E949C
:1018D000103F2BED3FE049E450E40E94CD3D20E075
:1018E00030E044E353E40E94F43F4B015C01C55AED
:1018F000DE4F288139814A815B81CB55D1406FE928
:1019000077E581EC9AE40E94F43F9B01AC01C501AC
:10191000B4010E94CD3D4B015C01C701B6010E949C
:10192000EF3F6B017C01CB5ADE4F288139814A8120
:101930005B81C555D14062E375EA82EC9AE40E946E
:10194000F43F9B01AC01CF5ADE4F688179818A81D7
:101950009B81C155D1400E94CD3DA70196010E94B7
:10196000CD3D6B017C01A5019401C501B4010E942C
:10197000CD3D4B015C01A7019601C701B6010E9454
:10198000CD3D9B01AC01C501B4010E94113F0E94F5
:10199000E5416B017C010052110926E04AE00E94FA
:1019A000223982E496E00E941C17C8010E941C178D
:1019B00088ED95E00E941C1784E596E00E941C17B4
:1019C000CF5ADE4F688179818A819B81C155D14090
:1019D0000E94D741CB5ADE4F688379838A839B83E9
:1019E000C555D1402BED3FE049E450E4C301B201BD
:1019F0000E94CD3D20E030E044E353E40E94F43FF8
:101A00002B013C010E94EF3F4B015C01C301B2017D
:101A10000E94D7412B013C01CF5ADE4F688179816A
:101A20008A819B81C155D1400E94EF3FCF5ADE4F42
:101A3000688379838A839B83C155D1402AEE3FE630
:101A400045E15FE3C501B4010E94CD3D4B015C015E
:101A500025E63BED4FE45FE3C301B2010E94CD3DBB
:101A6000CF5ADE4F288139814A815B81C155D140EF
:101A70000E94CD3D9B01AC01C501B4010E94103F05
:101A80004B015C0125E63BED4FE45FE3CB5ADE4FB3
:101A9000688179818A819B81C555D1400E94CD3D65
:101AA000A50194010E94903F20E030E044E353E41C
:101AB0000E94CD3D2BED3FE049E450E40E94F43F0D
:101AC0004B015C0120E030E0A9010E94673D87FFE7
:101AD0000AC020E030E044EB53E4C501B4010E94A9
:101AE000113F4B015C018E010F5F1E4F26E04AE063
:101AF000C501B4010E94223988E696E00E941C17B5
:101B0000C8010E941C1788ED95E00E941C17005F19
:101B10001F4F26E04AE0C701B6010E94223900515A
:101B2000110926E04AE0C501B4010E942239D10121
:101B300054968D929D92AD92BC925797F101C08EB2
:101B4000D18EE28EF38E8BE796E00E941C17CE01B9
:101B50008F5C9E4F0E941C1785E896E00E941C1720
:101B6000CE018F5D9E4F0E941C1788ED95E00E946C
:101B70001C178AE496E00E941C17CE018F5E9E4FD0
:101B80000E941C1783E996E00E941C17C8010E945E
:101B90001C1788ED95E00E941C1701E010E005C0BD
:101BA00002E010E002C004E010E06AE070E080E0D3
:101BB00090E00E94B22D0130110559F10430110559
:101BC00061F48AE491E00E940B048DE591E00E94AB
:101BD0000B048AE491E00E940B04C75ADE4F88810F
:101BE0009981C955D1400197C75ADE4F998388839F
:101BF000C955D140892B09F06BCC8EE996E09F93B3
:101C00008F930E9401200F900F9003C003E010E01B
:101C1000CCCF81E090E0CE59DE4F0FB6F894DEBF16
:101C20000FBECDBFDF91CF911F910F91FF90EF902D
:101C3000DF90CF90BF90AF909F908F907F906F90EC
:101C40005F904F903F902F900895CF93DF93EC01DA
:101C500080E090E00E948E3E682F70E080E090E08F
:101C60000E946E3D0E942F412BE930E24AE95EE37B
:101C70000E94F43F0E9466406115710511F0798F52
:101C8000688F81E090E00E948E3E482F50E060E037
:101C900070E09A012170332755954795FB013197E4
:101CA000E730F10530F48827EE58FF4F8F4F0C9442
:101CB0001F433B8F2A8F14C039A328A311C03F8F25
:101CC0002E8F0EC03DA32CA30BC03D8F2C8F08C0C0
:101CD0003BA32AA305C03FA32EA302C039A728A770
:101CE0006F5F7F4F68307105A1F681E090E0DF9172
:101CF000CF910895FC01918D828D981761F0828DAE
:101D0000DF01A80FB11D5D968C91928D9F5F9F732F
:101D1000928F90E008958FEF9FEF0895FC01918DD1
:101D2000828D981731F0828DE80FF11D858D90E03E
:101D300008958FEF9FEF0895FC01918D228D892FDB
:101D400090E0805C9F4F821B91098F7399270895C3
:101D500085E39BE00E949C0E21E0892B09F420E0A2
:101D6000822F0895FC01848DDF01A80FB11DA35AB5
:101D7000BF4F2C91848D90E001968F739927848FAB
:101D8000A689B7892C93A089B1898C9180648C93A2
:101D9000938D848D981306C00288F389E02D80818D
:101DA0008F7D80830895EF92FF920F931F93CF93BF
:101DB000DF93EC0181E0888F9B8D8C8D981305C09B
:101DC000E889F989808185FD24C0F62E0B8D10E00D
:101DD0000F5F1F4F0F731127E02E8C8DE8120CC080
:101DE0000FB607FCFACFE889F989808185FFF5CF26
:101DF000CE010E94B20EF1CF8B8DFE01E80FF11DD6
:101E0000E35AFF4FF0820B8FEA89FB898081806261
:101E100007C0EE89FF896083E889F9898081806441
:101E2000808381E090E0DF91CF911F910F91FF902F
:101E3000EF900895CF93DF93EC01888D8823C9F04C
:101E4000EA89FB89808185FD05C0A889B9898C91C3
:101E500086FD0FC00FB607FCF5CF808185FFF2CF5E
:101E6000A889B9898C9185FFEDCFCE010E94B20E71
:101E7000E7CFDF91CF91089580E090E0892B21F0AA
:101E80000E94A80E811125C080E090E0892B41F0CE
:101E900080E090E0892B21F00E94000081111CC09D
:101EA00080E090E0892B41F080E090E0892B21F0E8
:101EB0000E940000811113C080E090E0892BA1F006
:101EC00080E090E0892B81F00E94000081110AC01F
:101ED00008950E940000D8CF0E940000E1CF0E9428
:101EE0000000EACF0C94000008950E94684480919D
:101EF000E2088823A9F14091090250910A026091F9
:101F00000B0270910C0227EE38E08091E70A909165
:101F1000E80A0E94E52A811102C080E008954091FC
:101F2000E3085091E4086091E5087091E6084115D6
:101F300051056105710591F027EE38E08091E70ABF
:101F40009091E80A0E94E52A882339F31092E30869
:101F50001092E4081092E5081092E6081092E20848
:101F600081E008951F920F920FB60F9211240BB6C5
:101F70000F922F933F934F935F936F937F938F9322
:101F80009F93AF93BF93EF93FF9385E39BE00E94F2
:101F9000B20EFF91EF91BF91AF919F918F917F9181
:101FA0006F915F914F913F912F910F900BBE0F90CA
:101FB0000FBE0F901F9018951F920F920FB60F92A1
:101FC00011240BB60F922F938F939F93EF93FF9350
:101FD000E091450BF091460B8081E0914B0BF09125
:101FE0004C0B82FD12C0908180914E0B8F5F8F73DE
:101FF00020914F0B821751F0E0914E0BF0E0EB5C1B
:10200000F44F958F80934E0B01C08081FF91EF912B
:102010009F918F912F910F900BBE0F900FBE0F903D
:102020001F9018958F929F92AF92BF92EF92FF925E
:102030000F931F93CF934B015C01C42F8091090232
:1020400090910A02A0910B02B0910C02881599059B
:10205000AA05BB0501F10E94770F811102C080E043
:1020600020C087EEE82E88E0F82E00E012E020E0A5
:1020700030E0B501A4018091E70A9091E80A0E943E
:10208000512A882361F38092090290920A02A09259
:102090000B02B0920C028091E208C82BC093E208B8
:1020A00081E0CF911F910F91FF90EF90BF90AF9083
:1020B0009F908F9008954F925F926F927F928F9230
:1020C0009F92AF92BF92CF92DF92EF92FF920F93C7
:1020D0001F93CF93DF93EC016A017B012801390143
:1020E000423051056105710510F480E073C08985A7
:1020F0009A85AB85BC850196A11DB11D84179507F6
:10210000A607B70790F38B889C88AD88BE888F8917
:10211000803129F4BB27AF2D9E2D8D2D09C0DB0109
:10212000CA0147E0B695A795979587954A95D1F747
:10213000880E991EAA1EBB1E8091090290910A0268
:10214000A0910B02B0910C0288169906AA06BB0654
:1021500079F48F898031A1F4DD24EE24FF24C601B7
:10216000880F991FFC01E951F74F5182408219C035
:1021700040E0C501B4010E9412108111EACFB5CF31
:10218000E894C7F8DD24EE24FF24C601880F991FC8
:10219000880F991FFC01E951F74F408251826282FA
:1021A00073828091E20881608093E2088A8982309C
:1021B00080F08D819E81AF81B885880E991EAA1E00
:1021C000BB1E8092E3089092E408A092E508B092CA
:1021D000E60881E0DF91CF911F910F91FF90EF9082
:1021E000DF90CF90BF90AF909F908F907F906F9037
:1021F0005F904F9008958F929F92AF92BF92CF922F
:10220000DF92EF92FF920F931F93CF93DF93FC0126
:1022100081859285A385B4850196A11DB11D841782
:102220009507A607B70710F480E05CC083899489FE
:10223000A589B689C789C03129F4852E962EA72E87
:10224000BB2409C04A015B01C7E0B694A7949794E8
:102250008794CA95D1F7E9016A017B018F01BC011E
:10226000CD01680D791D8A1D9B1D809009029090FB
:102270000A02A0900B02B0900C02681579058A053D
:102280009B0599F4F80187898031A9F4B701A6016B
:10229000552766277727440F551FFA01E951F74F55
:1022A00080819181A0E0B0E018C040E00E9412104F
:1022B0008111E8CFB9CFB701A6014F77552766271F
:1022C0007727440F551F440F551FFA01E951F74F67
:1022D00080819181A281B381BF7088839983AA8311
:1022E000BB8381E0DF91CF911F910F91FF90EF9021
:1022F000DF90CF90BF90AF909F908F9008954F92B6
:102300005F926F927F92AF92BF92CF92DF92EF92E5
:10231000FF920F931F93CF93DF9300D01F92CDB7FF
:10232000DEB78C0149835A836B837C835901C12CAE
:10233000D12C7601412C82E0582E612C712C4981E0
:102340005A816B817C819E012F5F3F4FC8010E94A3
:10235000FB10882351F1D301C201F801058404C0A8
:10236000880F991FAA1FBB1F0A94D2F7C80ED91E47
:10237000EA1EFB1E49815A816B817C8187898031ED
:1023800029F088EF9FEFAFEFBFE004C088EF9FEF29
:10239000A0E0B0E0481759076A077B0780F2F50113
:1023A000C082D182E282F38281E00F900F900F9081
:1023B0000F90DF91CF911F910F91FF90EF90DF90E1
:1023C000CF90BF90AF907F906F905F904F900895A7
:1023D000CF93DF93EC018D818823A1F18C8187FF5E
:1023E0002DC06E857F858889998941E00E941210F1
:1023F000882341F1EA8980E2E89FF0011124DF019E
:10240000A951B74F1097F1F08D81823050F44B896C
:102410005C896D897E895C964D935D936D937C9309
:102420005F978F89988DA98DBA8DE951F74F938F5A
:10243000828FB58BA48B8C818F778C83DF91CF912A
:102440000C94770F80E0DF91CF9108958F929F9247
:10245000AF92BF92CF92DF92EF92FF920F931F93B2
:10246000CF93DF93EC018D81811102C080E077C0B2
:102470000B891C892D893E89041715072607370704
:10248000A8F36A017B01823029F4CA86DB86EC86D8
:10249000FD860DC0C114D104E104F10451F41E8283
:1024A0001F82188619861A861B861C861D8681E067
:1024B00056C08A849B84AC84BD84EB8DFC8D2585BD
:1024C00030E0275F3F4FB501A40141505109610938
:1024D0007109022E04C076956795579547950A9421
:1024E000D2F7D701C6010197A109B10904C0B69579
:1024F000A795979587952A95D2F784179507A607EC
:10250000B70720F089288A288B2849F44F89588DED
:10251000698D7A8D4E835F836887798704C0841BB9
:10252000950BA60BB70B4C015D018E010A5F1F4F87
:1025300081149104A104B10409F4A7CF4E815F81F5
:102540006885798598018B8D9C8D0E94FB1091E0A8
:10255000891A9108A108B1088111EACF87CFDF91CC
:10256000CF911F910F91FF90EF90DF90CF90BF9090
:10257000AF909F908F9008952F923F924F925F92CD
:102580006F927F928F929F92AF92BF92CF92DF9283
:10259000EF92FF920F931F93CF93DF9300D01F9280
:1025A000CDB7DEB78C015B011A01DC0115968C9169
:1025B00015978130C9F414968C9181FF15C082FF64
:1025C0001BC0F80143895489658976898285938582
:1025D000A485B58584179507A607B70769F0C801D4
:1025E0000E942612811108C081E090E0F8019383D7
:1025F000828380E090E039C1610183C0D8015B969D
:102600008D919C915C97FC01248121502A013B0112
:1026100039E076946794579447943A95D1F7722E9F
:1026200074207A01F1E0FF22772009F476C080E07F
:1026300092E08E199F0946018C159D0508F44C0106
:10264000D8015B962D913C915C9716968D919D914A
:102650000D90BC91A02D0297A109B109F901058443
:1026600004C0880F991FAA1FBB1F0A94D2F7468582
:10267000578560897189840F951FA61FB71F9C011C
:10268000AD01270D311D411D511D29013A01811454
:1026900032E0930609F088C08091090290910A0205
:1026A000A0910B02B0910C0284159505A605B70503
:1026B00059F48FEF9FEFDC018093090290930A0297
:1026C000A0930B02B0930C029501B301A20180917B
:1026D000E70A9091E80A0E94E52A882309F484CF4A
:1026E0009EEFB91AC818D908F80182859385A48588
:1026F000B585880D991DA11DB11D82879387A4877B
:10270000B587D8011A964D915D916D917C911D9779
:10271000C114D10409F072CF87C0E114F10409F0AB
:1027200086CF16964D915D916D917C9119974115CB
:1027300051056105710559F457968D919D910D9044
:10274000BC91A02D0097A105B10541F521C09E01C6
:102750002F5F3F4F0E94FB10882309F44BCF8981E4
:102760009A81AB81BC81F801238D348DF9012789D1
:10277000203129F048EF5FEF6FEF7FE004C048EFB2
:102780005FEF60E070E084179507A607B70730F0A9
:10279000C8010E94832881114ACF26CFF801868381
:1027A0009783A087B18743CFE114F10429F5D801BD
:1027B0001A964D915D916D917C911D9753968D91D7
:1027C0009D910D90BC91A02D481759076A077B0772
:1027D00098F00E94770F882309F406CF40920902EF
:1027E00050920A0260920B0270920C028091E208F1
:1027F00081608093E20808C041E0C301B2010E94F9
:102800001210882309F4F0CED501F701E951F74FF2
:10281000CF01880D991DE817F90719F02D91219323
:10282000FACFA80CB91C5ECF53968D919D910D9057
:10283000BC91A02D84179507A607B70740F4F801AF
:10284000438B548B658B768B848180688483D8011D
:1028500014968C9183FD02C0C10107C0C8010E947B
:10286000E811882309F4C0CEF7CF0F900F900F9096
:102870000F90DF91CF911F910F91FF90EF90DF901C
:10288000CF90BF90AF909F908F907F906F905F9010
:102890004F903F902F900895CF93DF931F92CDB725
:1028A000DEB7698341E050E0BE016F5F7F4F0E9459
:1028B000BC120F90DF91CF9108958F929F92AF92AB
:1028C000BF92CF92DF92EF92FF920F931F93CF931D
:1028D000DF9300D01F92CDB7DEB77C0180E2689F06
:1028E0006001112496012951374FD9011B969C9103
:1028F000917121F0842F827409F097C0142FF70191
:10290000628B8091090290910A02A0910B02B09112
:102910000C0286879787A08BB18BF601E951F74FA0
:102920004489558960E070E0BA0155274427D701F2
:1029300057964D935D936D937C935A97828D938DAB
:10294000A0E0B0E0482B592B6A2B7B2BD701579680
:102950004D935D936D937C935A97D9011B968C91FF
:10296000887159F4848D958DA68DB78DF701838B71
:10297000948BA58BB68B81E012C0803109F055C0D5
:1029800097012D5E3F4FD7015B968D919C915C978F
:102990000E947F11882309F448C084E0F7018583F1
:1029A000812F8F70D70114968C931497F70116829C
:1029B0001782108611861A961D921D921D921C92E6
:1029C0001D9716FF34C015968C91813071F511FF5B
:1029D0002CC0F7014389548965897689452B462B9C
:1029E000472B09F461C040E050E0BA01C7010E94E2
:1029F00026128823D1F0F7018788908CA18CB28CA5
:102A0000C38CD48C82E090E0A0E0B0E0F60180833B
:102A10009183A283B3839E012F5F3F4FB501A40131
:102A2000C6010E94FB10811104C080E03DC081E01E
:102A30003BC000E010E09801B501A401C6010E946E
:102A40005B10882391F389809A80AB80BC80D6018B
:102A500057968C91803129F088EF9FEFAFEFBFE060
:102A600004C088EF9FEFA0E0B0E088169906AA06A0
:102A7000BB0688F2D70157961D921D921D921C929B
:102A80005A97F701138A148A158A168A84818068F6
:102A90008483C7010E94E811882339F240E050E0A6
:102AA000BA01C7010E9426120F900F900F900F904D
:102AB000DF91CF911F910F91FF90EF90DF90CF901A
:102AC000BF90AF909F908F9008954F925F926F92BA
:102AD0007F92AF92BF92CF92DF92EF92FF920F93CD
:102AE0001F93CF93DF93CDB7DEB72B970FB6F89434
:102AF000DEBF0FBECDBF7C01CE0101966C01FC0193
:102B000090E28BE08C0D91938E13FDCFDA0130E0D3
:102B100047E09D91992339F19E3219F0EDEBF4E0F5
:102B20000AC04A3009F472C138E04AE0F2CF319667
:102B3000891709F46BC184918111F9CF431708F407
:102B400065C18FED890F8E3508F060C181E0830F7C
:102B5000F601E30FF11D3FE9390F3A3108F49052C5
:102B60009083382FD6CF8981803209F44FC1B22E9D
:102B70008B01DB015B968D919C915C97F701948FA3
:102B8000838F16961D921D921D921C921997FB0120
:102B90001286138614861586712CF801828593851A
:102BA000A485B585438954896589768984179507F5
:102BB000A607B70708F061C025E0B695A7959795D9
:102BC00087952A95D1F7F82FFF706F2ED8011596AB
:102BD0008C91823008F41AC1C8010E942E1E97FD04
:102BE00015C1F80182859385A485B5854F96A11DF1
:102BF000B11D82879387A487B587F0E26F9EC001DD
:102C00001124BC016951774F6115710509F4FEC0AB
:102C1000DB012C91222319F0253EC1F427C071104D
:102C20000EC0F701628A4091090250910A02609138
:102C30000B0270910C0246875787608B718BFC01E9
:102C4000E951F74F8081811113C015C04BE050E06E
:102C5000C6010E946D44892B09F09FCF8B2D807394
:102C6000803309F4D3C04B2D662DCCC07720C9F238
:102C70007724739492CF772473948B2D8271823151
:102C800009F0C4C07720D1F0D7011E966D917D91D7
:102C90008D919C91519741E00E941210882309F474
:102CA000B5C0F7016289F0E26F9FB001112469514C
:102CB000774F6115710509F079C0A8C0D801159644
:102CC0008C91823009F4A2C0C8010E948328882315
:102CD00009F49CC0D8015B96ED91FC915C97169627
:102CE0004D905D906D907C901997B2E04B1A510811
:102CF00061087108058404C0440C551C661C771CCF
:102D00000A94D2F786859785A089B189480E591E05
:102D10006A1E7B1EA480E1E04E1A5108610871080A
:102D2000AA2009F10E94770F882309F46FC0E7EE0B
:102D3000F8E011922AE0E73EF207D9F7D301C20189
:102D40008A0D911DA11DB11D8093090290930A0265
:102D5000A0930B02B0930C028091E20881608093F3
:102D6000E208AA94DDCFD8015B96ED91FC915C97C7
:102D700080E092E0A0E0B0E0058404C0880F991FD5
:102D8000AA1FBB1F0A94D2F7F801438954896589A9
:102D90007689840F951FA61FB71F838B948BA58BF5
:102DA000B68BD70152961C9267EE78E080E2FB0169
:102DB00011928A95E9F78BE0F601DB0101900D9203
:102DC0008A95E1F781E298E2DB0151969C938E931C
:102DD000509720E038E01F963C932E931E97539611
:102DE0009C938E93529759969C938E93589757968F
:102DF0003C932E9356970E94770F882339F04B2DE2
:102E0000F7016289C7010E945D1401C080E02B9622
:102E10000FB6F894DEBF0FBECDBFDF91CF911F91EB
:102E20000F91FF90EF90DF90CF90BF90AF907F9089
:102E30006F905F904F9008951F93CF93DF93CDB71E
:102E4000DEB7AF970FB6F894DEBF0FBECDBFADE0D3
:102E5000B2E0E5E1F2E028E02E0F31913D932E1330
:102E6000FCCFFC01DE01119610E0BD0181918823A9
:102E700021F08D931F5F1E32C9F7FB01E10FF11D99
:102E80001082412F86EB96E00E94D426882329F0F9
:102E9000112319F08091340B01C080E0AF960FB67A
:102EA000F894DEBF0FBECDBFDF91CF911F91089583
:102EB0002F923F924F925F926F927F928F929F924A
:102EC000AF92BF92CF92DF92EF92FF920F931F9338
:102ED000CF93DF93CDB7DEB7C656D1090FB6F894BE
:102EE000DEBF0FBECDBF5C014B013E018EE1680E1F
:102EF000711C6EEF7BE0C3010E94891D1C821B8246
:102F00008FE992E09A8389831E8264018E010F5FAC
:102F10001F4F230118016FE270E0C6010E947A443E
:102F2000009709F442C0F60120812F3221F4FFEF0F
:102F3000CF1ADF0AF0CF8C198D3008F08CE0E82E24
:102F4000F12CA701B601CE01885A9F4F0E949344ED
:102F5000E8E5F0E0EC0FFD1FEE0DFF1D1082C8014B
:102F60000E947728F8018581882351F01EAE1DAE9E
:102F70008FE992E09CAF8BAF21961FAE219721C0C5
:102F800021E0AE01485A5F4FB201C8010E946515A9
:102F9000882361F3CE0CDF1CC2010E947728942D98
:102FA000852D2801092F182FB6CFC6018819990938
:102FB000A7969FAF8EAFA797B201CE01CB960E9486
:102FC000891DA796EEADFFADA7978E0E9F1EF4014B
:102FD0008081811109C0BE01655C7F4FC1010E94E3
:102FE000891D49EB56E044C019A218A28FE992E06E
:102FF0009F8F8E8F1BA221968FAD2197811113C0B9
:10300000F5011382128288EE93E0A0E0B0E08483A1
:103010009583A683B7838FE792E091838083128E96
:10302000118E148629C0825023E1A401823040F41D
:103030006EEF7BE0C3010E94651581110DC0E0CFEA
:10304000BE01655C7F4FC3010E9465158823C1F2F4
:10305000CE01CB960E94772849A95AA96BA97CA9D1
:10306000C3010E942612B301C1010E94891DA4015F
:10307000B101C5010E94F91DC501CA59DF4F0FB644
:10308000F894DEBF0FBECDBFDF91CF911F910F919E
:10309000FF90EF90DF90CF90BF90AF909F908F9078
:1030A0007F906F905F904F903F902F900895E5E351
:1030B000FBE0A089B18982E08C93A485B5851C9240
:1030C000A685B7858FEC8C93108EA489B58986E090
:1030D0008C93A289B3898C9180618C93A289B389E6
:1030E0008C9188608C93A289B3898C9180688C9331
:1030F0000288F389E02D80818F7D808308950F936E
:103100001F93CF93DF93EC012AE00E94FD2E8C01E8
:103110006BE875E0CE010E94E82E800F911FDF91D1
:10312000CF911F910F910895382F2091330B9091DB
:10313000320B213208F049C080910F0B8111FCCF76
:1031400042E040930F0B30930E0B3FEF30930D0B8B
:1031500010920C0B20930B0BA2E1BBE04BEE5AE05C
:10316000FA013E2F341B321718F43D913193F9CFF9
:103170001092EA0A2091EA0A990F922B9093EA0A98
:103180009091E90A913061F41092E90A9091EA0A6B
:103190009093BB009091BC0093FDF8CF95EC01C0DB
:1031A00095EE9093BC0090910F0B9230E1F39091CB
:1031B0000D0B9F3F79F080910D0B803241F0809193
:1031C0000D0B803331F084E005C081E003C082E064
:1031D00001C083E01092110B1092330B1092100B70
:1031E00008958F929F92AF92BF92CF92DF92EF920B
:1031F000FF92CF93DF93C82F84ED9BE09093E80A72
:103200008093E70ACC2369F1C53010F080E00DC14E
:1032100040E060E070E0CB010E9412108823B1F31F
:1032200020E1C29FC00111248952974FFC01E25452
:10323000FE4F20812F7751F73C964081518162816A
:103240007381443651056105710500F33497C080E0
:10325000D180E280F380C114D104E104F10421F4AF
:10326000D5CFC12CD12C760140E0C701B6010E9418
:103270001210882359F28091F2089091F308811579
:10328000924021F6A091F708AA2309F4BFCF6091DC
:10329000F5087091F6086115710509F4B7CF209112
:1032A000F408222309F4B2CFA093F20B2093E40B8D
:1032B00080E030E0E1E0F0E0C82FAF01082E02C06E
:1032C000440F551F0A94E2F72417350741F0982F51
:1032D0008F5F983089F789E08093ED0B97CF8093CB
:1032E000ED0B2091FD083091FE082115310519F0F4
:1032F00040E050E008C020910B0930910C0940914A
:103300000D0950910E092093E50B3093E60B409385
:10331000E70B5093E80B46015701860E971EA11C40
:10332000B11C8092F30B9092F40BA092F50BB0922B
:10333000F60BE091F808F091F908F093F90BE0939F
:10334000F80BB0E00E94C33E860E971EA81EB91E61
:103350008092FA0B9092FB0BA092FC0BB092FD0BAB
:1033600085E0EE0FFF1F8A95E1F7E150FE4FEF2F4A
:10337000FF27E6958E0E9F1EA11CB11C8092EE0BBE
:103380009092EF0BA092F00BB092F10B2091FA0803
:103390003091FB082115310521F0A90160E070E0B2
:1033A00008C040910709509108096091090970917E
:1033B0000A09D701C60188199909AA09BB09840F0E
:1033C000951FA61FB71F04C0B695A795979587951B
:1033D000CA95D2F78093E90B9093EA0BA093EB0B7D
:1033E000B093EC0B853F2FE09207A105B10510F4D7
:1033F0008CE018C0853F9F4FA105B10510F480E116
:1034000011C08091130990911409A0911509B091F0
:1034100016098093FA0B9093FB0BA093FC0BB093CF
:10342000FD0B80E28093F70B81E0DF91CF91FF905D
:10343000EF90DF90CF90BF90AF909F908F900895C6
:10344000362F90E0FC01E951FB4F4491FC01E95516
:10345000FA4F2491FC01EF59FA4F9491992309F402
:103460006BC0442309F455C050E0FA013197E231B2
:10347000F10508F04EC08827E758FF4F8F4F0C9496
:103480001F43809180008F7707C0809180008F7DDF
:1034900003C080918000877F809380003AC084B50C
:1034A0008F7702C084B58F7D84BD33C08091B0001A
:1034B0008F7703C08091B0008F7D8093B00029C0CA
:1034C000809190008F7707C0809190008F7D03C01E
:1034D00080919000877F809390001BC08091A00016
:1034E0008F7707C08091A0008F7D03C08091A000DE
:1034F000877F8093A0000DC0809120018F7707C047
:10350000809120018F7D03C080912001877F80936F
:103510002001E92FF0E0EE0FFF1FE35DFA4FA591C8
:10352000B4918FB7F894EC91311103C020952E23FC
:1035300001C02E2B2C938FBF0895CF93DF9390E083
:10354000FC01E955FA4F2491FC01EF59FA4F84919F
:10355000882361F190E0880F991FFC01E353FB4F32
:10356000C591D491FC01E35DFA4FA591B49161112D
:1035700009C09FB7F8948881209582238883EC91B5
:103580002E230BC0623061F49FB7F8943881822FEC
:10359000809583238883EC912E2B2C939FBF06C0AC
:1035A0008FB7F894E8812E2B28838FBFDF91CF91BE
:1035B00008951F93CF93DF93182FEB0161E00E94D2
:1035C0009D1A209711F460E004C0CF3FD10539F473
:1035D00061E0812FDF91CF911F910C94201AE12F90
:1035E000F0E0E951FB4FE4914E2F50E0FA013197A2
:1035F000E231F10508F09DC08827E557FF4F8F4F56
:103600000C941F4384B5806884BDC7BD97C084B542
:10361000806284BDC8BD92C0809180008068809324
:103620008000D0938900C093880088C0809180007A
:10363000806280938000D0938B00C0938A007EC00C
:1036400080918000886080938000D0938D00C0932B
:103650008C0074C08091B00080688093B000C093EB
:10366000B3006CC08091B00080628093B000C093C2
:10367000B40064C080919000806880939000D093E3
:103680009900C09398005AC0809190008062809306
:103690009000D0939B00C0939A0050C080919000FE
:1036A000886080939000D0939D00C0939C0046C09A
:1036B0008091A00080688093A0008091A0008F7B03
:1036C0008093A000D093A900C093A80037C0809138
:1036D000A00080628093A000D093AB00C093AA00AA
:1036E0002DC08091A00088608093A000D093AD0091
:1036F000C093AC0023C0809120018068809320019A
:10370000D0932901C093280119C0809120018062C3
:1037100080932001D0932B01C0932A010FC0809188
:103720002001886080932001D0932D01C0932C014B
:1037300005C0C038D1050CF04BCF45CFDF91CF91FC
:103740001F910895CF93DF93CDB7DEB728970FB6BB
:10375000F894DEBF0FBECDBF4B835C838F83988709
:1037600060E070E084E00E94D91A6B817C8185E082
:103770000E94D91A60E070E087E00E94D91A6F8138
:10378000788586E028960FB6F894DEBF0FBECDBFD1
:10379000DF91CF910C94D91ADC015996ED91FC91EF
:1037A0005A973097B9F083899489A589B68942855B
:1037B000538564857585841B950BA60BB70B811506
:1037C00020E89207A105B10538F08FEF9FE7A0E050
:1037D000B0E0089580E090E00895CF93DF931F92CA
:1037E000CDB7DEB76983DC01ED91FC910280F381F6
:1037F000E02D41E050E0BE016F5F7F4F19950F90C3
:10380000DF91CF9108952091BA073091BB07281717
:10381000390771F49091B8078091B907981741F072
:10382000E091B807F0E0E45BF24F808190E008950A
:103830008FEF9FEF089508951F93CF93DF93DC01DF
:103840005C962D913C915D972115310539F481E00D
:1038500090E013969C938E9312973DC05196ED91F4
:10386000FC91529750969C915097892F80951FB745
:103870005E964C915E9741FB772770F941FD60950C
:10388000F8944081772311F0492B01C048234083ED
:10389000E9012197F1F748E0508160FF02C0592B00
:1038A00001C058235083E9012197F1F766954150F3
:1038B00099F7772321F090818923808303C0808149
:1038C000982B90831FBF5C968D919C915D9701977B
:1038D000F1F721E030E0C901DF91CF911F91089508
:1038E0002091BA073091BB072817390771F48091EE
:1038F000B9072091B80790E0805C9F4F821B910927
:1039000060E470E00E940B43089580E090E0089529
:103910002091BA073091BB0728173907B9F4909165
:10392000B8078091B907981789F0E091B807F0E0DF
:10393000E45BF24F80812091B80730E02F5F3F4F6A
:103940002F7333272093B80790E008958FEF9FEFF0
:1039500008950895E091B7078091B607E81730F40D
:10396000F0E0E45DF24F808190E008958FEF9FEFEB
:1039700008959091B7078091B607981750F4E92FF2
:10398000F0E0E45DF24F208130E09F5F9093B70755
:1039900002C02FEF3FEFC90108958091B60790E074
:1039A0002091B707821B91090895FC01818D928DAA
:1039B000009711F00C94E8110895CF93DF93EC0178
:1039C000898D9A8D009739F481E090E09B838A83FA
:1039D00080E090E00BC0FC01138212820E94BC12B6
:1039E000E98DFA8D22813381232B71F7DF91CF91FD
:1039F0000895CF92DF92EF92FF920F931F93CF9390
:103A0000DF937C01262F972F8A018091100B88234A
:103A100091F0C62FD72F6E01C40ED51ECC15DD0533
:103A200071F06991D701ED91FC910190F081E02D49
:103A3000C7011995F3CF642F822F0E94822CC801F1
:103A4000DF91CF911F910F91FF90EF90DF90CF907A
:103A50000895CF93DF931F92CDB7DEB7698320918E
:103A6000100B2223D1F02091330B203240F021E0C3
:103A700030E0FC013383228380E090E015C0809128
:103A8000110BE82FF0E0EE5EF44F998190838F5F89
:103A90008093110B8093330B05C061E0CE0101963A
:103AA0000E94822C81E090E00F90DF91CF910895E9
:103AB000CF93C82F0E94EC2DCF5FDC01CB0132E009
:103AC000B695A795979587953A95D1F7C80F0E9417
:103AD000EC2DDC01CB0122E0B695A7959795879553
:103AE0002A95D1F7C81739F085E39BE00E949C0E18
:103AF0001816190664F785E39BE00E949C0E1816C1
:103B000019062CF485E39BE00E947A0E00C0CF9149
:103B10000895FC01DB0112968D919C91139793837C
:103B200082838FE992E09183808314968C9114971D
:103B3000848315968C911597858316964D915D918A
:103B40006D917C91199746835783608771871A9688
:103B50004D915D916D917C911D974287538764874C
:103B600075871E964D915D916D917C915197468719
:103B70005787608B718B52968C915297828B53969C
:103B80004D915D916D917C915697438B548B658BD4
:103B9000768B57964D915D916D917C915A97478B9D
:103BA000508F618F728F5B968D919C915C97948FF3
:103BB000838F0895CF93DF93EC01898D9A8D0097C1
:103BC00041F00E947728898D9A8D0E94D0431A8EE9
:103BD000198EDF91CF910895FC01818D928D009710
:103BE00029F00E94261291E0811101C090E0892FF6
:103BF0000895EF92FF920F931F93CF93DF93EC0101
:103C00007B018A011B821A8288EE93E0A0E0B0E07B
:103C10008C839D83AE83BF838FE792E099838883F3
:103C20008DE190E00E943B439A8F898F009779F055
:103C30002DE1F701DC0101900D922A95E1F74CE0AE
:103C400050E0B801CE010C960E949344188EDF918B
:103C5000CF911F910F91FF90EF9008952F923F9277
:103C60004F925F926F927F928F929F92AF92BF928C
:103C7000CF92DF92EF92FF920F931F93CF93DF9338
:103C80001F921F92CDB7DEB7FC018581882309F40E
:103C9000D9C0848180FFD6C021E02A83438954891A
:103CA0006589768982859385A485B58548175907E6
:103CB0006A077B0709F41A826F013A81832F90E02B
:103CC000DE0111964D013F01B6E06B0E711C892B90
:103CD00009F47DC0D6011A964D915D916D917C914C
:103CE0001D975A01B1E0BB22F60125811A012B0173
:103CF00089E056944794379427948A95D1F7838D19
:103D0000948D223061F4FC01828D938DA48DB58D4C
:103D1000BC01CD01620D731D841D951D45C0DC01E4
:103D200014961C9111501221A114B104D1F4111157
:103D300018C0452B462B472B51F4F6018789908DEF
:103D4000A18DB28D86839783A087B1870AC04681F3
:103D500057816085718593010E94FB10882309F4C7
:103D600071C0F601238D348D86819781A085B18540
:103D70000297A109B109AC01BD01F901058404C094
:103D8000440F551F661F771F0A94D2F786859785C3
:103D9000A089B189840F951FA61FB71FBC01CD0153
:103DA000610F711D811D911DD60114962C9126FF66
:103DB00014C00091090210910A0220910B02309167
:103DC0000C02601771078207930751F506C0FA814C
:103DD000FF23C1F1898190E037C040E00E941210BA
:103DE000882381F1F501E951F74FD401CF01019604
:103DF000E817F90719F021912D93FACFEFEF8E1AFA
:103E00009E0AF60182859385A485B5850196A11D3C
:103E1000B11D82879387A487B58780E090E057CF54
:103E2000740101E010E09501AB01BC018091E70A4B
:103E30009091E80A0E94512A882321F0BFEF8B1A43
:103E40009B0ADFCF8FEF9FEF0F900F90DF91CF9105
:103E50001F910F91FF90EF90DF90CF90BF90AF90A8
:103E60009F908F907F906F905F904F903F902F909A
:103E70000895FC01818D928D009711F00C942E1EF7
:103E80008FEF9FEF08950F931F93CF93DF93FC0164
:103E9000818D928D0097B9F0EF010E942E1E8C014A
:103EA0000F3F8FEF180791F0898D9A8DFC014285A5
:103EB00053856485758541505109610971090E94D6
:103EC0002612C80105C080E090E002C08FEF9FEF8E
:103ED000DF91CF911F910F9108951F920F920FB60E
:103EE0000F9211240BB60F922F933F934F935F9332
:103EF0006F937F938F939F93AF93BF93EF93FF93B2
:103F0000E091BA07F091BB07309709F451C0968D44
:103F1000A685B785858591FF04C09C91892329F4E6
:103F200047C09C91892309F043C0A389B4899C911F
:103F30008589809589238C93868997890197F1F7E4
:103F4000608D718DA685B785558538E020E0CB0161
:103F50000197F1F7822F90E095958795282F4C9146
:103F6000452309F02068315091F7868D81FD209519
:103F70008091B90790E001968F7399273091B80727
:103F8000381749F0A091B907B0E0A45BB24F2C9369
:103F90008093B90703C0868D8160868F828D938D53
:103FA0000197F1F7A389B4899C918589892B8C931A
:103FB000FF91EF91BF91AF919F918F917F916F9101
:103FC0005F914F913F912F910F900BBE0F900FBEBD
:103FD0000F901F901895E091BA07F091BB07E81772
:103FE000F90769F4A389B4899C918589809589230F
:103FF0008C931092BB071092BA0781E0089580E07D
:104000000895CF93DF93CDB7DEB7EF970FB6F8944F
:10401000DEBF0FBECDBF9E012B5B3F4FF90141912B
:1040200051919F016FE370E0CE0101960E94D2444E
:10403000CE0101960E941C1788ED95E00E941C1786
:10404000EF960FB6F894DEBF0FBECDBFDF91CF91D4
:104050000895EF92FF920F931F93CF93DF93CDB705
:10406000DEB760970FB6F894DEBF0FBECDBF9E01DE
:104070002F5F3F4F7901890126E04AE00E942239F3
:10408000FF92EF928BEB96E09F938F93FF92EF92CC
:104090000E94A244C7010E941C1762E070E080E009
:1040A00090E00E94B22D0F900F900F900F900F9004
:1040B0000F9081E090E060960FB6F894DEBF0FBEDF
:1040C000CDBFDF91CF911F910F91FF90EF90089599
:1040D0008F929F92AF92BF92EF92FF920F931F9396
:1040E000CF93DF93CDB7DEB7E7970FB6F894DEBF77
:1040F0000FBECDBF8C010E94EC2D4B015C018CE109
:10410000EBEDF2E0DE01119601900D928A95E1F758
:104110008FEB96E00E941C170115110521F0CE01CE
:1041200001960E94400A8EE1E82EF12C67ED76E0C0
:10413000CE014D960E945817EEA9FFA9309709F4B9
:1041400001C18581882309F4FDC0438954896589AB
:104150007689CE014D960E94EC1D0130110589F142
:104160000230110509F48BC0012B09F0E0C06DE8A5
:1041700075E0CE014D960E941E306DE875E0CE01CF
:104180004D960E941E306DE875E0CE014D960E945E
:104190001E306DE875E0CE014D960E941E3064EE33
:1041A00076E0CE014D960E941E3062EF76E0CE01A1
:1041B0004D960E941E30B501A401CE014D960E947D
:1041C0007F186DE875E0CE014D960E941E306FEFAE
:1041D00076E0CE014D960E941E3062EF76E0CE0171
:1041E0004D960E941E30B501A401CE014D960E944D
:1041F0007F186BE077E0CE014D960E941E3049811A
:104200005A816B817C8126E030E0CE014D960E9480
:10421000462F6FE077E0CE014D960E941E304D8113
:104220005E816F81788526E030E0CE014D960E9458
:10423000462F63E177E0CE014D960E941E304985FE
:104240005A856B857C8526E030E0CE014D960E9434
:10425000462F67E177E0CE014D960E941E30498DD2
:104260005A8D6B8D7C8D26E030E0CE014D960E94FC
:10427000462F6DE875E0CE014D960E941E306DE828
:1042800075E0CE014D960E941E3060E277E0CE01CF
:104290004D960E941E3062EF76E0CE014D960E9450
:1042A0001E30B501A401CE014D960E947F186BE02F
:1042B00077E0CE014D960E941E3049815A816B8174
:1042C0007C8126E030E0CE014D960E94462F6FE0C3
:1042D00077E0CE014D960E941E304D815E816F8148
:1042E000788526E030E0CE014D960E94462F63E1AE
:1042F00077E0CE014D960E941E3049855A856B8528
:104300007C8526E030E0CE014D960E94462F67E185
:1043100077E0CE014D960E941E30498D5A8D6B8DEF
:104320007C8D26E030E0CE014D960E94462FCE01D6
:104330004D960E94DA1D80E397E00E941C1781E0F1
:1043400090E00BC081E0E81AF10809F0EFCE8AE4B2
:1043500097E00E941C1780E090E0E7960FB6F89473
:10436000DEBF0FBECDBFDF91CF911F910F91FF90A8
:10437000EF90BF90AF909F908F9008950F931F93F1
:10438000CF93DF93CDB7DEB76B970FB6F894DEBF50
:104390000FBECDBF83E697E00E941C170EE110E030
:1043A00066E777E0CE0101960E945817EA8DFB8DF3
:1043B000309709F463C08581882309F45FC043897D
:1043C000548965897689CE0101960E94EC1D69E0C9
:1043D00077E0CE0101960E941E304BA15CA16DA139
:1043E0007EA124E030E0CE0101960E94462F4FA12D
:1043F00058A569A57AA526E030E0CE0101960E9475
:10440000462F4BA55CA56DA57EA526E030E0CE012C
:1044100001960E94462F4FA558A969A97AA924E0C0
:1044200030E0CE0101960E94462F4BA95CA96DA9F0
:104430007EA924E030E0CE0101960E94462F4FA9CC
:1044400058AD69AD7AAD26E030E0CE0101960E940C
:10445000462F4BAD5CAD6DAD7EAD26E030E0CE01BC
:1044600001960E94462FCE0101960E94DA1D81E836
:1044700097E00E941C1781E090E00AC001501109EA
:1044800009F08ECF86E997E00E941C1780E090E04B
:104490006B960FB6F894DEBF0FBECDBFDF91CF9104
:1044A0001F910F910895CF93DF93FC01838190E7D3
:1044B000980F933038F4EF012496A0E0B2E088E042
:1044C0008A0F05C09CE6980F923030F4F4CF999192
:1044D0009D938A13FCCF0CC0873961F4EF012596B8
:1044E000A0E0B2E088E08A0F99919D938A13FCCFF7
:1044F000838105C0883819F08A3809F080E0DF919F
:10450000CF910895CF93DF93EC018B81803949F4EB
:10451000CE010E945322811102C080E00AC08F8523
:1045200008C08139D1F7CE010E9453228823A9F314
:104530008D89DF91CF910895CF92DF92EF92FF9214
:104540000F931F93CF93DF936C018B017A01EC01E2
:10455000C35FD14F888187FF04C0FB0111821082A5
:1045600024C08CE08C9D90018D9D300D112488819C
:10457000A901480F511D87FD5A958091B90C90E013
:104580004817590794F48881A901480F511D87FDE8
:104590005A95CA01FA01EE0FFF1F8E0F9F1FFC01F3
:1045A000E75DF34F808186FD19C088818F5F888326
:1045B0008CE08C9D90018D9D300D11248881A90186
:1045C000480F511D87FD5A958091B90C90E048170E
:1045D0005907BCF488818C3044F113C08881280FBE
:1045E000311D87FD3A95F901EE0FFF1F2E0F3F1F7A
:1045F000F901E75DF34F808160E08F730E94201A1C
:10460000D4CFF80180819181049680349C4918F4BC
:1046100080E49CE904C0F801808191810496F7014F
:10462000918380838FEF888345C0F8014081518159
:104630008881B901680F711D87FD7A95CB01FB0157
:10464000EE0FFF1F8E0F9F1FFC01E75DF34F81816F
:104650009281840F951FF701918380838881A9013E
:10466000480F511D87FD5A95CA01FA01EE0FFF1F31
:104670008E0F9F1FFC01E75DF34F808186FF1AC0FC
:104680008881280F311D87FD3A95F901EE0FFF1F34
:104690002E0F3F1FF901E75DF34F808161E08F73BB
:1046A000DF91CF911F910F91FF90EF90DF90CF900E
:1046B0000C94201ADF91CF911F910F91FF90EF90F2
:1046C000DF90CF9008958F929F92BF92CF92DF920A
:1046D000EF92FF920F931F93CF93DF937C0181E0C2
:1046E0000E94581DF70180838E3711F080E048C08A
:1046F00082E30E94581DF701818382E30E94581DC6
:10470000F7018283C181C11103C0182F8D3308F0D6
:104710001CE3C12ED12CD0E0DC2FCC27C80FD11D3B
:10472000CC19DD090FEFB12C8B2C912CF3E08F0EFF
:10473000911C8E0C9F1C82E30E94581DF401808303
:10474000B112081BB3941B1578F74601F3E08F0EE6
:10475000911C8E0C9F1C209759F082E30E94581DDB
:10476000F4018083C130D10509F0081B2197F3CFF4
:10477000F701EC0DFD1D83810813B8CF83E0810F95
:10478000DF91CF911F910F91FF90EF90DF90CF902D
:10479000BF909F908F9008952F923F924F925F927B
:1047A0006F927F928F929F92AF92BF92CF92DF9241
:1047B000EF92FF920F931F93CF93DF93CDB7DEB7A6
:1047C000C054D1090FB6F894DEBF0FBECDBF8C0127
:1047D000DC011C921B961C925C01BFEFAB1ABB0A5A
:1047E0003C01E9E06E0E711CF5011192E615F7052A
:1047F000E1F78FEFD80119968C9319971D968C933A
:104800001D971A968C931A971E968C931E971C963A
:104810008C931C978FEF9FEF52969C938E9351979A
:1048200054969C938E93539756969C938E9355973C
:1048300050961C921E921F974801B7E18B0E911C57
:10484000C801C796F4011192E817F907E1F79091B2
:104850000C0EFE0131966F01992309F484C2DF0129
:10486000ECE8FDE080E48E0F21912D938E13FCCFB8
:1048700081E08917B1F0F0E48F9FA001112420E0BE
:1048800030E0F901E40FF51FE457F24F6081E05486
:10489000F10960832F5F3F4F2034310591F78F5F1F
:1048A000E8CF815080930C0EC6010E945322E82E5F
:1048B00090E0FC01E858F109E031F10508F04CC244
:1048C0008827E356FF4F8F4F0C941F43FE01369607
:1048D0008191D5018D935D01A615B705C9F798891A
:1048E000F8019187898982872D812387FA88F48648
:1048F000F11036C2993409F066C0833509F030C230
:104900008D89F88CF8229C89911102C0882381F04E
:104910008F898923D8011E968C931E971D96FC9231
:104920001D975796FC92579758968C93B12C02C0BE
:10493000BB24B3948E88912CC8014996D8015A960D
:10494000412C512C77247A949401042C02C0359583
:1049500027950A94E2F720FF28C06B2D70E09201A2
:10496000245F3F4F261B370B220F331F660F771F25
:10497000AC01401B510B461B570B4C0D5D1DFA0142
:104980006081AD014B5051092C0D3D1DF901708125
:10499000272F30E0322F2227260F311DFA013183D5
:1049A0002083FC0170836C9304C0FC0170827C92B4
:1049B000B394FFEF4F1A5F0A0296129624E0421654
:1049C000510411F6CDC1953209F0CAC1863509F0FE
:1049D000C7C16B896687EC88E58670E080E090E06F
:1049E0000E946C3D20E030E040E853E40E94CD3D61
:1049F0004B015C016E2D70E080E090E00E946C3D08
:104A00009B01AC01C501B4010E94113F2FE832ECBB
:104A100045E95FE30E94CD3D0E946D40F801708B37
:104A20006787B1EEEB2E9CC18C81823919F0FF248F
:104A3000FA9428C0C6010E9453228823C1F38A89B0
:104A4000982F9E7F19F0FD88F8221CC09B899E78C4
:104A500071F3998991110AC0811108C091E08D8983
:104A6000833008F490E081E02C8907C091E08F89C1
:104A7000833008F490E081E02E89263008F080E051
:104A8000F92EF82AFE0135968191D5018D935D01AD
:104A9000A615B705C9F78F85F801848729898A8902
:104AA000211102C0882391F09C899223D8011E967F
:104AB0009C931E972D8982231D968C931D97579644
:104AC0008C93579758969C93B12C02C0BB24B394F7
:104AD0004B88642C712CF8017A9645E150E020E077
:104AE00030E055245A94CF0101971C01C301022ED6
:104AF00002C0959587950A94E2F780FF26C06B2D3A
:104B000070E0CB01880F991F4A01881A990AC901E0
:104B10000B96861B970B880F991F8C0D9D1DDC0132
:104B2000AC90BF016B5071098C0C9D1CD4019C9002
:104B3000892D90E0982F88278A0D911DDB018D9398
:104B40009C93D1019C92A08204C0D1015C925082BE
:104B5000B3942F5F3F4F4E5F5F4F32962430310545
:104B600011F647FEFDC0AB2CB12CC501880F991F73
:104B7000F601E81BF90B658D70E080E090E00E9483
:104B80006C3D20E030E040E853E40E94CD3D2B0135
:104B90003C018FE090E08A199B09880F991FF6016C
:104BA000E80FF91F608170E080E090E00E946C3DAA
:104BB0009B01AC01C301B2010E94113F2FE832EC0E
:104BC00045E95FE30E94CD3D0E946D40F801708B86
:104BD0006787C6C0FE0135968191D5018D935D0131
:104BE000A615B705C9F78F85F8018487C6010E940D
:104BF0008222882309F4B3C08B8174EFF72EF80E5C
:104C0000FFE1FF1510F46FE1F62EDE015096F4017E
:104C10008E2F88198F1518F48D918193F9CF8F8578
:104C2000D8011C968C939CC0FE0135968191D501CC
:104C30008D935D01A615B705C9F78D89F8018487A5
:104C4000C6010E948222882309F489C08B815EEE0E
:104C5000F52EF80EFFE1FF1510F44FE1F42EDE0102
:104C60005696F4018E2F88198F1508F079C08D9112
:104C70008193F8CFFE0135968191D5018D935D0129
:104C8000A615B705C9F78F85F8018487898D90E04F
:104C9000982F88272A8D820F911D908B87874B89AB
:104CA00081E091E0489F9001499F300D1124328BA3
:104CB000218B4D89489F9001499F300D1124348BE1
:104CC000238B4F89489F9001499F300D1124368BCB
:104CD000258BFE017196C80181962191D4012D93F7
:104CE0004D01A817B907C9F78B8DF80181A337C00B
:104CF000FE0135968191D5018D935D01A615B7050D
:104D0000C9F7FF84F801F4868E8D813049F028F0D0
:104D1000823031F589E2F82E23C021E2F22E20C044
:104D200093E2F92E1DC08E81D80119968C931997A4
:104D30008F811A968C931A978D811B968C931B9753
:104D4000F8841C96FC920CC0FD80F801F48608C023
:104D50008985D8011C968C93F801F08001C0F12C54
:104D6000D801EC9206C0CF010E94632381119CCD33
:104D7000F12C8F2DC05CDF4F0FB6F894DEBF0FBE55
:104D8000CDBFDF91CF911F910F91FF90EF90DF90FA
:104D9000CF90BF90AF909F908F907F906F905F90DB
:104DA0004F903F902F900895FF920F931F93CF93B2
:104DB000DF93CDB7DEB7C054D1090FB6F894DEBF8C
:104DC0000FBECDBFFC018091340B8F3F11F481E009
:104DD00001C08F5F8093340B808184353CF4823531
:104DE000ECF4813439F0863429F05DC0843509F45F
:104DF00041C059C09181943509F055C098E09C8319
:104E0000813421F48091340B8D8301C01D82828115
:104E10008E8383818F8357E014E047C09181913462
:104E200009F041C092819435F1F597E19C83823578
:104E300051F48091340B8D83CE0106960DE012E083
:104E400028E0200F02C01D82F7CFD8013D918D01CF
:104E5000DC013D93CD012013F8CF8FEF8E878EEFCD
:104E60008F8782E0888B8381898B84818A8B52E152
:104E70001FE01BC081818835B1F480E18C831D82E5
:104E8000DE011696EDE0F2E088E08E0F91919D93A1
:104E90008E13FCCF8FEF8E878EEF8F87188A198A3B
:104EA00051E11EE002C080E03DC08EE789831A8296
:104EB000FE0134968FEF93E09F01A1918A1B9F5FC3
:104EC0009513FBCF442389F0562FA1E0B0E0AC0F3F
:104ED000BD1FA90FB11DFB019E2F951B941720F438
:104EE00091919D93891BF8CF140F1B83F901E10F5A
:104EF000F11D808384E0F82EF10E00E00F1580F4A0
:104F0000E1E0F0E0EC0FFD1FE00FF11D608185E3B3
:104F10009BE00E94D30E811101C00F2D0F5FEECFD9
:104F200083E0810FC05CDF4F0FB6F894DEBF0FBE89
:104F3000CDBFDF91CF911F910F91FF9008952F92D8
:104F40003F924F925F926F927F928F929F92AF9219
:104F5000BF92CF92DF92EF92FF920F931F93CF9366
:104F6000DF931F921F92CDB7DEB7FC018B018081CA
:104F7000813469F48181843509F582818735C9F4EA
:104F800083818235B1F434E6232E312C14C082356E
:104F9000A9F48181813491F48281843579F483810B
:104FA000873561F48481823549F424E6222E312C40
:104FB00007C0212C312C20E030E004C0212C312C02
:104FC00021E03AE0B801CF012A8339830E94D42638
:104FD0002A813981882309F460C08AE0682E9CE028
:104FE000792E432E512C62018AE0C80ED11CE12C8F
:104FF000F12C4101A12CB12C400E511EE7E04E0EC8
:10500000511CC701B6012A830E94B22D2A812114A6
:10501000310429F0C501B4010E94B22D2A81C801D2
:105020002A830E9463232A81882369F1F8018381FE
:10503000883819F4222329F00DC0873959F421301A
:1050400049F4F80194818091340B981303C0F20164
:10505000708019C030910C0E3230A8F4D801F0E401
:105060003F9FA001112480E090E06D91FC01E40FCE
:10507000F51FE457F24F6083019680349105A9F73C
:105080003F5F30930C0E6A94662019F07110B9CF0F
:105090000CC0172D772049F001C01BE068EE73E0CB
:1050A00080E090E00E94B22D712E81E0711080E0CE
:1050B0000F900F90DF91CF911F910F91FF90EF9084
:1050C000DF90CF90BF90AF909F908F907F906F9028
:1050D0005F904F903F902F90089585ED8093BC0096
:1050E0008091BC0084FDFCCF10920F0B0895CF93EC
:1050F000DF93EC010E94E811882311F01D8281E00A
:10510000DF91CF9108953F924F925F926F927F927D
:105110008F929F92AF92BF92CF92DF92EF92FF92C7
:105120000F931F93CF93DF93CDB7DEB72C970FB6B6
:10513000F894DEBF0FBECDBF5C01DC015B968D90A5
:105140009C905C971696CD90DD90ED90FC90199711
:10515000C114D104E104F10439F0BFEFCB1ADB0A2A
:10516000EB0AFB0A312C07C0F401C080D180E28039
:10517000F38033243394F40181859285A385B4852B
:105180009C01AD012F5F3F4F4F4F5F4F29873A87FB
:105190004B875C87260137011D821E821F8218867D
:1051A000F40181859285A385B4852D813E814F814F
:1051B0005885281739074A075B0708F063C08985B7
:1051C0009A85AB85BC858C159D05AE05BF0550F451
:1051D00082E0C82ED12CE12CF12C92E0492E512CEA
:1051E000612C712C9E012F5F3F4FB701A601C401B6
:1051F0000E94FB10882309F445C089819A81AB8104
:10520000BC81892B8A2B8B2B41F0260137019FEF24
:10521000491A590A690A790A05C0C414D504E60472
:10522000F70491F02D813E814F8158852F5F3F4FCC
:105230004F4F5F4F2D833E834F8358873FEFC31AF5
:10524000D30AE30AF30AACCF0FEF1FEF2FEF3FE0D3
:10525000B301A201C4010E945B10882399F0D5011B
:1052600016964D915D916D917C911997411551055F
:105270006105710549F093018201C4010E945B1030
:10528000811102C080E02AC0D50116964D925D9230
:105290006D927C921997332051F0D301C20101968F
:1052A000A11DB11DF40180839183A283B383F50115
:1052B0008789908DA18DB28D892B8A2B8B2B69F4D8
:1052C000D50157964D925D926D927C925A971496A5
:1052D0008C911497806814968C9381E02C960FB66D
:1052E000F894DEBF0FBECDBFDF91CF911F910F911C
:1052F000FF90EF90DF90CF90BF90AF909F908F90F6
:105300007F906F905F904F903F9008958FB7F89483
:105310008091590E8FBF089561E0FC0184810E9445
:10532000201A8091580E81111092580E08958EBD4A
:1053300000000DB407FEFDCF8EB508958FEF0C94DD
:1053400097290F931F93CF93DF93EB010E94EC2DCE
:105350008B010E949E298F3F49F00E94EC2D601B1B
:10536000710B6C177D07A8F380E001C081E0DF912D
:10537000CF911F910F910895CF93DF93EC018E8110
:10538000882389F08F8198859C012F5F3F4F388754
:105390002F838230924018F40E949E29F3CFCE01D1
:1053A0000E948C291E82DF91CF9108958CBD9DBDF6
:1053B0000895CF93DF93EC018091580E811109C0BD
:1053C00081E08093580E8091D20B9091D30B0E9474
:1053D000D62960E08C81DF91CF910C94201ACF9276
:1053E000DF92FF920F931F93CF93DF9300D01F9212
:1053F000CDB7DEB76C01F62E29833A834B835C83ED
:105400000E94BC29C6010E94D9296CE271E0C60144
:105410000E94A1298F2D80640E94972908E110E045
:105420005C814B813A812981DA01C901002E04C0D7
:10543000B695A795979587950A94D2F729833A83CD
:105440004B835C830E9497290850110929813A8176
:105450004B815C81083F8FEF180731F7FF2029F05F
:10546000E8E0FE1204C087E803C085E901C08FEFC1
:105470000E94972910E00E949E29F601828787FFEB
:1054800004C01F3F11F01F5FF6CF0F900F900F90D9
:105490000F90DF91CF911F910F91FF90DF90CF90F0
:1054A0000895AF92BF92CF92DF92EF92FF920F9347
:1054B0001F93CF93DF93EC016901C801820F931F03
:1054C0008130924008F070C08E81882371F088810D
:1054D0009981AA81BB81481759076A077B0729F47C
:1054E0008F819885C816D906B0F5488359836A8399
:1054F0007B838B85833039F089E0440F551F661F0D
:10550000771F8A95D1F79A01AB0161E1CE010E9424
:10551000EF29882319F083E08D8346C00E94EC2D8B
:105520005B010E949E298A878F3F49F40E94EC2DDF
:105530006A197B096D327140A0F38FE003C08E3F82
:1055400031F08DE08D83CE010E948C292DC018860C
:105550001F8281E08E838F8198858C159D0540F494
:105560000E949E298F819885019698878F83F3CF1B
:105570006701E00EF11ECE14DF0431F00E949E2977
:10558000F60181936F01F7CF8F819885080F191F5E
:1055900018870F838985882319F00115124048F078
:1055A000CE010E94BC2905C0CE010E948C2980E05A
:1055B00001C081E0DF91CF911F910F91FF90EF909B
:1055C000DF90CF90BF90AF900895EF92FF920F932E
:1055D0001F93CF93DF93EC017901411551056105CC
:1055E000710511F482E13CC08B85833039F089E08C
:1055F000440F551F661F771F8A95D1F79A01AB019B
:1056000068E1CE010E94EF29882311F084E028C0D0
:105610008EEF0E94972987018EEFF81AF801819189
:105620008F010E9497290E151F05C1F78FEF0E9469
:1056300097298FEF0E9497290E949E298A878F7150
:10564000853031F081E18D83CE010E948C2909C023
:1056500068E572E0CE010E94A129811107C085E1B1
:105660008D83CE010E948C2980E013C020E030E0C1
:10567000A9016DE0CE010E94EF29811104C00E94B2
:105680009E29882311F084E1EBCFCE010E948C2962
:1056900081E0DF91CF911F910F91FF90EF900895DE
:1056A0001F920F920FB60F9211240BB60F922F93E9
:1056B0003F934F935F936F937F938F939F93AF939A
:1056C000BF93EF93FF938091B900887F803609F4F0
:1056D0009CC068F5883209F45BC090F4803109F40D
:1056E00054C038F4882309F4F6C0883009F44DC05A
:1056F000F6C0883109F44CC0803209F45DC0EFC0B7
:10570000803409F468C048F4803309F455C0883304
:1057100009F0E5C080930D0BD8C0803509F44FC067
:10572000883509F45DC0883409F0D9C0D6C08839FD
:1057300009F4C7C0A8F4883709F467C038F488367C
:1057400009F463C0803709F460C0C9C0883809F41F
:10575000B8C0803909F45FC0803809F0C0C05BC0B0
:10576000803B09F486C038F4803A09F466C0883A70
:1057700009F47FC0B4C0803C09F4A7C0883C09F498
:10578000A4C0883B09F48AC0AAC08091EA0A10C06C
:1057900090910C0B80910B0B981770F5E0910C0B0E
:1057A00081E08E0F80930C0BF0E0E551F54F808186
:1057B0008093BB0085EC86C080930D0B8EC0E0917A
:1057C0000C0B81E08E0F80930C0B8091BB00F0E0FE
:1057D000E551F54F808390910C0B80910B0B6EC0BF
:1057E000E0910C0B81E08E0F80930C0B8091BB003D
:1057F000F0E0E551F54F808380910E0B81116DC073
:1058000081E08093E90A84EA61C083E080930F0B12
:105810001092570ECFCF8091570E803208F051C0B2
:10582000E091570E81E08E0F8093570E8091BB0060
:10583000F0E0E95CF14F8083BDCF85EC8093BC0044
:1058400010920F0B8091570E803230F4E091570E7A
:10585000F0E0E95CF14F10826091570E70E0E0914A
:10586000350EF091360E87E39EE019951092570E93
:1058700036C084E080930F0B1092340E1092330EDA
:10588000E091310EF091320E19958091330E811115
:1058900005C081E08093330E1092110EE091340E1A
:1058A00081E08E0F8093340EF0E0EF5EF14F808147
:1058B0008093BB009091340E8091330E981708F4BA
:1058C00079CF85E88093BC000AC085EC8093BC004A
:1058D00010920F0B04C010920D0B0E946D28FF91C7
:1058E000EF91BF91AF919F918F917F916F915F9158
:1058F0004F913F912F910F900BBE0F900FBE0F90C5
:105900001F9018954091330E262F30E0240F311D43
:1059100021323105DCF420910F0B2430C9F4FC0155
:1059200080E090E0861758F43091330E2191DC012D
:10593000AF5EB14FA30FB11D2C930196F3CF8091B1
:10594000330E680F6093330E80E0089581E0089570
:1059500082E008951F920F920FB60F9211240BB69A
:105960000F922F933F934F935F936F937F938F93F8
:105970009F93AF93BF93EF93FF9348E251E064E2AC
:1059800071E080E090E00E949C22FF91EF91BF9136
:10599000AF919F918F917F916F915F914F913F91C7
:1059A0002F910F900BBE0F900FBE0F901F90189568
:1059B0001F920F920FB60F9211240BB60F922F93D6
:1059C0003F934F935F936F937F938F939F93AF9387
:1059D000BF93EF93FF9348EA50E064EA70E083E0FE
:1059E00090E00E949C22FF91EF91BF91AF919F9117
:1059F0008F917F916F915F914F913F912F910F9078
:105A00000BBE0F900FBE0F901F9018951F920F9214
:105A10000FB60F9211240BB60F922F933F934F9313
:105A20005F936F937F938F939F93AF93BF93EF9306
:105A3000FF9348E950E064E970E082E090E00E9462
:105A40009C22FF91EF91BF91AF919F918F917F9198
:105A50006F915F914F913F912F910F900BBE0F90DF
:105A60000FBE0F901F9018951F920F920FB60F92B6
:105A700011240BB60F922F933F934F935F936F9325
:105A80007F938F939F93AF93BF93EF93FF9348E8D8
:105A900050E064E870E081E090E00E949C22FF9179
:105AA000EF91BF91AF919F918F917F916F915F9196
:105AB0004F913F912F910F900BBE0F900FBE0F9003
:105AC0001F9018953FB7F8948091660E9091670EDD
:105AD000A091680EB091690E26B5A89B05C02F3F16
