:100000000C94AC020C94DD020C94DD020C94DD0225
:100010000C94DD020C94DD020C94DD020C94DD02E4
:100020000C94DD020C94E9050C94E9050C94E905A7
:100030000C94DD020C94A32B0C94DD020C94DD02D5
:100040000C94DD020C94BF190C94DD020C94DD02BB
:100050000C94DD020C94DD020C94DD020C94592BFF
:100060000C94DD020C94A21D0C94781D0C94DD02FE
:100070000C94DD020C94DD020C94DD020C94DD0284
:100080000C9491190C94DD020C94DD020C94DD02A9
:100090000C94DD020C94DD020C94DD020C94DB1751
:1000A0000C94DD020C94DD020C9463190C94DD02B7
:1000B0000C94DD020C94DD020C94DD020C943519D5
:1000C0000C94DD020C94DD020C94DD020C94DD0234
:1000D0000C94DD020C94DD020C94DD020C94DD0224
:1000E0000C94DD02A329A629952999299F29DD29A8
:1000F000AA29AE29B429B829BC29C229C629CA29E6
:10010000DD29D029D429D829732A782A7D2A872A5B
:10011000912A0A2B9B2AA32AAB2AB52ABF2AC92ACD
:10012000D82AE22A0A2BEC2AF62A002B084AD73BC7
:100130003BCE016E84BCBFFDC12F3D6C74319ABDB6
:1001400056833DDA3D00C77F11BED9E4BB4C3E91DA
:100150006BAAAABE000000803F072C7AA5BA6CC526
:1001600090DA3B9365FC8BBC53F810FD3C569283B0
:100170004DBD879D3AB63DCBC9BF5BBE73DA0FC993
:100180003F05A84CCDB2D44EB93836A9020C50B9AF
:10019000918688083CA6AAAA2ABE000000803F08D3
:1001A000000000BE922449123EABAAAA2ABECDCCC2
:1001B000CC4C3E00000080BEABAAAAAA3E000000C4
:1001C00000BF000000803F0000000000084178D31D
:1001D000BB4387D1133D190E3CC3BD4282AD2B3EBC
:1001E00068EC8276BED98FE1A93E4C80EFFFBE015C
:1001F000C4FF7F3F0000000000000C94541C0C94CE
:10020000E3030C94D4290C9404150C94AE290C949B
:10021000D8290C94D82A0C94FC140C945D290C94C5
:100220000A2B0C94872A0C949C030C94BF030C9407
:100230009B030C94912A0C9499290C94A6290C9454
:10024000E01C0C94782A0C94A32A0C947D2A0C941C
:100250007C3B0C949B2A0C943B1D0C94723B0C949D
:10026000F62A0C94BF050C94F5020C94991C0C947E
:10027000EC2A0C949F290C94CA290C94AA290C945A
:10028000401C0C94E22A0C94C6290C94B52A0C94B8
:10029000BF2A0C9413040C94C2290C94C7030C9429
:1002A000732A0C9412220C940D030C94E3130C94F7
:1002B00095290C9462030C94B8290C94002B0C948F
:1002C000B4290C94BC290C94621C0C94DF020C948D
:1002D0007A030C94AB2A0C94C92A0C94A3290C948D
:1002E000D0290C94DD290C940E030C94AB034E41E1
:1002F0004E494E495459494E46CDCCCC3D0AD723A0
:100300003C17B7D13877CC2B329595E6241FB14FE7
:100310000A000020410000C84200401C4620BCBE2C
:100320004CCA1B0E5AAEC59D7400407A10F35A0099
:10033000A0724E18090010A5D4E80000E87648170E
:100340000000E40B54020000CA9A3B000000E1F5F3
:1003500005000080969800000040420F000000A0B9
:100360008601000000102700000000E803000000E4
:10037000006400000000000A00000000000100000E
:100380000000002C76D888DC674F0823DFC1DFAE81
:1003900059E1B1B796E5E3E453C63AE6519976964A
:1003A000E8E6C28426EB898C9B62ED407C6FFCEF13
:1003B000BC9C9F40F2BAA56FA5F490055A2AF75C41
:1003C000936B6CF9676DC11BFCE0E40D47FEF520F3
:1003D000E6B500D0ED902E030094357705008084BB
:1003E0001E080000204E0A000000C80C33333333CF
:1003F0000F986E12831141EF8D2114893BE655163B
:10040000CFFEE6DB18D1844B381BF77C1D901DA472
:10041000BBE424203284725E228100C9F124ECA165
:10042000E53D277C3C3E5E2B3D3F2F5B5D3B2C2A10
:10043000225C0000002200250028002B002E003145
:1004400000340002010000050108010B010000203A
:10045000002300260029002C002F0032000001009C
:10046000000301060109010505050507050808083F
:1004700008020202020A0A08080404040401010135
:10048000010101010103030303030303030407073D
:10049000070C0C0C0C0C0C0C0C02020202060606DB
:1004A00006060606060B0B0B0B0B0B0B0B010210C3
:1004B000202008081020401020408002010201087E
:1004C000040201010204081020408080402010082E
:1004D0000402018004020180402010080402010887
:1004E00004020101020408102040800102040810E7
:1004F0002040800200002100240027002A002D0057
:100500003000330001010000040107010A0100006E
:100510000A0B02090C0D0E0807030401000000007D
:1005200000000000000000000000000000000000CB
:100530000000000000000000000012111000000088
:1005400000000000000000000000000000000000AB
:10055000000000007C3B723B11241FBECFEFD1E2B4
:10056000DEBFCDBF00E00CBF18E0A0E0B2E0E6E0E7
:10057000F4E900E00BBF02C007900D92A039B1076B
:10058000D9F72FE0A0E9B8E001C01D92A435B20769
:10059000E1F712E0CBEAD2E000E006C021970109C2
:1005A000802FFE010E949745CA3AD10780E00807D4
:1005B000A9F70E94A72C0C94F1490C940000CF934A
:1005C000DF931F92CDB7DEB76983DC01ED91FC911B
:1005D0000280F381E02D41E050E0BE016F5F7F4F6C
:1005E00019950F90DF91CF91089520919208309145
:1005F00093082817390771F4909190088091910819
:10060000981741F0E0919008F0E0EE53F64F8081AA
:1006100090E008958FEF9FEF089508951F93CF9373
:10062000DF93DC015C962D913C915D97211531059E
:1006300039F481E090E013969C938E9312973DC01D
:100640005196ED91FC91529750969C915097892F1D
:1006500080951FB75E964C915E9741FB772770F9A6
:1006600041FD6095F8944081772311F0492B01C03A
:1006700048234083E9012197F1F748E0508160FF6A
:1006800002C0592B01C058235083E9012197F1F78B
:100690006695415099F7772321F0908189238083D3
:1006A00003C08081982B90831FBF5C968D919C9195
:1006B0005D970197F1F721E030E0C901DF91CF911B
:1006C0001F910895209192083091930828173907B7
:1006D00071F4809191082091900890E0805C9F4F88
:1006E000821B910960E470E00E948345089580E0D8
:1006F00090E00895209192083091930828173907C7
:10070000B9F49091900880919108981789F0E09140
:100710009008F0E0EE53F64F80812091900830E091
:100720002F5F3F4F2F7333272093900890E0089559
:100730008FEF9FEF08950895E091D80C8091D70C2A
:10074000E81730F4F0E0E752F34F808190E008952D
:100750008FEF9FEF08959091D80C8091D70C981748
:1007600050F4E92FF0E0E752F34F208130E09F5F33
:100770009093D80C02C02FEF3FEFC90108958091EC
:10078000D70C90E02091D80C821B91090895CF934B
:10079000DF93EC01898D9A8D009739F481E090E028
:1007A0009B838A8380E090E00BC0FC01138212825D
:1007B0000E948220E98DFA8D22813381232B71F7EB
:1007C000DF91CF910895CF92DF92EF92FF920F9336
:1007D0001F93CF93DF937C01262F972F8A0180915F
:1007E000200D882391F0C62FD72F6E01C40ED51E81
:1007F000CC15DD0571F06991D701ED91FC91019067
:10080000F081E02DC7011995F3CF642F822F0E944C
:100810000D19C801DF91CF911F910F91FF90EF90BB
:10082000DF90CF900895CF93DF931F92CDB7DEB7BF
:1008300069832091200D2223D1F02091430D203295
:1008400040F021E030E0FC013383228380E090E03F
:1008500015C08091210DE82FF0E0EE5DF24F9981F7
:1008600090838F5F8093210D8093430D05C061E0DD
:10087000CE0101960E940D1981E090E00F90DF916A
:10088000CF910895EF92FF920F931F93CF93DF9331
:10089000CDB7DEB760970FB6F894DEBF0FBECDBF01
:1008A0009E012F5F3F4F7901890126E04AE00E94B7
:1008B000923CFF92EF9280EC96E09F938F93FF9291
:1008C000EF920E941A47C7010E94EE2462E070E096
:1008D00080E090E00E94132B0F900F900F900F90EC
:1008E0000F900F9060960FB6F894DEBF0FBECDBF8D
:1008F000DF91CF911F910F91FF90EF900895EF92AC
:10090000FF920F931F93CF93DF93EC017B018A013A
:100910001B821A8288EE93E0A0E0B0E08C839D8376
:10092000AE83BF838BEA92E0998388838DE190E068
:100930000E94B3459A8F898F009779F02DE1F701D6
:10094000DC0101900D922A95E1F74CE050E0B801EE
:10095000CE010C960E940B47188EDF91CF911F910C
:100960000F91FF90EF9008952F923F924F925F92D8
:100970006F927F928F929F92AF92BF92CF92DF92AF
:10098000EF92FF920F931F93CF93DF931F921F92CB
:10099000CDB7DEB7FC018581882309F4D9C08481F5
:1009A00080FFD6C021E02A834389548965897689EE
:1009B00082859385A485B585481759076A077B0703
:1009C00009F41A826F013A81832F90E0DE011196BB
:1009D0004D013F01B6E06B0E711C892B09F47DC0FF
:1009E000D6011A964D915D916D917C911D975A019A
:1009F000B1E0BB22F60125811A012B0189E0569452
:100A00004794379427948A95D1F7838D948D22301B
:100A100061F4FC01828D938DA48DB58DBC01CD0157
:100A2000620D731D841D951D45C0DC0114961C913B
:100A300011501221A114B104D1F4111118C0452B89
:100A4000462B472B51F4F6018789908DA18DB28DED
:100A500086839783A087B1870AC0468157816085C6
:100A6000718593010E94C11E882309F471C0F601AB
:100A7000238D348D86819781A085B1850297A10948
:100A8000B109AC01BD01F901058404C0440F551F33
:100A9000661F771F0A94D2F786859785A089B1894A
:100AA000840F951FA61FB71FBC01CD01610F711DDB
:100AB000811D911DD60114962C9126FF14C0009122
:100AC000090210910A0220910B0230910C0260176A
:100AD00071078207930751F506C0FA81FF23C1F120
:100AE000898190E037C040E00E94D81D882381F1C1
:100AF000F501EB52F54FD401CF010196E817F90744
:100B000019F021912D93FACFEFEF8E1A9E0AF6017C
:100B100082859385A485B5850196A11DB11D828727
:100B20009387A487B58780E090E057CF740101E0F8
:100B300010E09501AB01BC018091D50C9091D60CD1
:100B40000E94DC16882321F0BFEF8B1A9B0ADFCFAF
:100B50008FEF9FEF0F900F90DF91CF911F910F912B
:100B6000FF90EF90DF90CF90BF90AF909F908F90CD
:100B70007F906F905F904F903F902F9008950F93CC
:100B80001F93CF93DF93FC01818D928D0097B9F075
:100B9000EF010E94B4048C010F3F8FEF180791F012
:100BA000898D9A8DFC0142855385648575854150F8
:100BB0005109610971090E94EC1FC80105C080E05C
:100BC00090E002C08FEF9FEFDF91CF911F910F91C7
:100BD00008951F920F920FB60F9211240BB60F9229
:100BE0002F933F934F935F936F937F938F939F9335
:100BF000AF93BF93EF93FF93E0919208F091930826
:100C0000309709F451C0968DA685B785858591FFEB
:100C100004C09C91892329F447C09C91892309F041
:100C200043C0A389B4899C918589809589238C933D
:100C3000868997890197F1F7608D718DA685B785B3
:100C4000558538E020E0CB010197F1F7822F90E045
:100C500095958795282F4C91452309F020683150B0
:100C600091F7868D81FD20958091910890E0019605
:100C70008F73992730919008381749F0A091910807
:100C8000B0E0AE53B64F2C938093910803C0868D8D
:100C90008160868F828D938D0197F1F7A389B48946
:100CA0009C918589892B8C93FF91EF91BF91AF9196
:100CB0009F918F917F916F915F914F913F912F9174
:100CC0000F900BBE0F900FBE0F901F901895E091E4
:100CD0009208F0919308E817F90769F4A389B48999
:100CE0009C918589809589238C931092930810920A
:100CF000920881E0089580E008958F929F92AF92CC
:100D0000BF92CF92DF92EF92FF920F931F93CF93F8
:100D1000DF93CDB7DEB7C054D1090FB6F894DEBF6C
:100D20000FBECDBF49015A017E0121E3E20EF11C45
:100D3000870126E04AE00E94923C6E0181E2C80EE3
:100D4000D11C860126E04AE0C501B4010E94923C14
:100D5000DF92CF92FF92EF928DEB96E09F938F936D
:100D6000005211091F930F930E941A47C8010E9455
:100D7000EE2462E070E080E090E00E94132B0FB65A
:100D8000F894DEBF0FBECDBFC05CDF4F0FB6F89446
:100D9000DEBF0FBECDBFDF91CF911F910F91FF90AE
:100DA000EF90DF90CF90BF90AF909F908F9008957D
:100DB0008F929F92AF92BF92CF92DF92EF92FF926B
:100DC000CF93DF937C01EB01FC01208531854285C7
:100DD00053856C817D818E819F810E9480424B0171
:100DE0005C01F701248135814681578168817981D1
:100DF0008A819B810E9480426B017C01A501940144
:100E0000C501B4010E943D414B015C01A70196015F
:100E1000C701B6010E943D419B01AC01C501B4016F
:100E20000E9481420E94054528E33CE841EC57E4DA
:100E30000E943D41DF91CF91FF90EF90DF90CF90E6
:100E4000BF90AF909F908F9008954F925F926F9256
:100E50007F928F929F92AF92BF92CF92DF92EF924A
:100E6000FF920F931F93CF9320911D02213221F007
:100E70002F3F09F07DC204C0E3EFF4E0C491E7C066
:100E800021E220931D02E3EFF4E0C491CF3F09F487
:100E90006FC2C23009F472C04CF5CC2309F451C0C2
:100EA000C13009F0D4C010928000109281002091CE
:100EB000810028602093810020918100216020938F
:100EC0008100E8E8F4E0E491F0E0EE0FFF1FED5C54
:100ED000FB4F259134913093AA092093A909EEEC98
:100EE000F4E0E491E093A809C1E0B3C0C43009F490
:100EF0008BC00CF466C0C53009F0A9C01092200167
:100F0000109221012091210128602093210120913C
:100F10002101216020932101E8E8F4E0E491F0E070
:100F2000EE0FFF1FED5CFB4F259134913093A1092B
:100F30002093A009EEECF4E0E491E0939F09C5E072
:100F400088C014BC15BC24B5226024BD25B5216021
:100F500025BDE8E8F4E0E491F0E0EE0FFF1FED5C62
:100F6000FB4F259134913093AD092093AC09EEEC01
:100F7000F4E0E491E093AB09C0E06BC01092B000E4
:100F80001092B1002091B00022602093B000209117
:100F9000B10021602093B100E8E8F4E0E491F0E0D2
:100FA000EE0FFF1FED5CFB4F2591349130933D0F09
:100FB00020933C0FEEECF4E0E491E0933E0FC2E0AE
:100FC00048C01092900010929100209191002860EA
:100FD0002093910020919100216020939100E8E8F6
:100FE000F4E0E491F0E0EE0FFF1FED5CFB4F259184
:100FF00034913093A7092093A609EEECF4E0E49134
:10100000E093A509C3E025C01092A0001092A100B2
:101010002091A10028602093A1002091A1002160CF
:101020002093A100E8E8F4E0E491F0E0EE0FFF1F68
:10103000ED5CFB4F259134913093A4092093A309D3
:10104000EEECF4E0E491E093A209C4E002C0C7FD35
:101050008FC18C0161E081E20E940E2A4801A12C1F
:10106000B12C8C2F8D7F09F0B6C060E072E18AE769
:1010700090E0A50194010E94144229013A016901FE
:101080007A0121E0C21AD108E108F1088FEFC816F1
:10109000D104E104F10409F008F44BC060E472E407
:1010A0008FE090E0A50194010E94144269017A0149
:1010B00081E0C81AD108E108F108C23001F52FEF2C
:1010C000C216D104E104F10409F008F4C0C160E9DA
:1010D00070ED83E090E0A50194010E941442690143
:1010E0007A0181E0C81AD108E108F1082FEFC21691
:1010F000D104E104F10409F0C0F593E065C08FEF7D
:10110000C816D104E104F104B1F0A8F068E478EE67
:1011100081E090E0A50194010E94144269017A01E6
:1011200081E0C81AD108E108F108CC2309F437C1DD
:1011300085C191E001C092E0CC2391F045C0D3017C
:10114000C2012AE0B595A795979587952A95D1F77D
:101150006C017D0121E0C21AD108E108F10895E097
:1011600085B5887F982B95BD80C068E478EE81E0D6
:1011700090E0A50194010E94144269017A0181E086
:10118000C81AD108E108F1082FEFC216D104E10412
:10119000F10409F008F401C164E274EF80E090E02A
:1011A000A50194010E94144269017A0181E0C81AE4
:1011B000D108E108F1082FEFC216D104E104F104CF
:1011C00011F008F00EC195E08091B100887F982B56
:1011D0009093B1004AC060E072E18AE790E0A50117
:1011E00094010E94144269017A0181E0C81AD10871
:1011F000E108F108C114D10421E0E206F10488F00D
:1012000068E478EE81E090E0A50194010E94144228
:1012100069017A0181E0C81AD108E108F10883E088
:1012200001C081E0C13039F490918100987F892B11
:10123000809381001AC0C33039F490919100987F57
:10124000892B8093910011C0C43039F49091A10092
:10125000987F892B8093A10008C0C53031F490910C
:101260002101987F892B809321019801220F331F40
:10127000ACE2B1E00E94604228EE33E040E050E092
:101280000E943E42C23009F440C0BCF4CC2371F14C
:10129000C13009F06DC0D0928900C09288002093BF
:1012A000BA093093BB094093BC095093BD098091A2
:1012B0006F00826080936F005BC0C43009F447C048
:1012C000A4F1C53009F054C0D0922901C092280180
:1012D0002093AE093093AF094093B0095093B10900
:1012E0008091730082608093730042C0C7BC2093DA
:1012F000BE093093BF094093C0095093C109809142
:101300006E00826080936E0033C0C092B300209361
:101310003F0F3093400F4093410F5093420F809105
:10132000700082608093700023C0D0929900C092B8
:1013300098002093B6093093B7094093B8095093A9
:10134000B9098091710082608093710011C0D092C0
:10135000A900C092A8002093B2093093B30940932A
:10136000B4095093B5098091720082608093720035
:101370006CE271E080E090E0CF911F910F91FF90BF
:10138000EF90DF90CF90BF90AF909F908F907F9025
:101390006F905F904F900C94132B94E015CF8FEFCC
:1013A000C816D104E104F104D1F0C8F062E17AE793
:1013B00080E090E0A50194010E94144269017A0145
:1013C00081E0C81AD108E108F1082FEFC216D10454
:1013D000E104F10411F008F0B2CE94E0C1CE93E044
:1013E000BFCE62E17AE780E090E0A50194010E941F
:1013F000144269017A0181E0C81AD108E108F108B4
:101400002FEFC216D104E104F104B1F0A8F0D3012A
:10141000C2015AE0B595A795979587955A95D1F74A
:101420006C017D0121E0C21AD108E108F108CC234A
:1014300009F495CE97E0C8CE96E07ECE8FEFC81621
:10144000D104E104F10409F060F694E075CE92E075
:10145000BBCECF92DF92EF92FF920F931F93CF9369
:10146000DF93CDB7DEB76B970FB6F894DEBF0FBE34
:10147000CDBF7C0184EC96E00E94EE240E944D2BAF
:10148000F701648B758B868B978B0EE110E06AED0C
:1014900076E0CE0101960E943D26EA8DFB8D3097C5
:1014A00009F464C08581882309F460C043895489A4
:1014B00065897689CF010E94EC1F67E776E0CE014F
:1014C00001960E94492C69E776E0CE0101960E94C0
:1014D000492C66EE76E0CE0101960E94492CF70178
:1014E00044895589668977892AE0CE0101960E9450
:1014F0005E2C6CEE76E0CE0101960E94492CF7013D
:10150000C08CD18C0D2C000CEE08FF08F7FE0EC02D
:101510006DE2CE0101960E94422C44275527BA0164
:101520004C195D096E097F092AE003C02AE0B70162
:10153000A601CE0101960E945E2C69E776E0CE01FD
:1015400001960E94492C8A8D9B8D009741F00E9444
:10155000E2248A8D9B8D0E9448461B8E1A8E85EF51
:1015600096E00E94EE2481E090E00AC0015011094B
:1015700009F08DCF8EE097E00E94EE2480E090E0AD
:101580006B960FB6F894DEBF0FBECDBFDF91CF9143
:101590001F910F91FF90EF90DF90CF900895CF9320
:1015A000C62F91E09093200D4093420D1092210D93
:1015B0001092430D682F8DE29EE00E9413046C2F61
:1015C0008DE29EE00E94130481E00E942A2521E022
:1015D00030E0882311F020E030E0C901CF91089578
:1015E000CF93DF93CDB7DEB728970FB6F894DEBF61
:1015F0000FBECDBF4B836D838F83622F84E00E942B
:10160000DE296B8185E00E94DE296D8186E00E94E3
:10161000DE296F8187E028960FB6F894DEBF0FBEF3
:10162000CDBFDF91CF910C94DE29EF92FF920F9303
:101630001F93CF93DF93CDB7DEB728970FB6F894FB
:10164000DEBF0FBECDBF28E0E3E8F2E0DE01119679
:1016500001900D922A95E1F7845195407C0101E0BB
:1016600010E01A8219821E821D8260E070E084E020
:101670000E944A2AB80185E00E944A2A60E070E090
:1016800086E00E944A2AB80187E00E944A2A62E066
:1016900070E080E090E00E94132B0F5F1F4F011558
:1016A00081E01807F1F681E090E0482F29813A8126
:1016B00050E06D817E810E94F00AB701FF0C880B1B
:1016C000990B0E94132B0FEF10E060E070E084E0B4
:1016D0000E944A2AB80185E00E944A2A60E070E030
:1016E00086E00E944A2AB80187E00E944A2A67E001
:1016F00070E080E090E00E94132B0150110929F75F
:1017000081E090E0282F482F682F30E050E070E013
:101710000E94F00A28960FB6F894DEBF0FBECDBF28
:10172000DF91CF911F910F91FF90EF9008950F934C
:101730001F93CF93DF9300D000D0CDB7DEB78C01DD
:1017400080E090E0A8ECB2E4F80180839183A2836A
:10175000B38384839583A683B78380879187A28789
:10176000B3874EE1BE016F5F7F4F83E00E94872504
:10177000892B99F1698170E0762F66278A81682B21
:10178000072E000C880B990B0E94DE40F801608345
:101790007183828393836B8170E0762F66278C81BF
:1017A000682B072E000C880B990B0E94DE40F80175
:1017B00060877187828793876D8170E0762F6627B7
:1017C0008E81682B072E000C880B990B0E94DE403F
:1017D000F8016483758386839783C80126960FB6C4
:1017E000F894DEBF0FBECDBFDF91CF911F910F9157
:1017F00008952F923F924F925F926F927F928F92B5
:101800009F92AF92BF92CF92DF92EF92FF920F938F
:101810001F93CF93DF93CDB7DEB7C654D1090FB670
:10182000F894DEBF0FBECDBF2DB73EB727963FAFB2
:101830002EAF279785E297E00E94EE24FE013196B5
:1018400088E2DF011D928A95E9F780E090E0A0E848
:10185000BFEB89839A83AB83BC83F8AFEFABB896B9
:10186000FEABEDAB0FA918AD84E6282E312C68EC49
:1018700070E080E090E00E94132BCE0189960E94D8
:10188000970B89A59AA5ABA5BCA521968CAF9DAF5A
:10189000AEAFBFAF21978DA59EA5AFA5B8A989AF63
:1018A0009AAFABAFBCAF89A99AA9ABA9BCA9259641
:1018B0008CAF9DAFAEAFBFAF259720919808309108
:1018C000990840919A0850919B0821966CAD7DAD86
:1018D0008EAD9FAD21970E9480429B01AC010E947A
:1018E00081422091050230910602409107025091F9
:1018F00008020E9464436B017C012091940830919E
:101900009508409196085091970869AD7AAD8BADD6
:101910009CAD0E9480429B01AC010E9481422091BB
:1019200001023091020240910302509104020E9490
:1019300064434B015C01A7019601C701B6010E94F7
:101940003D412B013C01A5019401C501B4010E9458
:101950003D419B01AC01C301B2010E9481420E9442
:1019600005452B013C019B01AC01C501B4010E945E
:1019700064434B015C01A3019201C701B6010E94BF
:1019800064436B017C0120E030E0A901C501B40192
:101990000E943D419B01AC01C701B6010E948142FA
:1019A0000E946F4220E030E044E353E40E943D4156
:1019B0002BED3FE049E450E40E9464436B017C015D
:1019C00020E030E0A901C501B4010E94D74087FFA3
:1019D0000DC0A701960160E070E084EB93E40E94E3
:1019E000804226E636E646EE50E406C026E636E6B7
:1019F00046EE50E4C701B6010E9480420E94D643E1
:101A0000CB0168E671E00E948345BC01990F880B09
:101A1000990B0E94DE406B017C0120E030E044EB3A
:101A200052E40E94D74020E030E044EB52E487FFCC
:101A30000BC0C701B6010E94804220E030E044EBB9
:101A400053E40E94814204C0C701B6010E94804253
:101A5000D8016D937D938D939C931397B1E02B1ACE
:101A6000310809F4E6C020E030E048EC52E4219669
:101A70006CAD7DAD8EAD9FAD21970E94D740882380
:101A800009F4F5CE20E030E048EC52E469AD7AADDF
:101A90008BAD9CAD0E94D740882309F4E8CE20E0AE
:101AA00030E048EC52E425966CAD7DAD8EAD9FAD37
:101AB00025970E94D740882309F4D9CE0C5F1F4F89
:101AC000EDA9FEA90E171F0709F0CECE2DB63EB622
:101AD0002DB73EB7205531090FB6F8943EBF0FBE63
:101AE0002DBF0DB71EB70F5F1F4F7801CDB6DEB605
:101AF00031E5C30ED11CF8011082118212821382CB
:101B000014821582168217823896EC15FD05A1F70E
:101B1000AFA9B8AD6D917D918D919D91B8AFAFABEF
:101B20002BED3FE049E450E40E943D4120E030E0ED
:101B300044E353E40E9464432B013C010E945F4351
:101B4000F8016083718382839383C301B2010E9491
:101B5000F744D80114966D937D938D939C931797BA
:101B6000085F1F4F0C151D0599F6412C512C3201B1
:101B700053014201F7012081318142815381C50126
:101B8000B4010E9481424B015C01D70114962D9152
:101B90003D914D915C911797C301B2010E94814222
:101BA0002B013C01B8E0EB0EF11CEC14FD0411F725
:101BB00020E030E040E251E4C501B4010E946443FA
:101BC0006B017C0120E030E040E251E4C301B2014E
:101BD0000E946443A70196010E94004320E030E088
:101BE00044E353E40E943D412BED3FE049E450E4DF
:101BF0000E9464430E94D643CB0188599E4F68E6F9
:101C000071E00E948345BC01990F880B990B0E94DB
:101C1000DE407B018C010FB6F8943EBE0FBE2DBE98
:101C200081E497E00E94EE24B701C8010E944204BB
:101C300004C0E12CF12C00E81FEBB701C801279686
:101C4000EEADFFAD27970FB6F894FEBF0FBEEDBF08
:101C5000CA5BDF4F0FB6F894DEBF0FBECDBFDF917A
:101C6000CF911F910F91FF90EF90DF90CF90BF9099
:101C7000AF909F908F907F906F905F904F903F902C
:101C80002F9008952F923F924F925F926F927F9282
:101C90008F929F92AF92BF92CF92DF92EF92FF927C
:101CA0000F931F93CF93DF93CDB7DEB728970FB66F
:101CB000F894DEBF0FBECDBF2B013C014A018BE57E
:101CC00097E00E94EE2489E0A82EB12C98E6292EF8
:101CD0003324339411E000E068EE73E080E090E09C
:101CE0000E94132B20E030E0A901C301B2010E9441
:101CF000D74087FD0AC020E030E044EB53E4C30145
:101D0000B2010E94924487FD12C0C301B2010E9439
:101D1000D643CB0180539D4FB1010E948345BC0146
:101D2000990F880B990B0E94DE402B013C010E9409
:101D3000F90B6B017C0120E030E040E85FEB0E9492
:101D4000D740882309F4FEC0F401C082D182E28228
:101D5000F382A3019201C701B6010E9480426B0188
:101D60007C0120E030E044E353E40E94924487FD8C
:101D700009C0A701960160E070E084EB93E40E9443
:101D8000804250C020E030E040EA51E4C701B60193
:101D90000E94924487FD0AC020E030E044E353E40F
:101DA000C701B6010E94D74087FD2FC020E030E078
:101DB00040EA51ECC701B6010E94924487FD11C070
:101DC00020E030E040EA51E4C701B6010E94D7406C
:101DD00087FF07C08CE797E00E94EE2481E090E047
:101DE000B3C020E030E044E353ECC701B6010E94E9
:101DF000924487FD0FC020E030E040EA51ECC7017B
:101E0000B6010E94D74087FF05C0F7FAF094F7F8B3
:101E1000F0940AC020E030E044EB53E4C701B6017F
:101E20000E9481426B017C0180EA97E00E94EE24CF
:101E3000C701B6010E944204B5010B2C000C880BAF
:101E4000990B0E94DE409B01AC01C701B6010E94C4
:101E50003D4120E030E040E251E40E9464436B01E8
:101E60007C01E3E8F2E0DE01119688E001900D923A
:101E70008A95E1F719830A831B830C831D830E83E4
:101E80001F83088720E030E0A901C701B6010E9446
:101E9000924418166CF41A82198218861F8220E068
:101EA00030E048EC53E4C701B6010E9464430DC022
:101EB0001C821B821E821D8220E030E048EC53E42D
:101EC000C701B6010E946443905820E030E04AE721
:101ED00054E40E943D410E94D6437B0129813A810E
:101EE0004B815C816D817E818F8198850E94F00A93
:101EF000B701FF0C880B990B0E94132B212F19831C
:101F00000A83412F1B830C83612F1D830E831F8344
:101F10000887302F502F702F812F902F0E94F00AAA
:101F20006CED75E080E090E00E94132BF1E0AF1AB9
:101F3000B10884E0A816B10409F0CECE84EB97E096
:101F40000E94EE2480E090E028960FB6F894DEBF61
:101F50000FBECDBFDF91CF911F910F91FF90EF90FA
:101F6000DF90CF90BF90AF909F908F907F906F90B9
:101F70005F904F903F902F9008950F931F93CF93B2
:101F8000DF9300D000D0CDB7DEB78C0180E090E0C9
:101F9000A8ECB2E4F80180839183A283B3838483A5
:101FA0009583A683B78380879187A287B38743E50C
:101FB000BE016F5F7F4F82E30E948725892B99F1D5
:101FC0006A8170E0762F66278981682B072E000CC6
:101FD000880B990B0E94DE40F80160837183828335
:101FE00093836C8170E0762F66278B81682B072E98
:101FF000000C880B990B0E94DE40F8016483758306
:10200000868397836E8170E0762F66278D81682B9B
:10201000072E000C880B990B0E94DE40F8016087A8
:10202000718782879387C80126960FB6F894DEBF22
:102030000FBECDBFDF91CF911F910F9108952F92C9
:102040003F924F925F926F927F928F929F92AF9248
:10205000BF92CF92DF92EF92FF920F931F93CF9395
:10206000DF93CDB7DEB7C25AD1090FB6F894DEBF01
:102070000FBECDBF86ED97E00E94EE249E012F5F3C
:102080003F4F79018E0107581F4FF9015901108206
:102090001182128213821482158216821782108690
:1020A0001186128613863C96E017F10781F788E2C5
:1020B000F80111928A95E9F780E090E0A0E8BFE38B
:1020C000F80180839183A283B383CF55DF4F1983B7
:1020D0000883C15AD0406801612C712C9CE0592EB4
:1020E000569CC001579C900D11248A0D9B1D0E9487
:1020F000BD0FF70180859185A285B385F601819397
:102100009193A193B1936F0162E370E080E090E05E
:102110000E94132BFFEF6F1A7F0A2CE0E20EF11CD6
:102120003AE063167104E1F68AE0C82ED12C18015A
:1021300084E2280E311C7801F70181909190A190E2
:10214000B1907F014080518062807380A301920131
:10215000C501B4010E94924418165CF4F70134974B
:102160004082518262827382F70180829182A282D0
:10217000B382E214F30401F7F1E0CF1AD108D9F6E3
:10218000085D1F4F60E070E0CB01CF55DF4FE88165
:10219000F981C15AD0402191319141915191CF554E
:1021A000DF4FF983E883C15AD0400E948142CF5566
:1021B000DF4F28813981C15AD0402017310729F7D4
:1021C00020E030E040E251E40E94644320E030E04F
:1021D00040E85FEB0E94D74087FF07C08AEE97E098
:1021E0000E94EE2480E090E006C083E098E00E9428
:1021F000EE2481E090E0CE55DF4F0FB6F894DEBFBD
:102200000FBECDBFDF91CF911F910F91FF90EF9047
:10221000DF90CF90BF90AF909F908F907F906F9006
:102220005F904F903F902F9008952F923F924F9242
:102230005F926F927F928F929F92AF92BF92CF9256
:10224000DF92EF92FF920F931F93CF93DF93CDB75F
:10225000DEB7C453D1400FB6F894DEBF0FBECDBF7A
:102260007C0181E298E00E94EE2480E1282E87E242
:10227000382E8DEC9EE00E947A038F3F09F4E4C172
:102280008D3029F5E0919D08F0919E08E156F74FB9
:1022900010824FEF50E06FE978E0CE0101960E9486
:1022A0000B47C050DF4F1882C050D14010929E089B
:1022B00010929D0846E050E0BE016F5F7F4F8FE2B5
:1022C00098E00E94FD46892B09F004C214C08A30B0
:1022D00081F220919D0830919E082F3F31054CF6E8
:1022E000F901E156F74F80832F5F3F4F30939E08EF
:1022F00020939D08BECF66E378E0CE0101960E9450
:10230000B63C66E378E080E090E00E94B63C5C0179
:1023100066E378E080E090E00E94B63C4C0166E322
:1023200078E080E090E00E94B63C2C0166E378E023
:1023300080E090E00E94B63C66E378E080E090E0C8
:102340000E94B63C8C0166E378E080E090E00E9459
:10235000B63C66E378E080E090E00E94B63C6C0119
:1023600066E378E080E090E00E94B63C3C01011515
:10237000110509F4AFC1D401EC910E2E000CFF0B36
:10238000908186B7981304C088E398E00E94EE24F9
:10239000C5010E94B23CF7016083718382839383FD
:1023A000C6010E94B23CD7011C966D937D938D931C
:1023B0009C931F97C3010E94B23CF701608B718B05
:1023C000828B938BC2010E94B23C2B013C0120E026
:1023D00030E048EC52E40E9464430E94D643072E4A
:1023E000000C880B990B0E94DE404B015C0120E041
:1023F00030E048EC52E40E943D419B01AC01C30136
:10240000B2010E94804220E030E040E752E40E94A6
:1024100064439B01AC01C501B4010E948142D70114
:1024200014966D937D938D939C931797C8010E948A
:10243000B23C4B015C0120E030E048EC52E40E94E9
:1024400064430E94D643072E000C880B990B0E9410
:10245000DE402B013C0120E030E048EC52E40E94D9
:102460003D419B01AC01C501B4010E94804220E0C6
:1024700030E040E752E40E9464439B01AC01C30199
:10248000B2010E9481424B015C01F70160877187B4
:1024900082879387448055806680778020E030E093
:1024A0004CE052E4C301B2010E94924418160CF0B1
:1024B000CEC020E030E044E352E4C301B2010E9408
:1024C000D74087FFC4C020E030E045E053E4C501B9
:1024D000B4010E94924418160CF0B9C020E030E01C
:1024E0004FE053E4C501B4010E94D74087FFAFC05D
:1024F000D7016D917D918D919C918E010F5D1E4F45
:1025000026E04AE00E94923CF70164817581868151
:1025100097810051110926E04AE00E94923CD701C0
:1025200018966D917D918D919C911B970051110989
:1025300026E04AE00E94923CF701208531854285E1
:1025400053856FE475EC8BE093E40E9480422B018D
:102550003C01D70114962D913D914D915C911797B7
:1025600060E576E08FE092E40E9480424B015C01DE
:10257000A3019201C301B2010E943D41CF5CDE4F35
:10258000688379838A839B83C153D140A5019401D9
:10259000C501B4010E943D419B01AC01CF5CDE4FFF
:1025A000688179818A819B81C153D1400E94814297
:1025B0000E940545CF5CDE4F688379838A839B83C5
:1025C000C153D14024EA30E74DE95FE3C301B201D2
:1025D0000E943D41A50194010E94004323E333E39F
:1025E00045E652E40E943D4120E030E044EB53E4F4
:1025F0000E9481420E94D643CB0168E671E00E94AE
:102600008345BC01990F880B990B0E94DE40F701AE
:10261000648B758B868B978B28E33CE841EC57E401
:10262000CF5CDE4F688179818A819B81C153D14023
:102630000E943D41D70158966D937D938D939C9355
:102640005B9701E010E005C002E010E002C004E08A
:1026500010E06AE070E080E090E00E94132B01300F
:10266000110519F58EE598E00E94EE24F70120850A
:1026700031854285538564817581868197810E9469
:102680007D068AE698E00E94EE24D70154962D91AB
:102690003D914D915C91579758966D917D918D919B
:1026A0009C915B970E947D0618C00430110561F46F
:1026B0008AE491E00E9425078DE591E00E942507BC
:1026C0008AE491E00E942507B1E02B1A310809F055
:1026D000D0CD03C003E010E0BCCF81E090E0CC5C43
:1026E000DE4F0FB6F894DEBF0FBECDBFDF91CF91A6
:1026F0001F910F91FF90EF90DF90CF90BF90AF9020
:102700009F908F907F906F905F904F903F902F9011
:1027100008950F931F93CF93DF93CDB7DEB76C97D8
:102720000FB6F894DEBF0FBECDBF8C018CE1EBE895
:10273000F2E0DE01119601900D928A95E1F7CE014B
:1027400001960E9415118D819E81AF81B885F80197
:1027500080839183A283B38389859A85AB85BC8569
:1027600084839583A683B78381E090E06C960FB64F
:10277000F894DEBF0FBECDBFDF91CF911F910F91B7
:102780000895CF93DF93EC0180E090E00E94FE413A
:10279000FE01E558FD4F9081891307C0618180E0FB
:1027A00090E00E94064281E001C080E0DF91CF917D
:1027B000089585ED8093BC008091BC0084FDFCCF22
:1027C00010921F0D0895DC015996ED91FC915A97D6
:1027D0003097B9F083899489A589B6894285538554
:1027E00064857585841B950BA60BB70B811520E8B6
:1027F0009207A105B10538F08FEF9FE7A0E0B0E0A8
:10280000089580E090E00895CF92DF92EF92FF92DA
:102810000F931F93CF93DF936C018B017A01EC012F
:10282000CD57D54F888187FF04C0FB0111821082EC
:1028300024C08CE08C9D90018D9D300D11248881E9
:10284000A901480F511D87FD5A958091C90E90E04E
:102850004817590794F48881A901480F511D87FD35
:102860005A95CA01FA01EE0FFF1F8E0F9F1FFC0140
:10287000E75CF14F808186FD19C088818F5F888376
:102880008CE08C9D90018D9D300D11248881A901D3
:10289000480F511D87FD5A958091C90E90E0481749
:1028A0005907BCF488818C3044F113C08881280F0B
:1028B000311D87FD3A95F901EE0FFF1F2E0F3F1FC7
:1028C000F901E75CF14F808160E08F730E94DE299F
:1028D000D4CFF80180819181049680349C4918F40A
:1028E00080E49CE904C0F801808191810496F7019D
:1028F000918380838FEF888345C0F80140815181A7
:102900008881B901680F711D87FD7A95CB01FB01A4
:10291000EE0FFF1F8E0F9F1FFC01E75CF14F8181BF
:102920009281840F951FF701918380838881A9018B
:10293000480F511D87FD5A95CA01FA01EE0FFF1F7E
:102940008E0F9F1FFC01E75CF14F808186FF1AC04C
:102950008881280F311D87FD3A95F901EE0FFF1F81
:102960002E0F3F1FF901E75CF14F808161E08F730B
:10297000DF91CF911F910F91FF90EF90DF90CF905B
:102980000C94DE29DF91CF911F910F91FF90EF9072
:10299000DF90CF900895CF93C82F0E944D2BCF5F2B
:1029A000DC01CB0132E0B695A795979587953A95CE
:1029B000D1F7C80F0E944D2BDC01CB0122E0B69568
:1029C000A795979587952A95D1F7C81739F085E48B
:1029D0009DE00E94621C1816190664F785E49DE0CC
:1029E0000E94621C181619062CF485E49DE00E94D2
:1029F000401C00C0CF910895FC01818D928D0097FD
:102A000011F00C94AE1F0895FC01818D928D0097FA
:102A100011F00C94B4048FEF9FEF08953F924F9202
:102A20005F926F927F928F929F92AF92BF92CF925E
:102A3000DF92EF92FF920F931F93CF93DF93CDB767
:102A4000DEB72C970FB6F894DEBF0FBECDBF5C018A
:102A5000DC015B968D909C905C971696CD90DD90F6
:102A6000ED90FC901997C114D104E104F10439F000
:102A7000BFEFCB1ADB0AEB0AFB0A312C07C0F401CB
:102A8000C080D180E280F38033243394F4018185C7
:102A90009285A385B4859C01AD012F5F3F4F4F4FB9
:102AA0005F4F29873A874B875C87260137011D8254
:102AB0001E821F821886F40181859285A385B485C4
:102AC0002D813E814F815885281739074A075B07BA
:102AD00008F063C089859A85AB85BC858C159D05FA
:102AE000AE05BF0550F482E0C82ED12CE12CF12CAC
:102AF00092E0492E512C612C712C9E012F5F3F4F8B
:102B0000B701A601C4010E94C11E882309F445C073
:102B100089819A81AB81BC81892B8A2B8B2B41F0D7
:102B2000260137019FEF491A590A690A790A05C037
:102B3000C414D504E604F70491F02D813E814F8141
:102B400058852F5F3F4F4F4F5F4F2D833E834F83FD
:102B500058873FEFC31AD30AE30AF30AACCF0FEF4B
:102B60001FEF2FEF3FE0B301A201C4010E94211E1D
:102B7000882399F0D50116964D915D916D917C91C8
:102B80001997411551056105710549F093018201BD
:102B9000C4010E94211E811102C080E02AC0D5011B
:102BA00016964D925D926D927C921997332051F05A
:102BB000D301C2010196A11DB11DF401808391834F
:102BC000A283B383F5018789908DA18DB28D892B66
:102BD0008A2B8B2B69F4D50157964D925D926D929D
:102BE0007C925A9714968C911497806814968C93C3
:102BF00081E02C960FB6F894DEBF0FBECDBFDF91FB
:102C0000CF911F910F91FF90EF90DF90CF90BF90E9
:102C1000AF909F908F907F906F905F904F903F907C
:102C200008958FB7F8948091CF0A8FBF089561E01F
:102C3000FC0184810E94DE298091CE0A81111092CC
:102C4000CE0A08958EBD00000DB407FEFDCF8EB5EF
:102C500008958FEF0C9422160F931F93CF93DF9359
:102C6000EB010E944D2B8B010E9429168F3F49F0EA
:102C70000E944D2B601B710B6C177D07A8F380E041
:102C800001C081E0DF91CF911F910F910895CF9303
:102C9000DF93EC018E81882389F08F8198859C01D8
:102CA0002F5F3F4F38872F838230924018F40E9465
:102CB0002916F3CFCE010E9417161E82DF91CF9105
:102CC00008958CBD9DBD0895CF93DF93EC01809155
:102CD000CE0A811109C081E08093CE0A8091E20D75
:102CE0009091E30D0E94611660E08C81DF91CF919D
:102CF0000C94DE29CF92DF92FF920F931F93CF9314
:102D0000DF9300D01F92CDB7DEB76C01F62E29837A
:102D10003A834B835C830E944716C6010E94641667
:102D20006CE271E0C6010E942C168F2D80640E9417
:102D3000221608E110E05C814B813A812981DA0199
:102D4000C901002E04C0B695A795979587950A945A
:102D5000D2F729833A834B835C830E942216085062
:102D6000110929813A814B815C81083F8FEF180757
:102D700031F7FF2029F0E8E0FE1204C087E803C025
:102D800085E901C08FEF0E94221610E00E942916EB
:102D9000F601828787FF04C01F3F11F01F5FF6CF47
:102DA0000F900F900F900F90DF91CF911F910F9187
:102DB000FF90DF90CF900895AF92BF92CF92DF92B5
:102DC000EF92FF920F931F93CF93DF93EC01690172
:102DD000C801820F931F8130924008F070C08E812D
:102DE000882371F088819981AA81BB81481759078E
:102DF0006A077B0729F48F819885C816D906B0F534
:102E0000488359836A837B838B85833039F089E0DB
:102E1000440F551F661F771F8A95D1F79A01AB01A2
:102E200061E1CE010E947A16882319F083E08D8338
:102E300046C00E944D2B5B010E9429168A878F3F56
:102E400049F40E944D2B6A197B096D327140A0F341
:102E50008FE003C08E3F31F08DE08D83CE010E9464
:102E600017162DC018861F8281E08E838F8198856A
:102E70008C159D0540F40E9429168F819885019636
:102E800098878F83F3CF6701E00EF11ECE14DF0425
:102E900031F00E942916F60181936F01F7CF8F81DF
:102EA0009885080F191F18870F838985882319F0C3
:102EB0000115124048F0CE010E94471605C0CE0110
:102EC0000E94171680E001C081E0DF91CF911F9131
:102ED0000F91FF90EF90DF90CF90BF90AF9008954B
:102EE000EF92FF920F931F93CF93DF93EC01790141
:102EF000411551056105710511F482E13CC08B85D6
:102F0000833039F089E0440F551F661F771F8A957B
:102F1000D1F79A01AB0168E1CE010E947A168823AD
:102F200011F084E028C08EEF0E94221687018EEFF8
:102F3000F81AF80181918F010E9422160E151F05C3
:102F4000C1F78FEF0E9422168FEF0E9422160E9477
:102F500029168A878F71853031F081E18D83CE010A
:102F60000E94171609C068E572E0CE010E942C1677
:102F7000811107C085E18D83CE010E94171680E084
:102F800013C020E030E0A9016DE0CE010E947A1666
:102F9000811104C00E942916882311F084E1EBCF2F
:102FA000CE010E94171681E0DF91CF911F910F9102
:102FB000FF90EF9008951F920F920FB60F92112479
:102FC0000BB60F922F933F934F935F936F937F9323
:102FD0008F939F93AF93BF93EF93FF938091B9002B
:102FE000887F803609F49CC068F5883209F45BC09C
:102FF00090F4803109F454C038F4882309F4F6C001
:10300000883009F44DC0F6C0883109F44CC08032D4
:1030100009F45DC0EFC0803409F468C048F480331F
:1030200009F455C0883309F0E5C080931D0DD8C060
:10303000803509F44FC0883509F45DC0883409F043
:10304000D9C0D6C0883909F4C7C0A8F4883709F4B4
:1030500067C038F4883609F463C0803709F460C06B
:10306000C9C0883809F4B8C0803909F45FC0803815
:1030700009F0C0C05BC0803B09F486C038F4803AD8
:1030800009F466C0883A09F47FC0B4C0803C09F4F2
:10309000A7C0883C09F4A4C0883B09F48AC0AAC030
:1030A0008091FA0C10C090911C0D80911B0D981707
:1030B00070F5E0911C0D81E08E0F80931C0DF0E007
:1030C000E550F34F80818093BB0085EC86C08093F0
:1030D0001D0D8EC0E0911C0D81E08E0F80931C0DA4
:1030E0008091BB00F0E0E550F34F808390911C0D80
:1030F00080911B0D6EC0E0911C0D81E08E0F8093BE
:103100001C0D8091BB00F0E0E550F34F808380916F
:103110001E0D81116DC081E08093F90C84EA61C0BD
:1031200083E080931F0D1092CD0ACFCF8091CD0AFE
:10313000803208F051C0E091CD0A81E08E0F80937B
:10314000CD0A8091BB00F0E0E355F54F8083BDCF01
:1031500085EC8093BC0010921F0D8091CD0A8032C7
:1031600030F4E091CD0AF0E0E355F54F1082609124
:10317000CD0A70E0E091AB0AF091AC0A8DEA9AE0DA
:1031800019951092CD0A36C084E080931F0D1092DD
:10319000AA0A1092A90AE091A70AF091A80A199523
:1031A0008091A90A811105C081E08093A90A10923B
:1031B000870AE091AA0A81E08E0F8093AA0AF0E0C4
:1031C000E957F54F80818093BB009091AA0A8091C6
:1031D000A90A981708F479CF85E88093BC000AC043
:1031E00085EC8093BC0010921F0D04C010921D0D41
:1031F0000E94D913FF91EF91BF91AF919F918F9151
:103200007F916F915F914F913F912F910F900BBEE6
:103210000F900FBE0F901F9018954091A90A262F6E
:1032200030E0240F311D21323105DCF420911F0DD7
:103230002430C9F4FC0180E090E0861758F4309106
:10324000A90A2191DC01A957B54FA30FB11D2C93F9
:103250000196F3CF8091A90A680F6093A90A80E0D4
:10326000089581E0089582E008951F920F920FB6AD
:103270000F9211240BB60F922F933F934F935F93AE
:103280006F937F938F939F93AF93BF93EF93FF932E
:1032900048E251E064E271E080E090E00E940414B2
:1032A000FF91EF91BF91AF919F918F917F916F911E
:1032B0005F914F913F912F910F900BBE0F900FBEDA
:1032C0000F901F9018951F920F920FB60F92112416
:1032D0000BB60F922F933F934F935F936F937F9310
:1032E0008F939F93AF93BF93EF93FF9348EA50E080
:1032F00064EA70E083E090E00E940414FF91EF9193
:10330000BF91AF919F918F917F916F915F914F91FD
:103310003F912F910F900BBE0F900FBE0F901F90FB
:1033200018951F920F920FB60F9211240BB60F92A1
:103330002F933F934F935F936F937F938F939F93BD
:10334000AF93BF93EF93FF9348E950E064E970E0D7
:1033500082E090E00E940414FF91EF91BF91AF9141
:103360009F918F917F916F915F914F913F912F919D
:103370000F900BBE0F900FBE0F901F9018951F92CD
:103380000F920FB60F9211240BB60F922F933F930B
:103390004F935F936F937F938F939F93AF93BF935D
:1033A000EF93FF9348E850E064E870E081E090E03C
:1033B0000E940414FF91EF91BF91AF919F918F9163
:1033C0007F916F915F914F913F912F910F900BBE25
:1033D0000F900FBE0F901F9018958F929F92BF92E3
:1033E000CF92DF92EF92FF920F931F93CF93DF93D1
:1033F0007C0181E00E94CB14F70180838E3711F0AD
:1034000080E048C082E30E94CB14F701818382E30D
:103410000E94CB14F7018283C181C11103C0182F10
:103420008D3308F01CE3C12ED12CD0E0DC2FCC274B
:10343000C80FD11DCC19DD090FEFB12C8B2C912CAD
:10344000F3E08F0E911C8E0C9F1C82E30E94CB1424
:10345000F4018083B112081BB3941B1578F7460161
:10346000F3E08F0E911C8E0C9F1C209759F082E385
:103470000E94CB14F4018083C130D10509F0081BF0
:103480002197F3CFF701EC0DFD1D83810813B8CF11
:1034900083E0810FDF91CF911F910F91FF90EF900B
:1034A000DF90CF90BF909F908F900895FF920F93E1
:1034B0001F93CF93DF93CDB7DEB7C054D1090FB6BA
:1034C000F894DEBF0FBECDBFFC018091440D8F3F4D
:1034D00011F481E001C08F5F8093440D80818435B9
:1034E0003CF48235ECF4813439F0863429F05DC047
:1034F000843509F441C059C09181943509F055C013
:1035000098E09C83813421F48091440D8D8301C027
:103510001D8282818E8383818F8357E014E047C0B0
:103520009181913409F041C092819435F1F597E190
:103530009C83823551F48091440D8D83CE01069693
:103540000DE012E028E0200F02C01D82F7CFD80165
:103550003D918D01DC013D93CD012013F8CF8FEF1C
:103560008E878EEF8F8782E0888B8381898B848121
:103570008A8B52E11FE01BC081818835B1F480E164
:103580008C831D82DE011696EDE0F2E088E08E0F5E
:1035900091919D938E13FCCF8FEF8E878EEF8F8747
:1035A000188A198A51E11EE002C080E03DC08EE712
:1035B00089831A82FE0134968FEF93E09F01A191D7
:1035C0008A1B9F5F9513FBCF442389F0562FA1E000
:1035D000B0E0AC0FBD1FA90FB11DFB019E2F951BC5
:1035E000941720F491919D93891BF8CF140F1B839E
:1035F000F901E10FF11D808384E0F82EF10E00E067
:103600000F1580F4E1E0F0E0EC0FFD1FE00FF11D7D
:10361000608185E49DE00E94991C811101C00F2DFD
:103620000F5FEECF83E0810FC05CDF4F0FB6F894E1
:10363000DEBF0FBECDBFDF91CF911F910F91FF90E5
:1036400008952F923F924F925F926F927F928F9246
:103650009F92AF92BF92CF92DF92EF92FF920F9321
:103660001F93CF93DF931F921F92CDB7DEB7FC015C
:103670008B018081813469F48181843509F58281EF
:103680008735C9F483818235B1F434E6232E312C99
:1036900014C08235A9F48181813491F4828184350A
:1036A00079F48381873561F48481823549F424E695
:1036B000222E312C07C0212C312C20E030E004C018
:1036C000212C312C21E03AE0B801CF012A83398343
:1036D0000E94561A2A813981882309F460C08AE041
:1036E000682E9CE0792E432E512C62018AE0C80E90
:1036F000D11CE12CF12C4101A12CB12C400E511E0A
:10370000E7E04E0E511CC701B6012A830E94132B1D
:103710002A812114310429F0C501B4010E94132B20
:103720002A81C8012A830E94ED192A81882369F120
:10373000F8018381883819F4222329F00DC08739D4
:1037400059F4213049F4F80194818091440D981383
:1037500003C0F201708019C03091820A3230A8F49F
:10376000D801F0E43F9FA001112480E090E06D912A
:10377000FC01E40FF51FEE5FF54F60830196803486
:103780009105A9F73F5F3093820A6A94662019F089
:103790007110B9CF0CC0172D772049F001C01BE084
:1037A00068EE73E080E090E00E94132B712E81E0C0
:1037B000711080E00F900F90DF91CF911F910F91CA
:1037C000FF90EF90DF90CF90BF90AF909F908F9041
:1037D0007F906F905F904F903F902F900895FC01E5
:1037E000DB0112968D919C911397938382838BECCE
:1037F00092E09183808314968C911497848315961C
:103800008C911597858316964D915D916D917C9164
:10381000199746835783608771871A964D915D91FA
:103820006D917C911D9742875387648775871E969B
:103830004D915D916D917C91519746875787608B33
:10384000718B52968C915297828B53964D915D91CC
:103850006D917C915697438B548B658B768B5796E5
:103860004D915D916D917C915A97478B508F618FEF
:10387000728F5B968D919C915C97948F838F089546
:10388000FC01918D828D981761F0828DDF01A80F68
:10389000B11D5D968C91928D9F5F9F73928F90E08A
:1038A00008958FEF9FEF0895FC01918D828D9817F9
:1038B00031F0828DE80FF11D858D90E008958FEF36
:1038C0009FEF0895FC01918D228D892F90E0805CFF
:1038D0009F4F821B91098F739927089585E49DE07E
:1038E0000E94621C21E0892B09F420E0822F0895B8
:1038F000FC01848DDF01A80FB11DA35ABF4F2C918D
:10390000848D90E001968F739927848FA689B7895B
:103910002C93A089B1898C9180648C93938D848D34
:10392000981306C00288F389E02D80818F7D808303
:103930000895EF92FF920F931F93CF93DF93EC01C3
:1039400081E0888F9B8D8C8D981305C0E889F9895B
:10395000808185FD24C0F62E0B8D10E00F5F1F4F78
:103960000F731127E02E8C8DE8120CC00FB607FCE8
:10397000FACFE889F989808185FFF5CFCE010E94D1
:10398000781CF1CF8B8DFE01E80FF11DE35AFF4F3C
:10399000F0820B8FEA89FB898081806207C0EE8903
:1039A000FF896083E889F98980818064808381E070
:1039B00090E0DF91CF911F910F91FF90EF900895CC
:1039C000CF93DF93EC01888D8823C9F0EA89FB89C6
:1039D000808185FD05C0A889B9898C9186FD0FC0BD
:1039E0000FB607FCF5CF808185FFF2CFA889B98992
:1039F0008C9185FFEDCFCE010E94781CE7CFDF913F
:103A0000CF91089580E090E0892B21F00E946E1CF8
:103A1000811125C080E090E0892B41F080E090E0AA
:103A2000892B21F00E94000081111CC080E090E0F1
:103A3000892B41F080E090E0892B21F00E9400006A
:103A4000811113C080E090E0892BA1F080E090E02C
:103A5000892B81F00E94000081110AC008950E9404
:103A60000000D8CF0E940000E1CF0E940000EACF02
:103A70000C94000008950E94E0468091D00A8823AB
:103A8000A9F14091090250910A0260910B027091D4
:103A90000C0225ED3AE08091D50C9091D60C0E9455
:103AA0007017811102C080E008954091D10A5091B1
:103AB000D20A6091D30A7091D40A4115510561056B
:103AC000710591F025ED3AE08091D50C9091D60CDE
:103AD0000E947017882339F31092D10A1092D20AEB
:103AE0001092D30A1092D40A1092D00A81E008955D
:103AF0001F920F920FB60F9211240BB60F922F93B5
:103B00003F934F935F936F937F938F939F93AF9365
:103B1000BF93EF93FF9385E49DE00E94781CFF9193
:103B2000EF91BF91AF919F918F917F916F915F9135
:103B30004F913F912F910F900BBE0F900FBE0F90A2
:103B40001F9018951F920F920FB60F9211240BB66B
:103B50000F922F938F939F93EF93FF93E091550DC7
:103B6000F091560D8081E0915B0DF0915C0D82FD2E
:103B700012C0908180915E0D8F5F8F7320915F0DD9
:103B8000821751F0E0915E0DF0E0EB5BF24F958F04
:103B900080935E0D01C08081FF91EF919F918F9185
:103BA0002F910F900BBE0F900FBE0F901F90189586
:103BB0008F929F92AF92BF92EF92FF920F931F93BB
:103BC000CF934B015C01C42F8091090290910A02AE
:103BD000A0910B02B0910C0288159905AA05BB05AE
:103BE00001F10E943D1D811102C080E020C085EDE1
:103BF000E82E8AE0F82E00E012E020E030E0B50187
:103C0000A4018091D50C9091D60C0E94DC168823DB
:103C100061F38092090290920A02A0920B02B09284
:103C20000C028091D00AC82BC093D00A81E0CF91BA
:103C30001F910F91FF90EF90BF90AF909F908F904A
:103C400008954F925F926F927F928F929F92AF9260
:103C5000BF92CF92DF92EF92FF920F931F93CF9379
:103C6000DF93EC016A017B012801390142305105E3
:103C70006105710510F480E073C089859A85AB8574
:103C8000BC850196A11DB11D84179507A607B7072E
:103C900090F38B889C88AD88BE888F89803129F409
:103CA000BB27AF2D9E2D8D2D09C0DB01CA0147E03A
:103CB000B695A795979587954A95D1F7880E991E41
:103CC000AA1EBB1E8091090290910A02A0910B02CC
:103CD000B0910C0288169906AA06BB0679F48F8962
:103CE0008031A1F4DD24EE24FF24C601880F991F42
:103CF000FC01EB52F54F5182408219C040E0C501F2
:103D0000B4010E94D81D8111EACFB5CFE894C7F85D
:103D1000DD24EE24FF24C601880F991F880F991F08
:103D2000FC01EB52F54F4082518262827382809196
:103D3000D00A81608093D00A8A89823080F08D8198
:103D40009E81AF81B885880E991EAA1EBB1E8092E7
:103D5000D10A9092D20AA092D30AB092D40A81E0FA
:103D6000DF91CF911F910F91FF90EF90DF90CF9057
:103D7000BF90AF909F908F907F906F905F904F908B
:103D800008958F929F92AF92BF92CF92DF92EF925F
:103D9000FF920F931F93CF93DF93FC018185928550
:103DA000A385B4850196A11DB11D84179507A607AB
:103DB000B70710F480E05CC083899489A589B6892F
:103DC000C789C03129F4852E962EA72EBB2409C0A1
:103DD0004A015B01C7E0B694A79497948794CA956B
:103DE000D1F7E9016A017B018F01BC01CD01680DAA
:103DF000791D8A1D9B1D8090090290900A02A09057
:103E00000B02B0900C02681579058A059B0599F4A0
:103E1000F80187898031A9F4B701A60155276627E3
:103E20007727440F551FFA01EB52F54F808191819E
:103E3000A0E0B0E018C040E00E94D81D8111E8CF9A
:103E4000B9CFB701A6014F77552766277727440FCB
:103E5000551F440F551FFA01EB52F54F8081918198
:103E6000A281B381BF7088839983AA83BB8381E0D9
:103E7000DF91CF911F910F91FF90EF90DF90CF9046
:103E8000BF90AF909F908F9008954F925F926F92E6
:103E90007F92AF92BF92CF92DF92EF92FF920F93F9
:103EA0001F93CF93DF9300D01F92CDB7DEB78C0165
:103EB00049835A836B837C835901C12CD12C7601B1
:103EC000412C82E0582E612C712C49815A816B81E2
:103ED0007C819E012F5F3F4FC8010E94C11E882335
:103EE00051F1D301C201F801058404C0880F991F64
:103EF000AA1FBB1F0A94D2F7C80ED91EEA1EFB1ECA
:103F000049815A816B817C818789803129F088EFD2
:103F10009FEFAFEFBFE004C088EF9FEFA0E0B0E0FD
:103F2000481759076A077B0780F2F501C082D182E2
:103F3000E282F38281E00F900F900F900F90DF915B
:103F4000CF911F910F91FF90EF90DF90CF90BF9096
:103F5000AF907F906F905F904F900895CF93DF93D5
:103F6000EC018D818823A1F18C8187FF2DC06E85A6
:103F70007F858889998941E00E94D81D882341F175
:103F8000EA8980E2E89FF0011124DF01AB52B54FCE
:103F90001097F1F08D81823050F44B895C896D89E6
:103FA0007E895C964D935D936D937C935F978F892B
:103FB000988DA98DBA8DEB52F54F938F828FB58B6B
:103FC000A48B8C818F778C83DF91CF910C943D1DD6
:103FD00080E0DF91CF9108958F929F92AF92BF9230
:103FE000CF92DF92EF92FF920F931F93CF93DF93C5
:103FF000EC018D81811102C080E077C00B891C89A2
:104000002D893E890417150726073707A8F36A018B
:104010007B01823029F4CA86DB86EC86FD860DC0E2
:10402000C114D104E104F10451F41E821F821886E8
:1040300019861A861B861C861D8681E056C08A84D6
:104040009B84AC84BD84EB8DFC8D258530E0275F9F
:104050003F4FB501A4014150510961097109022E78
:1040600004C076956795579547950A94D2F7D7017E
:10407000C6010197A109B10904C0B695A795979506
:1040800087952A95D2F784179507A607B70720F0DA
:1040900089288A288B2849F44F89588D698D7A8D13
:1040A0004E835F836887798704C0841B950BA60BBA
:1040B000B70B4C015D018E010A5F1F4F8114910403
:1040C000A104B10409F4A7CF4E815F816885798589
:1040D00098018B8D9C8D0E94C11E91E0891A9108D8
:1040E000A108B1088111EACF87CFDF91CF911F914D
:1040F0000F91FF90EF90DF90CF90BF90AF909F9087
:104100008F9008952F923F924F925F926F927F927D
:104110008F929F92AF92BF92CF92DF92EF92FF92D7
:104120000F931F93CF93DF9300D01F92CDB7DEB7CD
:104130008C015B011A01DC0115968C911597813079
:10414000C9F414968C9181FF15C082FF1BC0F80141
:10415000438954896589768982859385A485B58547
:1041600084179507A607B70769F0C8010E94EC1FDE
:10417000811108C081E090E0F8019383828380E0A0
:1041800090E039C1610183C0D8015B968D919C910B
:104190005C97FC01248121502A013B0139E076948F
:1041A0006794579447943A95D1F7722E74207A0108
:1041B000F1E0FF22772009F476C080E092E08E19CA
:1041C0009F0946018C159D0508F44C01D8015B96AA
:1041D0002D913C915C9716968D919D910D90BC917F
:1041E000A02D0297A109B109F901058404C0880F27
:1041F000991FAA1FBB1F0A94D2F74685578560896D
:104200007189840F951FA61FB71F9C01AD01270D53
:10421000311D411D511D29013A01811432E09306DF
:1042200009F088C08091090290910A02A0910B02C6
:10423000B0910C0284159505A605B70559F48FEFCA
:104240009FEFDC018093090290930A02A0930B0276
:10425000B0930C029501B301A2018091D50C90910D
:10426000D60C0E947017882309F484CF9EEFB91AE8
:10427000C818D908F80182859385A485B585880D6D
:10428000991DA11DB11D82879387A487B587D80189
:104290001A964D915D916D917C911D97C114D10439
:1042A00009F072CF87C0E114F10409F086CF1696A9
:1042B0004D915D916D917C91199741155105610565
:1042C000710559F457968D919D910D90BC91A02D3B
:1042D0000097A105B10541F521C09E012F5F3F4F19
:1042E0000E94C11E882309F44BCF89819A81AB813A
:1042F000BC81F801238D348DF9012789203129F003
:1043000048EF5FEF6FEF7FE004C048EF5FEF60E0E2
:1043100070E084179507A607B70730F0C8010E9420
:104320000E1581114ACF26CFF80186839783A08787
:10433000B18743CFE114F10429F5D8011A964D91C4
:104340005D916D917C911D9753968D919D910D90EE
:10435000BC91A02D481759076A077B0798F00E9467
:104360003D1D882309F406CF4092090250920A02AB
:1043700060920B0270920C028091D00A816080934F
:10438000D00A08C041E0C301B2010E94D81D8823B1
:1043900009F4F0CED501F701EB52F54FCF01880DAE
:1043A000991DE817F90719F02D912193FACFA80C60
:1043B000B91C5ECF53968D919D910D90BC91A02D0F
:1043C00084179507A607B70740F4F801438B548B71
:1043D000658B768B848180688483D80114968C9158
:1043E00083FD02C0C10107C0C8010E94AE1F88231F
:1043F00009F4C0CEF7CF0F900F900F900F90DF9180
:10440000CF911F910F91FF90EF90DF90CF90BF90D1
:10441000AF909F908F907F906F905F904F903F9064
:104420002F900895CF93DF931F92CDB7DEB76983A6
:1044300041E050E0BE016F5F7F4F0E9482200F90ED
:10444000DF91CF9108958F929F92AF92BF92CF92BA
:10445000DF92EF92FF920F931F93CF93DF9300D0E1
:104460001F92CDB7DEB77C0180E2689F6001112406
:1044700096012B52354FD9011B969C91917121F0D9
:10448000842F827409F097C0142FF701628B8091FA
:10449000090290910A02A0910B02B0910C0286874A
:1044A0009787A08BB18BF601EB52F54F4489558964
:1044B00060E070E0BA0155274427D70157964D9325
:1044C0005D936D937C935A97828D938DA0E0B0E0BD
:1044D000482B592B6A2B7B2BD70157964D935D9315
:1044E0006D937C935A97D9011B968C91887159F4DE
:1044F000848D958DA68DB78DF701838B948BA58BBD
:10450000B68B81E012C0803109F055C097012D5E55
:104510003F4FD7015B968D919C915C970E94451F00
:10452000882309F448C084E0F7018583812F8F70C8
:10453000D70114968C931497F70116821782108670
:1045400011861A961D921D921D921C921D9716FFA0
:1045500034C015968C91813071F511FF2CC0F70194
:104560004389548965897689452B462B472B09F465
:1045700061C040E050E0BA01C7010E94EC1F8823EF
:10458000D1F0F7018788908CA18CB28CC38CD48C2D
:1045900082E090E0A0E0B0E0F60180839183A28306
:1045A000B3839E012F5F3F4FB501A401C6010E9456
:1045B000C11E811104C080E03DC081E03BC000E02D
:1045C00010E09801B501A401C6010E94211E8823B4
:1045D00091F389809A80AB80BC80D60157968C91EC
:1045E000803129F088EF9FEFAFEFBFE004C088EF84
:1045F0009FEFA0E0B0E088169906AA06BB0688F2F5
:10460000D70157961D921D921D921C925A97F70141
:10461000138A148A158A168A848180688483C70164
:104620000E94AE1F882339F240E050E0BA01C70172
:104630000E94EC1F0F900F900F900F90DF91CF9181
:104640001F910F91FF90EF90DF90CF90BF90AF90B0
:104650009F908F9008954F925F926F927F92AF924A
:10466000BF92CF92DF92EF92FF920F931F93CF935F
:10467000DF93CDB7DEB72B970FB6F894DEBF0FBE32
:10468000CDBF7C01CE0101966C01FC0190E28BE074
:104690008C0D91938E13FDCFDA0130E047E09D91B0
:1046A000992339F19E3219F0E3E2F4E00AC04A306E
:1046B00009F472C138E04AE0F2CF3196891709F463
:1046C0006BC184918111F9CF431708F465C18FED57
:1046D000890F8E3508F060C181E0830FF601E30F8A
:1046E000F11D3FE9390F3A3108F490529083382F89
:1046F000D6CF8981803209F44FC1B22E8B01DB0104
:104700005B968D919C915C97F701948F838F1696A1
:104710001D921D921D921C921997FB011286138601
:1047200014861586712CF80182859385A485B5853C
:10473000438954896589768984179507A607B70741
:1047400008F061C025E0B695A795979587952A95BD
:10475000D1F7F82FFF706F2ED80115968C9182300B
:1047600008F41AC1C8010E94B40497FD15C1F801EC
:1047700082859385A485B5854F96A11DB11D82873D
:104780009387A487B587F0E26F9EC0011124BC0116
:104790006B52754F6115710509F4FEC0DB012C9158
:1047A000222319F0253EC1F427C071100EC0F70175
:1047B000628A4091090250910A0260910B02709145
:1047C0000C0246875787608B718BFC01EB52F54FCB
:1047D0008081811113C015C04BE050E0C6010E94DA
:1047E000E546892B09F09FCF8B2D8073803309F428
:1047F000D3C04B2D662DCCC07720C9F2772473949B
:1048000092CF772473948B2D8271823109F0C4C0CA
:104810007720D1F0D7011E966D917D918D919C915D
:10482000519741E00E94D81D882309F4B5C0F701D3
:104830006289F0E26F9FB00111246B52754F6115D0
:10484000710509F079C0A8C0D80115968C91823005
:1048500009F4A2C0C8010E940E15882309F49CC067
:10486000D8015B96ED91FC915C9716964D905D900A
:104870006D907C901997B2E04B1A5108610871084D
:10488000058404C0440C551C661C771C0A94D2F79E
:1048900086859785A089B189480E591E6A1E7B1EA0
:1048A000A480E1E04E1A510861087108AA2009F1BC
:1048B0000E943D1D882309F46FC0E5EDFAE01192D6
:1048C0002CE0E53DF207D9F7D301C2018A0D911D15
:1048D000A11DB11D8093090290930A02A0930B02BF
:1048E000B0930C028091D00A81608093D00AAA9480
:1048F000DDCFD8015B96ED91FC915C9780E092E072
:10490000A0E0B0E0058404C0880F991FAA1FBB1F58
:104910000A94D2F7F8014389548965897689840F0E
:10492000951FA61FB71F838B948BA58BB68BD701C2
:1049300052961C9265ED7AE080E2FB0111928A9515
:10494000E9F78BE0F601DB0101900D928A95E1F722
:1049500081E298E2DB0151969C938E93509720E080
:1049600038E01F963C932E931E9753969C938E93FC
:10497000529759969C938E93589757963C932E93A3
:1049800056970E943D1D882339F04B2DF70162890F
:10499000C7010E94232201C080E02B960FB6F89435
:1049A000DEBF0FBECDBFDF91CF911F910F91FF9062
:1049B000EF90DF90CF90BF90AF907F906F905F901F
:1049C0004F900895CF93DF93EC010E94AE1F882390
:1049D00011F01D8281E0DF91CF9108951F93CF9355
:1049E000DF93CDB7DEB7AF970FB6F894DEBF0FBE3B
:1049F000CDBFADE0B2E0E5E1F2E028E02E0F31916D
:104A00003D932E13FCCFFC01DE01119610E0BD0199
:104A10008191882321F08D931F5F1E32C9F7FB011E
:104A2000E10FF11D1082412F8FE798E00E94561A86
:104A3000882329F0112319F08091440D01C080E0F2
:104A4000AF960FB6F894DEBF0FBECDBFDF91CF910A
:104A50001F910895382F2091430D9091420D2132DE
:104A600008F049C080911F0D8111FCCF42E04093B6
:104A70001F0D30931E0D3FEF30931D0D10921C0D36
:104A800020931B0DA2E2BDE04BEF5CE0FA013E2F4C
:104A9000341B321718F43D913193F9CF1092FA0C70
:104AA0002091FA0C990F922B9093FA0C9091F90C9B
:104AB000913061F41092F90C9091FA0C9093BB0034
:104AC0009091BC0093FDF8CF95EC01C095EE9093CA
:104AD000BC0090911F0D9230E1F390911D0D9F3F0E
:104AE00079F080911D0D803241F080911D0D803351
:104AF00031F084E005C081E003C082E001C083E0C2
:104B00001092210D1092430D1092200D0895EF92F6
:104B1000FF920F931F93CF93DF931F92CDB7DEB712
:104B2000162FF42E01E00093200D4093420D1092B9
:104B3000210D1092430D682F8DE29EE079830E9433
:104B4000130481E00E942A250093200D1092210D6C
:104B50001092430D798180911F0D8111FCCF81E06E
:104B600080931F0D80931E0D9FEF90931D0D10924B
:104B70001C0D95E090931B0D8093FA0C4091FA0C5C
:104B8000FF0C4F294093FA0C8091F90C813061F4AD
:104B90001092F90C8091FA0C8093BB008091BC00BC
:104BA00083FDF8CF85EC01C085EE8093BC00809139
:104BB0001F0D8130E1F380911C0D863018F4809137
:104BC0001C0D01C086E0ABEFBCE029ED3CE0F90133
:104BD0009E2F921B981718F49D919193F9CF1092E4
:104BE000D80C8093D70CE12EF72E9091D70C8091A2
:104BF000D80C981741F08DE29EE00E94AB03F701BC
:104C000081937F01F2CF81E00E942A2521E030E0EC
:104C1000882311F020E030E0C9010F90DF91CF919F
:104C20001F910F91FF90EF900895E5E4FDE0A089BA
:104C3000B18982E08C93A485B5851C92A685B78541
:104C40008FEC8C93108EA489B58986E08C93A28911
:104C5000B3898C9180618C93A289B3898C9188608F
:104C60008C93A289B3898C9180688C930288F38994
:104C7000E02D80818F7D808308952F923F924F9207
:104C80005F926F927F928F929F92AF92BF92CF92DC
:104C9000DF92EF92FF920F931F93CF93DF93CDB7E5
:104CA000DEB7C656D1090FB6F894DEBF0FBECDBF32
:104CB0005C014B013E018EE1680E711C6EE07EE0EE
:104CC000C3010E94EF1B1C821B828BEC92E09A8333
:104CD00089831E8264018E010F5F1F4F230118011B
:104CE0006FE270E0C6010E94F246009709F442C0EC
:104CF000F60120812F3221F4FFEFCF1ADF0AF0CF27
:104D00008C198D3008F08CE0E82EF12CA701B6014B
:104D1000CE01885A9F4F0E940B47E8E5F0E0EC0F68
:104D2000FD1FEE0DFF1D1082C8010E94E224F80154
:104D30008581882351F01EAE1DAE8BEC92E09CAFB6
:104D40008BAF21961FAE219721C021E0AE01485ABA
:104D50005F4FB201C8010E942B23882361F3CE0C60
:104D6000DF1CC2010E94E224942D852D2801092F09
:104D7000182FB6CFC60188199909A7969FAF8EAF95
:104D8000A797B201CE01CB960E94EF1BA796EEAD7E
:104D9000FFADA7978E0E9F1EF4018081811109C07F
:104DA000BE01655C7F4FC1010E94EF1B42E858E0E5
:104DB00044C019A218A28BEC92E09F8F8E8F1BA289
:104DC00021968FAD2197811113C0F50113821282B4
:104DD00088EE93E0A0E0B0E084839583A683B78358
:104DE0008BEA92E091838083128E118E148629C003
:104DF000825023E1A401823040F46EE07EE0C301E2
:104E00000E942B2381110DC0E0CFBE01655C7F4F56
:104E1000C3010E942B238823C1F2CE01CB960E94AE
:104E2000E22449A95AA96BA97CA9C3010E94EC1FDD
:104E3000B301C1010E94EF1BA401B101C5010E9491
:104E40007F04C501CA59DF4F0FB6F894DEBF0FBE0D
:104E5000CDBFDF91CF911F910F91FF90EF90DF9029
:104E6000CF90BF90AF909F908F907F906F905F900A
:104E70004F903F902F9008954F925F926F927F9244
:104E80008F929F92AF92BF92CF92DF92EF92FF925A
:104E90001F93CF93DF93EC016A017B019A01AB0171
:104EA000C701B6010E944945882319F064E878E0FB
:104EB0001AC046015701E894B7F82FEF3FEF4FE7CC
:104EC0005FE7C501B4010E944945811111C02FEF70
:104ED0003FEF4FE75FE7C501B4010E94D7401816C6
:104EE0003CF468E878E0CE010E94492C7C017AC04D
:104EF0002FEF3FEF4FE75FE4C701B6010E949244F6
:104F000018161CF46CE878E0EECF2FEF3FEF4FE778
:104F10005FECC701B6010E94D74087FDF3CF20E0C8
:104F200030E0A901C701B6010E94D74087FF0AC03F
:104F30006DE2CE010E94422C5C01F7FAF094F7F882
:104F4000F09402C0A12CB12C26E137EB41E558E3E7
:104F5000C701B6010E9481422B013C010E94DD4342
:104F60006B017C010E94DC409B01AC01C301B201DA
:104F70000E9480422B013C012AE0B701A601CE012C
:104F80000E945E2C7C01EA0CFB1C6EE2CE010E94AA
:104F9000422CE80EF91E15E0115021F120E030E01E
:104FA00040E251E4C301B2010E943D412B013C01AA
:104FB0000E94DD434B01A12CB12C2AE0B501A401D4
:104FC000CE010E945E2CE80EF91EC501B4010E94BC
:104FD000DC409B01AC01C301B2010E9480422B0165
:104FE0003C01DACF69E776E0CE010E94492C8E0DB4
:104FF0009F1DDF91CF911F91FF90EF90DF90CF9099
:10500000BF90AF909F908F907F906F905F904F90E8
:1050100008958F929F92AF92BF92CF92DF92EF92BC
:10502000FF92CF93DF93C82F84EE9DE09093D60C30
:105030008093D50CCC2369F1C53010F080E00DC110
:1050400040E060E070E0CB010E94D81D8823B1F3FE
:1050500020E1C29FC00111248B53954FFC01E25403
:10506000FE4F20812F7751F73C964081518162811C
:105070007381443651056105710500F33497C08092
:10508000D180E280F380C114D104E104F10421F461
:10509000D5CFC12CD12C760140E0C701B6010E94CA
:1050A000D81D882359F28091E00A9091E10A811578
:1050B000924021F6A091E50AAA2309F4BFCF60919E
:1050C000E30A7091E40A6115710509F4B7CF2091E4
:1050D000E20A222309F4B2CFA093020E2093F40D2A
:1050E00080E030E0E1E0F0E0C82FAF01082E02C020
:1050F000440F551F0A94E2F72417350741F0982F03
:105100008F5F983089F789E08093FD0D97CF80936A
:10511000FD0D2091EB0A3091EC0A2115310519F0B3
:1051200040E050E008C02091F90A3091FA0A40911D
:10513000FB0A5091FC0A2093F50D3093F60D409335
:10514000F70D5093F80D46015701860E971EA11CCE
:10515000B11C8092030E9092040EA092050EB092A4
:10516000060EE091E60AF091E70AF093090EE0934B
:10517000080EB0E00E943342860E971EA81EB91E8C
:1051800080920A0E90920B0EA0920C0EB0920D0E11
:1051900085E0EE0FFF1F8A95E1F7E150FE4FEF2FFC
:1051A000FF27E6958E0E9F1EA11CB11C8092FE0D5E
:1051B0009092FF0DA092000EB092010E2091E80A8D
:1051C0003091E90A2115310521F0A90160E070E074
:1051D00008C04091F50A5091F60A6091F70A709163
:1051E000F80AD701C60188199909AA09BB09840FD1
:1051F000951FA61FB71F04C0B695A79597958795CD
:10520000CA95D2F78093F90D9093FA0DA093FB0DF8
:10521000B093FC0D853F2FE09207A105B10510F476
:105220008CE018C0853F9F4FA105B10510F480E1C7
:1052300011C08091010B9091020BA091030BB091D2
:10524000040B80930A0E90930B0EA0930C0EB09358
:105250000D0E80E28093070E81E0DF91CF91FF90E9
:10526000EF90DF90CF90BF90AF909F908F90089578
:105270003FB7F8948091480F9091490FA0914A0F41
:10528000B0914B0F26B5A89B05C02F3F19F0019692
:10529000A11DB11D3FBFBA2FA92F982F8827820FBC
:1052A000911DA11DB11DBC01CD0142E0660F771F0C
:1052B000881F991F4A95D1F70895CF92DF92EF92F8
:1052C000FF920F931F93CF93DF936C017A018B01B1
:1052D000C0E0D0E0CE15DF0589F0D8016D918D01D9
:1052E000D601ED91FC910190F081E02DC601199558
:1052F000892B11F47E0102C02196ECCFC701DF910A
:10530000CF911F910F91FF90EF90DF90CF90089574
:1053100090E0FC013197E231F10508F04EC088279A
:10532000EE58FF4F8F4F0C949745809180008F77F8
:1053300003C0809180008F7D8093800008958091CC
:105340008000877FF9CF84B58F7702C084B58F7DC9
:1053500084BD08958091B0008F7703C08091B00024
:105360008F7D8093B0000895809190008F7707C063
:10537000809190008F7D03C080919000877F809303
:10538000900008958091A0008F7707C08091A000C1
:105390008F7D03C08091A000877F8093A000089537
:1053A000809120018F7707C0809120018F7D03C0FD
:1053B00080912001877F8093200108951F93CF93D0
:1053C000DF93282F30E0F901E25FFA4F8491F90171
:1053D000E355FB4FD491F901E959FB4FC491CC231C
:1053E000C9F0162F81110E948829EC2FF0E0EE0FF2
:1053F000FF1FED5CFB4FA591B4918FB7F89411118D
:1054000005C09C91ED2FE095E92302C0EC91ED2BB6
:10541000EC938FBFDF91CF911F910895CF93DF93CE
:1054200090E0FC01E355FB4F2491FC01E959FB4F4F
:105430008491882361F190E0880F991FFC01EC5062
:10544000FB4FC591D491FC01ED5CFB4FA591B4914C
:10545000611109C09FB7F8948881209582238883C1
:10546000EC912E230BC0623061F49FB7F894388121
:10547000822F809583238883EC912E2B2C939FBFC2
:1054800006C08FB7F894E8812E2B28838FBFDF9159
:10549000CF9108951F93CF93DF93182FEB0161E015
:1054A0000E940E2A209711F460E004C0CF3FD1057E
:1054B00039F461E0812FDF91CF911F910C94DE29A7
:1054C000E12FF0E0E25FFA4FE4914E2F50E0FA0155
:1054D0003197E231F10508F09DC08827EC57FF4F66
:1054E0008F4F0C94974584B5806884BDC7BD97C025
:1054F00084B5806284BDC8BD92C080918000806800
:1055000080938000D0938900C093880088C08091E8
:105510008000806280938000D0938B00C0938A00CB
:105520007EC080918000886080938000D0938D0041
:10553000C0938C0074C08091B00080688093B000EC
:10554000C093B3006CC08091B00080628093B000C3
:10555000C093B40064C080919000806880939000F4
:10556000D0939900C09398005AC0809190008062B7
:1055700080939000D0939B00C0939A0050C080917C
:105580009000886080939000D0939D00C0939C0011
:1055900046C08091A00080688093A0008091A00008
:1055A0008F7B8093A000D093A900C093A80037C040
:1055B0008091A00080628093A000D093AB00C09344
:1055C000AA002DC08091A00088608093A000D09395
:1055D000AD00C093AC0023C080912001806880930F
:1055E0002001D0932901C093280119C08091200186
:1055F000806280932001D0932B01C0932A010FC0B9
:1056000080912001886080932001D0932D01C09368
:105610002C0105C0C038D1050CF04BCF45CFDF9130
:10562000CF911F9108958F929F92AF92BF92CF9288
:10563000DF92EF92FF926B017C010E9438294B01AF
:105640005C01C114D104E104F104F1F00E94382995
:10565000DC01CB0188199909AA09BB09883E93404E
:10566000A105B10570F321E0C21AD108E108F108E3
:1056700088EE880E83E0981EA11CB11CC114D104D1
:10568000E104F10419F7DDCFFF90EF90DF90CF90A8
:10569000BF90AF909F908F9008952FB7F89460912E
:1056A000440F7091450F8091460F9091470F2FBF87
:1056B00008951F920F920FB60F9211242F933F93CC
:1056C0008F939F93AF93BF938091440F9091450F19
:1056D000A091460FB091470F3091430F23E0230F65
:1056E0002D3720F40196A11DB11D05C026E8230F1A
:1056F0000296A11DB11D2093430F8093440F9093F8
:10570000450FA093460FB093470F8091480F90919B
:10571000490FA0914A0FB0914B0F0196A11DB11DE9
:105720008093480F9093490FA0934A0FB0934B0F6B
:10573000BF91AF919F918F913F912F910F900FBE8D
:105740000F901F9018951F920F920FB60F92112471
:105750000BB60F922F933F934F935F936F937F936B
:105760008F939F93AF93BF93EF93FF9380913F0FDE
:105770009091400FA091410FB091420F892B8A2B3D
:105780008B2B59F180913E0FE0913C0FF0913D0F32
:1057900090818927808380913F0F9091400FA09145
:1057A000410FB091420F181619061A061B060CF08D
:1057B00056C080913F0F9091400FA091410FB09142
:1057C000420F0197A109B10980933F0F9093400FB9
:1057D000A093410FB093420F42C080911D02E3EFAE
:1057E000F4E0E4919FEF90931D02E230C9F050F491
:1057F000EE2399F0E13081F590916F009D7F9093B9
:105800006F002AC0E43019F1E0F0E53029F59091FD
:1058100073009D7F909373001FC010926E001CC098
:10582000909170009D7F9093700091E09093B000F4
:105830009091B100987F94609093B1001092B30062
:105840000BC0909171009D7F9093710005C0909165
:1058500072009D7F9093720060E00E94DE29FF91AC
:10586000EF91BF91AF919F918F917F916F915F91D8
:105870004F913F912F910F900BBE0F900FBE0F9045
:105880001F901895DC01ED91FC910190F081E02DC5
:1058900019946115710579F0FB0101900020E9F779
:1058A0003197AF01461B570BDC01ED91FC91028053
:1058B000F381E02D199480E090E008954F925F927B
:1058C0006F927F92EF92FF920F931F93CF93DF938C
:1058D000CDB7DEB7A1970FB6F894DEBF0FBECDBF30
:1058E0007C01FA01CB0119A2223008F42AE08E01D2
:1058F0000F5D1F4F422E512C612C712CBF01A30153
:1059000092010E943E42F901CA01015011096A3018
:1059100014F4605D01C0695CD8016C93232B242BC7
:10592000252B61F7B801C7010E94492CA1960FB63B
:10593000F894DEBF0FBECDBFDF91CF911F910F91C5
:10594000FF90EF907F906F905F904F900895CF936E
:10595000DF93CDB7DEB7CA5DD1090FB6F894DEBFCD
:105960000FBECDBF789484B5826084BD84B581605C
:1059700084BD85B5826085BD85B5816085BD80911A
:105980006E00816080936E00109281008091810092
:10599000826080938100809181008160809381008A
:1059A000809180008160809380008091B10084604C
:1059B0008093B1008091B00081608093B0008091AD
:1059C000910082608093910080919100816080932A
:1059D0009100809190008160809390008091A1005F
:1059E00082608093A1008091A10081608093A100DA
:1059F0008091A00081608093A0008091210182604D
:105A00008093210180912101816080932101809107
:105A1000200181608093200180917A0084608093CE
:105A20007A0080917A00826080937A0080917A0077
:105A3000816080937A0080917A00806880937A00F8
:105A40001092C1001092D80C1092D70C1092210D18
:105A50001092430D10921F0D81E080931E0D109245
:105A6000F90C61E084E10E94DE2961E085E10E9499
:105A7000DE298091B9008E7F8093B9008091B900B2
:105A80008D7F8093B90088E48093B80085E480938B
:105A9000BC000E9415261092E80E1092E70E10929C
:105AA000E60E1092E50E1092E40E1092E30E82E1E3
:105AB00091E09093EA0E8093E90E8091D90E96EFD3
:105AC000980F943048F02EEC280F243028F022EC68
:105AD000280F283008F070C027E730E03093E40E3C
