:100000000C94EA020C941B030C941B030C941B032A
:100010000C941B030C941B030C941B030C941B03E8
:100020000C941B030C948E050C948E050C948E0579
:100030000C941B030C9483280C941B030C941B033B
:100040000C941B030C94CB150C941B030C941B03F6
:100050000C941B030C941B030C941B030C94392865
:100060000C941B030C94161A0C94EC190C941B039F
:100070000C941B030C941B030C941B030C941B0388
:100080000C949D150C941B030C941B030C941B03E4
:100090000C941B030C941B030C941B030C94E7138C
:1000A0000C941B030C941B030C946F150C941B03F2
:1000B0000C941B030C941B030C941B030C94411510
:1000C0000C941B030C941B030C941B030C941B0338
:1000D0000C941B030C941B030C941B030C941B0328
:1000E0000C941B03E6302D315C318B31B6319338E3
:1000F000C238561059105C105F10621065106810FD
:1001000050265326422646264A268A2657265B260E
:100110006126652669266F26732677268A267D2620
:1001200081268526532758275D2767277127EA27C9
:100130007B2783278B2795279F27A927B827C227A7
:10014000EA27CC27D627E027084AD73B3BCE016ECB
:1001500084BCBFFDC12F3D6C74319ABD56833DDA1E
:100160003D00C77F11BED9E4BB4C3E916BAAAABE2D
:10017000000000803F072C7AA5BA6CC590DA3B934B
:1001800065FC8BBC53F810FD3C5692834DBD879D9A
:100190003AB63DCBC9BF5BBE73DA0FC93F05A84C69
:1001A000CDB2D44EB93836A9020C50B99186880820
:1001B0003CA6AAAA2ABE000000803F08000000BE9C
:1001C000922449123EABAAAA2ABECDCCCC4C3E000A
:1001D000000080BEABAAAAAA3E00000000BF00003B
:1001E00000803F0000000000084178D3BB4387D166
:1001F000133D190E3CC3BD4282AD2B3E68EC8276A6
:10020000BED98FE1A93E4C80EFFFBE01C4FF7F3F06
:10021000000000000007634236B79BD8A71A396870
:100220005618AEBAAB558C1D3CB7CC5763BD6DEDBF
:10023000FD753EF6177231BF000000803F000C9440
:10024000891F0C94D6270C94C2380C9495270C94D3
:10025000B4180C9454190C948A030C9461260C94D1
:1002600001120C94D6180C94EA270C9496100C9456
:1002700083270C9436030C94C5110C948A260C9495
:1002800042260C94E7030C940F390C94B7100C948D
:1002900050260C94CD110C9468100C94D3030C943C
:1002A000B8270C945D270C9446260C94C2270C9416
:1002B0008B270C9405390C9477260C94E0270C942A
:1002C000C8180C9459100C944A260C947D260C9452
:1002D0005C310C94C4030C9481260C9485260C94F8
:1002E0005F100C9493380C9471270C9456100C9456
:1002F00053270C94C3030C94A9270C94E6300C9458
:1003000067270C941F040C9462100C941D030C942A
:1003100069260C9453260C94FF260C948B310C9474
:1003200065100C94D7110C94EF030C945C100C9492
:10033000A2030C9473260C947B270C9465260C94D2
:10034000AF190C949F270C940D190C94B6310C9492
:10035000CC270C945B260C9435030C942D310C9413
:1003600058270C9457260C946F264E414E494E49FF
:100370005459494E46CDCCCC3D0AD7233C17B7D172
:100380003877CC2B329595E6241FB14F0A00002018
:10039000410000C84200401C4620BCBE4CCA1B0E97
:1003A0005AAEC59D7400407A10F35A00A0724E18E0
:1003B000090010A5D4E80000E87648170000E40B17
:1003C00054020000CA9A3B000000E1F505000080DD
:1003D000969800000040420F000000A08601000037
:1003E00000102700000000E8030000000064000087
:1003F0000000000A00000000000100000000002CC6
:1004000076D888DC674F0823DFC1DFAE59E1B1B78A
:1004100096E5E3E453C63AE651997696E8E6C28457
:1004200026EB898C9B62ED407C6FFCEFBC9C9F406F
:10043000F2BAA56FA5F490055A2AF75C936B6CF994
:10044000676DC11BFCE0E40D47FEF520E6B500D06A
:10045000ED902E0300943577050080841E0800007F
:10046000204E0A000000C80C333333330F986E124D
:10047000831141EF8D2114893BE65516CFFEE6DB53
:1004800018D1844B381BF77C1D901DA4BBE424209D
:100490003284725E228100C9F124ECA1E53D277C03
:1004A0003C3E5E2B3D3F2F5B5D3B2C2A225C0000D7
:1004B000002100240027002A002D00300033000115
:1004C000010000040107010A0100000A0B02090CE7
:1004D0000D0E0807030401000000000000000000EA
:1004E000000000000000000000000000000000000C
:1004F00000000000001211100000000000000000C9
:1005000000000000000000000000000000000000EB
:10051000002200250028002B002E003100340002AC
:10052000010000050108010B010000200023002646
:100530000029002C002F00320000010000030106FA
:10054000010901050505050705080808080202025A
:10055000020A0A080804040404010101010101015E
:10056000010303030303030303040707070C0C0C35
:100570000C0C0C0C0C02020202060606060606060D
:10058000060B0B0B0B0B0B0B0B01021020200808AA
:1005900010204010204080020102010804020101E5
:1005A00002040810204080804020100804020180CE
:1005B0000402018040201008040201080402010125
:1005C000020408102040800102040810204080022C
:1005D0000F39053911241FBECFEFD1E2DEBFCDBFE9
:1005E00000E00CBF18E0A0E0B2E0EEE8F1E900E0C6
:1005F0000BBF02C007900D92A634B107D9F72FE0C8
:10060000A6E4B8E001C01D92A230B207E1F712E003
:10061000C9EED2E000E006C021970109802FFE015B
:100620000E942244C83ED10780E00807A9F70E9433
:10063000732A0C94B5480C9400002091480830911E
:1006400049082817390771F49091460880914708A6
:10065000981741F0E0914608F0E0EF50F64F8081A6
:1006600090E008958FEF9FEF089508951F93CF9323
:10067000DF93DC015C962D913C915D97211531054E
:1006800039F481E090E013969C938E9312973DC0CD
:100690005196ED91FC91529750969C915097892FCD
:1006A00080951FB75E964C915E9741FB772770F956
:1006B00041FD6095F8944081772311F0492B01C0EA
:1006C00048234083E9012197F1F748E0508160FF1A
:1006D00002C0592B01C058235083E9012197F1F73B
:1006E0006695415099F7772321F090818923808383
:1006F00003C08081982B90831FBF5C968D919C9145
:100700005D970197F1F721E030E0C901DF91CF91CA
:100710001F910895209148083091490828173907FA
:1007200071F4809147082091460890E0805C9F4FCB
:10073000821B910960E470E00E940E44089580E0FD
:1007400090E008952091480830914908281739070A
:10075000B9F49091460880914708981789F0E09184
:100760004608F0E0EF50F64F80812091460830E0D7
:100770002F5F3F4F2F7333272093460890E0089553
:100780008FEF9FEF08950895E091860C8091850C7E
:10079000E81730F4F0E0E957F34F808190E00895D6
:1007A0008FEF9FEF08959091860C8091850C98179C
:1007B00050F4E92FF0E0E957F34F208130E09F5FDC
:1007C0009093860C02C02FEF3FEFC90108958091EE
:1007D000850C90E02091860C821B91090895CF92A0
:1007E000DF92EF92FF920F931F93CF93DF937C01E1
:1007F000262F972F8A018091CE0C882391F0C62F47
:10080000D72F6E01C40ED51ECC15DD0571F0699190
:10081000D701ED91FC910190F081E02DC701199570
:10082000F3CF642F822F0E941915C801DF91CF9159
:100830001F910F91FF90EF90DF90CF900895CF938D
:10084000DF931F92CDB7DEB769832091CE0C2223B0
:10085000D1F02091F10C203240F021E030E0FC0199
:100860003383228380E090E015C08091CF0CE82F85
:10087000F0E0E053F34F998190838F5F8093CF0C2A
:100880008093F10C05C061E0CE0101960E9419151C
:1008900081E090E00F90DF91CF910895EF92FF9269
:1008A0000F931F93CF93DF93EC017B018A011B828F
:1008B0001A8288EE93E0A0E0B0E08C839D83AE8343
:1008C000BF8383EA92E0998388838DE190E00E9460
:1008D0003E449A8F898F009779F02DE1F701DC0172
:1008E00001900D922A95E1F74CE050E0B801CE015D
:1008F0000C960E949645188EDF91CF911F910F9113
:10090000FF90EF9008952F923F924F925F926F92D7
:100910007F928F929F92AF92BF92CF92DF92EF928F
:10092000FF920F931F93CF93DF931F921F92CDB728
:10093000DEB7FC018581882309F4D9C0848180FF5A
:10094000D6C021E02A8343895489658976898285C6
:100950009385A485B585481759076A077B0709F46D
:100960001A826F013A81832F90E0DE0111964D01CA
:100970003F01B6E06B0E711C892B09F47DC0D601D6
:100980001A964D915D916D917C911D975A01B1E040
:10099000BB22F60125811A012B0189E05694479468
:1009A000379427948A95D1F7838D948D223061F402
:1009B000FC01828D938DA48DB58DBC01CD01620D9E
:1009C000731D841D951D45C0DC0114961C911150AA
:1009D0001221A114B104D1F4111118C0452B462BDA
:1009E000472B51F4F6018789908DA18DB28D8683B6
:1009F0009783A087B1870AC046815781608571853A
:100A000093010E94351B882309F471C0F601238DE0
:100A1000348D86819781A085B1850297A109B1099E
:100A2000AC01BD01F901058404C0440F551F661FC8
:100A3000771F0A94D2F786859785A089B189840F9C
:100A4000951FA61FB71FBC01CD01610F711D811D30
:100A5000911DD60114962C9126FF14C00091090215
:100A600010910A0220910B0230910C02601771075D
:100A70008207930751F506C0FA81FF23C1F18981EE
:100A800090E037C040E00E944C1A882381F1F501C4
:100A9000ED57F54FD401CF010196E817F90719F08A
:100AA00021912D93FACFEFEF8E1A9E0AF6018285DF
:100AB0009385A485B5850196A11DB11D8287938775
:100AC000A487B58780E090E057CF740101E010E083
:100AD0009501AB01BC018091830C9091840C0E9424
:100AE000E812882321F0BFEF8B1A9B0ADFCF8FEF2C
:100AF0009FEF0F900F90DF91CF911F910F91FF907B
:100B0000EF90DF90CF90BF90AF909F908F907F90AD
:100B10006F905F904F903F902F9008951F920F928B
:100B20000FB60F9211240BB60F922F933F934F9352
:100B30005F936F937F938F939F93AF93BF93EF9345
:100B4000FF93E0914808F0914908309709F451C0AB
:100B5000968DA685B785858591FF04C09C918923D4
:100B600029F447C09C91892309F043C0A389B48923
:100B70009C918589809589238C9386899789019793
:100B8000F1F7608D718DA685B785558538E020E039
:100B9000CB010197F1F7822F90E095958795282F4B
:100BA0004C91452309F02068315091F7868D81FDE5
:100BB00020958091470890E001968F739927309196
:100BC0004608381749F0A0914708B0E0AF50B64F3B
:100BD0002C938093470803C0868D8160868F828D19
:100BE000938D0197F1F7A389B4899C918589892B0D
:100BF0008C93FF91EF91BF91AF919F918F917F91D6
:100C00006F915F914F913F912F910F900BBE0F907D
:100C10000FBE0F901F901895E0914808F091490879
:100C2000E817F90769F4A389B4899C9185898095AF
:100C300089238C93109249081092480881E0089506
:100C400080E00895CF93DF93CDB7DEB7EF970FB66F
:100C5000F894DEBF0FBECDBF9E012B5B3F4FF90165
:100C6000419151919F016FE370E0CE0101960E9486
:100C7000D545CE0101960E94652288E296E00E9449
:100C80006522EF960FB6F894DEBF0FBECDBFDF91A1
:100C9000CF910895EF92FF920F931F93CF93DF931D
:100CA000CDB7DEB760970FB6F894DEBF0FBECDBFED
:100CB0009E012F5F3F4F7901890126E04AE00E94A3
:100CC000253AFF92EF9282E696E09F938F93FF92F0
:100CD000EF920E94A545C7010E94652262E070E084
:100CE00080E090E00E94F3270F900F900F900F90FC
:100CF0000F900F9081E090E060960FB6F894DEBF01
:100D00000FBECDBFDF91CF911F910F91FF90EF905C
:100D10000895CF92DF92EF92FF920F931F93CF939C
:100D2000DF93CDB7DEB76B970FB6F894DEBF0FBE7B
:100D3000CDBF7C0186E696E00E9465220E942D28A8
:100D4000F701648B758B868B978B0EE110E06DE756
:100D500076E0CE0101960E94DE23EA8DFB8D30976E
:100D600009F457C08581882309F453C04389548905
:100D700065897689CE0101960E94A7186BED77E010
:100D8000CE0101960E945F2A69E876E0CE010196C5
:100D90000E942929F70144895589668977892AE0C3
:100DA000CE0101960E943E296FE876E0CE010196C1
:100DB0000E942929F701C08CD18C0D2C000CEE0863
:100DC000FF08F7FE0EC06DE2CE0101960E942229B7
:100DD00044275527BA014C195D096E097F092AE09D
:100DE00003C02AE0B701A601CE0101960E943E2968
:100DF00068E976E0CE0101960E942929CE0101968C
:100E00000E9495188BE996E00E94652281E090E0AF
:100E10000AC00150110909F09ACF85EB96E00E94B3
:100E2000652280E090E06B960FB6F894DEBF0FBEAF
:100E3000CDBFDF91CF911F910F91FF90EF90DF9089
:100E4000CF900895CF93C62F91E09093CE0C40930E
:100E5000F00C1092CF0C1092F10C682F8BED9DE0EE
:100E60000E941F046C2F8BED9DE00E941F0481E007
:100E70000E94A12221E030E0882311F020E030E040
:100E8000C901CF910895CF93DF93CDB7DEB72897EF
:100E90000FB6F894DEBF0FBECDBF4B836D838F833B
:100EA000622F84E00E9421266B8185E00E9421262A
:100EB0006D8187E00E9421266F8186E028960FB61B
:100EC000F894DEBF0FBECDBFDF91CF910C942126E9
:100ED000EF92FF920F931F93CF93DF93CDB7DEB7BF
:100EE00028970FB6F894DEBF0FBECDBF28E0EBE722
:100EF000F2E0DE01119601900D922A95E1F78451FE
:100F000095407C0101E010E01A821982402F1C8379
:100F10000B831E821D8218870F8320E03A815C813B
:100F200060E07E81802F98850E948C2362E070E0D3
:100F300080E090E00E94F3270F5F1F4F011581E0D2
:100F4000180711F781E090E0482F29813A8150E09D
:100F50006D817E810E944307B701FF0C880B990BBE
:100F60000E94F3270FEF10E01A821982402F1C8392
:100F70000B831E821D8218870F8320E03A815C81DB
:100F800060E07E81802F98850E948C2367E070E06E
:100F900080E090E00E94F3270150110929F781E0D9
:100FA00090E0282F482F682F30E050E070E00E943A
:100FB000430728960FB6F894DEBF0FBECDBFDF9172
:100FC000CF911F910F91FF90EF9008954F925F92F4
:100FD0006F927F928F929F92AF92BF92CF92DF9249
:100FE000EF92FF920F931F93CF9320911D02213216
:100FF00021F02F3F09F07DC204C0EFECF5E0C49171
:10100000E7C021E220931D02EFECF5E0C491CF3F51
:1010100009F46FC2C23009F472C04CF5CC2309F454
:1010200051C0C13009F0D4C01092800010928100EC
:10103000209181002860209381002091810021600F
:1010400020938100E4E6F5E0E491F0E0EE0FFF1F6D
:10105000E15FFA4F259134913093D9092093D80953
:10106000EAEAF5E0E491E093D709C1E0B3C0C43007
:1010700009F48BC00CF466C0C53009F0A9C0109209
:10108000200110922101209121012860209321014B
:1010900020912101216020932101E4E6F5E0E49113
:1010A000F0E0EE0FFF1FE15FFA4F2591349130938E
:1010B000D0092093CF09EAEAF5E0E491E093CE0964
:1010C000C5E088C014BC15BC24B5226024BD25B57C
:1010D000216025BDE4E6F5E0E491F0E0EE0FFF1FAE
:1010E000E15FFA4F259134913093DC092093DB09BD
:1010F000EAEAF5E0E491E093DA09C0E06BC010920F
:10110000B0001092B1002091B00022602093B00096
:101110002091B10021602093B100E4E6F5E0E49174
:10112000F0E0EE0FFF1FE15FFA4F2591349130930D
:10113000EB0E2093EA0EEAEAF5E0E491E093EC0E80
:10114000C2E048C01092900010929100209191004E
:1011500028602093910020919100216020939100BC
:10116000E4E6F5E0E491F0E0EE0FFF1FE15FFA4FF7
:10117000259134913093D6092093D509EAEAF5E018
:10118000E491E093D409C3E025C01092A00010922E
:10119000A1002091A10028602093A1002091A1002E
:1011A00021602093A100E4E6F5E0E491F0E0EE0F89
:1011B000FF1FE15FFA4F259134913093D3092093BB
:1011C000D209EAEAF5E0E491E093D109C4E002C073
:1011D000C7FD8FC18C0161E081E20E949E2648011B
:1011E000A12CB12C8C2F8D7F09F0B6C060E072E18C
:1011F0008AE790E0A50194010E94A73F29013A01E6
:1012000069017A0121E0C21AD108E108F1088FEFE3
:10121000C816D104E104F10409F008F44BC060E4FD
:1012200072E48FE090E0A50194010E94A73F69015C
:101230007A0181E0C81AD108E108F108C23001F54D
:101240002FEFC216D104E104F10409F008F4C0C183
:1012500060E970ED83E090E0A50194010E94A73F52
:1012600069017A0181E0C81AD108E108F1082FEF7D
:10127000C216D104E104F10409F0C0F593E065C0A1
:101280008FEFC816D104E104F104B1F0A8F068E4CE
:1012900078EE81E090E0A50194010E94A73F6901EA
:1012A0007A0181E0C81AD108E108F108CC2309F4D9
:1012B00037C185C191E001C092E0CC2391F045C0D7
:1012C000D301C2012AE0B595A795979587952A95F0
:1012D000D1F76C017D0121E0C21AD108E108F108C3
:1012E00095E085B5887F982B95BD80C068E478EE41
:1012F00081E090E0A50194010E94A73F69017A0175
:1013000081E0C81AD108E108F1082FEFC216D10414
:10131000E104F10409F008F401C164E274EF80E033
:1013200090E0A50194010E94A73F69017A0181E044
:10133000C81AD108E108F1082FEFC216D104E10460
:10134000F10411F008F00EC195E08091B100887FA2
:10135000982B9093B1004AC060E072E18AE790E078
:10136000A50194010E94A73F69017A0181E0C81A92
:10137000D108E108F108C114D10421E0E206F1042A
:1013800088F068E478EE81E090E0A50194010E9485
:10139000A73F69017A0181E0C81AD108E108F10884
:1013A00083E001C081E0C13039F490918100987FE1
:1013B000892B809381001AC0C33039F49091910039
:1013C000987F892B8093910011C0C43039F490919B
:1013D000A100987F892B8093A10008C0C53031F40B
:1013E00090912101987F892B809321019801220FF0
:1013F000331FACE2B1E00E94F33F28EE33E040E05F
:1014000050E00E94D13FC23009F440C0BCF4CC236C
:1014100071F1C13009F06DC0D0928900C09288008E
:101420002093E9093093EA094093EB095093EC09C2
:1014300080916F00826080936F005BC0C43009F4BC
:1014400047C0A4F1C53009F054C0D0922901C09220
:1014500028012093DD093093DE094093DF09509382
:10146000E0098091730082608093730042C0C7BC22
:101470002093ED093093EE094093EF095093F00962
:1014800080916E00826080936E0033C0C092B30082
:101490002093ED0E3093EE0E4093EF0E5093F00E2E
:1014A0008091700082608093700023C0D092990078
:1014B000C09298002093E5093093E6094093E7092C
:1014C0005093E8098091710082608093710011C08F
:1014D000D092A900C092A8002093E1093093E209BC
:1014E0004093E3095093E4098091720082608093F5
:1014F00072006CE271E080E090E0CF911F910F915B
:10150000FF90EF90DF90CF90BF90AF909F908F9023
:101510007F906F905F904F900C94F32794E015CFDD
:101520008FEFC816D104E104F104D1F0C8F062E1F4
:101530007AE780E090E0A50194010E94A73F69014D
:101540007A0181E0C81AD108E108F1082FEFC2162C
:10155000D104E104F10411F008F0B2CE94E0C1CE60
:1015600093E0BFCE62E17AE780E090E0A5019401CC
:101570000E94A73F69017A0181E0C81AD108E108F9
:10158000F1082FEFC216D104E104F104B1F0A8F084
:10159000D301C2015AE0B595A795979587955A95BD
:1015A000D1F76C017D0121E0C21AD108E108F108F0
:1015B000CC2309F495CE97E0C8CE96E07ECE8FEF8F
:1015C000C816D104E104F10409F060F694E075CE88
:1015D00092E0BBCE2F923F924F925F926F927F929A
:1015E0008F929F92AF92BF92CF92DF92EF92FF9233
:1015F0000F931F93CF93DF93CDB7DEB7C256D14081
:101600000FB6F894DEBF0FBECDBF1C018DEC96E087
:101610000E94652280E197E2C75ADE4F9983888352
:10162000C955D1408BE79EE00E94A2038F3F09F489
:1016300061C38D3029F5E091CC08F091CD08E253DB
:10164000F74F10824FEF50E06EEC78E0CE0101963C
:101650000E949645C050DF4F1882C050D140109272
:10166000CD081092CC0846E050E0BE016F5F7F4F7E
:101670008BED96E00E948845892B09F071C314C058
:101680008A3081F22091CC083091CD082F3F31056E
:101690004CF6F901E253F74F80832F5F3F4F3093B1
:1016A000CD082093CC08BECF62EE76E0CE01019645
:1016B0000E94493A62EE76E080E090E00E94493A6A
:1016C0004C0162EE76E080E090E00E94493A3C01F5
:1016D00062EE76E080E090E00E94493A2C0162EEF2
:1016E00076E080E090E00E94493A62EE76E080E0A9
:1016F00090E00E94493A7C0162EE76E080E090E062
:101700000E94493A62EE76E080E090E00E94493A19
:101710005C0162EE76E080E090E00E94493A6C0164
:10172000E114F10409F41CC3D301EC910E2E000C5A
:10173000FF0B8081863521F484EE96E00E946522BD
:10174000C4010E94453AF1016083718382839383CF
:10175000C5010E94453AD1011C966D937D938D93EE
:101760009C931F97C6010E94453AF101608B718BD3
:10177000828B938BC2010E94453A4B015C0120E0B1
:1017800030E048EC52E40E94F7400E946941072E85
:10179000000C880B990B0E94713E2B013C0120E04C
:1017A00030E048EC52E40E94D03E9B01AC01C50100
:1017B000B4010E94134020E030E040E752E40E9470
:1017C000F7409B01AC01C301B2010E941440D1015A
:1017D00014966D937D938D939C931797C7010E94E8
:1017E000453A6B017C0120E030E048EC52E40E9475
:1017F000F7400E946941072E000C880B990B0E944C
:10180000713E4B015C0120E030E048EC52E40E9464
:10181000D03E9B01AC01C701B6010E94134020E0FD
:1018200030E040E752E40E94F7409B01AC01C50163
:10183000B4010E9414406B017C01F1016087718743
:101840008287938784809580A680B78020E030E0EF
:101850004CE052E4C501B4010E94254218160CF078
:101860004CC220E030E044E352E4C501B4010E94E0
:101870006A3E87FF42C220E030E045E053E4C70102
:10188000B6010E94254218160CF037C220E030E065
:101890004FE053E4C701B6010E946A3E87FF2DC2A4
:1018A000D1016D917D918D919C918E010F5B1E4FA9
:1018B00026E04AE00E94253AF10164817581868123
:1018C00097810051110926E04AE00E94253AD10192
:1018D00018966D917D918D919C911B9700511109E6
:1018E00026E04AE00E94253AF10144805580668056
:1018F000778020853185428553858AE097E0C15AFB
:10190000DE4F2883CF55D140C05ADE4F3883C056B2
:10191000D140CF59DE4F4883C156D140CE59DE4F1A
:101920005883C256D1400E946522C15ADE4F288199
:10193000CF55D140C05ADE4F3881C056D140CF5923
:10194000DE4F4881C156D140CE59DE4F5881C25634
:10195000D1406FE572EC8BE093E40E9413402BEDD5
:101960003FE049E450E40E94D03E20E030E044E310
:1019700053E40E94F740CF5ADE4F688379838A830D
:101980009B83C155D1402BE53CED4EE052E4C301B1
:10199000B2010E94144020E030E040E05FE30E948A
:1019A000D03E2BED3FE049E450E40E94D03E20E0E1
:1019B00030E044E353E40E94F7406B017C010E9455
:1019C000DA429B01AC010E94D03E28E83CE54BED99
:1019D0005BE30E94D03E9B01AC0160E070E080E8D8
:1019E0009FE30E9413400E94E842CB5ADE4F688377
:1019F00079838A839B83C555D14020E030E040E461
:101A000050E40E948A42C55ADE4F688379838A83F4
:101A10009B83CB55D140A30192016BE57CED8EE019
:101A200092E40E9413402BED3FE049E450E40E9411
:101A3000D03E20E030E044E353E40E94F7404B0105
:101A40005C01C55ADE4F288139814A815B81CB55C3
:101A5000D1406FE977E581EC9AE40E94F7409B0161
:101A6000AC01C501B4010E94D03E4B015C01C7012D
:101A7000B6010E94F2406B017C01CB5ADE4F2881F7
:101A800039814A815B81C555D14062E375EA82ECB8
:101A90009AE40E94F7409B01AC01CF5ADE4F688167
:101AA00079818A819B81C155D1400E94D03EA70196
:101AB00096010E94D03E6B017C01A5019401C501F5
:101AC000B4010E94D03E4B015C01A7019601C70101
:101AD000B6010E94D03E9B01AC01C501B4010E9439
:101AE00014400E94E8426B017C010052110926E07B
:101AF0004AE00E94253A8DE197E00E946522C801E4
:101B00000E94652288E296E00E9465228FE297E0BB
:101B10000E946522CF5ADE4F688179818A819B813C
:101B2000C155D1400E94DA42CB5ADE4F6883798397
:101B30008A839B83C555D1402BED3FE049E450E4B7
:101B4000C301B2010E94D03E20E030E044E353E400
:101B50000E94F7402B013C010E94F2404B015C01C6
:101B6000C301B2010E94DA422B013C01CF5ADE4F81
:101B7000688179818A819B81C155D1400E94F24060
:101B8000CF5ADE4F688379838A839B83C155D140C6
:101B900021E131E745E15FE3C501B4010E94D03E98
:101BA0004B015C0120E93AED4FE45FE3C301B20170
:101BB0000E94D03ECF5ADE4F288139814A815B8115
:101BC000C155D1400E94D03E9B01AC01C501B4017A
:101BD0000E9413404B015C0120E93AED4FE45FE3C2
:101BE000CB5ADE4F688179818A819B81C555D1406E
:101BF0000E94D03EA50194010E94934020E030E075
:101C000044E353E40E94D03E2BED3FE049E450E42E
:101C10000E94F7404B015C0120E030E0A9010E94E6
:101C20006A3E87FF0AC020E030E044EB53E4C50180
:101C3000B4010E9414404B015C018E010F5F1E4FE6
:101C400026E04AE0C501B4010E94253A83E497E00A
:101C50000E946522C8010E94652288E296E00E94E7
:101C60006522005F1F4F26E04AE0C701B6010E94CF
:101C7000253A0051110926E04AE0C501B4010E944D
:101C8000253AD10154968D929D92AD92BC92579770
:101C9000F101C08ED18EE28EF38E86E597E00E9430
:101CA0006522CE018F5C9E4F0E94652280E697E000
:101CB0000E946522CE018F5D9E4F0E94652288E2C0
:101CC00096E00E94652285E297E00E946522CE019F
:101CD0008F5E9E4F0E9465228EE697E00E946522ED
:101CE000C8010E94652288E296E00E94652201E018
:101CF00010E005C002E010E002C004E010E06AE07D
:101D000070E080E090E00E94F3270130110559F166
:101D10000430110561F48AE491E00E94E6078DE544
:101D200091E00E94E6078AE491E00E94E607C75A24
:101D3000DE4F88819981C955D1400197C75ADE4F3E
:101D400099838883C955D140892B09F06BCC89E7E9
:101D500097E09F938F930E9422060F900F9003C0ED
:101D600003E010E0CCCF81E090E0CE59DE4F0FB61B
:101D7000F894DEBF0FBECDBFDF91CF911F910F91C1
:101D8000FF90EF90DF90CF90BF90AF909F908F909B
:101D90007F906F905F904F903F902F9008958F921B
:101DA0009F92AF92BF92EF92FF920F931F93CF93A8
:101DB000DF93CDB7DEB7E7970FB6F894DEBF0FBE5F
:101DC000CDBF8C010E942D284B015C018CE1E3E822
:101DD000F2E0DE01119601900D928A95E1F781E91A
:101DE00097E00E9465220115110521F0CE010196B0
:101DF0000E94EA0A8EE1E82EF12C69EA77E0CE0132
:101E00004D960E94DE23EEA9FFA9309709F4FBC08E
:101E10008581882309F4F7C04389548965897689C7
:101E2000CE014D960E94A71801301105B9F102307C
:101E3000110509F48BC0012B09F0DAC06AE976E0DC
:101E4000CE014D960E945F2A6AE976E0CE014D965A
:101E50000E945F2A6AE976E0CE014D960E945F2AD1
:101E60006AE976E0CE014D960E945F2A66EB77E044
:101E7000CE014D960E945F2A64EC77E0CE014D962C
:101E80000E945F2AB501A401CE014D960E94DD2477
:101E90006AE976E0CE014D960E945F2A61ED77E017
:101EA000CE014D960E945F2A64EC77E0CE014D96FC
:101EB0000E945F2AB501A401CE014D960E94DD2447
:101EC0006DED77E0CE014D960E945F2A49815A81DF
:101ED0006B817C8126E030E0CE014D960E948729FF
:101EE00061EE77E0CE014D960E945F2A4D815E81C2
:101EF0006F81788526E030E0CE014D960E948729DB
:101F000065EE77E0CE014D960E945F2A49855A859D
:101F10006B857C8526E030E0CE014D960E948729B6
:101F200069EE77E0CE014D960E945F2A498D5A8D69
:101F30006B8D7C8D26E030E0CE014D960E94872986
:101F40006AE976E0CE014D960E945F2A62EF77E063
:101F5000CE014D960E945F2A64EC77E0CE014D964B
:101F60000E945F2AB501A401CE014D960E94DD2496
:101F70006DED77E0CE014D960E945F2A49815A812E
:101F80006B817C8126E030E0CE014D960E9487294E
:101F900061EE77E0CE014D960E945F2A4D815E8111
:101FA0006F81788526E030E0CE014D960E9487292A
:101FB00065EE77E0CE014D960E945F2A49855A85ED
:101FC0006B857C8526E030E0CE014D960E94872906
:101FD00069EE77E0CE014D960E945F2A498D5A8DB9
:101FE0006B8D7C8D26E030E0CE014D960E948729D6
:101FF000CE014D960E94951882E098E00E946522DD
:1020000081E090E00BC081E0E81AF10809F0F5CE1C
:102010008CE198E00E94652280E090E0E7960FB6A0
:10202000F894DEBF0FBECDBFDF91CF911F910F910E
:10203000FF90EF90BF90AF909F908F900895CF93B7
:10204000DF93EC0180E090E00E94913F682F70E008
:1020500080E090E00E94713E0E9432422BE930E223
:102060004AE95EE30E94F7400E94694161157105EB
:1020700011F0798F688F81E090E00E94913F482FA6
:1020800050E060E070E09A01217033275595479544
:10209000FB013197E730F10530F48827E758FF4F0F
:1020A0008F4F0C9422443B8F2A8F14C039A328A34E
:1020B00011C03F8F2E8F0EC03DA32CA30BC03D8FB0
:1020C0002C8F08C03BA32AA305C03FA32EA302C0A8
:1020D00039A728A76F5F7F4F68307105A1F681E0AF
:1020E00090E0DF91CF910895CF93DF93EC0180E0F2
:1020F00090E00E94913FFE01ED58FD4F90818913C1
:1021000007C0618180E090E00E94993F81E001C0BA
:1021100080E0DF91CF91089585ED8093BC008091A0
:10212000BC0084FDFCCF1092CD0C0895DC015996C3
:10213000ED91FC915A973097B9F083899489A589DC
:10214000B6894285538564857585841B950BA60BDE
:10215000B70B811520E89207A105B10538F08FEF84
:102160009FE7A0E0B0E0089580E090E00895CF936D
:10217000DF931F92CDB7DEB76983DC01ED91FC914F
:102180000280F381E02D41E050E0BE016F5F7F4FA0
:1021900019950F90DF91CF910895CF92DF92EF9232
:1021A000FF920F931F93CF93DF936C018B017A0102
:1021B000EC01CF5CD54F888187FF04C0FB01118201
:1021C000108224C08CE08C9D90018D9D300D1124D7
:1021D0008881A901480F511D87FD5A958091770E7E
:1021E00090E04817590794F48881A901480F511DC0
:1021F00087FD5A95CA01FA01EE0FFF1F8E0F9F1F30
:10220000FC01E951F24F808186FD19C088818F5F02
:1022100088838CE08C9D90018D9D300D11248881E8
:10222000A901480F511D87FD5A958091770E90E0C6
:1022300048175907BCF488818C3044F113C0888159
:10224000280F311D87FD3A95F901EE0FFF1F2E0F64
:102250003F1FF901E951F24F808160E08F730E94C6
:102260002126D4CFF80180819181049680349C4945
:1022700018F480E49CE904C0F801808191810496FF
:10228000F701918380838FEF888345C0F8014081F7
:1022900051818881B901680F711D87FD7A95CB0145
:1022A000FB01EE0FFF1F8E0F9F1FFC01E951F24F44
:1022B00081819281840F951FF701918380838881AA
:1022C000A901480F511D87FD5A95CA01FA01EE0F69
:1022D000FF1F8E0F9F1FFC01E951F24F808186FF87
:1022E0001AC08881280F311D87FD3A95F901EE0F3C
:1022F000FF1F2E0F3F1FF901E951F24F808161E06E
:102300008F73DF91CF911F910F91FF90EF90DF902E
:10231000CF900C942126DF91CF911F910F91FF90C8
:10232000EF90DF90CF900895CF93C82F0E942D2873
:10233000CF5FDC01CB0132E0B695A79597958795E5
:102340003A95D1F7C80F0E942D28DC01CB0122E07D
:10235000B695A795979587952A95D1F7C81739F01F
:1023600083EF9CE00E94D6181816190664F783EFD5
:102370009CE00E94D618181619062CF483EF9CE0F6
:102380000E94B41800C0CF910895FC01818D928DF8
:10239000009711F00C94251D0895FC01818D928DFC
:1023A000009711F00C9483048FEF9FEF08950F9323
:1023B0001F93CF93DF93FC01818D928D0097B9F02D
:1023C000EF010E9483048C010F3F8FEF180791F0FB
:1023D000898D9A8DFC0142855385648575854150B0
:1023E0005109610971090E94631DC80105C080E09F
:1023F00090E002C08FEF9FEFDF91CF911F910F917F
:102400000895CF93DF93EC01898D9A8D009739F46D
:1024100081E090E09B838A8380E090E00BC0FC0128
:10242000138212820E94F91DE98DFA8D2281338177
:10243000232B71F7DF91CF9108958FB7F894809196
:102440007D0A8FBF089561E0FC0184810E942126EE
:1024500080917C0A811110927C0A08958EBD000043
:102460000DB407FEFDCF8EB508958FEF0C942E129C
:102470000F931F93CF93DF93EB010E942D288B01C5
:102480000E9435128F3F49F00E942D28601B710B6E
:102490006C177D07A8F380E001C081E0DF91CF9148
:1024A0001F910F910895CF93DF93EC018E818823C4
:1024B00089F08F8198859C012F5F3F4F38872F834C
:1024C0008230924018F40E943512F3CFCE010E9460
:1024D00023121E82DF91CF9108958CBD9DBD08957A
:1024E000CF93DF93EC0180917C0A811109C081E0D8
:1024F00080937C0A8091900D9091910D0E946D12B5
:1025000060E08C81DF91CF910C942126CF92DF92F5
:10251000FF920F931F93CF93DF9300D01F92CDB7FD
:10252000DEB76C01F62E29833A834B835C830E94CD
:102530005312C6010E9470126CE271E0C6010E9443
:1025400038128F2D80640E942E1208E110E05C8109
:102550004B813A812981DA01C901002E04C0B69568
:10256000A795979587950A94D2F729833A834B8349
:102570005C830E942E120850110929813A814B81F7
:102580005C81083F8FEF180731F7FF2029F0E8E062
:10259000FE1204C087E803C085E901C08FEF0E94E6
:1025A0002E1210E00E943512F601828787FF04C0C8
:1025B0001F3F11F01F5FF6CF0F900F900F900F90FD
:1025C000DF91CF911F910F91FF90DF90CF900895F1
:1025D000AF92BF92CF92DF92EF92FF920F931F9331
:1025E000CF93DF93EC016901C801820F931F813003
:1025F000924008F070C08E81882371F088819981A3
:10260000AA81BB81481759076A077B0729F48F8184
:102610009885C816D906B0F5488359836A837B83A9
:102620008B85833039F089E0440F551F661F771F73
:102630008A95D1F79A01AB0161E1CE010E94861221
:10264000882319F083E08D8346C00E942D285B010A
:102650000E9435128A878F3F49F40E942D286A19FB
:102660007B096D327140A0F38FE003C08E3F31F0E3
:102670008DE08D83CE010E9423122DC018861F820B
:1026800081E08E838F8198858C159D0540F40E9492
:1026900035128F819885019698878F83F3CF6701D4
:1026A000E00EF11ECE14DF0431F00E943512F60167
:1026B00081936F01F7CF8F819885080F191F1887B5
:1026C0000F838985882319F00115124048F0CE0147
:1026D0000E94531205C0CE010E94231280E001C067
:1026E00081E0DF91CF911F910F91FF90EF90DF90EC
:1026F000CF90BF90AF900895EF92FF920F931F93EA
:10270000CF93DF93EC017901411551056105710506
:1027100011F482E13CC08B85833039F089E0440FAD
:10272000551F661F771F8A95D1F79A01AB0168E1A3
:10273000CE010E948612882311F084E028C08EEF1B
:102740000E942E1287018EEFF81AF80181918F01F5
:102750000E942E120E151F05C1F78FEF0E942E1238
:102760008FEF0E942E120E9435128A878F7185305A
:1027700031F081E18D83CE010E94231209C068E50A
:1027800072E0CE010E943812811107C085E18D836D
:10279000CE010E94231280E013C020E030E0A901A6
:1027A0006DE0CE010E948612811104C00E94351294
:1027B000882311F084E1EBCFCE010E94231281E047
:1027C000DF91CF911F910F91FF90EF9008951F928D
:1027D0000F920FB60F9211240BB60F922F933F93C7
:1027E0004F935F936F937F938F939F93AF93BF9319
:1027F000EF93FF938091B900887F803609F49CC0E5
:1028000068F5883209F45BC090F4803109F454C053
:1028100038F4882309F4F6C0883009F44DC0F6C0B6
:10282000883109F44CC0803209F45DC0EFC08034B7
:1028300009F468C048F4803309F455C0883309F0BE
:10284000E5C08093CB0CD8C0803509F44FC08835E3
:1028500009F45DC0883409F0D9C0D6C0883909F4BC
:10286000C7C0A8F4883709F467C038F4883609F47B
:1028700063C0803709F460C0C9C0883809F4B8C0A3
:10288000803909F45FC0803809F0C0C05BC0803B6C
:1028900009F486C038F4803A09F466C0883A09F42D
:1028A0007FC0B4C0803C09F4A7C0883C09F4A4C030
:1028B000883B09F48AC0AAC08091A80C10C09091EE
:1028C000CA0C8091C90C981770F5E091CA0C81E090
:1028D0008E0F8093CA0CF0E0E755F34F8081809310
:1028E000BB0085EC86C08093CB0C8EC0E091CA0CF7
:1028F00081E08E0F8093CA0C8091BB00F0E0E75519
:10290000F34F80839091CA0C8091C90C6EC0E09106
:10291000CA0C81E08E0F8093CA0C8091BB00F0E05E
:10292000E755F34F80838091CC0C81116DC081E01D
:102930008093A70C84EA61C083E08093CD0C109251
:102940007B0ACFCF80917B0A803208F051C0E091A2
:102950007B0A81E08E0F80937B0A8091BB00F0E0C0
:10296000E55AF54F8083BDCF85EC8093BC00109273
:10297000CD0C80917B0A803230F4E0917B0AF0E04C
:10298000E55AF54F108260917B0A70E0E091590A98
:10299000F0915A0A8BE59AE0199510927B0A36C09D
:1029A00084E08093CD0C1092580A1092570AE0915F
:1029B000550AF091560A19958091570A811105C060
:1029C00081E08093570A1092350AE091580A81E01D
:1029D0008E0F8093580AF0E0EB5CF54F8081809376
:1029E000BB009091580A8091570A981708F479CF44
:1029F00085E88093BC000AC085EC8093BC001092EF
:102A0000CD0C04C01092CB0C0E948C10FF91EF9162
:102A1000BF91AF919F918F917F916F915F914F91F6
:102A20003F912F910F900BBE0F900FBE0F901F90F4
:102A300018954091570A262F30E0240F311D21327E
:102A40003105DCF42091CD0C2430C9F4FC0180E088
:102A500090E0861758F43091570A2191DC01AB5C65
:102A6000B54FA30FB11D2C930196F3CF8091570A58
:102A7000680F6093570A80E0089581E0089582E02E
:102A800008951F920F920FB60F9211240BB60F925A
:102A90002F933F934F935F936F937F938F939F9366
:102AA000AF93BF93EF93FF9348E251E064E271E08C
:102AB00080E090E00E94CD10FF91EF91BF91AF9127
:102AC0009F918F917F916F915F914F913F912F9146
:102AD0000F900BBE0F900FBE0F901F9018951F9276
:102AE0000F920FB60F9211240BB60F922F933F93B4
:102AF0004F935F936F937F938F939F93AF93BF9306
:102B0000EF93FF9348EA50E064EA70E083E090E0DE
:102B10000E94CD10FF91EF91BF91AF919F918F9146
:102B20007F916F915F914F913F912F910F900BBECD
:102B30000F900FBE0F901F9018951F920F920FB617
:102B40000F9211240BB60F922F933F934F935F93E5
:102B50006F937F938F939F93AF93BF93EF93FF9365
:102B600048E950E064E970E082E090E00E94CD1016
:102B7000FF91EF91BF91AF919F918F917F916F9155
:102B80005F914F913F912F910F900BBE0F900FBE11
:102B90000F901F9018951F920F920FB60F9211244D
:102BA0000BB60F922F933F934F935F936F937F9347
:102BB0008F939F93AF93BF93EF93FF9348E850E0B9
:102BC00064E870E081E090E00E94CD10FF91EF9109
:102BD000BF91AF919F918F917F916F915F914F9135
:102BE0003F912F910F900BBE0F900FBE0F901F9033
:102BF0001895CF93DF93FC01838190E7980F933072
:102C000038F4EF012496A0E0B2E088E08A0F05C016
:102C10009CE6980F923030F4F4CF99919D938A13EB
:102C2000FCCF0CC0873961F4EF012596A0E0B2E03B
:102C300088E08A0F99919D938A13FCCF838105C008
:102C4000883819F08A3809F080E0DF91CF91089533
:102C5000CF93DF93EC018B81803949F4CE010E9440
:102C6000F915811102C080E00AC08F8508C0813942
:102C7000D1F7CE010E94F9158823A9F38D89DF9140
:102C8000CF9108958F929F92BF92CF92DF92EF9251
:102C9000FF920F931F93CF93DF937C0181E00E94FB
:102CA0009411F70180838E3711F080E048C082E3F1
:102CB0000E949411F701818382E30E949411F7012D
:102CC0008283C181C11103C0182F8D3308F01CE32A
:102CD000C12ED12CD0E0DC2FCC27C80FD11DCC19B0
:102CE000DD090FEFB12C8B2C912CF3E08F0E911C92
:102CF0008E0C9F1C82E30E949411F4018083B11218
:102D0000081BB3941B1578F74601F3E08F0E911C56
:102D10008E0C9F1C209759F082E30E949411F401BD
:102D20008083C130D10509F0081B2197F3CFF7014B
:102D3000EC0DFD1D83810813B8CF83E0810FDF9177
:102D4000CF911F910F91FF90EF90DF90CF90BF90A8
:102D50009F908F900895FF920F931F93CF93DF93CF
:102D6000CDB7DEB7C054D1090FB6F894DEBF0FBEA1
:102D7000CDBFFC018091F20C8F3F11F481E001C0C6
:102D80008F5F8093F20C808184353CF48235ECF4C3
:102D9000813439F0863429F05DC0843509F441C0AE
:102DA00059C09181943509F055C098E09C838134D5
:102DB00021F48091F20C8D8301C01D8282818E836B
:102DC00083818F8357E014E047C09181913409F0EB
:102DD00041C092819435F1F597E19C83823551F49D
:102DE0008091F20C8D83CE0106960DE012E028E072
:102DF000200F02C01D82F7CFD8013D918D01DC016B
:102E00003D93CD012013F8CF8FEF8E878EEF8F8704
:102E100082E0888B8381898B84818A8B52E11FE0D9
:102E20001BC081818835B1F480E18C831D82DE0175
:102E30001696EDE0F2E088E08E0F91919D938E134F
:102E4000FCCF8FEF8E878EEF8F87188A198A51E11A
:102E50001EE002C080E03DC08EE789831A82FE0139
:102E600034968FEF93E09F01A1918A1B9F5F95138A
:102E7000FBCF442389F0562FA1E0B0E0AC0FBD1F7B
:102E8000A90FB11DFB019E2F951B941720F4919162
:102E90009D93891BF8CF140F1B83F901E10FF11DDE
:102EA000808384E0F82EF10E00E00F1580F4E1E05D
:102EB000F0E0EC0FFD1FE00FF11D608183EF9CE05F
:102EC0000E940D19811101C00F2D0F5FEECF83E01D
:102ED000810FC05CDF4F0FB6F894DEBF0FBECDBFD1
:102EE000DF91CF911F910F91FF9008952F923F9204
:102EF0004F925F926F927F928F929F92AF92BF920A
:102F0000CF92DF92EF92FF920F931F93CF93DF93B5
:102F10001F921F92CDB7DEB7FC018B0180818134F7
:102F200069F48181843509F582818735C9F483810B
:102F30008235B1F434E6232E312C14C08235A9F445
:102F40008181813491F48281843579F4838187355C
:102F500061F48481823549F424E6222E312C07C0A5
:102F6000212C312C20E030E004C0212C312C21E038
:102F70003AE0B801CF012A8339830E94AB162A8137
:102F80003981882309F460C08AE0682E9CE0792E9C
:102F9000432E512C62018AE0C80ED11CE12CF12C89
:102FA0004101A12CB12C400E511EE7E04E0E511CE8
:102FB000C701B6012A830E94F3272A812114310414
:102FC00029F0C501B4010E94F3272A81C8012A8390
:102FD0000E9442162A81882369F1F801838188388A
:102FE00019F4222329F00DC0873959F4213049F40E
:102FF000F80194818091F20C981303C0F201708063
:1030000019C03091CA083230A8F4D801F0E43F9FCB
:10301000A001112480E090E06D91FC01E40FF51F08
:10302000E65BF74F6083019680349105A9F73F5F17
:103030003093CA086A94662019F07110B9CF0CC099
:10304000172D772049F001C01BE068EE73E080E0A7
:1030500090E00E94F327712E81E0711080E00F90C4
:103060000F90DF91CF911F910F91FF90EF90DF9024
:10307000CF90BF90AF909F908F907F906F905F9018
:103080004F903F902F900895FC01DB0112968D9197
:103090009C9113979383828383EC92E09183808346
:1030A00014968C911497848315968C91159785832B
:1030B00016964D915D916D917C911997468357833A
:1030C000608771871A964D915D916D917C911D97E6
:1030D00042875387648775871E964D915D916D91E8
:1030E0007C91519746875787608B718B52968C9154
:1030F0005297828B53964D915D916D917C9156972D
:10310000438B548B658B768B57964D915D916D916A
:103110007C915A97478B508F618F728F5B968D9100
:103120009C915C97948F838F0895CF93DF93EC01EC
:10313000898D9A8D009741F00E945922898D9A8D30
:103140000E94D3441A8E198EDF91CF910895FC010D
:10315000818D928D009729F00E94631D91E081116D
:1031600001C090E0892F0895FC01918D828D981700
:1031700061F0828DDF01A80FB11D5D968C91928D5B
:103180009F5F9F73928F90E008958FEF9FEF089558
:10319000FC01918D828D981731F0828DE80FF11D21
:1031A000858D90E008958FEF9FEF0895FC01918D3C
:1031B000228D892F90E0805C9F4F821B91098F7335
:1031C0009927089583EF9CE00E94D61821E0892B6F
:1031D00009F420E0822F0895FC01848DDF01A80FFF
:1031E000B11DA35ABF4F2C91848D90E001968F732F
:1031F0009927848FA689B7892C93A089B1898C914E
:1032000080648C93938D848D981306C00288F38913
:10321000E02D80818F7D80830895EF92FF920F9340
:103220001F93CF93DF93EC0181E0888F9B8D8C8D72
:10323000981305C0E889F989808185FD24C0F62EA0
:103240000B8D10E00F5F1F4F0F731127E02E8C8D39
:10325000E8120CC00FB607FCFACFE889F989808123
:1032600085FFF5CFCE010E94EC18F1CF8B8DFE01CA
:10327000E80FF11DE35AFF4FF0820B8FEA89FB89BB
:103280008081806207C0EE89FF896083E889F989BF
:1032900080818064808381E090E0DF91CF911F91F5
:1032A0000F91FF90EF900895CF93DF93EC01888DFD
:1032B0008823C9F0EA89FB89808185FD05C0A8893A
:1032C000B9898C9186FD0FC00FB607FCF5CF8081C0
:1032D00085FFF2CFA889B9898C9185FFEDCFCE010A
:1032E0000E94EC18E7CFDF91CF91089580E090E045
:1032F000892B21F00E94E218811125C080E090E026
:10330000892B41F080E090E0892B21F00E940000A1
:1033100081111CC080E090E0892B41F080E090E0BA
:10332000892B21F00E940000811113C080E090E001
:10333000892BA1F080E090E0892B81F00E940000B1
:1033400081110AC008950E940000D8CF0E94000099
:10335000E1CF0E940000EACF0C94000008950E9483
:103360006B4580917E0A8823A9F140910902509112
:103370000A0260910B0270910C0223E83AE08091FE
:10338000830C9091840C0E947C13811102C080E018
:10339000089540917F0A5091800A6091810A70914E
:1033A000820A411551056105710591F023E83AE063
:1033B0008091830C9091840C0E947C13882339F3B4
:1033C00010927F0A1092800A1092810A1092820A4B
:1033D00010927E0A81E008951F920F920FB60F920D
:1033E00011240BB60F922F933F934F935F936F93DC
:1033F0007F938F939F93AF93BF93EF93FF9383EF4D
:103400009CE00E94EC18FF91EF91BF91AF919F91CA
:103410008F917F916F915F914F913F912F910F907D
:103420000BBE0F900FBE0F901F9018951F920F921A
:103430000FB60F9211240BB60F922F938F939F9379
:10344000EF93FF93E091030DF091040D8081E091E3
:10345000090DF0910A0D82FD12C0908180910C0D32
:103460008F5F8F7320910D0D821751F0E0910C0D3D
:10347000F0E0ED50F34F958F80930C0D01C08081EB
:10348000FF91EF919F918F912F910F900BBE0F9015
:103490000FBE0F901F9018958F929F92AF92BF9280
:1034A000EF92FF920F931F93CF934B015C01C42FB8
:1034B0008091090290910A02A0910B02B0910C0236
:1034C00088159905AA05BB0501F10E94B119811162
:1034D00002C080E020C083E8E82E8AE0F82E00E0F9
:1034E00012E020E030E0B501A4018091830C9091BE
:1034F000840C0E94E812882361F380920902909262
:103500000A02A0920B02B0920C0280917E0AC82B94
:10351000C0937E0A81E0CF911F910F91FF90EF90B1
:10352000BF90AF909F908F9008954F925F926F924F
:103530007F928F929F92AF92BF92CF92DF92EF9243
:10354000FF920F931F93CF93DF93EC016A017B01EE
:1035500028013901423051056105710510F480E000
:1035600073C089859A85AB85BC850196A11DB11D67
:1035700084179507A607B70790F38B889C88AD88BA
:10358000BE888F89803129F4BB27AF2D9E2D8D2DCC
:1035900009C0DB01CA0147E0B695A79597958795C5
:1035A0004A95D1F7880E991EAA1EBB1E809109026A
:1035B00090910A02A0910B02B0910C028816990614
:1035C000AA06BB0679F48F898031A1F4DD24EE24AC
:1035D000FF24C601880F991FFC01ED57F54F51825A
:1035E000408219C040E0C501B4010E944C1A81110B
:1035F000EACFB5CFE894C7F8DD24EE24FF24C60156
:10360000880F991F880F991FFC01ED57F54F4082D5
:1036100051826282738280917E0A816080937E0AE9
:103620008A89823080F08D819E81AF81B885880E35
:10363000991EAA1EBB1E80927F0A9092800AA092B9
:10364000810AB092820A81E0DF91CF911F910F91A0
:10365000FF90EF90DF90CF90BF90AF909F908F90B2
:103660007F906F905F904F9008958F929F92AF924E
:10367000BF92CF92DF92EF92FF920F931F93CF935F
:10368000DF93FC0181859285A385B4850196A11DF8
:10369000B11D84179507A607B70710F480E05CC03A
:1036A00083899489A589B689C789C03129F4852E73
:1036B000962EA72EBB2409C04A015B01C7E0B69431
:1036C000A79497948794CA95D1F7E9016A017B0181
:1036D0008F01BC01CD01680D791D8A1D9B1D809055
:1036E000090290900A02A0900B02B0900C0268159B
:1036F00079058A059B0599F4F80187898031A9F439
:10370000B701A601552766277727440F551FFA01F1
:10371000ED57F54F80819181A0E0B0E018C040E006
:103720000E944C1A8111E8CFB9CFB701A6014F779B
:10373000552766277727440F551F440F551FFA0159
:10374000ED57F54F80819181A281B381BF7088834D
:103750009983AA83BB8381E0DF91CF911F910F9161
:10376000FF90EF90DF90CF90BF90AF909F908F90A1
:1037700008954F925F926F927F92AF92BF92CF92D5
:10378000DF92EF92FF920F931F93CF93DF9300D0BE
:103790001F92CDB7DEB78C0149835A836B837C833C
:1037A0005901C12CD12C7601412C82E0582E612C7C
:1037B000712C49815A816B817C819E012F5F3F4F23
:1037C000C8010E94351B882351F1D301C201F801C1
:1037D000058404C0880F991FAA1FBB1F0A94D2F743
:1037E000C80ED91EEA1EFB1E49815A816B817C815D
:1037F0008789803129F088EF9FEFAFEFBFE004C0E9
:1038000088EF9FEFA0E0B0E0481759076A077B07F1
:1038100080F2F501C082D182E282F38281E00F90D2
:103820000F900F900F90DF91CF911F910F91FF900C
:10383000EF90DF90CF90BF90AF907F906F905F90B0
:103840004F9008953F924F925F926F927F928F9226
:103850009F92AF92BF92CF92DF92EF92FF920F931F
:103860001F93CF93DF93CDB7DEB72C970FB6F894A5
:10387000DEBF0FBECDBF5C01DC015B968D909C90DE
:103880005C971696CD90DD90ED90FC901997C11441
:10389000D104E104F10439F0BFEFCB1ADB0AEB0AE3
:1038A000FB0A312C07C0F401C080D180E280F38094
:1038B00033243394F40181859285A385B4859C01DA
:1038C000AD012F5F3F4F4F4F5F4F29873A874B879F
:1038D0005C87260137011D821E821F821886F40133
:1038E00081859285A385B4852D813E814F81588540
:1038F000281739074A075B0708F063C089859A854E
:10390000AB85BC858C159D05AE05BF0550F482E0E6
:10391000C82ED12CE12CF12C92E0492E512C612C97
:10392000712C9E012F5F3F4FB701A601C4010E9479
:10393000351B882309F445C089819A81AB81BC81FC
:10394000892B8A2B8B2B41F0260137019FEF491AD7
:10395000590A690A790A05C0C414D504E604F704B3
:1039600091F02D813E814F8158852F5F3F4F4F4F02
:103970005F4F2D833E834F8358873FEFC31AD30A8F
:10398000E30AF30AACCF0FEF1FEF2FEF3FE0B301D5
:10399000A201C4010E94951A882399F0D5011696B8
:1039A0004D915D916D917C9119974115510561057E
:1039B000710549F093018201C4010E94951A811199
:1039C00002C080E02AC0D50116964D925D926D929C
:1039D0007C921997332051F0D301C2010196A11DA9
:1039E000B11DF40180839183A283B383F50187899C
:1039F000908DA18DB28D892B8A2B8B2B69F4D501EB
:103A000057964D925D926D927C925A9714968C9136
:103A10001497806814968C9381E02C960FB6F894D6
:103A2000DEBF0FBECDBFDF91CF911F910F91FF90F1
:103A3000EF90DF90CF90BF90AF909F908F907F904E
:103A40006F905F904F903F900895CF93DF93EC017C
:103A50008D818823A1F18C8187FF2DC06E857F85A4
:103A60008889998941E00E944C1A882341F1EA89AA
:103A700080E2E89FF0011124DF01AD57B54F1097A8
:103A8000F1F08D81823050F44B895C896D897E899B
:103A90005C964D935D936D937C935F978F89988D22
:103AA000A98DBA8DED57F54F938F828FB58BA48B6F
:103AB0008C818F778C83DF91CF910C94B11980E04A
:103AC000DF91CF9108958F929F92AF92BF92CF9244
:103AD000DF92EF92FF920F931F93CF93DF93EC014E
:103AE0008D81811102C080E077C00B891C892D89EE
:103AF0003E890417150726073707A8F36A017B01DB
:103B0000823029F4CA86DB86EC86FD860DC0C1149E
:103B1000D104E104F10451F41E821F821886198633
:103B20001A861B861C861D8681E056C08A849B846B
:103B3000AC84BD84EB8DFC8D258530E0275F3F4F45
:103B4000B501A4014150510961097109022E04C057
:103B500076956795579547950A94D2F7D701C60190
:103B60000197A109B10904C0B695A79597958795C6
:103B70002A95D2F784179507A607B70720F089285A
:103B80008A288B2849F44F89588D698D7A8D4E8308
:103B90005F836887798704C0841B950BA60BB70BDE
:103BA0004C015D018E010A5F1F4F81149104A10435
:103BB000B10409F4A7CF4E815F81688579859801AA
:103BC0008B8D9C8D0E94351B91E0891A9108A1086C
:103BD000B1088111EACF87CFDF91CF911F910F916B
:103BE000FF90EF90DF90CF90BF90AF909F908F901D
:103BF00008952F923F924F925F926F927F928F9291
:103C00009F92AF92BF92CF92DF92EF92FF920F936B
:103C10001F93CF93DF9300D01F92CDB7DEB78C01F7
:103C20005B011A01DC0115968C9115978130C9F45E
:103C300014968C9181FF15C082FF1BC0F801438947
:103C400054896589768982859385A485B58584178D
:103C50009507A607B70769F0C8010E94631D811187
:103C600008C081E090E0F8019383828380E090E0D7
:103C700039C1610183C0D8015B968D919C915C979D
:103C8000FC01248121502A013B0139E0769467949C
:103C9000579447943A95D1F7722E74207A01F1E047
:103CA000FF22772009F476C080E092E08E199F0908
:103CB00046018C159D0508F44C01D8015B962D91A9
:103CC0003C915C9716968D919D910D90BC91A02D85
:103CD0000297A109B109F901058404C0880F991F51
:103CE000AA1FBB1F0A94D2F7468557856089718940
:103CF000840F951FA61FB71F9C01AD01270D311D15
:103D0000411D511D29013A01811432E0930609F049
:103D100088C08091090290910A02A0910B02B09193
:103D20000C0284159505A605B70559F48FEF9FEF92
:103D3000DC018093090290930A02A0930B02B093D6
:103D40000C029501B301A2018091830C9091840C27
:103D50000E947C13882309F484CF9EEFB91AC818F7
:103D6000D908F80182859385A485B585880D991DAC
:103D7000A11DB11D82879387A487B587D8011A96A4
:103D80004D915D916D917C911D97C114D10409F005
:103D900072CF87C0E114F10409F086CF16964D91D9
:103DA0005D916D917C9119974115510561057105E2
:103DB00059F457968D919D910D90BC91A02D00972F
:103DC000A105B10541F521C09E012F5F3F4F0E9423
:103DD000351B882309F44BCF89819A81AB81BC8143
:103DE000F801238D348DF9012789203129F048EF1E
:103DF0005FEF6FEF7FE004C048EF5FEF60E070E0DF
:103E000084179507A607B70730F0C8010E94221C47
:103E100081114ACF26CFF80186839783A087B18787
:103E200043CFE114F10429F5D8011A964D915D9123
:103E30006D917C911D9753968D919D910D90BC91A4
:103E4000A02D481759076A077B0798F00E94B119FF
:103E5000882309F406CF4092090250920A02609228
:103E60000B0270920C0280917E0A816080937E0A20
:103E700008C041E0C301B2010E944C1A882309F432
:103E8000F0CED501F701ED57F54FCF01880D991D03
:103E9000E817F90719F02D912193FACFA80CB91C56
:103EA0005ECF53968D919D910D90BC91A02D84175E
:103EB0009507A607B70740F4F801438B548B658B31
:103EC000768B848180688483D80114968C9183FDDD
:103ED00002C0C10107C0C8010E94251D882309F442
:103EE000C0CEF7CF0F900F900F900F90DF91CF9132
:103EF0001F910F91FF90EF90DF90CF90BF90AF9008
:103F00009F908F907F906F905F904F903F902F90F9
:103F10000895CF93DF931F92CDB7DEB7698341E059
:103F200050E0BE016F5F7F4F0E94F91D0F90DF913F
:103F3000CF9108958F929F92AF92BF92CF92DF92CE
:103F4000EF92FF920F931F93CF93DF9300D01F92B6
:103F5000CDB7DEB77C0180E2689F60011124960135
:103F60002D57354FD9011B969C91917121F0842FCB
:103F7000827409F097C0142FF701628B80910902B7
:103F800090910A02A0910B02B0910C02868797874C
:103F9000A08BB18BF601ED57F54F4489558960E050
:103FA00070E0BA0155274427D70157964D935D938A
:103FB0006D937C935A97828D938DA0E0B0E0482B4F
:103FC000592B6A2B7B2BD70157964D935D936D939D
:103FD0007C935A97D9011B968C91887159F4848DE2
:103FE000958DA68DB78DF701838B948BA58BB68BA2
:103FF00081E012C0803109F055C097012D5E3F4F1E
:10400000D7015B968D919C915C970E94B91B882388
:1040100009F448C084E0F7018583812F8F70D701B0
:1040200014968C931497F7011682178210861186C6
:104030001A961D921D921D921C921D9716FF34C058
:1040400015968C91813071F511FF2CC0F7014389D1
:10405000548965897689452B462B472B09F461C025
:1040600040E050E0BA01C7010E94631D8823D1F0EF
:10407000F7018788908CA18CB28CC38CD48C82E0A1
:1040800090E0A0E0B0E0F60180839183A283B38347
:104090009E012F5F3F4FB501A401C6010E94351B51
:1040A000811104C080E03DC081E03BC000E010E031
:1040B0009801B501A401C6010E94951A882391F3C5
:1040C00089809A80AB80BC80D60157968C918031D4
:1040D00029F088EF9FEFAFEFBFE004C088EF9FEFBC
:1040E000A0E0B0E088169906AA06BB0688F2D701C0
:1040F00057961D921D921D921C925A97F701138A92
:10410000148A158A168A848180688483C7010E9474
:10411000251D882339F240E050E0BA01C7010E9412
:10412000631D0F900F900F900F90DF91CF911F9113
:104130000F91FF90EF90DF90CF90BF90AF909F9046
:104140008F9008954F925F926F927F92AF92BF923D
:10415000CF92DF92EF92FF920F931F93CF93DF9353
:10416000CDB7DEB72B970FB6F894DEBF0FBECDBF2D
:104170007C01CE0101966C01FC0190E28BE08C0D7C
:1041800091938E13FDCFDA0130E047E09D919923A2
:1041900039F19E3219F0EFE9F4E00AC04A3009F42F
:1041A00072C138E04AE0F2CF3196891709F46BC149
:1041B00084918111F9CF431708F465C18FED890F00
:1041C0008E3508F060C181E0830FF601E30FF11D29
:1041D0003FE9390F3A3108F490529083382FD6CF07
:1041E0008981803209F44FC1B22E8B01DB015B96CD
:1041F0008D919C915C97F701948F838F16961D92F9
:104200001D921D921C921997FB011286138614862B
:104210001586712CF80182859385A485B58543891F
:1042200054896589768984179507A607B70708F02A
:1042300061C025E0B695A795979587952A95D1F702
:10424000F82FFF706F2ED80115968C91823008F4EC
:104250001AC1C8010E94830497FD15C1F801828527
:104260009385A485B5854F96A11DB11D828793873F
:10427000A487B587F0E26F9EC0011124BC016D5781
:10428000754F6115710509F4FEC0DB012C912223E5
:1042900019F0253EC1F427C071100EC0F701628AE3
:1042A0004091090250910A0260910B0270910C0238
:1042B00046875787608B718BFC01ED57F54F8081E6
:1042C000811113C015C04BE050E0C6010E9470453B
:1042D000892B09F09FCF8B2D8073803309F4D3C0D5
:1042E0004B2D662DCCC07720C9F27724739492CFE2
:1042F000772473948B2D8271823109F0C4C07720AA
:10430000D1F0D7011E966D917D918D919C91519721
:1043100041E00E944C1A882309F4B5C0F701628974
:10432000F0E26F9FB00111246D57754F6115710553
:1043300009F079C0A8C0D80115968C91823009F493
:10434000A2C0C8010E94221C882309F49CC0D80185
:104350005B96ED91FC915C9716964D905D906D90FB
:104360007C901997B2E04B1A5108610871080584D6
:1043700004C0440C551C661C771C0A94D2F7868531
:104380009785A089B189480E591E6A1E7B1EA4809C
:10439000E1E04E1A510861087108AA2009F10E9453
:1043A000B119882309F46FC0E3E8FAE011922CE018
:1043B000E338F207D9F7D301C2018A0D911DA11D7F
:1043C000B11D8093090290930A02A0930B02B0934F
:1043D0000C0280917E0A816080937E0AAA94DDCFD0
:1043E000D8015B96ED91FC915C9780E092E0A0E0B3
:1043F000B0E0058404C0880F991FAA1FBB1F0A9450
:10440000D2F7F8014389548965897689840F951F0D
:10441000A61FB71F838B948BA58BB68BD7015296A3
:104420001C9263E87AE080E2FB0111928A95E9F739
:104430008BE0F601DB0101900D928A95E1F781E2B4
:1044400098E2DB0151969C938E93509720E038E0E0
:104450001F963C932E931E9753969C938E93529740
:1044600059969C938E93589757963C932E935697B4
:104470000E94B119882339F04B2DF7016289C701D9
:104480000E949A1F01C080E02B960FB6F894DEBF01
:104490000FBECDBFDF91CF911F910F91FF90EF9095
:1044A000DF90CF90BF90AF907F906F905F904F90D4
:1044B0000895CF93DF93EC010E94251D882311F00E
:1044C0001D8281E0DF91CF9108951F93CF93DF93F9
:1044D000CDB7DEB7AF970FB6F894DEBF0FBECDBF36
:1044E000ADE0B2E0E5E1F2E028E02E0F31913D933E
:1044F0002E13FCCFFC01DE01119610E0BD0181916D
:10450000882321F08D931F5F1E32C9F7FB01E10F55
:10451000F11D1082412F85E398E00E94AB1688239D
:1045200029F0112319F08091F20C01C080E0AF96C0
:104530000FB6F894DEBF0FBECDBFDF91CF911F91B4
:104540000895382F2091F10C9091F00C213208F051
:1045500049C08091CD0C8111FCCF42E04093CD0C3D
:104560003093CC0C3FEF3093CB0C1092CA0C2093BD
:10457000C90CA0EDBCE049EA5CE0FA013E2F341B17
:10458000321718F43D913193F9CF1092A80C209175
:10459000A80C990F922B9093A80C9091A70C913096
:1045A00061F41092A70C9091A80C9093BB0090918D
:1045B000BC0093FDF8CF95EC01C095EE9093BC0044
:1045C0009091CD0C9230E1F39091CB0C9F3F79F01C
:1045D0008091CB0C803241F08091CB0C803331F054
:1045E00084E005C081E003C082E001C083E0109256
:1045F000CF0C1092F10C1092CE0C0895EF92FF9216
:104600000F931F93CF93DF931F92CDB7DEB7162F73
:10461000F42E01E00093CE0C4093F00C1092CF0CDE
:104620001092F10C682F8BED9DE079830E941F049E
:1046300081E00E94A1220093CE0C1092CF0C109228
:10464000F10C79818091CD0C8111FCCF81E08093B8
:10465000CD0C8093CC0C9FEF9093CB0C1092CA0C96
:1046600095E09093C90C8093A80C4091A80CFF0C86
:104670004F294093A80C8091A70C813061F41092CF
:10468000A70C8091A80C8093BB008091BC0083FD97
:10469000F8CF85EC01C085EE8093BC008091CD0CF5
:1046A0008130E1F38091CA0C863018F48091CA0CF5
:1046B00001C086E0A9EABCE027E83CE0F9019E2FB2
:1046C000921B981718F49D919193F9CF1092860C34
:1046D0008093850CE12EF72E9091850C8091860CAD
:1046E000981741F08BED9DE00E94D303F701819371
:1046F0007F01F2CF81E00E94A12221E030E08823F7
:1047000011F020E030E0C9010F90DF91CF911F91AF
:104710000F91FF90EF900895CF93DF93CDB7DEB761
:1047200028970FB6F894DEBF0FBECDBF4B835C83D6
:104730008F83988760E070E084E00E942A276B8175
:104740007C8185E00E942A2760E070E087E00E947B
:104750002A276F81788586E028960FB6F894DEBF09
:104760000FBECDBFDF91CF910C942A27E3EFFCE081
:10477000A089B18982E08C93A485B5851C92A68519
:10478000B7858FEC8C93108EA489B58986E08C93C5
:10479000A289B3898C9180618C93A289B3898C9111
:1047A00088608C93A289B3898C9180688C930288ED
:1047B000F389E02D80818F7D808308952F923F9231
:1047C0004F925F926F927F928F929F92AF92BF9221
:1047D000CF92DF92EF92FF920F931F93CF93DF93CD
:1047E000CDB7DEB7C656D1090FB6F894DEBF0FBEFF
:1047F000CDBF5C014B013E018EE1680E711C6CEB7C
:104800007DE0C3010E9444181C821B8283EC92E06D
:104810009A8389831E8264018E010F5F1F4F2301DB
:1048200018016FE270E0C6010E947D45009709F40F
:1048300042C0F60120812F3221F4FFEFCF1ADF0AA8
:10484000F0CF8C198D3008F08CE0E82EF12CA70108
:10485000B601CE01885A9F4F0E949645E8E5F0E0E8
:10486000EC0FFD1FEE0DFF1D1082C8010E945922A2
:10487000F8018581882351F01EAE1DAE83EC92E0D5
:104880009CAF8BAF21961FAE219721C021E0AE01D6
:10489000485A5F4FB201C8010E94A220882361F3E9
:1048A000CE0CDF1CC2010E945922942D852D2801B7
:1048B000092F182FB6CFC60188199909A7969FAF5F
:1048C0008EAFA797B201CE01CB960E944418A7964F
:1048D000EEADFFADA7978E0E9F1EF4018081811172
:1048E00009C0BE01655C7F4FC1010E94441848E3C6
:1048F00058E044C019A218A283EC92E09F8F8E8FDB
:104900001BA221968FAD2197811113C0F50113824F
:10491000128288EE93E0A0E0B0E084839583A683C2
:10492000B78383EA92E091838083128E118E14867E
:1049300029C0825023E1A401823040F46CEB7DE079
:10494000C3010E94A22081110DC0E0CFBE01655CB1
:104950007F4FC3010E94A2208823C1F2CE01CB96D3
:104960000E94592249A95AA96BA97CA9C3010E9496
:10497000631DB301C1010E944418A401B101C50126
:104980000E944E04C501CA59DF4F0FB6F894DEBF2E
:104990000FBECDBFDF91CF911F910F91FF90EF9090
:1049A000DF90CF90BF90AF909F908F907F906F904F
:1049B0005F904F903F902F9008950F931F93CF9348
:1049C000DF93EC012AE00E943E298C0168E976E041
:1049D000CE010E942929800F911FDF91CF911F9155
:1049E0000F9108958F929F92AF92BF92CF92DF92D4
:1049F000EF92FF92CF93DF93C82F82E99DE09093CF
:104A0000840C8093830CCC2369F1C53010F080E0D6
:104A10000DC140E060E070E0CB010E944C1A882399
:104A2000B1F320E1C29FC00111248D58954FFC01C4
:104A3000E254FE4F20812F7751F73C9640815181FF
:104A400062817381443651056105710500F3349725
:104A5000C080D180E280F380C114D104E104F1046C
:104A600021F4D5CFC12CD12C760140E0C701B6018D
:104A70000E944C1A882359F280918E0A90918F0AD5
:104A80008115924021F6A091930AAA2309F4BFCF81
:104A90006091910A7091920A6115710509F4B7CF7E
:104AA0002091900A222309F4B2CFA093B00D209355
:104AB000A20D80E030E0E1E0F0E0C82FAF01082E69
:104AC00002C0440F551F0A94E2F72417350741F03E
:104AD000982F8F5F983089F789E08093AB0D97CF3F
:104AE0008093AB0D2091990A30919A0A21153105D6
:104AF00019F040E050E008C02091A70A3091A80AC0
:104B00004091A90A5091AA0A2093A30D3093A40DB5
:104B10004093A50D5093A60D46015701860E971E92
:104B2000A11CB11C8092B10D9092B20DA092B30D58
:104B3000B092B40DE091940AF091950AF093B70DFC
:104B4000E093B60DB0E00E94C63F860E971EA81EE9
:104B5000B91E8092B80D9092B90DA092BA0DB09284
:104B6000BB0D85E0EE0FFF1F8A95E1F7E150FE4F88
:104B7000EF2FFF27E6958E0E9F1EA11CB11C809281
:104B8000AC0D9092AD0DA092AE0DB092AF0D2091F4
:104B9000960A3091970A2115310521F0A90160E0AC
:104BA00070E008C04091A30A5091A40A6091A50A40
:104BB0007091A60AD701C60188199909AA09BB09EB
:104BC000840F951FA61FB71F04C0B695A79597958C
:104BD0008795CA95D2F78093A70D9093A80DA093BF
:104BE000A90DB093AA0D853F2FE09207A105B1054D
:104BF00010F48CE018C0853F9F4FA105B10510F45B
:104C000080E111C08091AF0A9091B00AA091B10AE1
:104C1000B091B20A8093B80D9093B90DA093BA0DDC
:104C2000B093BB0D80E28093B50D81E0DF91CF9111
:104C3000FF90EF90DF90CF90BF90AF909F908F90BC
:104C40000895362F90E0FC01E753FB4F4491FC019F
:104C5000E757FA4F2491FC01ED5BFA4F94919923A9
:104C600009F46BC0442309F455C050E0FA013197B0
:104C7000E231F10508F04EC08827E058FF4F8F4F12
:104C80000C942244809180008F7707C0809180002F
:104C90008F7D03C080918000877F809380003AC021
:104CA00084B58F7702C084B58F7D84BD33C0809179
:104CB000B0008F7703C08091B0008F7D8093B000EB
:104CC00029C0809190008F7707C0809190008F7DE0
:104CD00003C080919000877F809390001BC08091DB
:104CE000A0008F7707C08091A0008F7D03C08091C6
:104CF000A000877F8093A0000DC0809120018F7756
:104D000007C0809120018F7D03C080912001877FA3
:104D100080932001E92FF0E0EE0FFF1FE15FFA4FD3
:104D2000A591B4918FB7F894EC91311103C02095FF
:104D30002E2301C02E2B2C938FBF0895CF93DF938A
:104D400090E0FC01E757FA4F2491FC01ED5BFA4F2C
:104D50008491882361F190E0880F991FFC01E1554F
:104D6000FB4FC591D491FC01E15FFA4FA591B4913D
:104D7000611109C09FB7F8948881209582238883A8
:104D8000EC912E230BC0623061F49FB7F894388108
:104D9000822F809583238883EC912E2B2C939FBFA9
:104DA00006C08FB7F894E8812E2B28838FBFDF9140
:104DB000CF9108953FB7F8948091F60E9091F70E39
:104DC000A091F80EB091F90E26B5A89B05C02F3F13
:104DD00019F00196A11DB11D3FBFBA2FA92F982F21
:104DE0008827820F911DA11DB11DBC01CD0142E09C
:104DF000660F771F881F991F4A95D1F70895CF92A4
:104E0000DF92EF92FF920F931F93CF93DF936C018A
:104E10007A018B01C0E0D0E0CE15DF0589F0D80122
:104E20006D918D01D601ED91FC910190F081E02D05
:104E3000C6011995892B11F47E0102C02196ECCF91
:104E4000C701DF91CF911F910F91FF90EF90DF90FD
:104E5000CF9008951F93CF93DF93182FEB0161E05C
:104E60000E949E26209711F460E004C0CF3FD10538
:104E700039F461E0812FDF91CF911F910C942126AD
:104E8000E12FF0E0E753FB4FE4914E2F50E0FA01A1
:104E90003197E231F10508F09DC08827EE56FF4FAB
:104EA0008F4F0C94224484B5806884BDC7BD97C0E1
:104EB00084B5806284BDC8BD92C080918000806846
:104EC00080938000D0938900C093880088C080912F
:104ED0008000806280938000D0938B00C0938A0012
:104EE0007EC080918000886080938000D0938D0088
:104EF000C0938C0074C08091B00080688093B00033
:104F0000C093B3006CC08091B00080628093B00009
:104F1000C093B40064C0809190008068809390003A
:104F2000D0939900C09398005AC0809190008062FD
:104F300080939000D0939B00C0939A0050C08091C2
:104F40009000886080939000D0939D00C0939C0057
:104F500046C08091A00080688093A0008091A0004E
:104F60008F7B8093A000D093A900C093A80037C086
:104F70008091A00080628093A000D093AB00C0938A
:104F8000AA002DC08091A00088608093A000D093DB
:104F9000AD00C093AC0023C0809120018068809355
:104FA0002001D0932901C093280119C080912001CC
:104FB000806280932001D0932B01C0932A010FC0FF
:104FC00080912001886080932001D0932D01C093AF
:104FD0002C0105C0C038D1050CF04BCF45CFDF9177
:104FE000CF911F9108958F929F92AF92BF92CF92CF
:104FF000DF92EF92FF926B017C010E94DA264B0157
:105000005C01C114D104E104F104F1F00E94DA263C
:10501000DC01CB0188199909AA09BB09883E934094
:10502000A105B10570F321E0C21AD108E108F10829
:1050300088EE880E83E0981EA11CB11CC114D10417
:10504000E104F10419F7DDCFFF90EF90DF90CF90EE
:10505000BF90AF909F908F9008952FB7F894609174
:10506000F20E7091F30E8091F40E9091F50E2FBF19
:1050700008951F920F920FB60F9211242F933F9312
:105080008F939F93AF93BF938091F20E9091F30E05
:10509000A091F40EB091F50E3091F10E23E0230FA4
:1050A0002D3720F40196A11DB11D05C026E8230F60
:1050B0000296A11DB11D2093F10E8093F20E9093E4
:1050C000F30EA093F40EB093F50E8091F60E90912E
:1050D000F70EA091F80EB091F90E0196A11DB11D29
:1050E0008093F60E9093F70EA093F80EB093F90EFE
:1050F000BF91AF919F918F913F912F910F900FBED4
:105100000F901F9018951F920F920FB60F921124B7
:105110000BB60F922F933F934F935F936F937F93B1
:105120008F939F93AF93BF93EF93FF938091ED0E77
:105130009091EE0EA091EF0EB091F00E892B8A2B7C
:105140008B2B59F18091EC0EE091EA0EF091EB0E71
:105150009081892780838091ED0E9091EE0EA09131
:10516000EF0EB091F00E181619061A061B060CF079
:1051700056C08091ED0E9091EE0EA091EF0EB09181
:10518000F00E0197A109B1098093ED0E9093EE0EF8
:10519000A093EF0EB093F00E42C080911D02EFEC91
:1051A000F5E0E4919FEF90931D02E230C9F050F4D6
:1051B000EE2399F0E13081F590916F009D7F9093FF
:1051C0006F002AC0E43019F1E0F0E53029F5909144
:1051D00073009D7F909373001FC010926E001CC0DF
:1051E000909170009D7F9093700091E09093B0003B
:1051F0009091B100987F94609093B1001092B300A9
:105200000BC0909171009D7F9093710005C09091AB
:1052100072009D7F9093720060E00E942126FF91B2
:10522000EF91BF91AF919F918F917F916F915F911E
:105230004F913F912F910F900BBE0F900FBE0F908B
:105240001F901895DC01ED91FC910190F081E02D0B
:1052500019946115710579F0FB0101900020E9F7BF
:105260003197AF01461B570BDC01ED91FC91028099
:10527000F381E02D199480E090E008954F925F92C1
:105280006F927F92EF92FF920F931F93CF93DF93D2
:10529000CDB7DEB7A1970FB6F894DEBF0FBECDBF76
:1052A0007C01FA01CB0119A2223008F42AE08E0118
:1052B0000F5D1F4F422E512C612C712CBF01A30199
:1052C00092010E94D13FF901CA01015011096A30CF
:1052D00014F4605D01C0695CD8016C93232B242B0E
:1052E000252B61F7B801C7010E942929A1960FB6A5
:1052F000F894DEBF0FBECDBFDF91CF911F910F910C
:10530000FF90EF907F906F905F904F9008957F9205
:105310008F929F92AF92BF92CF92DF92EF92FF92C5
:105320000F931F93CF93DF938C016A017B01722E41
:105330009A01AB01C701B6010E942C43882319F0E2
:105340006AE378E01AC046015701E894B7F82FEFF6
:105350003FEF4FE75FE7C501B4010E942C43811185
:1053600011C02FEF3FEF4FE75FE7C501B4010E9487
:105370006A3E18163CF46EE378E0C8010E942929C1
:10538000EC0188C02FEF3FEF4FE75FE4C701B601A4
:105390000E94254218161CF462E478E0EECF2FEF4D
:1053A0003FEF4FE75FECC701B6010E946A3E87FD01
:1053B000F3CF20E030E0A901C701B6010E946A3EA8
:1053C00087FF0AC06DE2C8010E942229EC01F7FAAA
:1053D000F094F7F8F09402C0C0E0D0E0B12C60E0A7
:1053E00070E080E09FE3B71440F420E030E040E25A
:1053F00051E40E94F740B394F6CF9B01AC01C70182
:10540000B6010E9414406B017C010E9470414B0167
:105410005C010E946F3E9B01AC01C701B6010E9476
:1054200013406B017C012AE0B501A401C8010E9470
:105430003E29C80FD91F772031F06EE2C8010E94C3
:105440002229C80FD91F772029F120E030E040E25F
:1054500051E4C701B6010E94D03E4B015C010E949D
:1054600070416B01E12CF12C2AE0B701A601C801C3
:105470000E943E29C80FD91FC701B6010E946F3E86
:105480009B01AC01C501B4010E9413406B017C017A
:105490007A94D9CF68E976E0C8010E9429298C0F57
:1054A0009D1FDF91CF911F910F91FF90EF90DF90A3
:1054B000CF90BF90AF909F908F907F9008950F9363
:1054C0001F93CF93DF93EC010E9429298C0168E997
:1054D00076E0CE010E942929800F911FDF91CF91A4
:1054E0001F910F910895CF93DF93CDB7DEB7CF5FB4
:1054F000D1090FB6F894DEBF0FBECDBF789484B546
:10550000826084BD84B5816084BD85B5826085BDBF
:1055100085B5816085BD80916E00816080936E004D
:10552000109281008091810082608093810080913F
:1055300081008160809381008091800081608093F0
:1055400080008091B10084608093B1008091B000B0
:1055500081608093B000809191008260809391007F
:105560008091910081608093910080919000816092
:10557000809390008091A10082608093A10080912F
:10558000A10081608093A1008091A0008160809340
:10559000A0008091210182608093210180912101EE
:1055A000816080932101809120018160809320019E
:1055B00080917A00846080937A0080917A00826082
:1055C00080937A0080917A00816080937A00809144
:1055D0007A00806880937A001092C1001092860C45
:1055E0001092850C1092CF0C1092F10C1092CD0CF1
:1055F00081E08093CC0C1092A70C61E084E10E94C2
:10560000212661E085E10E9421268091B9008E7FEC
:105610008093B9008091B9008D7F8093B90088E4B0
:105620008093B80085E48093BC000E94B62310925A
:10563000960E1092950E1092940E1092930E109258
:10564000920E1092910E8DE991E09093980E8093B6
:10565000970E8091870E96EF980F943048F02EECBD
:10566000280F243028F022EC280F283008F070C0D2
:105670002DEB30E03093920E2093910E2BE931E028
:105680003093940E2093930E2CE231E03093960EDB
:105690002093950E943070F02EEC280F243050F0AB
:1056A00022EC280F283010F40C94FB38A0E0B0E076
:1056B0000C94FD38A8E6B0E0E8E6F0E020819430F4
:1056C00018F08E53883010F081E001C084E0822B06
:1056D0008C938091870E96EF980F943058F02EECB3
:1056E000280F243038F022EC280F283030F020E04A
:1056F00030E005C02BE630E002C02DE630E030930C
:105700008F0E20938E0E943010F49AEF0BC08233DC
:1057100081F0833381F0843381F092EC980F9830DC
:1057200070F492EC980F81E001C0880F9A95EAF727
:1057300007C088E005C084E003C082E001C081E0CA
:105740008093900E8091970E9091980E0197F1F7AB
:105750008091950E9091960E892B21F180914808A9
:10576000909149082EE08B379207E1F0009711F0F5
:105770000E940C068091990E8E7F8093990E109254
:105780004708109246088BE79EE090934908809363
:105790004808E0918E0EF0918F0E90818091900ECE
:1057A000892B80834EE160E082E00E94220743E57E
:1057B00060E081E30E94220743E568E08DE20E94F9
:1057C00022070E94B623B0E2FB2E01E0198283EF8C
:1057D0009CE00E945419F092080264E670E080E0B8
:1057E00090E00E94F32711E040E0BE016F5F7F4F21
:1057F0008FEF92E00E947617882381F0898580934D
:105800000802982F9D7F913289F0893279F068EEF5
:1058100073E080E090E00E94F327D8CF1330B9F313
:1058200068EE73E080E090E00E94F3271F5F143081
:10583000D9F664E670E080E090E00E94F32740E053
:10584000BE016F5F7F4F84E093E00E94761788234C
:10585000F1F268EB7BE080E090E00E94F32783EFB9
:105860009CE00E945419098341E0BE016F5F7F4FA5
:1058700089E093E00E94761785E0898341E0BE01CC
:105880006F5F7F4F8EE093E00E94761764EF71E0C8
:1058900080E090E00E94F327098341E0BE016F5F42
:1058A0007F4F8EE093E00E947617198240E0BE01A0
:1058B0006F5F7F4F83E193E00E947617882349F062
:1058C000198240E0BE016F5F7F4F88E193E00E9444
:1058D000761784E0898341E0BE016F5F7F4F8DE1E1
:1058E00093E00E9476178823C1F0809108028132EC
:1058F000A1F468EE73E080E090E00E94F32783EF6C
:105900009CE00E94541968E873E180E090E00E94F6
:10591000F327CE0101960E944216198241E0BE0192
:105920006F5F7F4F82E293E00E947617882379F0C1
:1059300064E670E080E090E00E94F327198241E085
:10594000BE016F5F7F4F82E293E00E94761711E005
:1059500040E0BE016F5F7F4F87E293E00E947617C1
:10596000811110C068EB7BE080E090E00E94F3279B
:10597000198341E0BE016F5F7F4F8DE193E00E948C
:105980007617E6CF88858111EDCF8985823050F773
:1059900061E080E090E00E94993F6FEF81E090E04D
:1059A0000E94993F61E085E30E949E264CE3E42E2D
:1059B000F12C58E7A52E55E0B52E6EEB862E65E04E
:1059C000962E70E5372EE3E0DE2EF6E02F2EA2E0D5
:1059D000CA2E10929D0D10929B0D1092980D109250
:1059E000970D34E03093960D0E942D288B0161E0D5
:1059F0008091960D0E949E2661E08091960D0E94F6
:105A000021267FB6F8948091CB08811125C0F5013D
:105A10008491F4019491E82FF0E0EE0FFF1FE1551F
:105A2000FB4FA591B4918C91982321F461E085E31B
:105A30000E94212661E085E30E949E268CB580614C
:105A40008CBD8CB580648CBD61E084E30E949E2691
:105A500061E083E30E949E268091CB088F5F809354
:105A6000CB087FBEF2E5F093900D1092910D8091DE
:105A7000900D9091910D0E946D122AE0722E8FEF81
:105A80000E942E127A947110FACF82E99DE00E9452
:105A9000701220E030E0A90160E082E99DE00E9400
:105AA0008612782E80939C0D31E0831749F00E9476
:105AB0002D28601B710B613D774058F381E046C093
:105AC0002AEA31E040E050E068E082E99DE00E948F
:105AD000861282FF03C070929D0D10C094E0792E53
