:100000000C94C1020C94F2020C94F2020C94F202D1
:100010000C94F2020C94F2020C94F2020C94F20290
:100020000C94F2020C94F31B0C94F31B0C94F31B32
:100030000C94F2020C94F02F0C94F2020C94F20245
:100040000C94F2020C9493240C94F2020C94F2029D
:100050000C94F2020C94F2020C94F2020C94A62F6F
:100060000C94F2020C94F1260C94C7260C94F20224
:100070000C94F2020C94F2020C94F2020C94F20230
:100080000C9465240C94F2020C94F2020C94F2028B
:100090000C94F2020C94F2020C94F2020C94AF2233
:1000A0000C94F2020C94F2020C9437240C94F20299
:1000B0000C94F2020C94F2020C94F2020C940924B7
:1000C0000C94F2020C94F2020C94F2020C94F202E0
:1000D0000C94F2020C94F2020C94F2020C94F202D0
:1000E0000C94F202BF06C206C506C806CB06CE06B1
:1000F000D1060D2E102EFF2D032E072E472E142E67
:10010000182E1E2E222E262E2C2E302E342E472E2A
:100110003A2E3E2E422EC02EC52ECA2ED42EDE2EB4
:10012000572FE82EF02EF82E022F0C2F162F252FEA
:100130002F2F572F392F432F4D2F084AD73B3BCE18
:10014000016E84BCBFFDC12F3D6C74319ABD5683D6
:100150003DDA3D00C77F11BED9E4BB4C3E916BAA8E
:10016000AABE000000803F072C7AA5BA6CC590DAC1
:100170003B9365FC8BBC53F810FD3C5692834DBD00
:10018000879D3AB63DCBC9BF5BBE73DA0FC93F0549
:10019000A84CCDB2D44EB93836A9020C50B99186CC
:1001A00088083CA6AAAA2ABE000000803F080000DA
:1001B00000BE922449123EABAAAA2ABECDCCCC4C9A
:1001C0003E00000080BEABAAAAAA3E00000000BF0D
:1001D000000000803F0000000000084178D3BB43CE
:1001E00087D1133D190E3CC3BD4282AD2B3E68EC56
:1001F0008276BED98FE1A93E4C80EFFFBE01C4FFDD
:100200007F3F0000000000000C9460180C94032E47
:100210000C948A260C94422E0C9458180C94342E6C
:100220000C948F250C947C180C94B1250C94C52E3D
:100230000C94CE060C94E8250C94FB170C94D10674
:100240000C94F02E0C94DA170C94C2170C94DE2E3A
:100250000C94C02E0C942F260C94072E0C9455173A
:100260000C940D2E0C941F180C94C91B0C94E82EA2
:100270000C94302E0C944D2F0C94472E0C946E172A
:100280000C94BF1B0C941E170C940C2F0C94222E54
:100290000C94432F0C94182E0C94BF060C941E2E15
:1002A0000C94B3340C94262E0C94C5390C943A2E2D
:1002B0000C94CB060C94252F0C94C5060C946D174A
:1002C0000C942F2F0C94102E0C94572F0C942C2E32
:1002D0000C94CF390C943E2E0C94C2060C940B183F
:1002E0000C94AC180C943F170C94FC170C94142E1F
:1002F0000C94A3250C94CA2E0C94FF2D0C94D42E90
:100300000C94022F0C94392F0C94162F0C94F82E69
:100310000C94C8060C94182D4E414E494E49545920
:10032000494E46CDCCCC3D0AD7233C17B7D13877C0
:10033000CC2B329595E6241FB14F0A0000204100D6
:1003400000C84200401C4620BCBE4CCA1B0E5AAE20
:10035000C59D7400407A10F35A00A0724E1809002F
:1003600010A5D4E80000E87648170000E40B54021A
:100370000000CA9A3B000000E1F505000080969855
:1003800000000040420F000000A0860100000010A5
:100390002700000000E803000000006400000000E7
:1003A000000A00000000000100000000002C76D8C8
:1003B00088DC674F0823DFC1DFAE59E1B1B796E5AE
:1003C000E3E453C63AE651997696E8E6C28426EB12
:1003D000898C9B62ED407C6FFCEFBC9C9F40F2BA25
:1003E000A56FA5F490055A2AF75C936B6CF9676DBD
:1003F000C11BFCE0E40D47FEF520E6B500D0ED9012
:100400002E0300943577050080841E080000204EDE
:100410000A000000C80C333333330F986E12831177
:1004200041EF8D2114893BE65516CFFEE6DB18D14E
:10043000844B381BF77C1D901DA4BBE42420328420
:10044000725E228100C9F124ECA1E53D277C3C3E8F
:100450005E2B3D3F2F5B5D3B2C2A225C000200009F
:100460002100240027002A002D0030003300010164
:100470000000040107010A0100000A0B02090C0D2B
:100480000E08070304010000000000000000000047
:10049000000000000000000000000000000000005C
:1004A0000000000012111000000000000000000019
:1004B000000000000000000000000000000000003C
:1004C0002200250028002B002E00310034000201FC
:1004D0000000050108010B01000020002300260098
:1004E00029002C002F00320000010000030106014A
:1004F00009010505050507050808080802020202AA
:100500000A0A0808040404040101010101010101AF
:100510000303030303030303040707070C0C0C0C7A
:100520000C0C0C0C02020202060606060606060663
:100530000B0B0B0B0B0B0B0B0102102020080810F0
:100540002040102040800201020108040201010243
:10055000040810204080804020100804020180041C
:100560000201804020100804020108040201010277
:100570000408102040800102040810204080CF3978
:10058000C53911241FBECFEFD1E2DEBFCDBF00E0E1
:100590000CBF16E0A0E0B2E0EEE1F1E900E00BBF35
:1005A00002C007900D92AA30B107D9F72CE0AAE05B
:1005B000B6E001C01D92AE3CB207E1F712E0C0EC1C
:1005C000D2E000E006C021970109802FFE010E94C1
:1005D000EA43CF3BD10780E00807A9F70E94FA342D
:1005E0000C947D480C940000CF93DF93CDB7DEB719
:1005F00028970FB6F894DEBF0FBECDBF29833A838C
:100600004B835C836D837E838F83988769817A8136
:1006100084E00E94972E6B817C8185E00E94972E5A
:100620006D817E8187E00E94972E6F81788586E0BC
:1006300028960FB6F894DEBF0FBECDBFDF91CF91E5
:100640000C94972E4F925F926F927F928F929F920F
:10065000AF92BF92CF92DF92EF92FF920F931F93D0
:10066000CF9320910D02213221F02F3F09F07DC25E
:1006700004C0EDE5F4E0C491E7C021E220930D024F
:10068000EDE5F4E0C491CF3F09F46FC2C23009F444
:1006900072C04CF5CC2309F451C0C13009F0D4C06C
:1006A0001092800010928100209181002860209398
:1006B000810020918100216020938100E3E1F5E039
:1006C000E491F0E0EE0FFF1FE254FB4F25913491CF
:1006D00030931F0720931E07E9E5F5E0E491E093CE
:1006E0001D07C1E0B3C0C43009F48BC00CF466C070
:1006F000C53009F0A9C0109220011092210120916B
:100700002101286020932101209121012160209363
:100710002101E3E1F5E0E491F0E0EE0FFF1FE25488
:10072000FB4F259134913093160720931507E9E587
:10073000F5E0E491E0931407C5E088C014BC15BC53
:1007400024B5226024BD25B5216025BDE3E1F5E097
:10075000E491F0E0EE0FFF1FE254FB4F259134913E
:100760003093220720932107E9E5F5E0E491E09337
:100770002007C0E06BC01092B0001092B100209131
:10078000B00022602093B0002091B100216020933E
:10079000B100E3E1F5E0E491F0E0EE0FFF1FE25479
:1007A000FB4F259134913093500820934F08E9E591
:1007B000F5E0E491E0935108C2E048C01092900047
:1007C0001092910020919100286020939100209137
:1007D0009100216020939100E3E1F5E0E491F0E0E5
:1007E000EE0FFF1FE254FB4F2591349130931C070D
:1007F00020931B07E9E5F5E0E491E0931A07C3E0D5
:1008000025C01092A0001092A1002091A1002860A4
:100810002093A1002091A10021602093A100E3E199
:10082000F5E0E491F0E0EE0FFF1FE254FB4F25915D
:1008300034913093190720931807E9E5F5E0E49126
:10084000E0931707C4E002C0C7FD8FC18C0161E0CF
:1008500081E20E945B2E4801A12CB12C8C2F8D7F50
:1008600009F0B6C060E072E18AE790E0A50194016A
:100870000E94674029013A0169017A0121E0C21A08
:10088000D108E108F1088FEFC816D104E104F104A2
:1008900009F008F44BC060E472E48FE090E0A50139
:1008A00094010E94674069017A0181E0C81AD10869
:1008B000E108F108C23001F52FEFC216D104E104BE
:1008C000F10409F008F4C0C160E970ED83E090E044
:1008D000A50194010E94674069017A0181E0C81A6C
:1008E000D108E108F1082FEFC216D104E104F104A8
:1008F00009F0C0F593E065C08FEFC816D104E1049C
:10090000F104B1F0A8F068E478EE81E090E0A50190
:1009100094010E94674069017A0181E0C81AD108F8
:10092000E108F108CC2309F437C185C191E001C089
:1009300092E0CC2391F045C0D301C2012AE0B595E5
:10094000A795979587952A95D1F76C017D0121E0B0
:10095000C21AD108E108F10895E085B5887F982B87
:1009600095BD80C068E478EE81E090E0A501940137
:100970000E94674069017A0181E0C81AD108E10844
:10098000F1082FEFC216D104E104F10409F008F4D4
:1009900001C164E274EF80E090E0A50194010E943F
:1009A000674069017A0181E0C81AD108E108F108BD
:1009B0002FEFC216D104E104F10411F008F00EC1CA
:1009C00095E08091B100887F982B9093B1004AC048
:1009D00060E072E18AE790E0A50194010E9467401F
:1009E00069017A0181E0C81AD108E108F108C1144F
:1009F000D10421E0E206F10488F068E478EE81E0B9
:100A000090E0A50194010E94674069017A0181E0AC
:100A1000C81AD108E108F10883E001C081E0C130C3
:100A200039F490918100987F892B809381001AC0BE
:100A3000C33039F490919100987F892B8093910075
:100A400011C0C43039F49091A100987F892B809314
:100A5000A10008C0C53031F490912101987F892B05
:100A6000809321019801220F331FACE2B1E00E9474
:100A7000B34028EE33E040E050E00E949140C230A5
:100A800009F440C0BCF4CC2371F1C13009F06DC051
:100A9000D0928900C092880020932F0730933007AE
:100AA000409331075093320780916F0082608093AA
:100AB0006F005BC0C43009F447C0A4F1C53009F031
:100AC00054C0D0922901C09228012093230730936B
:100AD0002407409325075093260780917300826076
:100AE0008093730042C0C7BC209333073093340710
:100AF000409335075093360780916E008260809353
:100B00006E0033C0C092B300209352083093530854
:100B100040935408509355088091700082608093F0
:100B2000700023C0D0929900C092980020932B07A8
:100B300030932C0740932D0750932E07809171001E
:100B400082608093710011C0D092A900C092A80069
:100B500020932707309328074093290750932A07AB
:100B6000809172008260809372006CE271E080E09C
:100B700090E0CF911F910F91FF90EF90DF90CF9079
:100B8000BF90AF909F908F907F906F905F904F90AD
:100B90000C94602F94E015CF8FEFC816D104E104B8
:100BA000F104D1F0C8F062E17AE780E090E0A501BD
:100BB00094010E94674069017A0181E0C81AD10856
:100BC000E108F1082FEFC216D104E104F10411F09D
:100BD00008F0B2CE94E0C1CE93E0BFCE62E17AE7F6
:100BE00080E090E0A50194010E94674069017A01CC
:100BF00081E0C81AD108E108F1082FEFC216D1042C
:100C0000E104F104B1F0A8F0D301C2015AE0B595B6
:100C1000A795979587955A95D1F76C017D0121E0AD
:100C2000C21AD108E108F108CC2309F495CE97E067
:100C3000C8CE96E07ECE8FEFC816D104E104F10451
:100C400009F060F694E075CE92E0BBCE0F931F934F
:100C5000CF93DF9300D000D0CDB7DEB78C0180E01A
:100C600090E0A8ECB2E4F80180839183A283B3837F
:100C700084839583A683B78380879187A287B38770
:100C80004EE1BE016F5F7F4F83E00E944E2D892BA6
:100C900099F1698170E0762F66278A81682B072E8B
:100CA000000C880B990B0E94313FF801608371831F
:100CB000828393836B8170E0762F66278C81682B0B
:100CC000072E000C880B990B0E94313FF8016087BA
:100CD0007187828793876D8170E0762F66278E817A
:100CE000682B072E000C880B990B0E94313FF801EE
:100CF0006483758386839783C80126960FB6F8941C
:100D0000DEBF0FBECDBFDF91CF911F910F91089530
:100D1000CF93DF93EC0180E090E00E945140682F78
:100D200070E080E090E00E94313F0E94F2422BE9A7
:100D300030E24AE95EE30E94B7410E942942611510
:100D4000710511F0798F688F81E090E00E94514029
:100D5000482F50E060E070E09A01217033275595EC
:100D60004795FB013197E730F10530F48827EE58BD
:100D7000FF4F8F4F0C94EA433B8F2A8F14C039A347
:100D800028A311C03F8F2E8F0EC03DA32CA30BC0F4
:100D90003D8F2C8F08C03BA32AA305C03FA32EA3E1
:100DA00002C039A728A76F5F7F4F68307105A1F691
:100DB00081E090E0DF91CF910895CF93DF93EC0134
:100DC00080E090E00E945140FE01E15AFD4F908189
:100DD000891307C0618180E090E00E94594081E062
:100DE00001C080E0DF91CF910895CF93C62F91E0AD
:100DF0009093AA0A4093CC0A1092AB0A1092CD0AA3
:100E0000682F87EB9BE00E94AC186C2F87EB9BE070
:100E10000E94AC1881E00E94273321E030E0882353
:100E200011F020E030E0C901CF910895CF93DF9316
:100E3000CDB7DEB728970FB6F894DEBF0FBECDBF93
:100E40004B836D838F83622F84E00E94DE2D6B8144
:100E500085E00E94DE2D6D8187E00E94DE2D6F818E
:100E600086E028960FB6F894DEBF0FBECDBFDF91A7
:100E7000CF910C94DE2DCF93DF93CDB7DEB7C45C5A
:100E8000D1400FB6F894DEBF0FBECDBF86E091E033
:100E90000E94220360ED77E080E090E00E94602FE6
:100EA0008AE2E4E2F2E0DE01AF5FBE4F01900D9214
:100EB0008A95E1F781E090E0C75EDE4F99838883F1
:100EC000C951D140CE018F5F9E4F0E94641DCE015B
:100ED0008F5F9E4F0E948806CE018F5F9E4F0E94BB
:100EE0008806C75EDE4F88819981C951D140833021
:100EF000910509F442C0ECF48130910561F102974B
:100F000059F784EE92E00E94C431CE018F5F9E4F6C
:100F10000E94641D83EF92E00E94C43168EE73E08A
:100F200080E090E00E94602F81E093E00E94C43155
:100F300037C08530910509F455C00CF447C00697B9
:100F400059F682EE94E00E94C431CE018F5F9E4F2D
:100F50000E94641D25C087EC92E00E94C43168EEB7
:100F600073E080E090E00E94602FCE018F5F9E4F83
:100F70000E94641D86ED92E00BC080E193E00E9428
:100F8000C431CE018F5F9E4F0E94641D8FE193E0BC
:100F90000E94C43168EE73E080E090E00E94602F10
:100FA000C75EDE4F88819981C951D1400E94DD061C
:100FB000C75EDE4F88819981C951D1400196C75ED5
:100FC000DE4F99838883C951D14086CF8DE293E06B
:100FD0000E94C431CE018F5F9E4F0E94641D8CE33E
:100FE00093E0D6CF8AE493E00E94C431CE018F5FB4
:100FF0009E4F0E94641D89E593E00E94C43188E001
:10100000EEE4F2E0DE01AD58BE4F01900D928A95FC
:10101000E1F784E693E00E94C43186E090E0CD578A
:10102000DE4F99838883C358D14068E0362E11E0A3
:1010300000E043E5BE016F5F7F4F82E30E944E2DCB
:10104000892B59F16A8170E0762F66278981682B98
:10105000072E000C880B990B0E94313F4B015C015D
:101060006C8170E0762F66278B81682B072E000C31
:10107000880B990B0E94313F6B017C016E8170E0FF
:10108000762F66278D81682B072E000C880B990B15
:101090000E94313F2B013C010AC0412C512C28EC0D
:1010A000622E22E4722E7301620153014201C501D6
:1010B000B4019F7720E030E048E452E40E942A3FE8
:1010C00087FF15C0C701B6019F7720E030E048E4F4
:1010D00052E40E942A3F87FF0AC020E030E048E443
:1010E00053E4C301B2010E94E542181684F0CD57C3
:1010F000DE4FA881B981C358D1401197CD57DE4F3B
:10110000B983A883C358D140AB2B09F06CC386E0E8
:1011100091E00E94220386E291E00E94220364EFA4
:1011200071E080E090E00E94602F88E0EEE4F2E061
:10113000DE01119601900D928A95E1F71A821982CB
:1011400081E090E0482F8B839C83682F8D839E8362
:1011500018861F8220E03A8150E070E080E0988598
:101160000E94160760E177E280E090E00E94602F25
:10117000C156DE4F1882CF59D140C056DE4F18827B
:10118000C05AD140CF55DE4F1882C15AD140CE55FA
:10119000DE4F1882C25AD140CD55DE4F1882C35A55
:1011A000D140CC55DE4F1882C45AD140CB55DE4FCA
:1011B0001882C55AD140CA55DE4F1882C65AD1404E
:1011C000C12CD12CE12CF12CCC56DE4F1882C45905
:1011D000D140C856DE4F1882C859D140C756DE4F9D
:1011E0001882C959D140C656DE4F1882CA59D1401B
:1011F000812C912CA12CB12CC158DE4F1882CF57D5
:10120000D140C957DE4F1882C758D140C757DE4F6B
:101210001882C958D140C357DE4F1882CD58D140EB
:10122000C556DE4F19821882CB59D1406AE070E072
:1012300080E090E00E94602FCE0189599E4F0E946D
:101240002606C959DE4F4880C756D140C859DE4FDF
:101250005880C856D140C759DE4F6880C956D14022
:10126000C659DE4F7880CA56D140C559DE4F288016
:10127000CB56D140C459DE4F3880CC56D140C359EB
:10128000DE4F0881CD56D140C259DE4F1881CE566F
:10129000D140C159DE4FB881CF56D140CD57DE4F36
:1012A000B883C358D140C059DE4FE881C057D14000
:1012B000CF56DE4FE883C159D140CF58DE4FF88179
:1012C000C157D140CE56DE4FF883C259D140CE58D7
:1012D000DE4F2881C257D140CD56DE4F2883C359F7
:1012E000D140C556DE4F88819981CB59D140892B99
:1012F00009F4F3C0C158DE4F2881CF57D140C957F8
:10130000DE4F3881C758D140C757DE4F4881C95892
:10131000D140C357DE4F5881CD58D140B201C301EF
:101320000E942A3F87FD0BC09201A301B401C501B1
:101330000E942A3F87FF17C04201530114C0C158C1
:10134000DE4F4882CF57D140C957DE4F5882C75829
:10135000D140C757DE4F6882C958D140C357DE4FCE
:101360007882CD58D140CC56DE4F2881C459D14027
:10137000C856DE4F3881C859D140C756DE4F488124
:10138000C959D140C656DE4F5881CA59D140B10122
:10139000C8010E942A3F87FD0BC09101A801B60138
:1013A000C7010E942A3F87FF17C06101780114C05E
:1013B000CC56DE4F2882C459D140C856DE4F388201
:1013C000C859D140C756DE4F0883C959D140C656C7
:1013D000DE4F1883CA59D140CD55DE4F2881C35AFC
:1013E000D140CC55DE4F3881C45AD140CB55DE4F69
:1013F0004881C55AD140CA55DE4F5881C65AD1409E
:10140000CD57DE4F6881C358D140CF56DE4F78812B
:10141000C159D140CE56DE4F8881C259D140CD56F8
:10142000DE4F9881C359D1400E942A3F87FDBEC03C
:10143000CD57DE4F2881C358D140CF56DE4F38817B
:10144000C159D140CE56DE4F4881C259D140CD5608
:10145000DE4F5881C359D140C156DE4F6881CF5904
:10146000D140C056DE4F7881C05AD140CF55DE4FB3
:101470008881C15AD140CE55DE4F9881C25AD140A1
:101480000E942A3F87FFBAC0CD57DE4F9881C358CC
:10149000D140C156DE4F9883CF59D140CF56DE4F51
:1014A000A881C159D140C056DE4FA883C05AD1404F
:1014B000CE56DE4FB881C259D140CF55DE4FB883EA
:1014C000C15AD140CD56DE4FE881C359D140CE55E7
:1014D000DE4FE883C25AD14091C0CD57DE4FF8812C
:1014E000C358D140C156DE4FF883CF59D140CF56B3
:1014F000DE4F2881C159D140C056DE4F2883C05AE3
:10150000D140CE56DE4F8881C259D140CF55DE4FF3
:101510008883C15AD140CD56DE4F9881C359D140FE
:10152000CE55DE4F9883C25AD140CD55DE4FF88359
:10153000C35AD140CC55DE4F2883C45AD140CB5535
:10154000DE4F8883C55AD140CA55DE4F9883C65AAC
:10155000D14061017801CC56DE4FC882C459D140D8
:10156000C856DE4FD882C859D140C756DE4FE882F0
:10157000C959D140C656DE4FF882CA59D1404201FE
:101580005301C158DE4F8882CF57D140C957DE4F33
:101590009882C758D140C757DE4FA882C958D1405A
:1015A000C357DE4FB882CD58D14028C0CD57DE4F4B
:1015B000A881C358D140CD55DE4FA883C35AD1402E
:1015C000CF56DE4FB881C159D140CC55DE4FB883DC
:1015D000C45AD140CE56DE4FE881C259D140CB55D6
:1015E000DE4FE883C55AD140CD56DE4FF881C3594E
:1015F000D140CA55DE4FF883C65AD140C556DE4F9A
:1016000088819981CB59D1400196C556DE4F998387
:101610008883CB59D1408C3D954009F007CE81E0BD
:1016200090E0282F89839A838F83988730E04B81BD
:101630005C816D817E810E941607C158DE4F288132
:10164000CF57D140C957DE4F3881C758D140C7570F
:10165000DE4F4881C958D140C357DE4F5881CD581D
:10166000D140B401C5010E94D3402B013C016093DD
:101670000402709305028093060290930702CC56F1
:10168000DE4F2881C459D140C856DE4F3881C85931
:10169000D140C756DE4F4881C959D140C656DE4FAA
:1016A0005881CA59D140B601C7010E94D340CD57D5
:1016B000DE4F688379838A839B83C358D1406093CC
:1016C0000002709301028093020290930302C158BA
:1016D000DE4F2881CF57D140C957DE4F3881C758D8
:1016E000D140C757DE4F4881C958D140C357DE4F5C
:1016F0005881CD58D140B401C5010E94D44020E0AA
:1017000030E040E05FE30E94903F609310077093E9
:1017100011078093120790931307CC56DE4F288150
:10172000C459D140C856DE4F3881C859D140C75638
:10173000DE4F4881C959D140C656DE4F5881CA593B
:10174000D140B601C7010E94D44020E030E040E023
:101750005FE30E94903F60930C0770930D078093A6
:101760000E0790930F078AE793E00E94C431CD578C
:10177000DE4F288139814A815B81C358D140C30142
:10178000B2010E94AF1C89E893E00E94C43120910D
:101790000C0730910D0740910E0750910F07609193
:1017A00010077091110780911207909113070E9402
:1017B000AF1C64EF71E080E090E00E94602F84EA4B
:1017C00093E00E94C4318CEB93E00E94C43188E026
:1017D000EEE4F2E0DE01119601900D928A95E1F7B8
:1017E00001E010E071C0EEE4F2E0DE011196832D1D
:1017F00001900D928A95E1F7EE24E394F12C1A8280
:1018000019824E2DFC82EB821E821D82F886EF82A9
:1018100020E03A815C8160E07E818E2D98850E9477
:10182000F40262E070E080E090E00E94602FBFEF81
:10183000EB1AFB0AE114E1E0FE0609F7412F1B83D6
:101840000C831F83088729813A81502F6D817E8107
:10185000812F902F0E94160768EC70E080E090E0E6
:101860000E94602FEE24EA94F12C1A8219824E2DE8
:10187000FC82EB821E821D82F886EF8220E03A8194
:101880005C8160E07E818E2D98850E94F40267E085
:1018900070E080E090E00E94602FF1E0EF1AF10824
:1018A00021F7212F19830A83412F1B830C83612F7A
:1018B0001D830E831F830887302F502F702F812F99
:1018C000902F0E941607B5CB1A821982402F1C83D5
:1018D0000B831E821D8218870F8320E03A815C8172
:1018E00060E07E81802F98850E94F40262E070E0C3
:1018F00080E090E00E94602F0F5F1F4F011521E0F4
:10190000120711F741E050E060E070E0CB010E9467
:101910000A1DCF54DE4F1882C15BD140CE54DE4F3A
:101920001882C25BD14080E8CD54DE4F8883C35B10
:10193000D1409FEBCC54DE4F9883C45BD140CB5455
:10194000DE4F1882C55BD140CA54DE4F1882C65B99
:10195000D140A0E8C954DE4FA883C75BD140BFEB9C
:10196000C854DE4FB883C85BD140C754DE4F1882DD
:10197000C95BD140C654DE4F1882CA5BD140C55402
:10198000DE4F1882CB5BD140C454DE4F1882CC5B53
:10199000D140C354DE4F1882CD5BD140C254DE4FDC
:1019A0001882CE5BD140C154DE4F1882CF5BD1404C
:1019B000C054DE4F1882C05CD140CD57DE4F188234
:1019C000C358D140CF56DE4F1882C159D140CE56B0
:1019D000DE4F1882C259D140CD56DE4F1882C3590E
:1019E000D140CF53DE4F1882C15CD140CE53DE4F81
:1019F0001882C25CD140CD53DE4F1882C35CD14007
:101A0000CC53DE4F1882C45CD140C955DE4F1882DA
:101A1000C75AD140C755DE4F1882C95AD140C15567
:101A2000DE4F1882CF5AD140C055DE4F1882C05BBE
:101A3000D140C556DE4F188219821A821B82CB59BB
:101A4000D140FE0131961F01CE01855D9E4FC358E6
:101A5000DE4F99838883CD57D14089EC93E00E9473
:101A6000C4318CED93E00E94C431CF54DE4F988195
:101A7000C15BD140C158DE4F9883CF57D140CE547F
:101A8000DE4FA881C25BD140C957DE4FA883C7583B
:101A9000D140CD54DE4FB881C35BD140C757DE4F34
:101AA000B883C958D140CC54DE4FE881C45BD140E3
:101AB000C357DE4FE883CD58D140CB54DE4FF88179
:101AC000C55BD140CC56DE4FF883C459D140CA54CF
:101AD000DE4F2881C65BD140C856DE4F2883C859E7
:101AE000D140C954DE4F8881C75BD140C756DE4F15
:101AF0008883C959D140C854DE4F9881C85BD14012
:101B0000C656DE4F9883CA59D140C754DE4FA881CC
:101B1000C95BD140C555DE4FA883CB5AD140C654CE
:101B2000DE4FB881CA5BD140C455DE4FB883CC5A72
:101B3000D140C554DE4FE881CB5BD140C355DE4F69
:101B4000E883CD5AD140C454DE4FF881CC5BD140FC
:101B5000C255DE4FF883CE5AD140C354DE4F2881A0
:101B6000CD5BD140CD55DE4F2883C35AD140C254FE
:101B7000DE4F8881CE5BD140CC55DE4F8883C45A7E
:101B8000D140C154DE4F9881CF5BD140CB55DE4F61
:101B90009883C55AD140C054DE4FA881C05CD14063
:101BA000CA55DE4FA883C65AD140CF53DE4F788046
:101BB000C15CD140CE53DE4F6880C25CD140CD5372
:101BC000DE4F5880C35CD140CC53DE4F4880C45CAC
:101BD000D140C955DE4FB881C75AD140C156DE4FFA
:101BE000B883CF59D140C755DE4FE881C95AD1409B
:101BF000C056DE4FE883C05AD140C155DE4FF88150
:101C0000CF5AD140CF55DE4FF883C15AD140C0558D
:101C1000DE4F2881C05BD140CE55DE4F2883C25AAB
:101C2000D14080E197E2C955DE4F99838883C75A36
:101C3000D14087E59CE00E94DA178F3F09F478C213
:101C40008D3019F5E0910A06F0910B06E45FF94F2B
:101C500010824FEF50E06CE076E0C1010E945E45DB
:101C6000C050DF4F1882C050D14010920B06109226
:101C70000A0646E050E0B1018AEE93E00E9450452A
:101C8000892B11F00C941B1714C08A3091F220910B
:101C90000A0630910B062F3F31055CF6F901E45F2F
:101CA000F94F80832F5F3F4F30930B0620930A0636
:101CB000C0CF61EF73E0C1010E94093B61EF73E0A7
:101CC00080E090E00E94093B5C0161EF73E080E0FE
:101CD00090E00E94093BC755DE4F99838883C95A1B
:101CE000D14061EF73E080E090E00E94093B4C013D
:101CF00061EF73E080E090E00E94093B61EF73E0E8
:101D000080E090E00E94093B8C0161EF73E080E08D
:101D100090E00E94093B61EF73E080E090E00E9458
:101D2000093B6C0161EF73E080E090E00E94093BA9
:101D30007C010115110511F40C941B17C755DE4FDA
:101D4000A881B981C95AD140EC910E2E000CFF0B2D
:101D5000908186B7981304C083EF93E00E94C4314A
:101D6000C5010E94053BC156DE4F6883CF59D14063
:101D7000C056DE4F7883C05AD140CF55DE4F88839E
:101D8000C15AD140CE55DE4F9883C25AD140C601C8
:101D90000E94053BCD55DE4F6883C35AD140CC55D8
:101DA000DE4F7883C45AD140CB55DE4F8883C55A65
:101DB000D140CA55DE4F9883C65AD140C7010E9410
:101DC000053BC555DE4F6883CB5AD140C455DE4F25
:101DD0007883CC5AD140C355DE4F8883CD5AD14049
:101DE000C255DE4F9883CE5AD140C4010E94053BB4
:101DF0004B015C0120E030E048EC52E40E94B74126
:101E00000E942942072E000C880B990B0E94313F3B
:101E10006B017C0120E030E048EC52E40E94903FEE
:101E20009B01AC01C501B4010E94D34020E030E029
:101E300040E752E40E94B7419B01AC01C701B601E3
:101E40000E94D440762E672E582E492EC8010E943B
:101E5000053B4B015C0120E030E048EC52E40E947D
:101E6000B7410E942942072E000C880B990B0E9453
:101E7000313F6B017C0120E030E048EC52E40E94ED
:101E8000903F9B01AC01C501B4010E94D34020E00A
:101E900030E040E752E40E94B7419B01AC01C7012A
:101EA000B6010E94D440CD57DE4F6883C358D1405D
:101EB000CF56DE4F7883C159D140CE56DE4F88834E
:101EC000C259D140CD56DE4F9883C359D14020E04E
:101ED00030E04CE052E4672D762D852D942D0E9444
:101EE000E54218160CF027C120E030E044E352E44C
:101EF000672D762D852D942D0E942A3F87FF1BC1CB
:101F000020E030E045E053E4CD57DE4F6881C35810
:101F1000D140CF56DE4F7881C159D140CE56DE4FE9
:101F20008881C259D140CD56DE4F9881C359D140E6
:101F30000E94E54218160CF0FEC020E030E04FE0B1
:101F400053E4CD57DE4F6881C358D140CF56DE4FA2
:101F50007881C159D140CE56DE4F8881C259D140D7
:101F6000CD56DE4F9881C359D1400E942A3F87FF4A
:101F7000E2C08E01055B1E4F26E04AE0C156DE4FEF
:101F80006881CF59D140C056DE4F7881C05AD140C8
:101F9000CF55DE4F8881C15AD140CE55DE4F988152
:101FA000C25AD1400E94E53A0051110926E04AE0A8
:101FB000672D762D852D942D0E94E53A005111094B
:101FC00026E04AE0CD57DE4F6881C358D140CF5656
:101FD000DE4F7881C159D140CE56DE4F8881C2593B
:101FE000D140CD56DE4F9881C359D1400E94E53A89
:101FF000CD57DE4F2881C358D140CF56DE4F3881B0
:10200000C159D140CE56DE4F4881C259D140CD563C
:10201000DE4F5881C359D14069E275EC8BE093E4FF
:102020000E94D3404B015C01272D362D452D542DA8
:1020300066E976E08FE092E40E94D3406B017C0178
:10204000A5019401C501B4010E94903FC158DE4F23
:10205000688379838A839B83CF57D140A7019601F8
:10206000C701B6010E94903F9B01AC01C158DE4FF1
:10207000688179818A819B81CF57D1400E94D44069
:102080000E94584328E33CE841EC57E40E94903F0B
:10209000C158DE4F6883CF57D140C957DE4F788390
:1020A000C758D140C757DE4F8883C958D140C3575E
:1020B000DE4F9883CD58D14024EA30E74DE95FE305
:1020C000C501B4010E94903FA70196010E945341AF
:1020D00023E333E345E652E40E94903F20E030E002
:1020E00044EB53E40E94D4400E942942CB0168E6AD
:1020F00071E00E94D643BC01990F880B990B0E9496
:10210000313FCC56DE4F6883C459D140C856DE4FAC
:102110007883C859D140C756DE4F8883C959D1400A
:10212000C656DE4F9883CA59D14001E010E005C081
:1021300002E010E002C004E010E06AE070E080E03D
:1021400090E00E94602F0130110509F061C0CD566A
:10215000DE4FB881C359D140BF93CE56DE4FE881E0
:10216000C259D140EF93CF56DE4FF881C159D140CB
:10217000FF93CD57DE4F2881C358D1402F934F9204
:102180005F926F927F9289E194E09F938F930E9478
:10219000871CC656DE4F8881CA59D1408F93C756D7
:1021A000DE4F9881C959D1409F93C856DE4FA88110
:1021B000C859D140AF93CC56DE4FB881C459D140F5
:1021C000BF93C357DE4FE881CD58D140EF93C75737
:1021D000DE4FF881C958D140FF93C957DE4F28819F
:1021E000C758D1402F93C158DE4F8881CF57D14077
:1021F0008F938BE294E09F938F930E94871CADB7DF
:10220000BEB754960FB6F894BEBF0FBEADBF1FC089
:102210000430110561F48AE491E00E9422038DE507
:1022200091E00E9422038AE491E00E942203C955B2
:10223000DE4FA881B981C75AD1401197C955DE4FE9
:10224000B983A883C75AD140AB2B09F0F2CCC15651
:10225000DE4FB881CF59D140C955DE4FB883C75A38
:10226000D140C056DE4FE881C05AD140C755DE4F3D
:10227000E883C95AD140CF55DE4FF881C15AD140C9
:10228000C155DE4FF883CF5AD140CE55DE4F28815D
:10229000C25AD140C055DE4F2883C05BD140CF53D6
:1022A000DE4F7882C15CD140CE53DE4F6882C25C83
:1022B000D140CD53DE4F5882C35CD140CC53DE4F6A
:1022C0004882C45CD140CD55DE4F8881C35AD1408D
:1022D000C354DE4F8883CD5BD140CC55DE4F98810F
:1022E000C45AD140C254DE4F9883CE5BD140CB5507
:1022F000DE4FA881C55AD140C154DE4FA883CF5BC1
:10230000D140CA55DE4FB881C65AD140C054DE4FC5
:10231000B883C05CD140C555DE4FE881CB5AD1406F
:10232000C754DE4FE883C95BD140C455DE4FF88106
:10233000CC5AD140C654DE4FF883CA5BD140C35556
:10234000DE4F2881CD5AD140C554DE4F2883CB5B68
:10235000D140C255DE4F8881CE5AD140C454DE4FA1
:102360008883CC5BD140CC56DE4F9881C459D14094
:10237000CB54DE4F9883C55BD140C856DE4FA88151
:10238000C859D140CA54DE4FA883C65BD140C75656
:10239000DE4FB881C959D140C954DE4FB883C75BFD
:1023A000D140C656DE4FE881CA59D140C854DE4FED
:1023B000E883C85BD140C158DE4FF881CF57D14088
:1023C000CF54DE4FF883C15BD140C957DE4F28811F
:1023D000C758D140CE54DE4F2883C25BD140C75787
:1023E000DE4F8881C958D140CD54DE4F8883C35B0E
:1023F000D140C357DE4F9881CD58D140CC54DE4FE9
:102400009883C45BD140872D962DA52DB42DCF5F29
:10241000DE4F88839983AA83BB83C150D140CD57B7
:10242000DE4F8881C358D140CF56DE4F9881C159C5
:10243000D140CE56DE4FA881C259D140CD56DE4F95
:10244000B881C359D140CB5FDE4F88839983AA837B
:10245000BB83C550D140CC56DE4F8881C459D14092
:10246000C856DE4F9881C859D140C756DE4FA88163
:10247000C959D140C656DE4FB881CA59D140C35F51
:10248000DE4F88839983AA83BB83CD50D140C15846
:10249000DE4F8881CF57D140C957DE4F9881C7584A
:1024A000D140C757DE4FA881C958D140C357DE4F2E
:1024B000B881CD58D140CF5EDE4F88839983AA83FF
:1024C000BB83C151D14086E494E00E94C4310EE147
:1024D00010E069E574E0C1010E942832EA8DFB8DAD
:1024E000309709F4B5C08581882309F4B1C04389C8
:1024F000548965897689C1010E94721A64E674E084
:10250000C1010E94B03124E030E0C156DE4F488165
:10251000CF59D140C056DE4F5881C05AD140CF5517
:10252000DE4F6881C15AD140CE55DE4F7881C25A04
:10253000D140C1010E94D83024E030E0472D562D13
:10254000652D742DC1010E94D83024E030E0CD57B4
:10255000DE4F4881C358D140CF56DE4F5881C15914
:10256000D140CE56DE4F6881C259D140CD56DE4FA4
:102570007881C359D140C1010E94D83024E030E0B5
:10258000CD55DE4F4881C35AD140CC55DE4F5881DE
:10259000C45AD140CB55DE4F6881C55AD140CA5587
:1025A000DE4F7881C65AD140C1010E94D83024E064
:1025B00030E0C555DE4F4881CB5AD140C455DE4F7F
:1025C0005881CC5AD140C355DE4F6881CD5AD14095
:1025D000C255DE4F7881CE5AD140C1010E94D83019
:1025E00024E030E0CC56DE4F4881C459D140C85673
:1025F000DE4F5881C859D140C756DE4F6881C9594E
:10260000D140C656DE4F7881CA59D140C1010E94DF
:10261000D83024E030E0C158DE4F4881CF57D14058
:10262000C957DE4F5881C758D140C757DE4F688120
:10263000C958D140C357DE4F7881CD58D140C10130
:102640000E94D830C1010E94601A86E694E006C05C
:102650000150110909F03DCF8BE794E00E94C4318D
:10266000CE018F5F9E4F0E94641D8FE894E00E9410
:10267000C43188E2D1011D928A95E9F780E090E0AB
:10268000A0E8BFEB89839A83AB83BC83C957DE4F35
:1026900039822882C758D140FE01B996C558DE4F0D
:1026A000F983E883CB57D1408101A4E6B0E0C1585B
:1026B000DE4FB983A883CF57D14068EC70E080E04B
:1026C00090E00E94602FCE01855A9E4F0E94260600
:1026D000C55ADE4F88819981AA81BB81CB55D140F3
:1026E000C757DE4F88839983AA83BB83C958D140DB
:1026F000C15ADE4F88819981AA81BB81CF55D140D3
:10270000C357DE4F88839983AA83BB83CD58D140BA
:10271000CD59DE4F88819981AA81BB81C356D140B2
:10272000CC56DE4F88839983AA83BB83C459D1409A
:102730002091100730911107409112075091130713
:10274000C757DE4F688179818A819B81C958D14002
:102750000E94D3409B01AC010E94D440209104020E
:102760003091050240910602509107020E94B74144
:102770006B017C0120910C0730910D0740910E07F1
:1027800050910F07C357DE4F688179818A819B8101
:10279000CD58D1400E94D3409B01AC010E94D4404F
:1027A00020910002309101024091020250910302F7
:1027B0000E94B7414B015C01A7019601C701B60118
:1027C0000E94903F2B013C01A5019401C501B40179
:1027D0000E94903F9B01AC01C301B2010E94D44012
:1027E0000E9458432B013C019B01AC01C501B4017F
:1027F0000E94B7414B015C01A3019201C701B601E0
:102800000E94B7416B017C0120E030E0A901C501C5
:10281000B4010E94903F9B01AC01C701B6010E9428
:10282000D4400E94C24020E030E044E353E40E94E0
:10283000903F2BED3FE049E450E40E94B7416B012B
:102840007C0120E030E0A901C501B4010E942A3FCB
:1028500087FF0DC0A701960160E070E084EB93E470
:102860000E94D34026E636E646EE50E406C026E651
:1028700036E646EE50E4C701B6010E94D3400E94FE
:102880002942CB0168E671E00E94D643BC01990F52
:10289000880B990B0E94313F6B017C0120E030E0F6
:1028A00044EB52E40E942A3F20E030E044EB52E443
:1028B00087FF0BC0C701B6010E94D34020E030E083
:1028C00044EB53E40E94D44004C0C701B6010E9407
:1028D000D340D8016D937D938D939C931397C158EA
:1028E000DE4FE881F981CF57D1403197C158DE4F93
:1028F000F983E883CF57D140EF2B09F432C120E0B0
:1029000030E048EC52E4C757DE4F688179818A8114
:102910009B81C958D1400E942A3F882309F4CDCE1B
:1029200020E030E048EC52E4C357DE4F6881798103
:102930008A819B81CD58D1400E942A3F882309F487
:10294000BCCE20E030E048EC52E4CC56DE4F68814B
:1029500079818A819B81C459D1400E942A3F882372
:1029600009F4ABCE0C5F1F4FC558DE4F88819981AB
:10297000CB57D1400817190709F097CEEDB7FEB72E
:10298000C158DE4FF983E883CF57D1408DB79EB74A
:10299000805591090FB6F8949EBF0FBE8DBFADB79D
:1029A000BEB711967D018D01ADB6BEB6B1E5AB0ED9
:1029B000B11CF701108211821282138214821582D7
:1029C000168217823896EA15FB05A1F7C957DE4F24
:1029D000E881F981C758D1406191719181919191BC
:1029E000C957DE4FF983E883C758D1402BED3FE04C
:1029F00049E450E40E94903F20E030E044E353E497
:102A00000E94B7412B013C010E94B241D7016D9356
:102A10007D938D939C931397C301B2010E944A4307
:102A2000F7016483758386839783F8E0EF0EF11CCA
:102A3000EA14FB0459F6C12CD12C7601260137018A
:102A4000D8012D913D914D915C91C301B2010E943D
:102A5000D4402B013C01F801248135814681578106
:102A6000C701B6010E94D4406B017C01085F1F4F73
:102A70000A151B0529F720E030E040E251E4C301CC
:102A8000B2010E94B7414B015C0120E030E040E21E
:102A900051E4C701B6010E94B741A50194010E940B
:102AA000534120E030E044E353E40E94903F2BED9B
:102AB0003FE049E450E40E94B7410E942942CB0123
:102AC00088599E4F68E671E00E94D643BC01990F79
:102AD000880B990B0E94313F6B017C01C158DE4F7E
:102AE00088819981CF57D1400FB6F8949EBF0FBE11
:102AF0008DBF89EA94E00E94C4318E01055D1E4FAE
:102B000026E04AE0B601C7010E94E53AC258DE4F0E
:102B10009881CE57D1409F93C358DE4FA881CD579F
:102B2000D140AF9385E795E09F938F93C258DE4FD6
:102B3000B881CE57D140BF93AF930E946D45C80175
:102B40000E94C43162E070E080E090E00E94602F5B
:102B50000F900F900F900F900F900F90FE2DEF2D74
:102B600004C0C12CD12CF0E8EFEBC35FDE4F28810D
:102B700039814A815B81CD50D140B6018F2F9E2F84
:102B80000E94D3406B017C0120E030E044E353E439
:102B90000E94E54287FD0BC0A701960160E070E04E
:102BA00084EB93E40E94D3406B017C0134C020E0AD
:102BB00030E0A901C701B6010E94E54287FD0AC0C5
:102BC00020E030E044E353E4C701B6010E942A3F0D
:102BD00087FD1DC020E030E044E353ECC701B6019F
:102BE0000E94E54287FD09C020E030E0A901C7014D
:102BF000B6010E942A3F87FD0AC020E030E044EB86
:102C000053E4C701B6010E94D4406B017C01F7FA7E
:102C1000F094F7F8F09440E050E0C701B6010E944C
:102C20000A1D20E030E040E751E4C556DE4F6881E0
:102C300079818A819B81CB59D1409F770E942A3F1D
:102C400087FF0CC081EC94E00E94C431C556DE4F72
:102C5000188219821A821B82CB59D1402DEC3CEC90
:102C60004CEC5EE3C556DE4F688179818A819B8199
:102C7000CB59D1400E94903F9B01AC01C701B601E6
:102C80000E94D4402DEC3CEC4CEC5DE30E94903F64
:102C90004B015C018FEF90E0CD58DE4F9983888324
:102CA000C357D140CB58DE4F19821882C557D14047
:102CB000C958DE4F99838883C757D140C758DE4F24
:102CC00019821882C957D14020E030E0A901C5011E
:102CD000B4010E942A3FA50194015F771816C4F041
:102CE00060E070E08FE793E40E94D3400E942942A5
:102CF00077FD07C0C958DE4F79836883C757D14035
:102D00001EC0C958DE4F19821882C757D14017C05C
:102D100060E070E08FE793E40E94D3400E94294274
:102D200077FD07C0CD58DE4F79836883C357D14004
:102D300006C0CD58DE4F19821882C357D140CD58F6
:102D4000DE4F2881C357D140CC58DE4F3881C4575D
:102D5000D140CB58DE4F4881C557D140CA58DE4FCD
:102D60005881C657D140C958DE4F6881C757D140F6
:102D7000C858DE4F7881C857D140C758DE4F888188
:102D8000C957D140C658DE4F9881CA57D1400E94DA
:102D9000F402A7019601C556DE4F688179818A81C8
:102DA0009B81CB59D1400E94D440C556DE4F6883E9
:102DB00079838A839B83CB59D14020E030E040E285
:102DC00051E4CF5EDE4F688179818A819B81C15158
:102DD000D1400E94E542181614F40C942D0D87ED95
:102DE00094E00E94C43188E0EEE4F2E0DE01119646
:102DF00001900D928A95E1F70FEF10E01A82198287
:102E0000402F1C830B831E821D8218870F8320E0B6
:102E10003A815C8160E07E81802F98850E94F40277
:102E200067E070E080E090E00E94602F015011099F
:102E300029F70C94D00703E010E07FC9DC01599614
:102E4000ED91FC915A973097B9F083899489A589BF
:102E5000B6894285538564857585841B950BA60BC1
:102E6000B70B811520E89207A105B10538F08FEF67
:102E70009FE7A0E0B0E0089580E090E00895CF9350
:102E8000DF931F92CDB7DEB76983DC01ED91FC9132
:102E90000280F381E02D41E050E0BE016F5F7F4F83
:102EA00019950F90DF91CF910895209139073091B6
:102EB0003A072817390771F490913707809138073E
:102EC000981741F0E0913707F0E0E45CF84F80811B
:102ED00090E008958FEF9FEF089508951F93CF938B
:102EE000DF93DC015C962D913C915D9721153105B6
:102EF00039F481E090E013969C938E9312973DC035
:102F00005196ED91FC91529750969C915097892F34
:102F100080951FB75E964C915E9741FB772770F9BD
:102F200041FD6095F8944081772311F0492B01C051
:102F300048234083E9012197F1F748E0508160FF81
:102F400002C0592B01C058235083E9012197F1F7A2
:102F50006695415099F7772321F0908189238083EA
:102F600003C08081982B90831FBF5C968D919C91AC
:102F70005D970197F1F721E030E0C901DF91CF9132
:102F80001F9108952091390730913A072817390782
:102F900071F4809138072091370790E0805C9F4F53
:102FA000821B910960E470E00E94D643089580E09E
:102FB00090E008952091390730913A072817390792
:102FC000B9F49091370780913807981789F0E0910C
:102FD0003707F0E0E45CF84F80812091370730E05C
:102FE0002F5F3F4F2F7333272093370790E00895CB
:102FF0008FEF9FEF08950895E0915708809156084C
:10300000E81730F4F0E0E85AF74F808190E0089537
:103010008FEF9FEF08959091570880915608981769
:1030200050F4E92FF0E0E85AF74F208130E09F5F3D
:103030009093570802C02FEF3FEFC9010895809188
:10304000560890E020915708821B91090895CF936C
:10305000C82F0E949A2FCF5FDC01CB0132E0B695DA
:10306000A795979587953A95D1F7C80F0E949A2F03
:10307000DC01CB0122E0B695A795979587952A9517
:10308000D1F7C81739F08FEC9AE00E94B1251816D5
:10309000190664F78FEC9AE00E94B12518161906FC
:1030A0002CF48FEC9AE00E948F2500C0CF910895F8
:1030B000FC01818D928D009711F00C94B42A089533
:1030C000CF93DF93EC01898D9A8D009739F481E0DD
:1030D00090E09B838A8380E090E00BC0FC01138228
:1030E00012820E94882BE98DFA8D22813381232B55
:1030F00071F7DF91CF910895CF92DF92EF92FF9217
:103100000F931F93CF93DF937C01262F972F8A0174
:103110008091AA0A882391F0C62FD72F6E01C40E82
:10312000D51ECC15DD0571F06991D701ED91FC91AB
:103130000190F081E02DC7011995F3CF642F822F04
:103140000E94E123C801DF91CF911F910F91FF9061
:10315000EF90DF90CF900895CF93DF931F92CDB77C
:10316000DEB769832091AA0A2223D1F02091CD0AEB
:10317000203240F021E030E0FC013383228380E004
:1031800090E015C08091AB0AE82FF0E0E455F54FD0
:10319000998190838F5F8093AB0A8093CD0A05C09D
:1031A00061E0CE0101960E94E12381E090E00F9062
:1031B000DF91CF9108958F929F92BF92CF92DF922D
:1031C000EF92FF920F931F93CF93DF937C0181E0E7
:1031D0000E942718F70180838E3711F080E048C0E5
:1031E00082E30E942718F701818382E30E94271857
:1031F000F7018283C181C11103C0182F8D3308F0FC
:103200001CE3C12ED12CD0E0DC2FCC27C80FD11D60
:10321000CC19DD090FEFB12C8B2C912CF3E08F0E24
:10322000911C8E0C9F1C82E30E942718F40180835E
:10323000B112081BB3941B1578F74601F3E08F0E0B
:10324000911C8E0C9F1C209759F082E30E94271836
:10325000F4018083C130D10509F0081B2197F3CF19
:10326000F701EC0DFD1D83810813B8CF83E0810FBA
:10327000DF91CF911F910F91FF90EF90DF90CF9052
:10328000BF909F908F900895FF920F931F93CF93BD
:10329000DF93CDB7DEB7C054D1090FB6F894DEBFC7
:1032A0000FBECDBFFC018091CE0A8F3F11F481E0AB
:1032B00001C08F5F8093CE0A808184353CF48235D3
:1032C000ECF4813439F0863429F05DC0843509F49A
:1032D00041C059C09181943509F055C098E09C8354
:1032E000813421F48091CE0A8D8301C01D828281B8
:1032F0008E8383818F8357E014E047C0918191349E
:1033000009F041C092819435F1F597E19C838235B3
:1033100051F48091CE0A8D83CE0106960EE012E024
:1033200028E0200F02C01D82F7CFD8013D918D010A
:10333000DC013D93CD012013F8CF8FEF8E878EEF08
:103340008F8782E0888B8381898B84818A8B52E18D
:103350001FE01BC081818835B1F480E18C831D8220
:10336000DE011696EEE0F2E088E08E0F91919D93DB
:103370008E13FCCF8FEF8E878EEF8F87188A198A76
:1033800051E11EE002C080E03DC08EE789831A82D1
:10339000FE0134968FEF93E09F01A1918A1B9F5FFE
:1033A0009513FBCF442389F0562FA1E0B0E0AC0F7A
:1033B000BD1FA90FB11DFB019E2F951B941720F473
:1033C00091919D93891BF8CF140F1B83F901E10F95
:1033D000F11D808384E0F82EF10E00E00F1580F4DB
:1033E000E1E0F0E0EC0FFD1FE00FF11D60818FECDC
:1033F0009AE00E94E825811101C00F2D0F5FEECFEA
:1034000083E0810FC05CDF4F0FB6F894DEBF0FBEC4
:10341000CDBFDF91CF911F910F91FF900895FC01D7
:10342000DB0112968D919C911397938382838BE895
:1034300092E09183808314968C91149784831596DF
:103440008C911597858316964D915D916D917C9128
:10345000199746835783608771871A964D915D91BE
:103460006D917C911D9742875387648775871E965F
:103470004D915D916D917C91519746875787608BF7
:10348000718B52968C915297828B53964D915D9190
:103490006D917C915697438B548B658B768B5796A9
:1034A0004D915D916D917C915A97478B508F618FB3
:1034B000728F5B968D919C915C97948F838F08950A
:1034C000CF93DF93EC01898D9A8D009741F00E9494
:1034D000D61F898D9A8D0E949B441A8E198EDF917A
:1034E000CF910895FC01818D928D009729F00E9463
:1034F000F22A91E0811101C090E0892F0895EF92A6
:10350000FF920F931F93CF93DF93EC017B018A010E
:103510001B821A8288EE93E0A0E0B0E08C839D834A
:10352000AE83BF838BE692E0998388838DE190E040
:103530000E9406449A8F898F009779F02DE1F70158
:10354000DC0101900D922A95E1F74CE050E0B801C2
:10355000CE010C960E945E45188EDF91CF911F918F
:103560000F91FF90EF9008952F923F924F925F92AC
:103570006F927F928F929F92AF92BF92CF92DF9283
:10358000EF92FF920F931F93CF93DF931F921F929F
:10359000CDB7DEB7FC018581882309F4D9C08481C9
:1035A00080FFD6C021E02A834389548965897689C2
:1035B00082859385A485B585481759076A077B07D7
:1035C00009F41A826F013A81832F90E0DE0111968F
:1035D0004D013F01B6E06B0E711C892B09F47DC0D3
:1035E000D6011A964D915D916D917C911D975A016E
:1035F000B1E0BB22F60125811A012B0189E0569426
:103600004794379427948A95D1F7838D948D2230EF
:1036100061F4FC01828D938DA48DB58DBC01CD012B
:10362000620D731D841D951D45C0DC0114961C910F
:1036300011501221A114B104D1F4111118C0452B5D
:10364000462B472B51F4F6018789908DA18DB28DC1
:1036500086839783A087B1870AC04681578160859A
:10366000718593010E941028882309F471C0F60126
:10367000238D348D86819781A085B1850297A1091C
:10368000B109AC01BD01F901058404C0440F551F07
:10369000661F771F0A94D2F786859785A089B1891E
:1036A000840F951FA61FB71FBC01CD01610F711DAF
:1036B000811D911DD60114962C9126FF14C00091F6
:1036C000090210910A0220910B0230910C0260173E
:1036D00071078207930751F506C0FA81FF23C1F1F4
:1036E000898190E037C040E00E942727882381F13C
:1036F000F501EF57F74FD401CF010196E817F9070D
:1037000019F021912D93FACFEFEF8E1A9E0AF60150
:1037100082859385A485B5850196A11DB11D8287FB
:103720009387A487B58780E090E057CF740101E0CC
:1037300010E09501AB01BC018091810A9091820A51
:103740000E94B021882321F0BFEF8B1A9B0ADFCFA4
:103750008FEF9FEF0F900F90DF91CF911F910F91FF
:10376000FF90EF90DF90CF90BF90AF909F908F90A1
:103770007F906F905F904F903F902F900895FC0145
:10378000818D928D009711F00C94B41A8FEF9FEFFA
:1037900008950F931F93CF93DF93FC01818D928D3A
:1037A0000097B9F0EF010E94B41A8C010F3F8FEF20
:1037B000180791F0898D9A8DFC01428553856485A7
:1037C000758541505109610971090E94F22AC801A9
:1037D00005C080E090E002C08FEF9FEFDF91CF91B6
:1037E0001F910F9108951F920F920FB60F921124FF
:1037F0000BB60F922F933F934F935F936F937F93EB
:103800008F939F93AF93BF93EF93FF93E09139070B
:10381000F0913A07309709F451C0968DA685B78587
:10382000858591FF04C09C91892329F447C09C9110
:10383000892309F043C0A389B4899C918589809527
:1038400089238C93868997890197F1F7608D718D13
:10385000A685B785558538E020E0CB010197F1F7C3
:10386000822F90E095958795282F4C91452309F05C
:103870002068315091F7868D81FD20958091380721
:1038800090E001968F73992730913707381749F0E8
:10389000A0913807B0E0A45CB84F2C938093380710
:1038A00003C0868D8160868F828D938D0197F1F79D
:1038B000A389B4899C918589892B8C93FF91EF9181
:1038C000BF91AF919F918F917F916F915F914F9138
:1038D0003F912F910F900BBE0F900FBE0F901F9036
:1038E0001895E0913907F0913A07E817F90769F45C
:1038F000A389B4899C918589809589238C931092A2
:103900003A071092390781E0089580E00895CF9337
:10391000DF93CDB7DEB7EF970FB6F894DEBF0FBEDB
:10392000CDBF9E012B5B3F4FF901419151919F010A
:103930006FE370E0CE0101960E949D45CE01019695
:103940000E94C43187EA94E00E94C431EF960FB61A
:10395000F894DEBF0FBECDBFDF91CF9108958F9257
:103960009F92AF92BF92CF92DF92EF92FF920F930E
:103970001F93CF93DF93CDB7DEB7C054D1090FB6F5
:10398000F894DEBF0FBECDBF49015A017E0121E38D
:10399000E20EF11C870126E04AE00E94E53A6E0142
:1039A00081E2C80ED11C860126E04AE0C501B401BF
:1039B0000E94E53ADF92CF92FF92EF9282E795E084
:1039C0009F938F93005211091F930F930E946D458F
:1039D000C8010E94C43162E070E080E090E00E9483
:1039E000602F0FB6F894DEBF0FBECDBFC05CDF4FB7
:1039F0000FB6F894DEBF0FBECDBFDF91CF911F9100
:103A00000F91FF90EF90DF90CF90BF90AF909F907D
:103A10008F900895AF92BF92CF92DF92EF92FF9274
:103A20000F931F93CF93DF93CDB7DEB76B970FB68E
:103A3000F894DEBF0FBECDBF6B017C015A0105E0DB
:103A400010E069E775E0CE0101960E942832EA8D08
:103A5000FB8D309719F18581882301F143895489C1
:103A600065897689CE0101960E94721AAB2849F4C5
:103A700022E030E0B701A601CE0101960E94D830C5
:103A800006C064E875E0CE0101960E94B031CE0117
:103A900001960E94601A81E090E005C00150110972
:103AA00081F680E090E06B960FB6F894DEBF0FBE13
:103AB000CDBFDF91CF911F910F91FF90EF90DF90DD
:103AC000CF90BF90AF900895CF92DF92EF92FF9288
:103AD0000F931F93CF93DF93CDB7DEB76B970FB6DE
:103AE000F894DEBF0FBECDBF7C0181E995E00E9456
:103AF000C4310E949A2FF701648B758B868B978B4C
:103B00000EE110E068EA75E0CE0101960E942832CD
:103B1000EA8DFB8D309709F457C08581882309F41D
:103B200053C04389548965897689CE0101960E94E4
:103B3000721A64E674E0CE0101960E94B03164EB23
:103B400075E0CE0101960E94E534F701448955895C
:103B5000668977892AE0CE0101960E948F306AEB50
:103B600075E0CE0101960E94E534F701C08CD18C3E
:103B70000D2C000CEE08FF08F7FE0EC06DE2CE0122
:103B800001960E94DE3444275527BA014C195D097D
:103B90006E097F092AE003C02AE0B701A601CE0121
:103BA00001960E948F3063EC75E0CE0101960E9471
:103BB000E534CE0101960E94601A86EC95E00E94E1
:103BC000C43181E090E00AC00150110909F09ACF98
:103BD00080EE95E00E94C43180E090E06B960FB6D5
:103BE000F894DEBF0FBECDBFDF91CF911F910F9133
:103BF000FF90EF90DF90CF90089585ED8093BC000B
:103C00008091BC0084FDFCCF1092A90A0895CF9248
:103C1000DF92EF92FF920F931F93CF93DF936C018C
:103C20008B017A01EC01C350D84F888187FF04C013
:103C3000FB011182108224C08CE08C9D90018D9D2F
:103C4000300D11248881A901480F511D87FD5A9517
:103C50008091530C90E04817590794F48881A9018A
:103C6000480F511D87FD5A95CA01FA01EE0FFF1F3B
:103C70008E0F9F1FFC01ED53F44F808186FD19C00C
:103C800088818F5F88838CE08C9D90018D9D300DA5
:103C900011248881A901480F511D87FD5A958091F3
:103CA000530C90E048175907BCF488818C3044F1DC
:103CB00013C08881280F311D87FD3A95F901EE0F59
:103CC000FF1F2E0F3F1FF901ED53F44F808160E07D
:103CD0008F730E94DE2DD4CFF801808191810496EC
:103CE00080349C4918F480E49CE904C0F801808188
:103CF00091810496F701918380838FEF888345C07B
:103D0000F801408151818881B901680F711D87FDDB
:103D10007A95CB01FB01EE0FFF1F8E0F9F1FFC0159
:103D2000ED53F44F81819281840F951FF7019183A8
:103D300080838881A901480F511D87FD5A95CA01CA
:103D4000FA01EE0FFF1F8E0F9F1FFC01ED53F44F82
:103D5000808186FF1AC08881280F311D87FD3A9522
:103D6000F901EE0FFF1F2E0F3F1FF901ED53F44F26
:103D7000808161E08F73DF91CF911F910F91FF9050
:103D8000EF90DF90CF900C94DE2DDF91CF911F91BB
:103D90000F91FF90EF90DF90CF9008958F929F92B8
:103DA000AF92BF92CF92DF92EF92FF920F931F9349
:103DB000CF93DF9300D01F92CDB7DEB77C0180E2B6
:103DC000689F6001112496012F57374FD9011B9628
:103DD0009C91917121F0842F827409F097C0142F67
:103DE000F701628B8091090290910A02A0910B0267
:103DF000B0910C0286879787A08BB18BF601EF57A5
:103E0000F74F4489558960E070E0BA01552744278F
:103E1000D70157964D935D936D937C935A97828DFE
:103E2000938DA0E0B0E0482B592B6A2B7B2BD70158
:103E300057964D935D936D937C935A97D9011B963A
:103E40008C91887159F4848D958DA68DB78DF7016D
:103E5000838B948BA58BB68B81E012C0803109F0E7
:103E600055C097012D5E3F4FD7015B968D919C9178
:103E70005C970E949428882309F448C084E0F701E5
:103E80008583812F8F70D70114968C931497F70137
:103E900016821782108611861A961D921D921D9207
:103EA0001C921D9716FF34C015968C91813071F5C8
:103EB00011FF2CC0F7014389548965897689452B08
:103EC000462B472B09F461C040E050E0BA01C7011E
:103ED0000E94F22A8823D1F0F7018788908CA18C68
:103EE000B28CC38CD48C82E090E0A0E0B0E0F6010C
:103EF00080839183A283B3839E012F5F3F4FB501DF
:103F0000A401C6010E941028811104C080E03DC0B8
:103F100081E03BC000E010E09801B501A401C601BA
:103F20000E947027882391F389809A80AB80BC809F
:103F3000D60157968C91803129F088EF9FEFAFEF33
:103F4000BFE004C088EF9FEFA0E0B0E088169906BC
:103F5000AA06BB0688F2D70157961D921D921D92A4
:103F60001C925A97F701138A148A158A168A84813B
:103F700080688483C7010E94B42A882339F240E014
:103F800050E0BA01C7010E94F22A0F900F900F90E3
:103F90000F90DF91CF911F910F91FF90EF90DF90E5
:103FA000CF90BF90AF909F908F900895CF93DF9365
:103FB000EC010E94B42A882311F01D8281E0DF9178
:103FC000CF9108953F924F925F926F927F928F921E
:103FD0009F92AF92BF92CF92DF92EF92FF920F9398
:103FE0001F93CF93DF93CDB7DEB72C970FB6F8941E
:103FF000DEBF0FBECDBF5C01DC015B968D909C9057
:104000005C971696CD90DD90ED90FC901997C114B9
:10401000D104E104F10439F0BFEFCB1ADB0AEB0A5B
:10402000FB0A312C07C0F401C080D180E280F3800C
:1040300033243394F40181859285A385B4859C0152
:10404000AD012F5F3F4F4F4F5F4F29873A874B8717
:104050005C87260137011D821E821F821886F401AB
:1040600081859285A385B4852D813E814F815885B8
:10407000281739074A075B0708F063C089859A85C6
:10408000AB85BC858C159D05AE05BF0550F482E05F
:10409000C82ED12CE12CF12C92E0492E512C612C10
:1040A000712C9E012F5F3F4FB701A601C4010E94F2
:1040B0001028882309F445C089819A81AB81BC818D
:1040C000892B8A2B8B2B41F0260137019FEF491A50
:1040D000590A690A790A05C0C414D504E604F7042C
:1040E00091F02D813E814F8158852F5F3F4F4F4F7B
:1040F0005F4F2D833E834F8358873FEFC31AD30A08
:10410000E30AF30AACCF0FEF1FEF2FEF3FE0B3014D
:10411000A201C4010E947027882399F0D501169648
:104120004D915D916D917C911997411551056105F6
:10413000710549F093018201C4010E947027811129
:1041400002C080E02AC0D50116964D925D926D9214
:104150007C921997332051F0D301C2010196A11D21
:10416000B11DF40180839183A283B383F501878914
:10417000908DA18DB28D892B8A2B8B2B69F4D50163
:1041800057964D925D926D927C925A9714968C91AF
:104190001497806814968C9381E02C960FB6F8944F
:1041A000DEBF0FBECDBFDF91CF911F910F91FF906A
:1041B000EF90DF90CF90BF90AF909F908F907F90C7
:1041C0006F905F904F903F9008958FB7F8948091D3
:1041D00049088FBF089561E0FC0184810E94DE2DB3
:1041E0008091480881111092480808958EBD000002
:1041F0000DB407FEFDCF8EB508958FEF0C94F62019
:104200000F931F93CF93DF93EB010E949A2F8B01A3
:104210000E94FD208F3F49F00E949A2F601B710B76
:104220006C177D07A8F380E001C081E0DF91CF919A
:104230001F910F910895CF93DF93EC018E81882316
:1042400089F08F8198859C012F5F3F4F38872F839E
:104250008230924018F40E94FD20F3CFCE010E94DC
:10426000EB201E82DF91CF9108958CBD9DBD0895F6
:10427000CF93DF93EC0180914808811109C081E060
:104280008093480880916C0B90916D0B0E943521B2
:1042900060E08C81DF91CF910C94DE2DCF92DF9284
:1042A000FF920F931F93CF93DF9300D01F92CDB750
:1042B000DEB76C01F62E29833A834B835C830E9420
:1042C0001B21C6010E9438216CE271E0C6010E94E8
:1042D00000218F2D80640E94F62008E110E05C81AF
:1042E0004B813A812981DA01C901002E04C0B695BB
:1042F000A795979587950A94D2F729833A834B839C
:104300005C830E94F6200850110929813A814B8173
:104310005C81083F8FEF180731F7FF2029F0E8E0B4
:10432000FE1204C087E803C085E901C08FEF0E9438
:10433000F62010E00E94FD20F601828787FF04C06E
:104340001F3F11F01F5FF6CF0F900F900F900F904F
:10435000DF91CF911F910F91FF90DF90CF90089543
:10436000AF92BF92CF92DF92EF92FF920F931F9383
:10437000CF93DF93EC016901C801820F931F813055
:10438000924008F070C08E81882371F088819981F5
:10439000AA81BB81481759076A077B0729F48F81D7
:1043A0009885C816D906B0F5488359836A837B83FC
:1043B0008B85833039F089E0440F551F661F771FC6
:1043C0008A95D1F79A01AB0161E1CE010E944E219D
:1043D000882319F083E08D8346C00E949A2F5B01E9
:1043E0000E94FD208A878F3F49F40E949A2F6A1904
:1043F0007B096D327140A0F38FE003C08E3F31F036
:104400008DE08D83CE010E94EB202DC018861F8287
:1044100081E08E838F8198858C159D0540F40E94E4
:10442000FD208F819885019698878F83F3CF670150
:10443000E00EF11ECE14DF0431F00E94FD20F601E3
:1044400081936F01F7CF8F819885080F191F188707
:104450000F838985882319F00115124048F0CE0199
:104460000E941B2105C0CE010E94EB2080E001C00C
:1044700081E0DF91CF911F910F91FF90EF90DF903E
:10448000CF90BF90AF900895EF92FF920F931F933C
:10449000CF93DF93EC017901411551056105710559
:1044A00011F482E13CC08B85833039F089E0440F00
:1044B000551F661F771F8A95D1F79A01AB0168E1F6
:1044C000CE010E944E21882311F084E028C08EEF97
:1044D0000E94F62087018EEFF81AF80181918F0172
:1044E0000E94F6200E151F05C1F78FEF0E94F620DF
:1044F0008FEF0E94F6200E94FD208A878F71853001
:1045000031F081E18D83CE010E94EB2009C068E586
:1045100072E0CE010E940021811107C085E18D83E8
:10452000CE010E94EB2080E013C020E030E0A90122
:104530006DE0CE010E944E21811104C00E94FD2039
:10454000882311F084E1EBCFCE010E94EB2081E0C3
:10455000DF91CF911F910F91FF90EF9008951F92DF
:104560000F920FB60F9211240BB60F922F933F9319
:104570004F935F936F937F938F939F93AF93BF936B
:10458000EF93FF938091B900887F803609F49CC037
:1045900068F5883209F45BC090F4803109F454C0A6
:1045A00038F4882309F4F6C0883009F44DC0F6C009
:1045B000883109F44CC0803209F45DC0EFC080340A
:1045C00009F468C048F4803309F455C0883309F011
:1045D000E5C08093A70AD8C0803509F44FC088355C
:1045E00009F45DC0883409F0D9C0D6C0883909F40F
:1045F000C7C0A8F4883709F467C038F4883609F4CE
:1046000063C0803709F460C0C9C0883809F4B8C0F5
:10461000803909F45FC0803809F0C0C05BC0803BBE
:1046200009F486C038F4803A09F466C0883A09F47F
:104630007FC0B4C0803C09F4A7C0883C09F4A4C082
:10464000883B09F48AC0AAC08091840A10C0909166
:10465000A60A8091A50A981770F5E091A60A81E054
:104660008E0F8093A60AF0E0EB57F54F8081809380
:10467000BB0085EC86C08093A70A8EC0E091A60A95
:1046800081E08E0F8093A60A8091BB00F0E0EB578B
:10469000F54F80839091A60A8091A50A6EC0E091A3
:1046A000A60A81E08E0F8093A60A8091BB00F0E0FD
:1046B000EB57F54F80838091A80A81116DC081E08E
:1046C0008093830A84EA61C083E08093A90A1092F0
:1046D0004708CFCF80914708803208F051C0E09161
:1046E000470881E08E0F809347088091BB00F0E07F
:1046F000E95DF74F8083BDCF85EC8093BC001092BD
:10470000A90A80914708803230F4E0914708F0E030
:10471000E95DF74F10826091470870E0E09125084D
:10472000F091260887E298E019951092470836C064
:1047300084E08093A90A1092240810922308E09143
:104740002108F0912208199580912308811105C054
:1047500081E08093230810920108E091240881E011
:104760008E0F80932408F0E0EF5FF74F80818093F5
:10477000BB009091240880912308981708F479CF02
:1047800085E88093BC000AC085EC8093BC00109241
:10479000A90A04C01092A70A0E94FD1DFF91EF9183
:1047A000BF91AF919F918F917F916F915F914F9149
:1047B0003F912F910F900BBE0F900FBE0F901F9047
:1047C000189540912308262F30E0240F311D213207
:1047D0003105DCF42091A90A2430C9F4FC0180E001
:1047E00090E0861758F4309123082191DC01AF5FE7
:1047F000B74FA30FB11D2C930196F3CF80912308DF
:10480000680F6093230880E0089581E0089582E0B6
:1048100008951F920F920FB60F9211240BB60F92AC
:104820002F933F934F935F936F937F938F939F93B8
:10483000AF93BF93EF93FF9348E251E064E271E0DE
:1048400080E090E00E94071EFF91EF91BF91AF9131
:104850009F918F917F916F915F914F913F912F9198
:104860000F900BBE0F900FBE0F901F9018951F92C8
:104870000F920FB60F9211240BB60F922F933F9306
:104880004F935F936F937F938F939F93AF93BF9358
:10489000EF93FF9348EA50E064EA70E083E090E031
:1048A0000E94071EFF91EF91BF91AF919F918F9151
:1048B0007F916F915F914F913F912F910F900BBE20
:1048C0000F900FBE0F901F9018951F920F920FB66A
:1048D0000F9211240BB60F922F933F934F935F9338
:1048E0006F937F938F939F93AF93BF93EF93FF93B8
:1048F00048E950E064E970E082E090E00E94071E21
:10490000FF91EF91BF91AF919F918F917F916F91A7
:104910005F914F913F912F910F900BBE0F900FBE63
:104920000F901F9018951F920F920FB60F9211249F
:104930000BB60F922F933F934F935F936F937F9399
:104940008F939F93AF93BF93EF93FF9348E850E00B
:1049500064E870E081E090E00E94071EFF91EF9113
:10496000BF91AF919F918F917F916F915F914F9187
:104970003F912F910F900BBE0F900FBE0F901F9085
:1049800018952F923F924F925F926F927F928F92E3
:104990009F92AF92BF92CF92DF92EF92FF920F93CE
:1049A0001F93CF93DF931F921F92CDB7DEB7FC0109
:1049B0008B018081813469F48181843509F582819C
:1049C0008735C9F483818235B1F434E6232E312C46
:1049D00014C08235A9F48181813491F482818435B7
:1049E00079F48381873561F48481823549F424E642
:1049F000222E312C07C0212C312C20E030E004C0C5
:104A0000212C312C21E03AE0B801CF012A833983EF
:104A10000E9444192A813981882309F460C08AE000
:104A2000682E9CE0792E432E512C62018AE0C80E3C
:104A3000D11CE12CF12C4101A12CB12C400E511EB6
:104A4000E7E04E0E511CC701B6012A830E94602F79
:104A50002A812114310429F0C501B4010E94602F7C
:104A60002A81C8012A830E94DB182A81882369F1E0
:104A7000F8018381883819F4222329F00DC0873981
:104A800059F4213049F4F80194818091CE0A9813A9
:104A900003C0F201708019C03091FC073230A8F4D5
:104AA000D801F0E43F9FA001112480E090E06D91D7
:104AB000FC01E40FF51FE458F84F60830196803441
:104AC0009105A9F73F5F3093FC076A94662019F0BF
:104AD0007110B9CF0CC0172D772049F001C01BE031
:104AE00068EE73E080E090E00E94602F712E81E01C
:104AF000711080E00F900F90DF91CF911F910F9177
:104B0000FF90EF90DF90CF90BF90AF909F908F90ED
:104B10007F906F905F904F903F902F900895FC0191
:104B2000918D828D981761F0828DDF01A80FB11DE4
:104B30005D968C91928D9F5F9F73928F90E0089508
:104B40008FEF9FEF0895FC01918D828D981731F0C2
:104B5000828DE80FF11D858D90E008958FEF9FEF16
:104B60000895FC01918D228D892F90E0805C9F4FEC
:104B7000821B91098F73992708958FEC9AE00E9408
:104B8000B12521E0892B09F420E0822F0895FC0152
:104B9000848DDF01A80FB11DA35ABF4F2C91848DC6
:104BA00090E001968F739927848FA689B7892C93FB
:104BB000A089B1898C9180648C93938D848D981396
:104BC00006C00288F389E02D80818F7D808308955F
:104BD000EF92FF920F931F93CF93DF93EC0181E04D
:104BE000888F9B8D8C8D981305C0E889F989808109
:104BF00085FD24C0F62E0B8D10E00F5F1F4F0F7345
:104C00001127E02E8C8DE8120CC00FB607FCFACFEE
:104C1000E889F989808185FFF5CFCE010E94C725FB
:104C2000F1CF8B8DFE01E80FF11DE35AFF4FF082AB
:104C30000B8FEA89FB898081806207C0EE89FF893A
:104C40006083E889F98980818064808381E090E0D5
:104C5000DF91CF911F910F91FF90EF900895CF9327
:104C6000DF93EC01888D8823C9F0EA89FB89808174
:104C700085FD05C0A889B9898C9186FD0FC00FB646
:104C800007FCF5CF808185FFF2CFA889B9898C9187
:104C900085FFEDCFCE010E94C725E7CFDF91CF91F1
:104CA000089580E090E0892B21F00E94BD258111BC
:104CB00025C080E090E0892B41F080E090E0892BD6
:104CC00021F00E94000081111CC080E090E0892B3F
:104CD00041F080E090E0892B21F00E9400008111DA
:104CE00013C080E090E0892BA1F080E090E0892B58
:104CF00081F00E94000081110AC008950E94000006
:104D0000D8CF0E940000E1CF0E940000EACF0C94AF
:104D1000000008950E94334580914A088823A9F134
:104D20004091090250910A0260910B0270910C02AD
:104D300021E838E08091810A9091820A0E94442201
:104D4000811102C080E0089540914B0850914C08B9
:104D500060914D0870914E0841155105610571052E
:104D600091F021E838E08091810A9091820A0E94B6
:104D70004422882339F310924B0810924C08109269
:104D80004D0810924E0810924A0881E008951F9233
:104D90000F920FB60F9211240BB60F922F933F93E1
:104DA0004F935F936F937F938F939F93AF93BF9333
:104DB000EF93FF938FEC9AE00E94C725FF91EF914C
:104DC000BF91AF919F918F917F916F915F914F9123
:104DD0003F912F910F900BBE0F900FBE0F901F9021
:104DE00018951F920F920FB60F9211240BB60F92C7
:104DF0002F938F939F93EF93FF93E091DF0AF091AE
:104E0000E00A8081E091E50AF091E60A82FD12C095
:104E100090818091E80A8F5F8F732091E90A821751
:104E200051F0E091E80AF0E0E153F54F958F80935F
:104E3000E80A01C08081FF91EF919F918F912F919E
:104E40000F900BBE0F900FBE0F901F9018958F9272
:104E50009F92AF92BF92EF92FF920F931F93CF93C7
:104E60004B015C01C42F8091090290910A02A0912C
:104E70000B02B0910C0288159905AA05BB0501F13A
:104E80000E948C26811102C080E020C081E8E82EBB
:104E900088E0F82E00E012E020E030E0B501A40147
:104EA0008091810A9091820A0E94B021882361F347
:104EB0008092090290920A02A0920B02B0920C0218
:104EC00080914A08C82BC0934A0881E0CF911F9176
:104ED0000F91FF90EF90BF90AF909F908F900895AB
:104EE0004F925F926F927F928F929F92AF92BF92FA
:104EF000CF92DF92EF92FF920F931F93CF93DF93A6
:104F0000EC016A017B01280139014230510561053C
:104F1000710510F480E073C089859A85AB85BC85E6
:104F20000196A11DB11D84179507A607B70790F339
:104F30008B889C88AD88BE888F89803129F4BB27F7
:104F4000AF2D9E2D8D2D09C0DB01CA0147E0B6951E
:104F5000A795979587954A95D1F7880E991EAA1E11
:104F6000BB1E8091090290910A02A0910B02B091A0
:104F70000C0288169906AA06BB0679F48F8980313F
:104F8000A1F4DD24EE24FF24C601880F991FFC0143
:104F9000EF57F74F5182408219C040E0C501B4017C
:104FA0000E9427278111EACFB5CFE894C7F8DD2406
:104FB000EE24FF24C601880F991F880F991FFC015A
:104FC000EF57F74F408251826282738280914A0884
:104FD000816080934A088A89823080F08D819E8129
:104FE000AF81B885880E991EAA1EBB1E80924B0801
:104FF00090924C08A0924D08B0924E0881E0DF914B
:10500000CF911F910F91FF90EF90DF90CF90BF90C5
:10501000AF909F908F907F906F905F904F9008958A
:105020008F929F92AF92BF92CF92DF92EF92FF92B8
:105030000F931F93CF93DF93FC0181859285A38506
:10504000B4850196A11DB11D84179507A607B70762
:1050500010F480E05CC083899489A589B689C789EA
:10506000C03129F4852E962EA72EBB2409C04A01F3
:105070005B01C7E0B694A79497948794CA95D1F73B
:10508000E9016A017B018F01BC01CD01680D791D29
:105090008A1D9B1D8090090290900A02A0900B022D
:1050A000B0900C02681579058A059B0599F4F80102
:1050B00087898031A9F4B701A6015527662777278C
:1050C000440F551FFA01EF57F74F80819181A0E0FF
:1050D000B0E018C040E00E9427278111E8CFB9CF87
:1050E000B701A6014F77552766277727440F551F2D
:1050F000440F551FFA01EF57F74F80819181A2812C
:10510000B381BF7088839983AA83BB8381E0DF91D9
:10511000CF911F910F91FF90EF90DF90CF90BF90B4
:10512000AF909F908F9008954F925F926F927F9271
:10513000AF92BF92CF92DF92EF92FF920F931F93A5
:10514000CF93DF9300D01F92CDB7DEB78C01498398
:105150005A836B837C835901C12CD12C7601412C5D
:1051600082E0582E612C712C49815A816B817C819F
:105170009E012F5F3F4FC8010E941028882351F1E4
:10518000D301C201F801058404C0880F991FAA1F2A
:10519000BB1F0A94D2F7C80ED91EEA1EFB1E498116
:1051A0005A816B817C818789803129F088EF9FEF5C
:1051B000AFEFBFE004C088EF9FEFA0E0B0E048177A
:1051C00059076A077B0780F2F501C082D182E2822B
:1051D000F38281E00F900F900F900F90DF91CF91AD
:1051E0001F910F91FF90EF90DF90CF90BF90AF9005
:1051F0007F906F905F904F9008954F925F926F9263
:105200007F92AF92BF92CF92DF92EF92FF920F9375
:105210001F93CF93DF93CDB7DEB72B970FB6F894DC
:10522000DEBF0FBECDBF7C01CE0101966C01FC013B
:1052300090E28BE08C0D91938E13FDCFDA0130E07C
:1052400047E09D91992339F19E3219F0EDE4F4E0A5
:105250000AC04A3009F472C138E04AE0F2CF319610
:10526000891709F46BC184918111F9CF431708F4B0
:1052700065C18FED890F8E3508F060C181E0830F25
:10528000F601E30FF11D3FE9390F3A3108F490526E
:105290009083382FD6CF8981803209F44FC1B22E46
:1052A0008B01DB015B968D919C915C97F701948F4C
:1052B000838F16961D921D921D921C921997FB01C9
:1052C0001286138614861586712CF80182859385C3
:1052D000A485B5854389548965897689841795079E
:1052E000A607B70708F061C025E0B695A795979582
:1052F00087952A95D1F7F82FFF706F2ED801159654
:105300008C91823008F41AC1C8010E94B41A97FD2A
:1053100015C1F80182859385A485B5854F96A11D99
:10532000B11D82879387A487B587F0E26F9EC00185
:105330001124BC016F57774F6115710509F4FEC048
:10534000DB012C91222319F0253EC1F427C07110F6
:105350000EC0F701628A4091090250910A026091E1
:105360000B0270910C0246875787608B718BFC0192
:10537000EF57F74F8081811113C015C04BE050E00B
:10538000C6010E943845892B09F09FCF8B2D807371
:10539000803309F4D3C04B2D662DCCC07720C9F2E1
:1053A0007724739492CF772473948B2D82718231FA
:1053B00009F0C4C07720D1F0D7011E966D917D9180
:1053C0008D919C91519741E00E942727882309F4F1
:1053D000B5C0F7016289F0E26F9FB00111246F57E9
:1053E000774F6115710509F079C0A8C0D8011596ED
:1053F0008C91823009F4A2C0C8010E94E21F882368
:1054000009F49CC0D8015B96ED91FC915C971696CF
:105410004D905D906D907C901997B2E04B1A5108B9
:1054200061087108058404C0440C551C661C771C77
:105430000A94D2F786859785A089B189480E591EAE
:105440006A1E7B1EA480E1E04E1A510861087108B3
:10545000AA2009F10E948C26882309F46FC0E1E894
:10546000F8E011922AE0E138F207D9F7D301C2013E
:105470008A0D911DA11DB11D8093090290930A020E
:10548000A0930B02B0930C0280914A088160809334
:105490004A08AA94DDCFD8015B96ED91FC915C9708
:1054A00080E092E0A0E0B0E0058404C0880F991F7E
:1054B000AA1FBB1F0A94D2F7F80143895489658952
:1054C0007689840F951FA61FB71F838B948BA58B9E
:1054D000B68BD70152961C9261E878E080E2FB011E
:1054E00011928A95E9F78BE0F601DB0101900D92AC
:1054F0008A95E1F781E298E2DB0151969C938E93C5
:10550000509720E038E01F963C932E931E975396B9
:105510009C938E93529759969C938E935897579637
:105520003C932E9356970E948C26882339F04B2D5E
:10553000F7016289C7010E94CE1E01C080E02B9650
:105540000FB6F894DEBF0FBECDBFDF91CF911F9194
:105550000F91FF90EF90DF90CF90BF90AF907F9032
:105560006F905F904F900895CF93DF93EC018D8102
:105570008823A1F18C8187FF2DC06E857F85888966
:10558000998941E00E942727882341F1EA8980E236
:10559000E89FF0011124DF01AF57B74F1097F1F0EA
:1055A0008D81823050F44B895C896D897E895C964F
:1055B0004D935D936D937C935F978F89988DA98DA3
:1055C000BA8DEF57F74F938F828FB58BA48B8C8159
:1055D0008F778C83DF91CF910C948C2680E0DF91C4
:1055E000CF9108958F929F92AF92BF92CF92DF9208
:1055F000EF92FF920F931F93CF93DF93EC018D8176
:10560000811102C080E077C00B891C892D893E89F9
:105610000417150726073707A8F36A017B018230B4
:1056200029F4CA86DB86EC86FD860DC0C114D10440
:10563000E104F10451F41E821F82188619861A862D
:105640001B861C861D8681E056C08A849B84AC84A0
:10565000BD84EB8DFC8D258530E0275F3F4FB50184
:10566000A4014150510961097109022E04C07695C7
:105670006795579547950A94D2F7D701C6010197C8
:10568000A109B10904C0B695A795979587952A9564
:10569000D2F784179507A607B70720F089288A282C
:1056A0008B2849F44F89588D698D7A8D4E835F839D
:1056B0006887798704C0841B950BA60BB70B4C0138
:1056C0005D018E010A5F1F4F81149104A104B10492
:1056D00009F4A7CF4E815F816885798598018B8D0C
:1056E0009C8D0E94102891E0891A9108A108B108A8
:1056F0008111EACF87CFDF91CF911F910F91FF905A
:10570000EF90DF90CF90BF90AF909F908F900895D3
:105710002F923F924F925F926F927F928F929F92C1
:10572000AF92BF92CF92DF92EF92FF920F931F93AF
:10573000CF93DF9300D01F92CDB7DEB78C015B0112
:105740001A01DC0115968C9115978130C9F41496D5
:105750008C9181FF15C082FF1BC0F80143895489D9
:105760006589768982859385A485B5858417950793
:10577000A607B70769F0C8010E94F22A811108C084
:1057800081E090E0F8019383828380E090E039C16A
:10579000610183C0D8015B968D919C915C97FC015F
:1057A000248121502A013B0139E076946794579473
:1057B00047943A95D1F7722E74207A01F1E0FF22D6
:1057C000772009F476C080E092E08E199F094601A7
:1057D0008C159D0508F44C01D8015B962D913C91E8
:1057E0005C9716968D919D910D90BC91A02D02977E
:1057F000A109B109F901058404C0880F991FAA1FE6
:10580000BB1F0A94D2F74685578560897189840F3A
:10581000951FA61FB71F9C01AD01270D311D411D0E
:10582000511D29013A01811432E0930609F088C024
:105830008091090290910A02A0910B02B0910C0292
:1058400084159505A605B70559F48FEF9FEFDC0188
:105850008093090290930A02A0930B02B0930C026A
:105860009501B301A2018091810A9091820A0E9460
:105870004422882309F484CF9EEFB91AC818D908A6
:10588000F80182859385A485B585880D991DA11D94
:10589000B11D82879387A487B587D8011A964D9149
:1058A0005D916D917C911D97C114D10409F072CF67
:1058B00087C0E114F10409F086CF16964D915D91F1
:1058C0006D917C911997411551056105710559F448
:1058D00057968D919D910D90BC91A02D0097A1059B
:1058E000B10541F521C09E012F5F3F4F0E94102856
:1058F000882309F44BCF89819A81AB81BC81F8015F
:10590000238D348DF9012789203129F048EF5FEF8D
:105910006FEF7FE004C048EF5FEF60E070E0841756
:105920009507A607B70730F0C8010E94E21F811152
:105930004ACF26CFF80186839783A087B18743CFCC
:10594000E114F10429F5D8011A964D915D916D91FC
:105950007C911D9753968D919D910D90BC91A02D9A
:10596000481759076A077B0798F00E948C268823FE
:1059700009F406CF4092090250920A0260920B028B
:1059800070920C0280914A08816080934A0808C096
:1059900041E0C301B2010E942727882309F4F0CE19
:1059A000D501F701EF57F74FCF01880D991DE81783
:1059B000F90719F02D912193FACFA80CB91C5ECFED
:1059C00053968D919D910D90BC91A02D84179507B4
:1059D000A607B70740F4F801438B548B658B768B91
:1059E000848180688483D80114968C9183FD02C0E1
:1059F000C10107C0C8010E94B42A882309F4C0CE9F
:105A0000F7CF0F900F900F900F90DF91CF911F91D4
:105A10000F91FF90EF90DF90CF90BF90AF909F904D
:105A20008F907F906F905F904F903F902F90089550
:105A3000CF93DF931F92CDB7DEB7698341E050E08B
:105A4000BE016F5F7F4F0E94882B0F90DF91CF9137
:105A500008953FB7F89480917D0890917E08A091B9
:105A60007F08B091800826B5A89B05C02F3F19F08C
:105A70000196A11DB11D3FBFBA2FA92F982F8827CE
:105A8000820F911DA11DB11DBC01CD0142E0660F29
:105A9000771F881F991F4A95D1F70895EF92FF92BB
:105AA0000F931F93CF93DF931F92CDB7DEB7162FBF
:105AB000F42E01E00093AA0A4093CC0A1092AB0A9C
:105AC0001092CD0A682F87EB9BE079830E94AC1877
:105AD00081E00E9427330093AA0AF092CC0A109228
