:100000000C94C1020C94F2020C94F2020C94F202D1
:100010000C94F2020C94F2020C94F2020C94F20290
:100020000C94F2020C94BA260C94BA260C94BA26BC
:100030000C94F2020C94B0290C94F2020C94F2028B
:100040000C94F2020C947F1A0C94F2020C94F202BB
:100050000C94F2020C94F2020C94F2020C946629B5
:100060000C94F2020C940F1C0C94E51B0C94F202FD
:100070000C94F2020C94F2020C94F2020C94F20230
:100080000C94511A0C94F2020C94F2020C94F202A9
:100090000C94F2020C94F2020C94F2020C949B1851
:1000A0000C94F2020C94F2020C94231A0C94F202B7
:1000B0000C94F2020C94F2020C94F2020C94F519D6
:1000C0000C94F2020C94F2020C94F2020C94F202E0
:1000D0000C94F2020C94F2020C94F2020C94F202D0
:1000E0000C94F202580D5B0D5E0D610D640D670DF1
:1000F0006A0DCD27D027BF27C327C7270728D427B6
:10010000D827DE27E227E627EC27F027F427072861
:10011000FA27FE270228802885288A2894289E28E6
:100120001729A828B028B828C228CC28D628E5281E
:10013000EF281729F92803290D29084AD73B3BCE78
:10014000016E84BCBFFDC12F3D6C74319ABD5683D6
:100150003DDA3D00C77F11BED9E4BB4C3E916BAA8E
:10016000AABE000000803F072C7AA5BA6CC590DAC1
:100170003B9365FC8BBC53F810FD3C5692834DBD00
:10018000879D3AB63DCBC9BF5BBE73DA0FC93F0549
:10019000A84CCDB2D44EB93836A9020C50B99186CC
:1001A00088083CA6AAAA2ABE000000803F080000DA
:1001B00000BE922449123EABAAAA2ABECDCCCC4C9A
:1001C0003E00000080BEABAAAAAA3E00000000BF0D
:1001D000000000803F0000000000084178D3BB43CE
:1001E00087D1133D190E3CC3BD4282AD2B3E68EC56
:1001F0008276BED98FE1A93E4C80EFFFBE01C4FFDD
:100200007F3F0000000000000C94CF1A0C94C2281D
:100210000C94CF220C94D6280C9401220C947327B2
:100220000C9417290C9455220C94D7220C94F9287D
:100230000C94AD1A0C9402280C94D4270C94CD275E
:100240000C9408030C945B0D0C94670D0C948E2297
:100250000C94D0270C94F4020C94E5280C940329F8
:100260000C945E0D0C940D290C9480280C94400382
:100270000C94E2270C94D8270C94C3270C94A81B49
:100280000C949E280C9486260C948F220C9407289C
:100290000C94B1210C946A0D0C94A8280C94B028ED
:1002A0000C94F4270C94F0270C94640D0C94C11A50
:1002B0000C94061B0C94610D0C94CC280C94580DD6
:1002C0000C9418390C9400220C94DE270C94FA2715
:1002D0000C94E6270C9490260C94B8280C94EF28E4
:1002E0000C94D2210C94E8210C94BF270C94C727BE
:1002F0000C946D220C9410030C9494280C944D1BB8
:100300000C9485280C940E390C94A0210C94FE2793
:100310000C948A280C94EC274E414E494E4954596E
:10032000494E46CDCCCC3D0AD7233C17B7D13877C0
:10033000CC2B329595E6241FB14F0A0000204100D6
:1003400000C84200401C4620BCBE4CCA1B0E5AAE20
:10035000C59D7400407A10F35A00A0724E1809002F
:1003600010A5D4E80000E87648170000E40B54021A
:100370000000CA9A3B000000E1F505000080969855
:1003800000000040420F000000A0860100000010A5
:100390002700000000E803000000006400000000E7
:1003A000000A00000000000100000000002C76D8C8
:1003B00088DC674F0823DFC1DFAE59E1B1B796E5AE
:1003C000E3E453C63AE651997696E8E6C28426EB12
:1003D000898C9B62ED407C6FFCEFBC9C9F40F2BA25
:1003E000A56FA5F490055A2AF75C936B6CF9676DBD
:1003F000C11BFCE0E40D47FEF520E6B500D0ED9012
:100400002E0300943577050080841E080000204EDE
:100410000A000000C80C333333330F986E12831177
:1004200041EF8D2114893BE65516CFFEE6DB18D14E
:10043000844B381BF77C1D901DA4BBE42420328420
:10044000725E228100C9F124ECA1E53D2700002263
:1004500000250028002B002E00310034000201008E
:1004600000050108010B01000020002300260029DF
:10047000002C002F003200000100000301060109DA
:100480000105050505070508080808020202020A19
:100490000A08080404040401010101010101010327
:1004A00003030303030303040707070C0C0C0C0CE2
:1004B0000C0C0C0202020206060606060606060BD5
:1004C0000B0B0B0B0B0B0B0102102020080810204C
:1004D00040102040800201020108040201010204D0
:1004E000081020408080402010080402018004028F
:1004F00001804020100804020108040201010204E6
:10050000081020408001020408102040807C3C3EFE
:100510005E2B3D3F2F5B5D3B2C2A225C00020000DE
:100520002100240027002A002D00300033000101A3
:100530000000040107010A0100000A0B02090C0D6A
:100540000E08070304010000000000000000000086
:10055000000000000000000000000000000000009B
:100560000000000012111000000000000000000058
:10057000000000000000000000000000000018392A
:100580000E3911241FBECFEFD1E2DEBFCDBF00E098
:100590000CBF16E0A0E0B2E0EEE3FFE800E00BBF26
:1005A00002C007900D92AA33B107D9F72CE0AAE355
:1005B000B6E001C01D92AE3FB207E1F712E0C0EC19
:1005C000D2E000E006C021970109802FFE010E94C1
:1005D0003343CF3BD10780E00807A9F70E94B42A34
:1005E0000C948D470C94000090916D0780916C07DE
:1005F000981750F4E92FF0E0E259F84F208130E0ED
:100600009F5F90936D0702C02FEF3FEFC9010895E0
:1006100080916C0790E020916D07821B91090895ED
:10062000CF92DF92EF92FF920F931F93CF93DF93BE
:100630007C01262F972F8A018091B709882391F09A
:10064000C62FD72F6E01C40ED51ECC15DD0571F057
:100650006991D701ED91FC910190F081E02DC701E6
:100660001995F3CF642F822F0E94CD19C801DF9115
:10067000CF911F910F91FF90EF90DF90CF90089551
:10068000CF93DF931F92CDB7DEB769832091B7096F
:100690002223D1F02091DA09203240F021E030E02D
:1006A000FC013383228380E090E015C08091B8097B
:1006B000E82FF0E0E754F64F998190838F5F8093A5
:1006C000B8098093DA0905C061E0CE0101960E9465
:1006D000CD1981E090E00F90DF91CF910895EF92D6
:1006E000FF920F931F93CF93DF93CDB7DEB7609741
:1006F0000FB6F894DEBF0FBECDBF9E012F5F3F4FF8
:100700007901890126E04AE00E942E3AFF92EF9299
:100710008BED94E09F938F93FF92EF920E94B644EB
:10072000C7010E948E0D62E070E080E090E00E94C0
:1007300020290F900F900F900F900F900F906096C0
:100740000FB6F894DEBF0FBECDBFDF91CF911F91E2
:100750000F91FF90EF9008958F929F92AF92BF926A
:10076000CF92DF92EF92FF920F931F93CF93DF937D
:10077000CDB7DEB7C054D1090FB6F894DEBF0FBEB7
:10078000CDBF49015A017E0121E3E20EF11C870130
:1007900026E04AE00E942E3A6E0181E2C80ED11C8A
:1007A000860126E04AE0C501B4010E942E3ADF929C
:1007B000CF92FF92EF9288ED94E09F938F93005237
:1007C00011091F930F930E94B644C8010E948E0D19
:1007D00062E070E080E090E00E9420290FB6F8947B
:1007E000DEBF0FBECDBFC05CDF4F0FB6F894DEBFDB
:1007F0000FBECDBFDF91CF911F910F91FF90EF9072
:10080000DF90CF90BF90AF909F908F9008954F92C0
:100810005F926F927F928F929F92AF92BF92CF9290
:10082000DF92EF92FF920F931F93CF9320911D02BF
:10083000213221F02F3F09F07DC204C0EDE1F5E047
:10084000C491E7C021E220931D02EDE1F5E0C491DF
:10085000CF3F09F46FC2C23009F472C04CF5CC230B
:1008600009F451C0C13009F0D4C010928000109238
:1008700081002091810028602093810020918100D7
:10088000216020938100E2EAF4E0E491F0E0EE0FD1
:10089000FF1FE35BFB4F2591349130935407209366
:1008A0005307E8EEF4E0E491E0935207C1E0B3C0EF
:1008B000C43009F48BC00CF466C0C53009F0A9C07F
:1008C0001092200110922101209121012860209393
:1008D000210120912101216020932101E2EAF4E02D
:1008E000E491F0E0EE0FFF1FE35BFB4F25913491A5
:1008F00030934B0720934A07E8EEF4E0E491E0934D
:100900004907C5E088C014BC15BC24B5226024BDCD
:1009100025B5216025BDE2EAF4E0E491F0E0EE0FB8
:10092000FF1FE35BFB4F25913491309357072093D2
:100930005607E8EEF4E0E491E0935507C0E06BC0A1
:100940001092B0001092B1002091B000226020936C
:10095000B0002091B10021602093B100E2EAF4E000
:10096000E491F0E0EE0FFF1FE35BFB4F2591349124
:100970003093E70C2093E60CE8EEF4E0E491E0938A
:10098000E80CC2E048C010929000109291002091B3
:100990009100286020939100209191002160209384
:1009A0009100E2EAF4E0E491F0E0EE0FFF1FE35B78
:1009B000FB4F259134913093510720935007E8EE77
:1009C000F4E0E491E0934F07C3E025C01092A0004B
:1009D0001092A1002091A10028602093A1002091F5
:1009E000A10021602093A100E2EAF4E0E491F0E0AC
:1009F000EE0FFF1FE35BFB4F2591349130934E07C1
:100A000020934D07E8EEF4E0E491E0934C07C4E056
:100A100002C0C7FD8FC18C0161E081E20E941B28EA
:100A20004801A12CB12C8C2F8D7F09F0B6C060E05D
:100A300072E18AE790E0A50194010E94B03F29018C
:100A40003A0169017A0121E0C21AD108E108F108EE
:100A50008FEFC816D104E104F10409F008F44BC08B
:100A600060E472E48FE090E0A50194010E94B03F41
:100A700069017A0181E0C81AD108E108F108C230A1
:100A800001F52FEFC216D104E104F10409F008F4D6
:100A9000C0C160E970ED83E090E0A50194010E947F
:100AA000B03F69017A0181E0C81AD108E108F10874
:100AB0002FEFC216D104E104F10409F0C0F593E070
:100AC00065C08FEFC816D104E104F104B1F0A8F0BD
:100AD00068E478EE81E090E0A50194010E94B03FC7
:100AE00069017A0181E0C81AD108E108F108CC2334
:100AF00009F437C185C191E001C092E0CC2391F0A7
:100B000045C0D301C2012AE0B595A7959795879571
:100B10002A95D1F76C017D0121E0C21AD108E108C4
:100B2000F10895E085B5887F982B95BD80C068E475
:100B300078EE81E090E0A50194010E94B03F690148
:100B40007A0181E0C81AD108E108F1082FEFC21636
:100B5000D104E104F10409F008F401C164E274EF86
:100B600080E090E0A50194010E94B03F69017A0104
:100B700081E0C81AD108E108F1082FEFC216D104AC
:100B8000E104F10411F008F00EC195E08091B1008C
:100B9000887F982B9093B1004AC060E072E18AE7A9
:100BA00090E0A50194010E94B03F69017A0181E0C3
:100BB000C81AD108E108F108C114D10421E0E20605
:100BC000F10488F068E478EE81E090E0A5019401FA
:100BD0000E94B03F69017A0181E0C81AD108E1089A
:100BE000F10883E001C081E0C13039F490918100C7
:100BF000987F892B809381001AC0C33039F490917B
:100C00009100987F892B8093910011C0C43039F4F2
:100C10009091A100987F892B8093A10008C0C530D6
:100C200031F490912101987F892B809321019801C3
:100C3000220F331FACE2B1E00E94FC3F28EE33E00C
:100C400040E050E00E94DA3FC23009F440C0BCF4FA
:100C5000CC2371F1C13009F06DC0D0928900C092EF
:100C6000880020936407309365074093660750938C
:100C7000670780916F00826080936F005BC0C43013
:100C800009F447C0A4F1C53009F054C0D09229013D
:100C9000C0922801209358073093590740935A0770
:100CA00050935B078091730082608093730042C011
:100CB000C7BC209368073093690740936A07509335
:100CC0006B0780916E00826080936E0033C0C0928B
:100CD000B3002093E90C3093EA0C4093EB0C509353
:100CE000EC0C8091700082608093700023C0D092E1
:100CF0009900C09298002093600730936107409359
:100D00006207509363078091710082608093710045
:100D100011C0D092A900C092A80020935C07309324
:100D20005D0740935E0750935F0780917200826079
:100D3000809372006CE271E080E090E0CF911F91AF
:100D40000F91FF90EF90DF90CF90BF90AF909F906A
:100D50008F907F906F905F904F900C94202994E03B
:100D600015CF8FEFC816D104E104F104D1F0C8F01B
:100D700062E17AE780E090E0A50194010E94B03F33
:100D800069017A0181E0C81AD108E108F1082FEF62
:100D9000C216D104E104F10411F008F0B2CE94E0DF
:100DA000C1CE93E0BFCE62E17AE780E090E0A5019A
:100DB00094010E94B03F69017A0181E0C81AD1080C
:100DC000E108F1082FEFC216D104E104F104B1F0FB
:100DD000A8F0D301C2015AE0B595A79597958795DC
:100DE0005A95D1F76C017D0121E0C21AD108E108C2
:100DF000F108CC2309F495CE97E0C8CE96E07ECEDC
:100E00008FEFC816D104E104F10409F060F694E014
:100E100075CE92E0BBCECF92DF92EF92FF920F930E
:100E20001F93CF93DF93CDB7DEB76B970FB6F894D0
:100E3000DEBF0FBECDBF7C018FED94E00E948E0D12
:100E40000E945A29F701648B758B868B978B0EE174
:100E500010E066EF74E0CE0101960E94F20DEA8D7B
:100E6000FB8D309709F464C08581882309F460C044
:100E70004389548965897689CF010E94241460E8EA
:100E800074E0CE0101960E94562A62E874E0CE0119
:100E900001960E94562A62E075E0CE0101960E94FA
:100EA000562AF70144895589668977892AE0CE0157
:100EB00001960E946B2A68E075E0CE0101960E94BF
:100EC000562AF701C08CD18C0D2C000CEE08FF08BF
:100ED000F7FE0EC06DE2CE0101960E944F2A442714
:100EE0005527BA014C195D096E097F092AE003C034
:100EF0002AE0B701A601CE0101960E946B2A62E8A2
:100F000074E0CE0101960E94562A8A8D9B8D00972F
:100F100041F00E94C2158A8D9B8D0E94E4431B8E76
:100F20001A8E81E195E00E948E0D81E090E00AC06A
:100F30000150110909F08DCF8BE295E00E948E0DD2
:100F400080E090E06B960FB6F894DEBF0FBECDBF89
:100F5000DF91CF911F910F91FF90EF90DF90CF9095
:100F60000895CF93C62F91E09093B7094093D90984
:100F70001092B8091092DA09682F84EC9AE00E9466
:100F800040036C2F84EC9AE00E94400381E00E94B1
:100F9000BE0F21E030E0882311F020E030E0C901ED
:100FA000CF910895CF93DF93CDB7DEB728970FB6D3
:100FB000F894DEBF0FBECDBF29833A834B835C8399
:100FC0006D837E838F83988769817A8184E00E9414
:100FD00057286B817C8185E00E9457286D817E8136
:100FE00087E00E9457286F81788586E028960FB6A3
:100FF000F894DEBF0FBECDBFDF91CF910C94572880
:10100000CF93DF93CDB7DEB728970FB6F894DEBF46
:101010000FBECDBF4B836D838F83622F84E00E9410
:101020009E276B8185E00E949E276D8187E00E944C
:101030009E276F8186E028960FB6F894DEBF0FBE1C
:10104000CDBFDF91CF910C949E270F931F93CF9329
:10105000DF9300D000D0CDB7DEB78C0180E090E008
:10106000A8ECB2E4F80180839183A283B3838483E4
:101070009583A683B78380879187A287B3874EE144
:10108000BE016F5F7F4F83E00E944A11892B99F167
:10109000698170E0762F66278A81682B072E000C05
:1010A000880B990B0E947A3EF801608371838283DA
:1010B00093836B8170E0762F66278C81682B072ED7
:1010C000000C880B990B0E947A3EF80160877187AB
:1010D000828793876D8170E0762F66278E81682BDB
:1010E000072E000C880B990B0E947A3EF80164834E
:1010F000758386839783C80126960FB6F894DEBF62
:101100000FBECDBFDF91CF911F910F9108952F9208
:101110003F924F925F926F927F928F929F92AF9287
:10112000BF92CF92DF92EF92FF920F931F93CF93D4
:10113000DF93CDB7DEB7C654D1090FB6F894DEBF42
:101140000FBECDBF2DB73EB727963FAF2EAF279727
:1011500083E495E00E948E0DFE01319688E2DF0166
:101160001D928A95E9F780E090E0A0E8BFEB8983C3
:101170009A83AB83BC83F8AFEFABB896FEABEDAB15
:101180000FA918AD84E6282E312C68EC70E080E0C1
:1011900090E00E942029CE0189960E94250889A509
:1011A0009AA5ABA5BCA521968CAF9DAFAEAFBFAF46
:1011B00021978DA59EA5AFA5B8A989AF9AAFABAF72
:1011C000BCAF89A99AA9ABA9BCA925968CAF9DAF44
:1011D000AEAFBFAF259720914206309143064091B4
:1011E00044065091450621966CAD7DAD8EAD9FAD08
:1011F00021970E941C409B01AC010E941D40209140
:1012000005023091060240910702509108020E94A7
:1012100000416B017C0120913E0630913F064091D8
:1012200040065091410669AD7AAD8BAD9CAD0E94F0
:101230001C409B01AC010E941D4020910102309195
:10124000020240910302509104020E9400414B01AE
:101250005C01A7019601C701B6010E94D93E2B018E
:101260003C01A5019401C501B4010E94D93E9B0136
:10127000AC01C301B2010E941D400E94A1422B019A
:101280003C019B01AC01C501B4010E9400414B012E
:101290005C01A3019201C701B6010E9400416B01EC
:1012A0007C0120E030E0A901C501B4010E94D93ED3
:1012B0009B01AC01C701B6010E941D400E940B407A
:1012C00020E030E044E353E40E94D93E2BED3FE0C0
:1012D00049E450E40E9400416B017C0120E030E0D1
:1012E000A901C501B4010E94733E87FF0DC0A7018B
:1012F000960160E070E084EB93E40E941C4026E6D7
:1013000036E646EE50E406C026E636E646EE50E403
:10131000C701B6010E941C400E947241CB0168E6E1
:1013200071E00E941F43BC01990F880B990B0E942A
:101330007A3E6B017C0120E030E044EB52E40E94F5
:10134000733E20E030E044EB52E487FF0BC0C7015E
:10135000B6010E941C4020E030E044EB53E40E94C0
:101360001D4004C0C701B6010E941C40D8016D9306
:101370007D938D939C931397B1E02B1A310809F458
:10138000E6C020E030E048EC52E421966CAD7DAD43
:101390008EAD9FAD21970E94733E882309F4F5CE50
:1013A00020E030E048EC52E469AD7AAD8BAD9CAD05
:1013B0000E94733E882309F4E8CE20E030E048EC38
:1013C00052E425966CAD7DAD8EAD9FAD25970E9404
:1013D000733E882309F4D9CE0C5F1F4FEDA9FEA9F7
:1013E0000E171F0709F0CECE2DB63EB62DB73EB76D
:1013F000205531090FB6F8943EBF0FBE2DBF0DB773
:101400001EB70F5F1F4F7801CDB6DEB631E5C30EB4
:10141000D11CF8011082118212821382148215826B
:10142000168217823896EC15FD05A1F7AFA9B8AD65
:101430006D917D918D919D91B8AFAFAB2BED3FE05C
:1014400049E450E40E94D93E20E030E044E353E414
:101450000E9400412B013C010E94FB40F801608387
:10146000718382839383C301B2010E949342D801A6
:1014700014966D937D938D939C931797085F1F4FE0
:101480000C151D0599F6412C512C320153014201D6
:10149000F7012081318142815381C501B4010E944D
:1014A0001D404B015C01D70114962D913D914D914A
:1014B0005C911797C301B2010E941D402B013C01B2
:1014C000B8E0EB0EF11CEC14FD0411F720E030E065
:1014D00040E251E4C501B4010E9400416B017C016E
:1014E00020E030E040E251E4C301B2010E9400413B
:1014F000A70196010E949C4020E030E044E353E4C1
:101500000E94D93E2BED3FE049E450E40E940041A7
:101510000E947241CB0188599E4F68E671E00E949B
:101520001F43BC01990F880B990B0E947A3E7B01E7
:101530008C010FB6F8943EBE0FBE2DBE8DE595E032
:101540000E948E0DB701C8010E946F0304C0E12CF8
:10155000F12C00E81FEBB701C8012796EEADFFADF7
:1015600027970FB6F894FEBF0FBEEDBFCA5BDF4FE3
:101570000FB6F894DEBF0FBECDBFDF91CF911F91A4
:101580000F91FF90EF90DF90CF90BF90AF909F9022
:101590008F907F906F905F904F903F902F90089525
:1015A0002F923F924F925F926F927F928F929F9273
:1015B000AF92BF92CF92DF92EF92FF920F931F9361
:1015C000CF93DF93CDB7DEB7C453D1400FB6F894B5
:1015D000DEBF0FBECDBF7C0185E795E00E948E0D7A
:1015E00080E1282E87E2382E84E69BE00E946D225F
:1015F0008F3F09F4E4C18D3029F5E0914706F09161
:101600004806E75BF94F10824FEF50E069E476E05F
:10161000CE0101960E94A744C050DF4F1882C050EF
:10162000D140109248061092470646E050E0BE01B5
:101630006F5F7F4F83E895E00E949944892B09F002
:10164000E1C114C08A3081F22091470630914806EA
:101650002F3F31054CF6F901E75BF94F80832F5F8F
:101660003F4F3093480620934706BECF6AE875E0A7
:10167000CE0101960E94523A6AE875E080E090E05F
:101680000E94523A5C016AE875E080E090E00E94B6
:10169000523A4C016AE875E080E090E00E94523ACC
:1016A0002C016AE875E080E090E00E94523A6AE816
:1016B00075E080E090E00E94523A8C016AE875E0A3
:1016C00080E090E00E94523A6AE875E080E090E0A5
:1016D0000E94523A6C016AE875E080E090E00E9456
:1016E000523A3C010115110509F48CC1D401EC9169
:1016F0000E2E000CFF0B908186B7981304C08CE867
:1017000095E00E948E0DC5010E944E3AF70160835C
:10171000718382839383C6010E944E3AD7011C963F
:101720006D937D938D939C931F97C3010E944E3AB6
:10173000F701608B718B828B938BC2010E944E3AB2
:101740002B013C0120E030E048EC52E40E940041D3
:101750000E947241072E000C880B990B0E947A3E62
:101760004B015C0120E030E048EC52E40E94D93E9D
:101770009B01AC01C301B2010E941C4020E030E09B
:1017800040E752E40E9400419B01AC01C501B40155
:101790000E941D40D70114966D937D938D939C9369
:1017A0001797C8010E944E3A4B015C0120E030E0DF
:1017B00048EC52E40E9400410E947241072E000C46
:1017C000880B990B0E947A3E2B013C0120E030E00F
:1017D00048EC52E40E94D93E9B01AC01C501B40122
:1017E0000E941C4020E030E040E752E40E940041AB
:1017F0009B01AC01C301B2010E941D404B015C0181
:10180000F70160877187828793874480558066805F
:10181000778020E030E04CE052E4C301B2010E9446
:101820002E4218160CF0CEC020E030E044E352E423
:10183000C301B2010E94733E87FFC4C020E030E0C4
:1018400045E053E4C501B4010E942E4218160CF085
:10185000B9C020E030E04FE053E4C501B4010E947C
:10186000733E87FFAFC0D7016D917D918D919C91A3
:101870008E010F5D1E4F26E04AE00E942E3AF701CE
:1018800064817581868197810051110926E04AE0C3
:101890000E942E3AD70118966D917D918D919C9161
:1018A0001B970051110926E04AE00E942E3AF701E9
:1018B000208531854285538569E275EC8BE093E4A0
:1018C0000E941C402B013C01D70114962D913D91A3
:1018D0004D915C91179766E976E08FE092E40E9463
:1018E0001C404B015C01A3019201C301B2010E94A3
:1018F000D93ECF5CDE4F688379838A839B83C15353
:10190000D140A5019401C501B4010E94D93E9B01BB
:10191000AC01CF5CDE4F688179818A819B81C153A4
:10192000D1400E941D400E94A142CF5CDE4F6883DF
:1019300079838A839B83C153D14024EA30E74DE900
:101940005FE3C301B2010E94D93EA50194010E9448
:101950009C4023E333E345E652E40E94D93E20E075
:1019600030E044EB53E40E941D400E947241CB01E1
:1019700068E671E00E941F43BC01990F880B990B28
:101980000E947A3EF701648B758B868B978B28E3D8
:101990003CE841EC57E4CF5CDE4F688179818A8175
:1019A0009B81C153D1400E94D93ED70158966D9377
:1019B0007D938D939C935B9701E010E005C002E05E
:1019C00010E002C004E010E06AE070E080E090E027
:1019D0000E94202901301105C1F00430110561F485
:1019E0008AE491E00E9407048DE591E00E940704DB
:1019F0008AE491E00E940704B1E02B1A310809F053
:101A0000F3CD03C003E010E0DFCF81E090E0CC5CD9
:101A1000DE4F0FB6F894DEBF0FBECDBFDF91CF9182
:101A20001F910F91FF90EF90DF90CF90BF90AF90FC
:101A30009F908F907F906F905F904F903F902F90EE
:101A40000895CF93DF93EC0180E090E00E949A3FED
:101A5000682F70E080E090E00E947A3E0E943B4256
:101A60002BE930E24AE95EE30E9400410E947241A4
:101A70006115710511F0798F688F81E090E00E9407
:101A80009A3F482F50E060E070E09A0121703327C0
:101A900055954795FB013197E730F10530F48827DC
:101AA000EE58FF4F8F4F0C9433433B8F2A8F14C057
:101AB00039A328A311C03F8F2E8F0EC03DA32CA3A6
:101AC0000BC03D8F2C8F08C03BA32AA305C03FA3AA
:101AD0002EA302C039A728A76F5F7F4F683071051A
:101AE000A1F681E090E0DF91CF910895CF93DF934D
:101AF000EC0180E090E00E949A3FFE01ED58FD4F1E
:101B00009081891307C0618180E090E00E94A23F2C
:101B100081E001C080E0DF91CF9108951F93CF93C2
:101B2000DF93CDB7DEB7AF970FB6F894DEBF0FBE29
:101B3000CDBFA9E0B2E0E1E1F2E028E02E0F319163
:101B40003D932E13FCCFFC01DE01119610E0BD0188
:101B50008191882321F08D931F5F1E32C9F7FB010D
:101B6000E10FF11D1082412F82EB95E00E945C2372
:101B7000882329F0112319F08091DB0901C080E04E
:101B8000AF960FB6F894DEBF0FBECDBFDF91CF91F9
:101B90001F910895ECEDF9E0A089B18982E08C9362
:101BA000A485B5851C92A685B7858FEC8C93108E85
:101BB000A489B58986E08C93A289B3898C918061D0
:101BC0008C93A289B3898C9188608C93A289B38904
:101BD0008C9180688C930288F389E02D80818F7DC1
:101BE000808308952F923F924F925F926F927F92DF
:101BF0008F929F92AF92BF92CF92DF92EF92FF921D
:101C00000F931F93CF93DF93CDB7DEB7C656D1099D
:101C10000FB6F894DEBF0FBECDBF5C014B013E0195
:101C20008EE1680E711C65EA7AE0C3010E94F5241A
:101C30001C821B8287EA92E09A8389831E82640158
:101C40008E010F5F1F4F230118016FE270E0C60184
:101C50000E948E44009709F442C0F60120812F3281
:101C600021F4FFEFCF1ADF0AF0CF8C198D3008F086
:101C70008CE0E82EF12CA701B601CE01885A9F4FC7
:101C80000E94A744E8E5F0E0EC0FFD1FEE0DFF1DFC
:101C90001082C8010E94C215F8018581882351F085
:101CA0001EAE1DAE87EA92E09CAF8BAF21961FAEB1
:101CB000219721C021E0AE01485A5F4FB201C8010F
:101CC0000E941B1E882361F3CE0CDF1CC2010E9400
:101CD000C215942D852D2801092F182FB6CFC601C6
:101CE00088199909A7969FAF8EAFA797B201CE0129
:101CF000CB960E94F524A796EEADFFADA7978E0E6A
:101D00009F1EF4018081811109C0BE01655C7F4F77
:101D1000C1010E94F52445EB55E044C019A218A268
:101D200087EA92E09F8F8E8F1BA221968FAD21971D
:101D3000811113C0F5011382128288EE93E0A0E0B6
:101D4000B0E084839583A683B78387E892E091838C
:101D50008083128E118E148629C0825023E1A40143
:101D6000823040F465EA7AE0C3010E941B1E8111B3
:101D70000DC0E0CFBE01655C7F4FC3010E941B1EFA
:101D80008823C1F2CE01CB960E94C21549A95AA957
:101D90006BA97CA9C3010E942414B301C1010E9454
:101DA000F524A401B101C5010E944625C501CA5907
:101DB000DF4F0FB6F894DEBF0FBECDBFDF91CF91DE
:101DC0001F910F91FF90EF90DF90CF90BF90AF9059
:101DD0009F908F907F906F905F904F903F902F904B
:101DE00008954F925F926F927F928F929F92AF92DF
:101DF000BF92CF92DF92EF92FF921F93CF93DF9328
:101E0000EC016A017B019A01AB01C701B6010E9496
:101E1000E542882319F067EB75E01AC046015701C7
:101E2000E894B7F82FEF3FEF4FE75FE7C501B40144
:101E30000E94E542811111C02FEF3FEF4FE75FE7AE
:101E4000C501B4010E94733E18163CF46BEB75E0BB
:101E5000CE010E94562A7C017AC02FEF3FEF4FE758
:101E60005FE4C701B6010E942E4218161CF46FEB06
:101E700075E0EECF2FEF3FEF4FE75FECC701B60104
:101E80000E94733E87FDF3CF20E030E0A901C70137
:101E9000B6010E94733E87FF0AC06DE2CE010E9428
:101EA0004F2A5C01F7FAF094F7F8F09402C0A12CE5
:101EB000B12C26E137EB41E558E3C701B6010E949A
:101EC0001D402B013C010E9479416B017C010E9465
:101ED000783E9B01AC01C301B2010E941C402B0162
:101EE0003C012AE0B701A601CE010E946B2A7C01C9
:101EF000EA0CFB1C6EE2CE010E944F2AE80EF91E8E
:101F000015E0115021F120E030E040E251E4C3013E
:101F1000B2010E94D93E2B013C010E9479414B0144
:101F2000A12CB12C2AE0B501A401CE010E946B2A9C
:101F3000E80EF91EC501B4010E94783E9B01AC0178
:101F4000C301B2010E941C402B013C01DACF62E8C0
:101F500074E0CE010E94562A8E0D9F1DDF91CF9115
:101F60001F91FF90EF90DF90CF90BF90AF909F9028
:101F70008F907F906F905F904F900895382F2091B1
:101F8000DA099091D909213208F049C08091B60947
:101F90008111FCCF42E04093B6093093B5093FEF81
:101FA0003093B4091092B3092093B209A9EBB9E0B8
:101FB00042E959E0FA013E2F341B321718F43D91E3
:101FC0003193F9CF1092910920919109990F922B99
:101FD0009093910990919009913061F41092900939
:101FE000909191099093BB009091BC0093FDF8CF24
:101FF00095EC01C095EE9093BC009091B60992309B
:10200000E1F39091B4099F3F79F08091B409803257
:1020100041F08091B409803331F084E005C081E063
:1020200003C082E001C083E01092B8091092DA097F
:102030001092B70908958F929F92AF92BF92CF925C
:10204000DF92EF92FF92CF93DF93C82F8BE79AE056
:1020500090938F0980938E09CC2369F1C53010F0DD
:1020600080E00DC140E060E070E0CB010E94451CC3
:102070008823B1F320E1C29FC00111248258984FF8
:10208000FC01E254FE4F20812F7751F73C964081AE
:10209000518162817381443651056105710500F3F8
:1020A0003497C080D180E280F380C114D104E10470
:1020B000F10421F4D5CFC12CD12C760140E0C70129
:1020C000B6010E94451C882359F28091990790918E
:1020D0009A078115924021F6A0919E07AA2309F440
:1020E000BFCF60919C0770919D076115710509F440
:1020F000B7CF20919B07222309F4B2CFA093990A6E
:1021000020938B0A80E030E0E1E0F0E0C82FAF01DF
:10211000082E02C0440F551F0A94E2F72417350712
:1021200041F0982F8F5F983089F789E08093940A67
:1021300097CF8093940A2091A4073091A507211589
:10214000310519F040E050E008C02091B20730910D
:10215000B3074091B4075091B50720938C0A309390
:102160008D0A40938E0A50938F0A46015701860EBE
:10217000971EA11CB11C80929A0A90929B0AA09271
:102180009C0AB0929D0AE0919F07F091A007F093FE
:10219000A00AE0939F0AB0E00E94CF3F860E971EF0
:1021A000A81EB91E8092A10A9092A20AA092A30A28
:1021B000B092A40A85E0EE0FFF1F8A95E1F7E15087
:1021C000FE4FEF2FFF27E6958E0E9F1EA11CB11C20
:1021D0008092950A9092960AA092970AB092980AD5
:1021E0002091A1073091A2072115310521F0A90105
:1021F00060E070E008C04091AE075091AF07609179
:10220000B0077091B107D701C60188199909AA09C9
:10221000BB09840F951FA61FB71F04C0B695A795CD
:1022200097958795CA95D2F78093900A9093910AD3
:10223000A093920AB093930A853F2FE09207A105DD
:10224000B10510F48CE018C0853F9F4FA105B10582
:1022500010F480E111C08091BA079091BB07A09162
:10226000BC07B091BD078093A10A9093A20AA093E6
:10227000A30AB093A40A80E280939E0A81E0DF91D2
:10228000CF91FF90EF90DF90CF90BF90AF909F9055
:102290008F900895EF92FF920F931F93CF93DF9348
:1022A0001F92CDB7DEB7162FF42E01E00093B709C9
:1022B0004093D9091092B8091092DA09682F84EC7A
:1022C0009AE079830E94400381E00E94BE0F009350
:1022D000B7091092B8091092DA0979818091B6098C
:1022E0008111FCCF81E08093B6098093B5099FEFFF
:1022F0009093B4091092B30995E09093B20980933A
:10230000910940919109FF0C4F29409391098091C7
:102310009009813061F41092900980919109809325
:10232000BB008091BC0083FDF8CF85EC01C085EE39
:102330008093BC008091B6098130E1F38091B309AC
:10234000863018F48091B30901C086E0A2E9B9E0B3
:102350002EE637E0F9019E2F921B981718F49D91F5
:102360009193F9CF10926D0780936C07E12EF72EB1
:1023700090916C0780916D07981741F084EC9AE07A
:102380000E94F402F70181937F01F2CF81E00E9465
:10239000BE0F21E030E0882311F020E030E0C901D9
:1023A0000F90DF91CF911F910F91FF90EF900895C3
:1023B0002F923F924F925F926F927F928F929F9255
:1023C000AF92BF92CF92DF92EF92FF920F931F9343
:1023D000CF93DF93CDB7DEB728970FB6F894DEBF63
:1023E0000FBECDBF2B013C014A0183EC95E00E945A
:1023F0008E0D89E0A82EB12C98E6292E3324339433
:1024000011E000E068EE73E080E090E00E94202997
:1024100020E030E0A901C301B2010E94733E87FDB4
:102420000AC020E030E044EB53E4C301B2010E9453
:102430002E4287FD12C0C301B2010E947241CB013E
:1024400080539D4FB1010E941F43BC01990F880B1F
:10245000990B0E947A3E2B013C010E9487086B0178
:102460007C0120E030E040E85FEB0E94733E88236F
:1024700009F4FEC0F401C082D182E282F382A3019A
:102480009201C701B6010E941C406B017C0120E053
:1024900030E044E353E40E942E4287FD09C0A701C7
:1024A000960160E070E084EB93E40E941C4050C011
:1024B00020E030E040EA51E4C701B6010E942E421C
:1024C00087FD0AC020E030E044E353E4C701B601D1
:1024D0000E94733E87FD2FC020E030E040EA51ECBF
:1024E000C701B6010E942E4287FD11C020E030E0F6
:1024F00040EA51E4C701B6010E94733E87FF07C05E
:1025000082EE95E00E948E0D81E090E0B3C020E065
:1025100030E044E353ECC701B6010E942E4287FD30
:102520000FC020E030E040EA51ECC701B6010E9444
:10253000733E87FF05C0F7FAF094F7F8F0940AC0ED
:1025400020E030E044EB53E4C701B6010E941D4097
:102550006B017C0184E096E00E948E0DC701B601FC
:102560000E946F03B5010B2C000C880B990B0E9485
:102570007A3E9B01AC01C701B6010E94D93E20E022
:1025800030E040E251E40E9400416B017C01EBE746
:10259000F2E0DE01119688E001900D928A95E1F754
:1025A00019830A831B830C831D830E831F83088773
:1025B00020E030E0A901C701B6010E942E421816A2
:1025C0006CF41A82198218861F8220E030E048ECF1
:1025D00053E4C701B6010E9400410DC01C821B825A
:1025E0001E821D8220E030E048EC53E4C701B601B2
:1025F0000E940041905820E030E04AE754E40E94F5
:10260000D93E0E9472417B0129813A814B815C81D4
:102610006D817E818F8198850E940008B701FF0C33
:10262000880B990B0E942029212F19830A83412F9F
:102630001B830C83612F1D830E831F830887302F1C
:10264000502F702F812F902F0E9400086CED75E0A5
:1026500080E090E00E942029F1E0AF1AB10884E008
:10266000A816B10409F0CECE88E196E00E948E0D46
:1026700080E090E028960FB6F894DEBF0FBECDBF85
:10268000DF91CF911F910F91FF90EF90DF90CF904E
:10269000BF90AF909F908F907F906F905F904F9082
:1026A0003F902F90089585ED8093BC008091BC00F1
:1026B00084FDFCCF1092B6090895CF92DF92EF927D
:1026C000FF920F931F93CF93DF936C018B017A01DD
:1026D000EC01CD52D44F888187FF04C0FB011182E9
:1026E000108224C08CE08C9D90018D9D300D1124B2
:1026F0008881A901480F511D87FD5A958091600B73
:1027000090E04817590794F48881A901480F511D9A
:1027100087FD5A95CA01FA01EE0FFF1F8E0F9F1F0A
:10272000FC01E053F54F808186FD19C088818F5FE1
:1027300088838CE08C9D90018D9D300D11248881C3
:10274000A901480F511D87FD5A958091600B90E0BB
:1027500048175907BCF488818C3044F113C0888134
:10276000280F311D87FD3A95F901EE0FFF1F2E0F3F
:102770003F1FF901E053F54F808160E08F730E94A5
:102780009E27D4CFF80180819181049680349C49A2
:1027900018F480E49CE904C0F801808191810496DA
:1027A000F701918380838FEF888345C0F8014081D2
:1027B00051818881B901680F711D87FD7A95CB0120
:1027C000FB01EE0FFF1F8E0F9F1FFC01E053F54F23
:1027D00081819281840F951FF70191838083888185
:1027E000A901480F511D87FD5A95CA01FA01EE0F44
:1027F000FF1F8E0F9F1FFC01E053F54F808186FF66
:102800001AC08881280F311D87FD3A95F901EE0F16
:10281000FF1F2E0F3F1FF901E053F54F808161E04C
:102820008F73DF91CF911F910F91FF90EF90DF9009
:10283000CF900C949E27DF91CF911F910F91FF9025
:10284000EF90DF90CF9008958F929F92AF92BF92BA
:10285000CF92DF92EF92FF920F931F93CF93DF936C
:10286000EC018D81811102C080E077C00B891C8949
:102870002D893E890417150726073707A8F36A0133
:102880007B01823029F4CA86DB86EC86FD860DC08A
:10289000C114D104E104F10451F41E821F82188690
:1028A00019861A861B861C861D8681E056C08A847E
:1028B0009B84AC84BD84EB8DFC8D258530E0275F47
:1028C0003F4FB501A4014150510961097109022E20
:1028D00004C076956795579547950A94D2F7D70126
:1028E000C6010197A109B10904C0B695A7959795AE
:1028F00087952A95D2F784179507A607B70720F082
:1029000089288A288B2849F44F89588D698D7A8DBA
:102910004E835F836887798704C0841B950BA60B61
:10292000B70B4C015D018E010A5F1F4F81149104AA
:10293000A104B10409F4A7CF4E815F816885798530
:1029400098018B8D9C8D0E942E1D91E0891A910813
:10295000A108B1088111EACF87CFDF91CF911F91F4
:102960000F91FF90EF90DF90CF90BF90AF909F902E
:102970008F9008958F929F92AF92BF92CF92DF92E5
:10298000EF92FF920F931F93CF93DF9300D01F928C
:10299000CDB7DEB77C0180E2689F6001112496010B
:1029A0002257384FD9011B969C91917121F0842FA9
:1029B000827409F097C0142FF701628B809119027D
:1029C00090911A02A0911B02B0911C0286879787F2
:1029D000A08BB18BF601E257F84F4489558960E02E
:1029E00070E0BA0155274427D70157964D935D9360
:1029F0006D937C935A97828D938DA0E0B0E0482B25
:102A0000592B6A2B7B2BD70157964D935D936D9372
:102A10007C935A97D9011B968C91887159F4848DB7
:102A2000958DA68DB78DF701838B948BA58BB68B77
:102A300081E012C0803109F055C097012D5E3F4FF3
:102A4000D7015B968D919C915C970E94B21D882363
:102A500009F448C084E0F7018583812F8F70D70186
:102A600014968C931497F70116821782108611869C
:102A70001A961D921D921D921C921D9716FF34C02E
:102A800015968C91813071F511FF2CC0F7014389A7
:102A9000548965897689452B462B472B09F461C0FB
:102AA00040E050E0BA01C7010E9424148823D1F00D
:102AB000F7018788908CA18CB28CC38CD48C82E077
:102AC00090E0A0E0B0E0F60180839183A283B3831D
:102AD0009E012F5F3F4FB501A401C6010E942E1D2C
:102AE000811104C080E03DC081E03BC000E010E007
:102AF0009801B501A401C6010E948E1C882391F3A0
:102B000089809A80AB80BC80D60157968C918031A9
:102B100029F088EF9FEFAFEFBFE004C088EF9FEF91
:102B2000A0E0B0E088169906AA06BB0688F2D70195
:102B300057961D921D921D921C925A97F701138A67
:102B4000148A158A168A848180688483C7010E944A
:102B5000D21F882339F240E050E0BA01C7010E9439
:102B600024140F900F900F900F90DF91CF911F9131
:102B70000F91FF90EF90DF90CF90BF90AF909F901C
:102B80008F900895CF93DF93EC010E94D21F88238A
:102B900011F01D8281E0DF91CF9108953F924F9215
:102BA0005F926F927F928F929F92AF92BF92CF92DD
:102BB000DF92EF92FF920F931F93CF93DF93CDB7E6
:102BC000DEB72C970FB6F894DEBF0FBECDBF5C0109
:102BD000DC015B968D909C905C971696CD90DD9075
:102BE000ED90FC901997C114D104E104F10439F07F
:102BF000BFEFCB1ADB0AEB0AFB0A312C07C0F4014A
:102C0000C080D180E280F38033243394F401818545
:102C10009285A385B4859C01AD012F5F3F4F4F4F37
:102C20005F4F29873A874B875C87260137011D82D2
:102C30001E821F821886F40181859285A385B48542
:102C40002D813E814F815885281739074A075B0738
:102C500008F063C089859A85AB85BC858C159D0578
:102C6000AE05BF0550F482E0C82ED12CE12CF12C2A
:102C700092E0492E512C612C712C9E012F5F3F4F09
:102C8000B701A601C4010E942E1D882309F445C086
:102C900089819A81AB81BC81892B8A2B8B2B41F056
:102CA000260137019FEF491A590A690A790A05C0B6
:102CB000C414D504E604F70491F02D813E814F81C0
:102CC00058852F5F3F4F4F4F5F4F2D833E834F837C
:102CD00058873FEFC31AD30AE30AF30AACCF0FEFCA
:102CE0001FEF2FEF3FE0B301A201C4010E948E1C31
:102CF000882399F0D50116964D915D916D917C9147
:102D00001997411551056105710549F0930182013B
:102D1000C4010E948E1C811102C080E02AC0D5012E
:102D200016964D925D926D927C921997332051F0D8
:102D3000D301C2010196A11DB11DF40180839183CD
:102D4000A283B383F5018789908DA18DB28D892BE4
:102D50008A2B8B2B69F4D50157964D925D926D921B
:102D60007C925A9714968C911497806814968C9341
:102D700081E02C960FB6F894DEBF0FBECDBFDF9179
:102D8000CF911F910F91FF90EF90DF90CF90BF9068
:102D9000AF909F908F907F906F905F904F903F90FB
:102DA00008958FB7F89480911F0C8FBF089561E04C
:102DB000FC0184810E949E2780911E0C811110923B
:102DC0001E0C08958EBD00000DB407FEFDCF8EB51C
:102DD00008958FEF0C94E2160F931F93CF93DF9318
:102DE000EB010E945A298B010E94E9168F3F49F09E
:102DF0000E945A29601B710B6C177D07A8F380E0B5
:102E000001C081E0DF91CF911F910F910895CF9381
:102E1000DF93EC018E81882389F08F8198859C0156
:102E20002F5F3F4F38872F838230924018F40E94E3
:102E3000E916F3CFCE010E94D7161E82DF91CF9103
:102E400008958CBD9DBD0895CF93DF93EC018091D3
:102E50001E0C811109C081E080931E0C8091790ABB
:102E600090917A0A0E94211760E08C81DF91CF91C6
:102E70000C949E27CF92DF92FF920F931F93CF93D4
:102E8000DF9300D01F92CDB7DEB76C01F62E2983F9
:102E90003A834B835C830E940717C6010E94241764
:102EA0006CE271E0C6010E94EC168F2D80640E94D6
:102EB000E21608E110E05C814B813A812981DA0158
:102EC000C901002E04C0B695A795979587950A94D9
:102ED000D2F729833A834B835C830E94E216085021
:102EE000110929813A814B815C81083F8FEF1807D6
:102EF00031F7FF2029F0E8E0FE1204C087E803C0A4
:102F000085E901C08FEF0E94E21610E00E94E916E9
:102F1000F601828787FF04C01F3F11F01F5FF6CFC5
:102F20000F900F900F900F90DF91CF911F910F9105
:102F3000FF90DF90CF900895AF92BF92CF92DF9233
:102F4000EF92FF920F931F93CF93DF93EC016901F0
:102F5000C801820F931F8130924008F070C08E81AB
:102F6000882371F088819981AA81BB81481759070C
:102F70006A077B0729F48F819885C816D906B0F5B2
:102F8000488359836A837B838B85833039F089E05A
:102F9000440F551F661F771F8A95D1F79A01AB0121
:102FA00061E1CE010E943A17882319F083E08D83F6
:102FB00046C00E945A295B010E94E9168A878F3F0A
:102FC00049F40E945A296A197B096D327140A0F3B5
:102FD0008FE003C08E3F31F08DE08D83CE010E94E3
:102FE000D7162DC018861F8281E08E838F81988529
:102FF0008C159D0540F40E94E9168F8198850196F5
:1030000098878F83F3CF6701E00EF11ECE14DF04A3
:1030100031F00E94E916F60181936F01F7CF8F819D
:103020009885080F191F18870F838985882319F041
:103030000115124048F0CE010E94071705C0CE01CD
:103040000E94D71680E001C081E0DF91CF911F91EF
:103050000F91FF90EF90DF90CF90BF90AF900895C9
:10306000EF92FF920F931F93CF93DF93EC017901BF
:10307000411551056105710511F482E13CC08B8554
:10308000833039F089E0440F551F661F771F8A95FA
:10309000D1F79A01AB0168E1CE010E943A1788236B
:1030A00011F084E028C08EEF0E94E21687018EEFB7
:1030B000F81AF80181918F010E94E2160E151F0582
:1030C000C1F78FEF0E94E2168FEF0E94E2160E9476
:1030D000E9168A878F71853031F081E18D83CE01C9
:1030E0000E94D71609C068E572E0CE010E94EC1676
:1030F000811107C085E18D83CE010E94D71680E043
:1031000013C020E030E0A9016DE0CE010E943A1723
:10311000811104C00E94E916882311F084E1EBCFED
:10312000CE010E94D71681E0DF91CF911F910F91C0
:10313000FF90EF9008951F920F920FB60F921124F7
:103140000BB60F922F933F934F935F936F937F93A1
:103150008F939F93AF93BF93EF93FF938091B900A9
:10316000887F803609F49CC068F5883209F45BC01A
:1031700090F4803109F454C038F4882309F4F6C07F
:10318000883009F44DC0F6C0883109F44CC0803253
:1031900009F45DC0EFC0803409F468C048F480339E
:1031A00009F455C0883309F0E5C08093B409D8C04C
:1031B000803509F44FC0883509F45DC0883409F0C2
:1031C000D9C0D6C0883909F4C7C0A8F4883709F433
:1031D00067C038F4883609F463C0803709F460C0EA
:1031E000C9C0883809F4B8C0803909F45FC0803894
:1031F00009F0C0C05BC0803B09F486C038F4803A57
:1032000009F466C0883A09F47FC0B4C0803C09F470
:10321000A7C0883C09F4A4C0883B09F48AC0AAC0AE
:103220008091910910C09091B3098091B2099817CB
:1032300070F5E091B30981E08E0F8093B309F0E05F
:10324000EE56F64F80818093BB0085EC86C080935C
:10325000B4098EC0E091B30981E08E0F8093B30969
:103260008091BB00F0E0EE56F64F80839091B30959
:103270008091B2096EC0E091B30981E08E0F809316
:10328000B3098091BB00F0E0EE56F64F8083809149
:10329000B50981116DC081E08093900984EA61C015
:1032A00083E08093B60910921D0CCFCF80911D0C46
:1032B000803208F051C0E0911D0C81E08E0F8093A8
:1032C0001D0C8091BB00F0E0E350F44F8083BDCF34
:1032D00085EC8093BC001092B60980911D0C803261
:1032E00030F4E0911D0CF0E0E350F44F1082609157
:1032F0001D0C70E0E091FB0BF091FC0B8DEF9BE05F
:10330000199510921D0C36C084E08093B609109276
:10331000FA0B1092F90BE091F70BF091F80B19955D
:103320008091F90B811105C081E08093F90B109217
:10333000D70BE091FA0B81E08E0F8093FA0BF0E04F
:10334000E952F44F80818093BB009091FA0B8091F9
:10335000F90B981708F479CF85E88093BC000AC070
:1033600085EC8093BC001092B60904C01092B40999
:103370000E945313FF91EF91BF91AF919F918F9155
:103380007F916F915F914F913F912F910F900BBE65
:103390000F900FBE0F901F9018954091F90B262F9C
:1033A00030E0240F311D21323105DCF42091B609C3
:1033B0002430C9F4FC0180E090E0861758F4309185
:1033C000F90B2191DC01A952B44FA30FB11D2C932D
:1033D0000196F3CF8091F90B680F6093F90B80E0B1
:1033E000089581E0089582E008951F920F920FB62C
:1033F0000F9211240BB60F922F933F934F935F932D
:103400006F937F938F939F93AF93BF93EF93FF93AC
:1034100048E251E064E271E080E090E00E945D13D8
:10342000FF91EF91BF91AF919F918F917F916F919C
:103430005F914F913F912F910F900BBE0F900FBE58
:103440000F901F9018951F920F920FB60F92112494
:103450000BB60F922F933F934F935F936F937F938E
:103460008F939F93AF93BF93EF93FF9348EA50E0FE
:1034700064EA70E083E090E00E945D13FF91EF91B9
:10348000BF91AF919F918F917F916F915F914F917C
:103490003F912F910F900BBE0F900FBE0F901F907A
:1034A00018951F920F920FB60F9211240BB60F9220
:1034B0002F933F934F935F936F937F938F939F933C
:1034C000AF93BF93EF93FF9348E950E064E970E056
:1034D00082E090E00E945D13FF91EF91BF91AF9168
:1034E0009F918F917F916F915F914F913F912F911C
:1034F0000F900BBE0F900FBE0F901F9018951F924C
:103500000F920FB60F9211240BB60F922F933F9389
:103510004F935F936F937F938F939F93AF93BF93DB
:10352000EF93FF9348E850E064E870E081E090E0BA
:103530000E945D13FF91EF91BF91AF919F918F9189
:103540007F916F915F914F913F912F910F900BBEA3
:103550000F900FBE0F901F901895FC01918D828DDA
:10356000981761F0828DDF01A80FB11D5D968C91D7
:10357000928D9F5F9F73928F90E008958FEF9FEFE2
:103580000895FC01918D828D981731F0828DE80F9E
:10359000F11D858D90E008958FEF9FEF0895FC0158
:1035A000918D228D892F90E0805C9F4F821B910925
:1035B0008F73992708958CED99E00E94CF1A21E02E
:1035C000892B09F420E0822F0895FC01848DDF010E
:1035D000A80FB11DA35ABF4F2C91848D90E0019686
:1035E0008F739927848FA689B7892C93A089B18975
:1035F0008C9180648C93938D848D981306C002887F
:10360000F389E02D80818F7D80830895EF92FF9272
:103610000F931F93CF93DF93EC0181E0888F9B8DF5
:103620008C8D981305C0E889F989808185FD24C0B7
:10363000F62E0B8D10E00F5F1F4F0F731127E02E3A
:103640008C8DE8120CC00FB607FCFACFE889F98917
:10365000808185FFF5CFCE010E94E51AF1CF8B8DD9
:10366000FE01E80FF11DE35AFF4FF0820B8FEA894C
:10367000FB898081806207C0EE89FF896083E889C9
:10368000F98980818064808381E090E0DF91CF912F
:103690001F910F91FF90EF900895CF93DF93EC016E
:1036A000888D8823C9F0EA89FB89808185FD05C062
:1036B000A889B9898C9186FD0FC00FB607FCF5CF9C
:1036C000808185FFF2CFA889B9898C9185FFEDCFE4
:1036D000CE010E94E51AE7CFDF91CF91089580E0F7
:1036E00090E0892B21F00E94DB1A811125C080E037
:1036F00090E0892B41F080E090E0892B21F00E943E
:10370000000081111CC080E090E0892B41F080E036
:1037100090E0892B21F00E940000811113C080E00D
:1037200090E0892BA1F080E090E0892B81F00E944D
:10373000000081110AC008950E940000D8CF0E94A5
:103740000000E1CF0E940000EACF0C940000089531
:103750000E947C448091200C8823A9F14091190299
:1037600050911A0260911B0270911C022EE837E002
:1037700080918E0990918F090E943018811102C0AA
:1037800080E008954091210C5091220C6091230C0F
:103790007091240C411551056105710591F02EE8D9
:1037A00037E080918E0990918F090E94301888230C
:1037B00039F31092210C1092220C1092230C1092CB
:1037C000240C1092200C81E008951F920F920FB6E6
:1037D0000F9211240BB60F922F933F934F935F9349
:1037E0006F937F938F939F93AF93BF93EF93FF93C9
:1037F0008CED99E00E94E51AFF91EF91BF91AF9196
:103800009F918F917F916F915F914F913F912F91F8
:103810000F900BBE0F900FBE0F901F9018951F9228
:103820000F920FB60F9211240BB60F922F938F9316
:103830009F93EF93FF93E091EC09F091ED09808164
:10384000E091F209F091F30982FD12C0908180911C
:10385000F5098F5F8F732091F609821751F0E0917F
:10386000F509F0E0E452F64F958F8093F50901C019
:103870008081FF91EF919F918F912F910F900BBEBF
:103880000F900FBE0F901F9018958F929F92AF923E
:10389000BF92EF92FF920F931F93CF934B015C0166
:1038A000C42F8091190290911A02A0911B02B0912D
:1038B0001C0288159905AA05BB0501F10E94AA1BE7
:1038C000811102C080E020C08EE8E82E87E0F82E4B
:1038D00000E012E020E030E0B501A40180918E0903
:1038E00090918F090E949C17882361F3809219029E
:1038F00090921A02A0921B02B0921C028091200C9E
:10390000C82BC093200C81E0CF911F910F91FF90A5
:10391000EF90BF90AF909F908F9008954F925F92DD
:103920006F927F928F929F92AF92BF92CF92DF92CF
:10393000EF92FF920F931F93CF93DF93EC016A01F5
:103940007B0128013901423051056105710510F4F0
:1039500080E073C089859A85AB85BC850196A11DE1
:10396000B11D84179507A607B70790F38B889C882D
:10397000AD88BE888F89803129F4BB27AF2D9E2D5D
:103980008D2D09C0DB01CA0147E0B695A795979533
:1039900087954A95D1F7880E991EAA1EBB1E809165
:1039A000190290911A02A0911B02B0911C02881674
:1039B0009906AA06BB0679F48F898031A1F4DD242B
:1039C000EE24FF24C601880F991FFC01E257F84F2F
:1039D0005182408219C040E0C501B4010E94451CDB
:1039E0008111EACFB5CFE894C7F8DD24EE24FF2497
:1039F000C601880F991F880F991FFC01E257F84FE5
:103A000040825182628273828091200C8160809317
:103A1000200C8A89823080F08D819E81AF81B885AB
:103A2000880E991EAA1EBB1E8092210C9092220C19
:103A3000A092230CB092240C81E0DF91CF911F91D2
:103A40000F91FF90EF90DF90CF90BF90AF909F903D
:103A50008F907F906F905F904F9008958F929F927C
:103A6000AF92BF92CF92DF92EF92FF920F931F938C
:103A7000CF93DF93FC0181859285A385B485019660
:103A8000A11DB11D84179507A607B70710F480E0A4
:103A90005CC083899489A589B689C789C03129F416
:103AA000852E962EA72EBB2409C04A015B01C7E0D4
:103AB000B694A79497948794CA95D1F7E9016A01BF
:103AC0007B018F01BC01CD01680D791D8A1D9B1DF5
:103AD0008090190290901A02A0901B02B0901C02D4
:103AE000681579058A059B0599F4F8018789803165
:103AF000A9F4B701A601552766277727440F551F5C
:103B0000FA01E257F84F80819181A0E0B0E018C03F
:103B100040E00E94451C8111E8CFB9CFB701A60152
:103B20004F77552766277727440F551F440F551F9A
:103B3000FA01E257F84F80819181A281B381BF7071
:103B400088839983AA83BB8381E0DF91CF911F9102
:103B50000F91FF90EF90DF90CF90BF90AF909F902C
:103B60008F9008954F925F926F927F92AF92BF9223
:103B7000CF92DF92EF92FF920F931F93CF93DF9339
:103B800000D01F92CDB7DEB78C0149835A836B8377
:103B90007C835901C12CD12C7601412C82E0582E16
:103BA000612C712C49815A816B817C819E012F5F30
:103BB0003F4FC8010E942E1D882351F1D301C2013D
:103BC000F801058404C0880F991FAA1FBB1F0A941F
:103BD000D2F7C80ED91EEA1EFB1E49815A816B819D
:103BE0007C818789803129F088EF9FEFAFEFBFE0BC
:103BF00004C088EF9FEFA0E0B0E0481759076A07BC
:103C00007B0780F2F501C082D182E282F38281E0FB
:103C10000F900F900F900F90DF91CF911F910F9108
:103C2000FF90EF90DF90CF90BF90AF907F906F901C
:103C30005F904F9008954F925F926F927F92AF92F4
:103C4000BF92CF92DF92EF92FF920F931F93CF9389
:103C5000DF93CDB7DEB72B970FB6F894DEBF0FBE5C
:103C6000CDBF7C01CE0101966C01FC0190E28BE09E
:103C70008C0D91938E13FDCFDA0130E047E09D91DA
:103C8000992339F19E3219F0EDE0F5E00AC04A308F
:103C900009F472C138E04AE0F2CF3196891709F48D
:103CA0006BC184918111F9CF431708F465C18FED81
:103CB000890F8E3508F060C181E0830FF601E30FB4
:103CC000F11D3FE9390F3A3108F490529083382FB3
:103CD000D6CF8981803209F44FC1B22E8B01DB012E
:103CE0005B968D919C915C97F701948F838F1696CC
:103CF0001D921D921D921C921997FB01128613862C
:103D000014861586712CF80182859385A485B58566
:103D1000438954896589768984179507A607B7076B
:103D200008F061C025E0B695A795979587952A95E7
:103D3000D1F7F82FFF706F2ED80115968C91823035
:103D400008F41AC1C8010E947B2597FD15C1F8012E
:103D500082859385A485B5854F96A11DB11D828767
:103D60009387A487B587F0E26F9EC0011124BC0140
:103D70006257784F6115710509F4FEC0DB012C9183
:103D8000222319F0253EC1F427C071100EC0F7019F
:103D9000628A4091190250911A0260911B0270913F
:103DA0001C0246875787608B718BFC01E257F84FE6
:103DB0008081811113C015C04BE050E0C6010E9404
:103DC0008144892B09F09FCF8B2D8073803309F4B8
:103DD000D3C04B2D662DCCC07720C9F277247394C5
:103DE00092CF772473948B2D8271823109F0C4C0F5
:103DF0007720D1F0D7011E966D917D918D919C9188
:103E0000519741E00E94451C882309F4B5C0F70191
:103E10006289F0E26F9FB00111246257784F6115FB
:103E2000710509F079C0A8C0D80115968C9182302F
:103E300009F4A2C0C8010E94CE15882309F49CC0D1
:103E4000D8015B96ED91FC915C9716964D905D9034
:103E50006D907C901997B2E04B1A51086108710877
:103E6000058404C0440C551C661C771C0A94D2F7C8
:103E700086859785A089B189480E591E6A1E7B1ECA
:103E8000A480E1E04E1A510861087108AA2009F1E6
:103E90000E94AA1B882309F46FC0EEE8F7E0119294
:103EA00029E0EE38F207D9F7D301C2018A0D911D3E
:103EB000A11DB11D8093190290931A02A0931B02B9
:103EC000B0931C028091200C81608093200CAA94F6
:103ED000DDCFD8015B96ED91FC915C9780E092E09C
:103EE000A0E0B0E0058404C0880F991FAA1FBB1F83
:103EF0000A94D2F7F8014389548965897689840F39
:103F0000951FA61FB71F838B948BA58BB68BD701EC
:103F100052961C926EE877E080E2FB0111928A953E
:103F2000E9F78BE0F601DB0101900D928A95E1F74C
:103F300081E298E2DB0151969C938E93509720E0AA
:103F400038E01F963C932E931E9753969C938E9326
:103F5000529759969C938E93589757963C932E93CD
:103F600056970E94AA1B882339F04B2DF7016289CE
:103F7000C7010E94BA1401C080E02B960FB6F894D6
:103F8000DEBF0FBECDBFDF91CF911F910F91FF908C
:103F9000EF90DF90CF90BF90AF907F906F905F9049
:103FA0004F900895CF93DF93EC018D818823A1F189
:103FB0008C8187FF2DC06E857F858889998941E036
:103FC0000E94451C882341F1EA8980E2E89FF001C4
:103FD0001124DF01A257B84F1097F1F08D81823084
:103FE00050F44B895C896D897E895C964D935D9315
:103FF0006D937C935F978F89988DA98DBA8DE257C9
:10400000F84F938F828FB58BA48B8C818F778C83A5
:10401000DF91CF910C94AA1B80E0DF91CF9108959E
:104020002F923F924F925F926F927F928F929F92C8
:10403000AF92BF92CF92DF92EF92FF920F931F93B6
:10404000CF93DF9300D01F92CDB7DEB78C015B0119
:104050001A01DC0115968C9115978130C9F41496DC
:104060008C9181FF15C082FF1BC0F80143895489E0
:104070006589768982859385A485B585841795079A
:10408000A607B70769F0C8010E942414811108C06F
:1040900081E090E0F8019383828380E090E039C171
:1040A000610183C0D8015B968D919C915C97FC0166
:1040B000248121502A013B0139E07694679457947A
:1040C00047943A95D1F7722E74207A01F1E0FF22DD
:1040D000772009F476C080E092E08E199F094601AE
:1040E0008C159D0508F44C01D8015B962D913C91EF
:1040F0005C9716968D919D910D90BC91A02D029785
:10410000A109B109F901058404C0880F991FAA1FEC
:10411000BB1F0A94D2F74685578560897189840F41
:10412000951FA61FB71F9C01AD01270D311D411D15
:10413000511D29013A01811432E0930609F088C02B
:104140008091190290911A02A0911B02B0911C0259
:1041500084159505A605B70559F48FEF9FEFDC018F
:104160008093190290931A02A0931B02B0931C0231
:104170009501B301A20180918E0990918F090E944F
:104180003018882309F484CF9EEFB91AC818D908CB
:10419000F80182859385A485B585880D991DA11D9B
:1041A000B11D82879387A487B587D8011A964D9150
:1041B0005D916D917C911D97C114D10409F072CF6E
:1041C00087C0E114F10409F086CF16964D915D91F8
:1041D0006D917C911997411551056105710559F44F
:1041E00057968D919D910D90BC91A02D0097A105A2
:1041F000B10541F521C09E012F5F3F4F0E942E1D4A
:10420000882309F44BCF89819A81AB81BC81F80165
:10421000238D348DF9012789203129F048EF5FEF94
:104220006FEF7FE004C048EF5FEF60E070E084175D
:104230009507A607B70730F0C8010E94CE15811177
:104240004ACF26CFF80186839783A087B18743CFD3
:10425000E114F10429F5D8011A964D915D916D9103
:104260007C911D9753968D919D910D90BC91A02DA1
:10427000481759076A077B0798F00E94AA1B8823F2
:1042800009F406CF4092190250921A0260921B0262
:1042900070921C028091200C81608093200C08C0D9
:1042A00041E0C301B2010E94451C882309F4F0CE0D
:1042B000D501F701E257F84FCF01880D991DE81796
:1042C000F90719F02D912193FACFA80CB91C5ECFF4
:1042D00053968D919D910D90BC91A02D84179507BB
:1042E000A607B70740F4F801438B548B658B768B98
:1042F000848180688483D80114968C9183FD02C0E8
:10430000C10107C0C8010E94D21F882309F4C0CE92
:10431000F7CF0F900F900F900F90DF91CF911F91DB
:104320000F91FF90EF90DF90CF90BF90AF909F9054
:104330008F907F906F905F904F903F902F90089557
:10434000CF93DF931F92CDB7DEB7698341E050E092
:10435000BE016F5F7F4F0E9410200F90DF91CF91C1
:104360000895DC015996ED91FC915A973097B9F078
:1043700083899489A589B689428553856485758525
:10438000841B950BA60BB70B811520E89207A1059E
:10439000B10538F08FEF9FE7A0E0B0E0089580E02E
:1043A00090E00895CF93DF931F92CDB7DEB7698376
:1043B000DC01ED91FC910280F381E02D41E050E0C1
:1043C000BE016F5F7F4F19950F90DF91CF910895D8
:1043D00020913C0630913D062817390771F49091E1
:1043E0003A0680913B06981741F0E0913A06F0E0DA
:1043F000EB5DF34F808190E008958FEF9FEF08957C
:1044000008951F93CF93DF93DC015C962D913C912F
:104410005D972115310539F481E090E013969C9366
:104420008E9312973DC05196ED91FC915297509604
:104430009C915097892F80951FB75E964C915E97FF
:1044400041FB772770F941FD6095F894408177230F
:1044500011F0492B01C048234083E9012197F1F76E
:1044600048E0508160FF02C0592B01C0582350839F
:10447000E9012197F1F76695415099F7772321F0EB
:1044800090818923808303C08081982B90831FBFF4
:104490005C968D919C915D970197F1F721E030E05A
:1044A000C901DF91CF911F91089520913C06309171
:1044B0003D062817390771F480913B0620913A0692
:1044C00090E0805C9F4F821B910960E470E00E9445
:1044D0001F43089580E090E0089520913C063091BC
:1044E0003D0628173907B9F490913A0680913B06AA
:1044F000981789F0E0913A06F0E0EB5DF34F808188
:1045000020913A0630E02F5F3F4F2F7333272093DF
:104510003A0690E008958FEF9FEF08950895E09197
:104520006D0780916C07E81730F4F0E0E259F84F1E
:10453000808190E008958FEF9FEF0895CF93C82F6B
:104540000E945A29CF5FDC01CB0132E0B695A795D6
:10455000979587953A95D1F7C80F0E945A29DC01A3
:10456000CB0122E0B695A795979587952A95D1F727
:10457000C81739F08CED99E00E94CF1A1816190669
:1045800064F78CED99E00E94CF1A181619062CF4E6
:104590008CED99E00E94AD1A00C0CF910895FC0106
:1045A000818D928D009711F00C94D21F0895CF93B6
:1045B000DF93EC01898D9A8D009739F481E090E0CA
:1045C0009B838A8380E090E00BC0FC0113821282FF
:1045D0000E941020E98DFA8D22813381232B71F7FF
:1045E000DF91CF9108958F929F92BF92CF92DF92E9
:1045F000EF92FF920F931F93CF93DF937C0181E0A3
:104600000E949E22F70180838E3711F080E048C01F
:1046100082E30E949E22F701818382E30E949E2210
:10462000F7018283C181C11103C0182F8D3308F0B7
:104630001CE3C12ED12CD0E0DC2FCC27C80FD11D1C
:10464000CC19DD090FEFB12C8B2C912CF3E08F0EE0
:10465000911C8E0C9F1C82E30E949E22F401808399
:10466000B112081BB3941B1578F74601F3E08F0EC7
:10467000911C8E0C9F1C209759F082E30E949E2271
:10468000F4018083C130D10509F0081B2197F3CFD5
:10469000F701EC0DFD1D83810813B8CF83E0810F76
:1046A000DF91CF911F910F91FF90EF90DF90CF900E
:1046B000BF909F908F900895FF920F931F93CF9379
:1046C000DF93CDB7DEB7C054D1090FB6F894DEBF83
:1046D0000FBECDBFFC018091DB098F3F11F481E05B
:1046E00001C08F5F8093DB09808184353CF4823583
:1046F000ECF4813439F0863429F05DC0843509F456
:1047000041C059C09181943509F055C098E09C830F
:10471000813421F48091DB098D8301C01D82828167
:104720008E8383818F8357E014E047C09181913459
:1047300009F041C092819435F1F597E19C8382356F
:1047400051F48091DB098D83CE01069609E012E0D9
:1047500028E0200F02C01D82F7CFD8013D918D01C6
:10476000DC013D93CD012013F8CF8FEF8E878EEFC4
:104770008F8782E0888B8381898B84818A8B52E149
:104780001FE01BC081818835B1F480E18C831D82DC
:10479000DE011696E9E0F2E088E08E0F91919D939C
:1047A0008E13FCCF8FEF8E878EEF8F87188A198A32
:1047B00051E11EE002C080E03DC08EE789831A828D
:1047C000FE0134968FEF93E09F01A1918A1B9F5FBA
:1047D0009513FBCF442389F0562FA1E0B0E0AC0F36
:1047E000BD1FA90FB11DFB019E2F951B941720F42F
:1047F00091919D93891BF8CF140F1B83F901E10F51
:10480000F11D808384E0F82EF10E00E00F1580F496
:10481000E1E0F0E0EC0FFD1FE00FF11D60818CED99
:1048200099E00E94061B811101C00F2D0F5FEECF92
:1048300083E0810FC05CDF4F0FB6F894DEBF0FBE80
:10484000CDBFDF91CF911F910F91FF9008952F92CF
:104850003F924F925F926F927F928F929F92AF9210
:10486000BF92CF92DF92EF92FF920F931F93CF935D
:10487000DF931F921F92CDB7DEB7FC018B018081C1
:10488000813469F48181843509F582818735C9F4E1
:1048900083818235B1F434E6232E312C14C0823565
:1048A000A9F48181813491F48281843579F4838102
:1048B000873561F48481823549F424E6222E312C37
:1048C00007C0212C312C20E030E004C0212C312CF9
:1048D00021E03AE0B801CF012A8339830E945C23AA
:1048E0002A813981882309F460C08AE0682E9CE01F
:1048F000792E432E512C62018AE0C80ED11CE12C86
:10490000F12C4101A12CB12C400E511EE7E04E0EBE
:10491000511CC701B6012A830E9420292A81211433
:10492000310429F0C501B4010E9420292A81C8015F
:104930002A830E94F3222A81882369F1F801838166
:10494000883819F4222329F00DC0873959F4213011
:1049500049F4F80194818091DB09981303C0F201B6
:10496000708019C03091E50C3230A8F4D801F0E421
:104970003F9FA001112480E090E06D91FC01E40FC5
:10498000F51FEB59F34F6083019680349105A9F729
:104990003F5F3093E50C6A94662019F07110B9CF2F
:1049A0000CC0172D772049F001C01BE068EE73E0C2
:1049B00080E090E00E942029712E81E0711080E05B
:1049C0000F900F90DF91CF911F910F91FF90EF907B
:1049D000DF90CF90BF90AF909F908F907F906F901F
:1049E0005F904F903F902F900895FC01DB0112964D
:1049F0008D919C9113979383828387EA92E09183B0
:104A0000808314968C911497848315968C911597B6
:104A1000858316964D915D916D917C911997468392
:104A20005783608771871A964D915D916D917C9146
:104A30001D9742875387648775871E964D915D91B8
:104A40006D917C91519746875787608B718B5296F9
:104A50008C915297828B53964D915D916D917C9183
:104A60005697438B548B658B768B57964D915D9102
:104A70006D917C915A97478B508F618F728F5B96A7
:104A80008D919C915C97948F838F0895EF92FF9204
:104A90000F931F93CF93DF93EC017B018A011B825D
:104AA0001A8288EE93E0A0E0B0E08C839D83AE8311
:104AB000BF8387E892E0998388838DE190E00E942C
:104AC0004F439A8F898F009779F02DE1F701DC0130
:104AD00001900D922A95E1F74CE050E0B801CE012B
:104AE0000C960E94A744188EDF91CF911F910F91D1
:104AF000FF90EF9008952F923F924F925F926F92A6
:104B00007F928F929F92AF92BF92CF92DF92EF925D
:104B1000FF920F931F93CF93DF931F921F92CDB7F6
:104B2000DEB7FC018581882309F4D9C0848180FF28
:104B3000D6C021E02A834389548965897689828594
:104B40009385A485B585481759076A077B0709F43B
:104B50001A826F013A81832F90E0DE0111964D0198
:104B60003F01B6E06B0E711C892B09F47DC0D601A4
:104B70001A964D915D916D917C911D975A01B1E00E
:104B8000BB22F60125811A012B0189E05694479436
:104B9000379427948A95D1F7838D948D223061F4D0
:104BA000FC01828D938DA48DB58DBC01CD01620D6C
:104BB000731D841D951D45C0DC0114961C91115078
:104BC0001221A114B104D1F4111118C0452B462BA8
:104BD000472B51F4F6018789908DA18DB28D868384
:104BE0009783A087B1870AC0468157816085718508
:104BF00093010E942E1D882309F471C0F601238DB4
:104C0000348D86819781A085B1850297A109B1096C
:104C1000AC01BD01F901058404C0440F551F661F96
:104C2000771F0A94D2F786859785A089B189840F6A
:104C3000951FA61FB71FBC01CD01610F711D811DFE
:104C4000911DD60114962C9126FF14C000911902D3
:104C500010911A0220911B0230911C0260177107FB
:104C60008207930751F506C0FA81FF23C1F18981BC
:104C700090E037C040E00E94451C882381F1F50197
:104C8000E257F84FD401CF010196E817F90719F060
:104C900021912D93FACFEFEF8E1A9E0AF6018285AD
:104CA0009385A485B5850196A11DB11D8287938743
:104CB000A487B58780E090E057CF740101E010E051
:104CC0009501AB01BC0180918E0990918F090E94E2
:104CD0009C17882321F0BFEF8B1A9B0ADFCF8FEF41
:104CE0009FEF0F900F90DF91CF911F910F91FF9049
:104CF000EF90DF90CF90BF90AF909F908F907F907C
:104D00006F905F904F903F902F900895FC01818DA0
:104D1000928D009711F00C947B258FEF9FEF0895F3
:104D20000F931F93CF93DF93FC01818D928D00979A
:104D3000B9F0EF010E947B258C010F3F8FEF180720
:104D400091F0898D9A8DFC01428553856485758526
:104D500041505109610971090E942414C80105C01C
:104D600080E090E002C08FEF9FEFDF91CF911F9125
:104D70000F9108951F920F920FB60F9211240BB648
:104D80000F922F933F934F935F936F937F938F93E4
:104D90009F93AF93BF93EF93FF93E0913C06F09105
:104DA0003D06309709F451C0968DA685B785858557
:104DB00091FF04C09C91892329F447C09C918923C9
:104DC00009F043C0A389B4899C9185898095892382
:104DD0008C93868997890197F1F7608D718DA685EF
:104DE000B785558538E020E0CB010197F1F7822F98
:104DF00090E095958795282F4C91452309F02068E0
:104E0000315091F7868D81FD209580913B0690E091
:104E100001968F73992730913A06381749F0A0917F
:104E20003B06B0E0AB5DB34F2C9380933B0603C0D1
:104E3000868D8160868F828D938D0197F1F7A3898E
:104E4000B4899C918589892B8C93FF91EF91BF91B7
:104E5000AF919F918F917F916F915F914F913F9112
:104E60002F910F900BBE0F900FBE0F901F901895B3
:104E7000E0913C06F0913D06E817F90769F4A38933
:104E8000B4899C918589809589238C9310923D06E5
:104E900010923C0681E0089580E008953FB7F894B1
:104EA0008091F20C9091F30CA091F40CB091F50C60
:104EB00026B5A89B05C02F3F19F00196A11DB11D75
:104EC0003FBFBA2FA92F982F8827820F911DA11DB0
:104ED000B11DBC01CD0142E0660F771F881F991FED
:104EE0004A95D1F70895CF92DF92EF92FF920F93F8
:104EF0001F93CF93DF936C017A018B01C0E0D0E068
:104F0000CE15DF0589F0D8016D918D01D601ED91A7
:104F1000FC910190F081E02DC6011995892B11F4C7
:104F20007E0102C02196ECCFC701DF91CF911F9186
:104F30000F91FF90EF90DF90CF900895362F90E083
:104F4000FC01E85CFA4F4491FC01E953FB4F2491CA
:104F5000FC01EF57FB4F9491992309F46BC0442354
:104F600009F455C050E0FA013197E231F10508F03B
:104F70004EC08827E758FF4F8F4F0C9433438091E2
:104F800080008F7707C0809180008F7D03C0809163
:104F90008000877F809380003AC084B58F7702C0FD
:104FA00084B58F7D84BD33C08091B0008F7703C0FE
:104FB0008091B0008F7D8093B00029C080919000D7
:104FC0008F7707C0809190008F7D03C08091900003
:104FD000877F809390001BC08091A0008F7707C0CF
:104FE0008091A0008F7D03C08091A000877F809377
:104FF000A0000DC0809120018F7707C08091200113
:105000008F7D03C080912001877F80932001E92F4D
:10501000F0E0EE0FFF1FE35BFB4FA591B4918FB75C
:10502000F894EC91311103C020952E2301C02E2B52
:105030002C938FBF0895CF93DF9390E0FC01E95349
:10504000FB4F2491FC01EF57FB4F8491882361F1C2
:1050500090E0880F991FFC01E25EFA4FC591D49150
:10506000FC01E35BFB4FA591B491611109C09FB7AF
:10507000F8948881209582238883EC912E230BC09D
:10508000623061F49FB7F8943881822F8095832332
:105090008883EC912E2B2C939FBF06C08FB7F8947A
:1050A000E8812E2B28838FBFDF91CF9108951F9326
:1050B000CF93DF93182FEB0161E00E941B2820970C
:1050C00011F460E004C0CF3FD10539F461E0812FD5
:1050D000DF91CF911F910C949E27E12FF0E0E85CC7
:1050E000FA4FE4914E2F50E0FA013197E231F10589
:1050F00008F09DC08827E557FF4F8F4F0C9433432E
:1051000084B5806884BDC7BD97C084B5806284BD06
:10511000C8BD92C080918000806880938000D09349
:105120008900C093880088C080918000806280934D
:105130008000D0938B00C0938A007EC08091800055
:10514000886080938000D0938D00C0938C0074C0E1
:105150008091B00080688093B000C093B3006CC0B1
:105160008091B00080628093B000C093B40064C0AE
:1051700080919000806880939000D0939900C093B4
:1051800098005AC080919000806280939000D093E4
:105190009B00C0939A0050C08091900088608093DB
:1051A0009000D0939D00C0939C0046C08091A000C9
:1051B00080688093A0008091A0008F7B8093A000E6
:1051C000D093A900C093A80037C08091A00080624E
:1051D0008093A000D093AB00C093AA002DC0809113
:1051E000A00088608093A000D093AD00C093AC0075
:1051F00023C080912001806880932001D0932901F1
:10520000C093280119C08091200180628093200101
:10521000D0932B01C0932A010FC080912001886098
:1052200080932001D0932D01C0932C0105C0C0387C
:10523000D1050CF04BCF45CFDF91CF911F91089551
:105240008F929F92AF92BF92CF92DF92EF92FF9296
:105250006B017C010E944E274B015C01C114D104FB
:10526000E104F104F1F00E944E27DC01CB01881922
:105270009909AA09BB09883E9340A105B10570F3BD
:1052800021E0C21AD108E108F10888EE880E83E017
:10529000981EA11CB11CC114D104E104F10419F73A
:1052A000DDCFFF90EF90DF90CF90BF90AF909F90B9
:1052B0008F9008952FB7F8946091EE0C7091EF0CD9
:1052C0008091F00C9091F10C2FBF08951F920F92D6
:1052D0000FB60F9211242F933F938F939F93AF9309
:1052E000BF938091EE0C9091EF0CA091F00CB091D7
:1052F000F10C3091ED0C23E0230F2D3720F40196B3
:10530000A11DB11D05C026E8230F0296A11DB11DE8
:105310002093ED0C8093EE0C9093EF0CA093F00C87
:10532000B093F10C8091F20C9091F30CA091F40CDD
:10533000B091F50C0196A11DB11D8093F20C9093D4
:10534000F30CA093F40CB093F50CBF91AF919F9127
:105350008F913F912F910F900FBE0F901F90189536
:105360001F920F920FB60F9211240BB60F922F932C
:105370003F934F935F936F937F938F939F93AF93DD
:10538000BF93EF93FF938091E90C9091EA0CA09169
:10539000EB0CB091EC0C892B8A2B8B2B59F1809163
:1053A000E80CE091E60CF091E70C9081892780836E
:1053B0008091E90C9091EA0CA091EB0CB091EC0C6F
:1053C000181619061A061B060CF056C08091E90C37
:1053D0009091EA0CA091EB0CB091EC0C0197A10913
:1053E000B1098093E90C9093EA0CA093EB0CB09375
:1053F000EC0C42C080911D02EDE1F5E0E4919FEFDD
:1054000090931D02E230C9F050F4EE2399F0E130A0
:1054100081F590916F009D7F90936F002AC0E430DA
:1054200019F1E0F0E53029F5909173009D7F90939C
:1054300073001FC010926E001CC0909170009D7F81
:105440009093700091E09093B0009091B100987F9C
:1054500094609093B1001092B3000BC090917100D2
:105460009D7F9093710005C0909172009D7F9093F5
:10547000720060E00E949E27FF91EF91BF91AF9173
:105480009F918F917F916F915F914F913F912F915C
:105490000F900BBE0F900FBE0F901F901895DC0160
:1054A000ED91FC910190F081E02D19946115710549
:1054B00079F0FB0101900020E9F73197AF01461B1D
:1054C000570BDC01ED91FC910280F381E02D1994E2
:1054D00080E090E008954F925F926F927F92EF92FA
:1054E000FF920F931F93CF93DF93CDB7DEB7A197B2
:1054F0000FB6F894DEBF0FBECDBF7C01FA01CB0121
:1055000019A2223008F42AE08E010F5D1F4F422EAF
:10551000512C612C712CBF01A30192010E94DA3F32
:10552000F901CA01015011096A3014F4605D01C02B
:10553000695CD8016C93232B242B252B61F7B801D0
:10554000C7010E94562AA1960FB6F894DEBF0FBE7F
:10555000CDBFDF91CF911F910F91FF90EF907F9082
:105560006F905F904F900895CF93DF93CDB7DEB7E4
:10557000CD5AD1090FB6F894DEBF0FBECDBF7894D7
:1055800084B5826084BD84B5816084BD85B5826048
:1055900085BD85B5816085BD80916E0081608093F9
:1055A0006E00109281008091810082608093810062
:1055B0008091810081608093810080918000816072
:1055C000809380008091B10084608093B1008091CD
:1055D000B00081608093B0008091910082608093E0
:1055E0009100809191008160809391008091900062
:1055F0008160809390008091A10082608093A100DF
:105600008091A10081608093A1008091A0008160C1
:105610008093A0008091210182608093210180917C
:10562000210181608093210180912001816080931C
:10563000200180917A00846080937A0080917A00C2
:10564000826080937A0080917A00816080937A00F2
:1056500080917A00806880937A001092C100109245
:105660006D0710926C071092B8091092DA09109227
:10567000B60981E08093B5091092900961E084E158
:105680000E949E2761E085E10E949E278091B900DB
:105690008E7F8093B9008091B9008D7F8093B9008F
:1056A00088E48093B80085E48093BC000E94CA0D12
:1056B00010927F0B10927E0B10927D0B10927C0B40
:1056C00010927B0B10927A0B8DE991E09093810BF5
:1056D0008093800B8091700B96EF980F943048F078
:1056E0002EEC280F243028F022EC280F283008F068
:1056F00070C02DEB30E030937B0B20937A0B2BE9BD
:1057000031E030937D0B20937C0B2CE231E0309321
:105710007F0B20937E0B943070F02EEC280F2430FA
:1057200050F022EC280F283010F40C940439A0E03B
:10573000B0E00C940639A8E6B0E0E8E6F0E020819D
:10574000943018F08E53883010F081E001C084E06E
:10575000822B8C938091700B96EF980F943058F0B9
:105760002EEC280F243038F022EC280F283030F0AF
:1057700020E030E005C02BE630E002C02DE630E04E
:105780003093780B2093770B943010F49AEF0BC082
:10579000823381F0833381F0843381F092EC980F6F
:1057A000983070F492EC980F81E001C0880F9A95C0
:1057B000EAF707C088E005C084E003C082E001C0CA
:1057C00081E08093790B8091800B9091810B019700
:1057D000F1F780917E0B90917F0B892B21F18091C5
:1057E0003C0690913D062BE084369207E1F000974D
:1057F00011F00E9438278091820B8E7F8093820B5C
:1058000010923B0610923A0684E69BE090933D0688
:1058100080933C06E091770BF091780B908180911A
:10582000790B892B80834EE160E082E00E94B10712
:1058300043E560E081E30E94B10743E568E08DE263
:105840000E94B1070E94CA0D80E2F82E01E0198281
:105850008CED99E00E944D1BF092000264E670E02E
:1058600080E090E00E94202911E040E0BE016F5FDF
:105870007F4F83EE92E00E942724882381F0898560
:1058800080930002982F9D7F913289F0893279F0C0
:1058900068EE73E080E090E00E942029D8CF1330BA
:1058A000B9F368EE73E080E090E00E9420291F5F6A
:1058B0001430D9F664E670E080E090E00E94202980
:1058C00040E0BE016F5F7F4F88EE92E00E94272488
:1058D0008823F1F268EB7BE080E090E00E942029D1
:1058E0008CED99E00E944D1B098341E0BE016F5F82
:1058F0007F4F8DEE92E00E94272485E0898341E06E
:10590000BE016F5F7F4F82EF92E00E94272464EF19
:1059100071E080E090E00E942029098341E0BE010F
:105920006F5F7F4F82EF92E00E942724198240E050
:10593000BE016F5F7F4F87EF92E00E94272488238C
:1059400049F0198240E0BE016F5F7F4F8CEF92E01B
:105950000E94272484E0898341E0BE016F5F7F4F6E
:1059600081E093E00E9427248823C1F08091000207
:105970008132A1F468EE73E080E090E00E9420297B
:105980008CED99E00E944D1B68E873E180E090E0A7
:105990000E942029CE0101960E94F322198241E043
:1059A000BE016F5F7F4F86E093E00E94272488232B
:1059B00079F064E670E080E090E00E94202919828E
:1059C00041E0BE016F5F7F4F86E093E00E94272495
:1059D00011E040E0BE016F5F7F4F8BE093E00E94DB
:1059E0002724811110C068EB7BE080E090E00E94EA
:1059F0002029198341E0BE016F5F7F4F81E093E072
:105A00000E942724E6CF88858111EDCF89858230D9
:105A100050F761E080E090E00E94A23F6FEF81E0EC
:105A200090E00E94A23F61E085E30E941B287CE396
:105A3000E72EF12CE6EBAE2EE4E0BE2EFCEF8F2E2F
:105A4000F4E09F2EA0E53A2EB3E0DB2E16E0212EE7
:105A500002E0C02E1092860A1092840A1092810AE7
:105A60001092800A84E080937F0A0E945A298B0159
:105A700061E080917F0A0E941B2861E080917F0A8B
:105A80000E949E277FB6F89480914606811125C01A
:105A9000F5018491F4019491E82FF0E0EE0FFF1FDF
:105AA000E25EFA4FA591B4918C91982321F461E0C4
:105AB00085E30E949E2761E085E30E941B288CB548
:105AC00080618CBD8CB580648CBD61E084E30E94F4
:105AD0001B2861E083E30E941B28809146068F5FAC
